:020000040800F2
:1000000028330020E1010008470A00083B0A0008E5
:10001000430A0008F50700087712000800000000F6
:10002000000000000000000000000000490100087E
:1000300015080008000000008D010008310D0008BF
:10004000FB010008FB010008FB010008FB010008A0
:10005000FB010008FB010008FB010008FB01000890
:10006000FB010008FB010008FB010008FB01000880
:10007000FB010008FB010008FB010008FB01000870
:10008000FB010008FB010008FB010008FB01000860
:10009000FB010008FB010008FB010008FB01000850
:1000A000FB010008FB010008FB010008FB01000840
:1000B000FB010008A10D0008FB010008FB0100087E
:1000C000FB010008FB010008FB010008FB01000820
:1000D000FB0100082D0F0008310F0008A10F0008D8
:1000E000FB010008FB010008FB010008FB01000800
:1000F000FB010008FB010008FB010008FB010008F0
:10010000FB010008FB010008FB010008FB010008DF
:10011000FB010008FB010008FB010008FB010008CF
:10012000FB010008FB010008FB010008FB010008BF
:10013000DFF80CD000F0BEFA00480047D5210008D7
:100140002833002070470000224B19680868B0E887
:10015000F00F80F30988BFF36F8F4FF0000080F33A
:1001600011884EF00D0E7047000000000648006830
:10017000006880F3088862B661B6BFF34F8FBFF3A3
:100180006F8F00DF00BF00BF08ED00E0EFF30980D4
:10019000BFF36F8F0F4B1A6820E9F00F106008B59E
:1001A0004FF0BF0080F31188BFF34F8FBFF36F8F05
:1001B00003F032F84FF0000080F31188BDE80840EA
:1001C00019680868B0E8F00F80F30988BFF36F8FF3
:1001D000704700BF38000020EFF305807047000033
:1001E0000648804706480047FEE7FEE7FEE7FEE7D1
:1001F000FEE7FEE7FEE7FEE7FEE7FEE7410D00084B
:100200003101000840EA01039B0703D009E008C957
:10021000121F08C0042AFAD203E011F8013B00F8CB
:10022000013B521EF9D27047D2B201E000F8012B17
:10023000491EFBD270470022F6E710B513460A4666
:1002400004461946FFF7F0FF204610BD30B50546BD
:100250002A460B4612F8010B13F8014B08B1A042D5
:10026000F8D01CB1002802D06D1CF1E7284630BD43
:1002700010B5044604E00B7800F8013B03B1491CBB
:10028000521EF8D2204610BD421C10F8011B002956
:10029000FBD1801A704730B505460020034600E0C8
:1002A0005B1C934205D2EC5CC85C201A01D1002C87
:1002B000F6D130BD30B50B46014600202022012486
:1002C00009E021FA02F59D4205D303FA02F5491B24
:1002D00004FA02F52844151EA2F10102F1DC30BD3A
:1002E0002DE9F05F0546002092469B46884606466B
:1002F000814640241BE0284641464746224600F0FE
:10030000FAF953465A46C01A914110D3114618467D
:10031000224600F0E1F92D1A67EB01084F4622460C
:100320000120002100F0D8F917EB00094E41201EF2
:10033000A4F10104DFDC484631462A464346BDE8C5
:10034000F09F2DE9FE4F804681EA0300C00F0C4666
:10035000009021F0004123F00045B8EB0200A941D4
:1003600005D24046214690461C460B46024623F0E5
:100370000040104347D0270DC7F30A00C3F30A51CA
:100380000290401A019040286BDAC3F3130040F446
:10039000801B0098924620B10023D2EB030A63EB46
:1003A0000B0B01985946C0F14002504600F094F9F9
:1003B00006460D4650465946019A00F0ACF910EB3E
:1003C00008006141002487EA115284EAE7731A4366
:1003D00040D0009A62B3019A012A4FEA075215DC15
:1003E000001B61EB02014FF0004202EA0752CDE927
:1003F0000042001C41F5801132462B4600F0ACF95A
:1004000003B0BDE8F08F40462146F9E7001B61EBE1
:100410000201001C41F5801300185B412018A2F571
:10042000001747EB030140EAD570B6196D4111E0A2
:100430006D084FEA360645EAC0754FEA0752001BC1
:1004400061EB0201001C41F5801149084FEA3000C0
:100450000019514132462B4603B0BDE8F04F00F081
:100460006CB90098012240000023D0EB020263EB3C
:10047000E073009821464FEAE074B8EB000061EBAE
:100480000401E9E783F000435BE781F0004158E7AE
:100490002DE9FE4F81EA030404F0004421F00041FD
:1004A00000944FF0000B23F0004350EA01045ED0AB
:1004B00052EA03045BD0C3F30A54C1F30A552C4437
:1004C000A4F2F3340194A0FB0254C1F3130141F4EC
:1004D0008011C3F3130343F4801301FB024400FBB8
:1004E000034E840A970A44EA815447EA8357A4FBDF
:1004F000076802958D0A05FB07854FEA932C04FBDC
:100500000C542705029D4FEA065847EA1637B5EB0B
:1005100008056EEB070C870E920E47EA811742EA38
:100520008312A7FB0201B6EB0B0164EB00042B0D59
:1005300043EA0C335E1844EB1C50DA465146E7FBA5
:100540000201C5F313044FEA0B3343EA14534FEA95
:100550000432019C43EA0603A4F10C040294009CBB
:10056000CDE900B400F0F8F803B0BDE8F08F00204A
:100570000146F9E72DE9F04D81EA030404F0004B50
:1005800021F0004514464FF0000A23F0004150EAE4
:10059000050220D054EA01021DD0C5F30A570246D5
:1005A000C5F31303C1F31300C1F30A5640F48015D9
:1005B00043F48013A7EB0608101BD64608F2FD385B
:1005C00073EB050002D308F1010801E092185B41CA
:1005D000B8F1000F03DA00200146BDE8F08D0020DD
:1005E0004FF48011064684460EE0171B73EB050797
:1005F00005D3121B63EB050306434CEA010C4908C3
:100600004FEA300092185B4150EA0107EDD152EAFF
:10061000030012D082EA040083EA0501084305D0F2
:10062000101BAB4106D20122002306E000224FF04E
:10063000004302E06FF0010253101AEB06004CEB8E
:10064000085110EB0A0041EB0B01BDE8F04D00F042
:1006500074B8C1F30A52C1F3130140F2FF3341F4FD
:1006600080119A4202DA00200146704740F233437B
:100670009A42A2F2334202DC524200F03CB800F04F
:100680002BB8000030B5041E71F1000404DB4FF0FC
:100690000044404264EB0101141E73F1000405DBC9
:1006A0001C464FF00043524263EB0403994208BFDB
:1006B000904230BD064C074D06E0E06840F0010373
:1006C00094E8070098471034AC42F6D3FFF734FDA6
:1006D0003C3D00085C3D0008202A04DB203A00FA7B
:1006E00002F1002070479140C2F1200320FA03F389
:1006F000194390407047202A04DB203A21FA02F087
:100700000021704721FA02F3D040C2F1200291404B
:10071000084319467047202A06DBCB17203A41FAD6
:1007200002F043EAE07306E041FA02F3D040C2F17E
:100730002002914008431946704710B5141E73F10A
:10074000000408DA401C41F1000192185B411A4391
:1007500001D120F0010010BD2DE9F04D92469B46DD
:1007600011B1B1FA81F202E0B0FA80F22032904683
:10077000FFF7B2FF04460F4640EA0A0041EA0B01C8
:1007800053465A46084313D0114653EA010019D084
:10079000C8F140025046FFF7AEFF05460E465046F0
:1007A00059464246FFF798FF084305D0012004E070
:1007B00020463946BDE8F08D0020054346EAE07644
:1007C0002C4337430A986305E40AA0EB0800002293
:1007D000FD0A44EA47540A3002D500200146E9E701
:1007E000010510196941DDE9084500196941BDE8B5
:1007F000F04DA2E700BFFEE710B50021044A1160EA
:100800005160472140F2E73000F0E4FA10BD0000EB
:10081000B0000020704700002DE9F04705468846EB
:10082000914601262E48006898BB2E482C49086046
:100830002AE02B480068006807683846FFF724FD67
:100840000446285D202801D0285DC0B922463946DB
:100850002846FFF720FD90B921480068006890F90C
:100860000C0000280ADB284601F07EFE1C490968BE
:10087000096891F90C10884200D0002608E0184859
:100880000068406816490860154800680028D0D103
:1008900000BF1348006848B146B94A46124940466D
:1008A000FFF7E6FC00200E49086016E00C480068DF
:1008B00068B10B48006800682A464946836840468C
:1008C000984706464EB900200549086005E04A46AB
:1008D00006494046FFF7CCFC00263046BDE8F087CD
:1008E000C8000020B8000020E03B0008383C0008A9
:1008F00070B505460026082002F0B0F9044664B140
:1009000002F0AAFA25600020606005480068446093
:100910000348046002F0B2FA0126304670BD0000C0
:10092000C40000202DE9F0410246002500260020E9
:1009300000230024002791F803C00CF00F0591F864
:1009400003C00CF0100CBCF1000F03D091F802C0F2
:100950004CEA050591F800C0BCF1000F31D01468D5
:1009600000202BE04FF0010C0CFA00F3B1F800C0AE
:100970000CEA03069E4220D183004FF00F0C0CFAC4
:1009800003F7BC4305FA03FC4CEA040491F803C0E6
:10099000BCF1280F06D14FF0010C0CFA00FCC2F894
:1009A00014C00AE091F803C0BCF1480F05D14FF024
:1009B000010C0CFA00FCC2F810C0401C0828D1D36E
:1009C0001460B1F800C0BCF1FF0F34DD54680020A2
:1009D0002EE000F1080C4FF0010808FA0CF3B1F812
:1009E00000C00CEA03069E4221D183004FF00F0C99
:1009F0000CFA03F7BC4305FA03FC4CEA040491F833
:100A000003C0BCF1280F05D100F1080C08FA0CF85E
:100A1000C2F8148091F803C0BCF1480F07D100F16F
:100A2000080C4FF0010808FA0CF8C2F81080401CBE
:100A30000828CED35460BDE8F08110B5FFF782FBE3
:100A400010BD00BFFEE7704770B5002100230F22E4
:100A5000C47804B3154C246804F4E064C4F5E0647D
:100A6000210AC1F10403CA40447804FA03F18478EE
:100A70001440214309010E4C0678A155047804F076
:100A80001F050124AC4005786D11AD0005F1E0258E
:100A9000C5F8004109E0047804F01F050124AC40CA
:100AA000044D0678761145F8264070BD0CED00E047
:100AB00000E400E080E100E002490143024A1160E5
:100AC000704700000000FA050CED00E029B1064A6D
:100AD000D2690243044BDA6104E0034AD2698243DB
:100AE000014BDA61704700000010024029B1064A4C
:100AF00012690243044B1A6104E0034A12698243FB
:100B0000014B1A61704700000010024029B1064AEB
:100B100092690243044B9A6104E0034A926982435A
:100B2000014B9A61704700000010024029B1064A4B
:100B3000D2680243044BDA6004E0034AD26882437D
:100B4000014BDA60704700000010024030B5002110
:100B50000022002400232D4D6D6805F00C0121B109
:100B6000042905D0082923D105E0294D056022E09C
:100B7000274D05601FE0254D6D6805F47012234D6B
:100B80006D6805F48034022505EB92421CB9214DB5
:100B9000554305600BE01D4D6D6805F400351DB132
:100BA0001C4D5543056002E0194D5543056002E0B8
:100BB000174D056000BF00BF144D6D6805F0F001D2
:100BC0000909154D6B5C0568DD4045600F4D6D688A
:100BD00005F4E061090A104D6B5C4568DD408560F5
:100BE0000A4D6D6805F46051C90A0B4D6B5C456890
:100BF000DD40C560054D6D6805F44041890B074D2A
:100C00006B5CC568B5FBF3F5056130BD00100240B3
:100C100000127A0000093D000000002010000020B2
:100C200010B500F001F810BD0CB500200190009047
:100C30003348006840F480303149086000BF3048D4
:100C4000006800F4003000900198401C019000986A
:100C500018B90198B0F5A06FF1D12948006800F4E7
:100C6000003010B10120009001E0002000900098B9
:100C7000012843D12348006840F010002149086052
:100C80000846006820F0030008600846006840F04D
:100C9000020008601A4840681949486008464068E0
:100CA00048600846406840F48060486008464068F4
:100CB00020F47C1048600846406840F4E810486022
:100CC0000846006840F08070086000BF0C4800686B
:100CD00000F000700028F9D00948406820F00300B7
:100CE000074948600846406840F00200486000BF7D
:100CF0000348406800F00C000828F9D10CBD000042
:100D00000010024000200240042808D14FF0E021EA
:100D1000096941F004014FF0E022116107E04FF052
:100D2000E021096921F004014FF0E02211617047D0
:100D300010B502F01DFD012801D002F0D9FA10BD56
:100D400010B51348006840F00100114908600846DA
:100D50004068104908400E494860084600680E493E
:100D600008400B4908600846006820F480200860AD
:100D70000846406820F4FE0048604FF41F00886079
:100D8000FFF74EFF4FF000600449086010BD0000FF
:100D9000001002400000FFF8FFFFF6FE08ED00E043
:100DA00010B50121094800F054F8012808D108487D
:100DB00002684068521C40F1000005490A60486022
:100DC0000121024800F036F810BD00000004004088
:100DD000B00000207FB505460C4601210220FFF738
:100DE00075FEADF80850ADF804400020ADF80A00DB
:100DF000ADF8060001A90E4800F046F801221146A0
:100E00000B4800F037F81D208DF8000001208DF808
:100E1000010000208DF8020001208DF803006846D3
:100E2000FFF712FE0121024800F007F87FBD000025
:100E300000040040CA430282704721B1028842F098
:100E40000102028004E002884FF6FE731A4002801D
:100E5000704730B50246002000230024158A05EAB9
:100E60000103958905EA010413B10CB1012000E0EA
:100E7000002030BD1AB183890B43838102E083894E
:100E80008B43838170470000002202881D4B9842EB
:100E90000ED01D4B98420BD0B0F1804F08D01B4BA9
:100EA000984205D01A4B984202D01A4B984204D16E
:100EB0004FF68F731A404B881A43174B984207D04E
:100EC000164B984204D04FF6FF431A40CB881A4382
:100ED00002808B8883850B8803850A4B98420BD050
:100EE000094B984208D00E4B984205D00D4B9842C2
:100EF00002D00D4B984201D10B7A038601238382E5
:100F000070470000002C0140003401400004004004
:100F100000080040000C0040001000400014004099
:100F2000004001400044014000480140704700007B
:100F300038B540F22551164800F0D9F830B31448BE
:100F400000F090F9C4B20D2C01D00A2C09D1214631
:100F50000F4800F08CF969460E48006802F09CF8D2
:100F600038BD0D2C12D00A2C10D00B4800687F28F9
:100F70000CD22146064800F07AF90848064909686B
:100F8000445405480068401C0349086000BFE7E777
:100F9000004400401C00002014000020F400002049
:100FA00010B540F225510D4800F0A1F8A0B10B4852
:100FB00000F058F9C4B20A4800687F2809D20948ED
:100FC00007490968445406480068401C0449086001
:100FD00002E005A000F0A4F910BD000000480040A8
:100FE000D0000020A82A002055415254335F527887
:100FF00042756666657228554152545F4D353331EE
:1010000030292069732066756C6C210001F4007230
:10101000B2F5007F00D100BFCA430280704721B102
:10102000828942F40052828104E082894DF6FF7386
:101030001A4082817047000010B50446204884425F
:1010400009D101218803FFF771FD00214FF4804091
:10105000FFF76CFD32E01B48844209D101214804AE
:10106000FFF744FD00214FF40030FFF73FFD25E07E
:101070001548844209D101218804FFF737FD00217A
:101080004FF48020FFF732FD18E01048844209D168
:101090000121C804FFF72AFD00214FF40020FFF7CB
:1010A00025FD0BE00A48844208D101210805FFF71D
:1010B0001DFD00214FF48010FFF718FD10BD00004A
:1010C000003801400044004000480040004C00400F
:1010D0000050004002460020B1F5007F00D100BF63
:1010E00013880B400BB1012000E00020704770B561
:1010F0000246002400230025002040F66A16B14273
:1011000000D100BFC1F3421501F01F03012606FA0A
:1011100003F3012D02D19689334006E0022D02D15E
:10112000168A334001E0968A33400C12012606FAF3
:1011300004F41688344013B10CB1012000E0002003
:1011400070BDF0B50346002400260025002040F6BF
:101150006A17B94200D100BF1846C1F3421401F02A
:101160001F06012707FA06F5012C01D10C3004E017
:10117000022C01D1103000E014301AB107682F435F
:10118000076002E00768AF430760F0BD2DE9F04754
:1011900086B005460E460024A24600BFA1460027A1
:1011A000B08900B100BF2F462C8A4CF6FF70044076
:1011B000F08804432C82AC894EF6F3100440B088CA
:1011C00031890843718908430443AC81AC8A4FF6E6
:1011D000FF400440B0890443AC8201A8FFF7B6FC8D
:1011E0001F48874202D1DDF810A001E0DDF80CA015
:1011F000A88900F4004040B10AEBCA0000EB0A10D5
:1012000031684900B0FBF1F807E00AEBCA0000EBD7
:101210000A1031688900B0FBF1F86420B8FBF0F0E7
:1012200004012009642101FB1089A88900F4004011
:1012300040B1322000EBC900B0FBF1F000F0070034
:10124000044308E0322000EB09106421B0FBF1F008
:1012500000F00F0004432C8106B0BDE8F0870000C9
:101260000038014001468888C0F308007047C1F388
:1012700008028280704700BFFEE7000010B500241E
:1012800006E0054901EB0410FFF732FB601CC4B215
:10129000022CF6D310BD0000D4000020FFF7EEFFB3
:1012A00024E04EF66021012001F052FD0446012C9D
:1012B0001CD10FA000F034F8642214491448FFF741
:1012C000ABFA022213A1144800F070FA0F48FEF79F
:1012D000DBFF05462A460D490F4800F067FA20213A
:1012E0000B48FEF7A8FF00200C490860D9E7000072
:1012F0005265636569766564206120434C492043EB
:101300006F6D6D616E640D0A000000001401002015
:10131000F40000200D0A00000044004014000020EA
:101320000FB410B5C2B04FF4807102A8FEF783FF6E
:1013300045A80190F92102A8019B449A00F056FAB1
:101340000020019002A8FEF79FFF0446224602A952
:10135000034800F02BFA42B010BC5DF814FB00000B
:10136000004400402DE9F05F05460F46904699463F
:1013700000264FF4FA7A80211E48FEF75CFF002019
:101380001D4908602846FEF77FFF83465A462946D6
:101390001A4800F00BFA2A4619491AA0FFF7C0FFB5
:1013A00027E031461BA0FFF7BBFF06FB0AF04845CC
:1013B00006D313491CA0FFF7B3FF0020BDE8F09F40
:1013C000002410E004EB840007EB80010948FEF7DD
:1013D0003DFF30B1621C0A4919A0FFF7A1FF601C54
:1013E000ECE7601CC4B24445ECDB504600F09CFEC8
:1013F000761CD6E7A82A0020D00000200048004034
:10140000CC3B000825732853656E642D3E25730D73
:101410000A0000007265747279436F756E74733AD6
:1014200020256C640D0A00002573286578656375B6
:1014300074652074696D656F757421290D0A00004B
:101440002573286D6174636820696E646578202552
:1014500064290D0A0000000000F002F800BFFEE75A
:1014600070B594B028221D490AA8FEF7CBFE2822A9
:101470001A4928316846FEF7C5FE47F2305301226B
:101480000AA917A0FFF76EFF0646012E1FD11748C5
:10149000046840680EE041F288330222694614A0D5
:1014A000FFF760FF0646022E00D104E04FF4FA7009
:1014B00000F03AFEEFE700BF0C48056840682A1BC1
:1014C0000E490FA0FFF72CFF281B14B070BD0B496D
:1014D00011A0FFF725FF0020F7E700007C3B000884
:1014E00041542B4E52420D0A00000000B000002073
:1014F00041542B43474154543F0D0A005C3B0008C4
:1015000025732852656754696D653A20256C6420FF
:101510006D73290D0A000000257328576169742036
:10152000626F6F7420696E666F726D6174696F6E41
:101530002074696D656F757421290D0A0000000023
:101540001CB5044601F088FC0D48012100230A0265
:10155000CDE900100BA10E4802F0DAF80D48012188
:1015600000230A02CDE900100BA10E4802F0D0F8CA
:101570000D48006801F018FD01F080FC1CBD000062
:101580001C000020636C695F7461736B00000000D5
:101590009D120008200000206D353331305F7461EA
:1015A000736B0000591400081800002030B587B094
:1015B00004460D46774884424AD1FFF73DFD01219C
:1015C0000420FFF7A3FA01218803FFF79FFA6015B3
:1015D000ADF8180018208DF81B0003208DF81A00B4
:1015E00006A96D48FFF79EF92015ADF818000420F4
:1015F0008DF81B0006A96848FFF794F902950020B2
:10160000ADF80C00ADF80E00ADF81000ADF8140008
:101610000C20ADF8120002A92046FFF7B7FD01210A
:101620002046FFF7FCFC25208DF8040003208DF8F0
:1016300005008DF8060001208DF8070001A8FFF7CE
:1016400003FA012240F225512046FFF77AFD9FE080
:10165000524884424AD1FFF7EFFC01210420FFF7F2
:1016600055FA01214804FFF731FA0420ADF81800BB
:1016700018208DF81B0003208DF81A0006A9464893
:10168000FFF750F90820ADF8180004208DF81B0072
:1016900006A94148FFF746F902950020ADF80C0075
:1016A000ADF80E00ADF81000ADF814000C20ADF848
:1016B000120002A92046FFF769FD01212046FFF72D
:1016C000AEFC26208DF8040003208DF805008DF86F
:1016D000060001208DF8070001A8FFF7B5F90122E7
:1016E00040F225512046FFF72CFD51E02C48844262
:1016F0004AD1FFF7A1FC01210820FFF707FA0121D9
:101700008804FFF7E3F92015ADF8180018208DF8CC
:101710001B0003208DF81A0006A92248FFF702F9E2
:10172000E014ADF8180004208DF81B0006A91D4830
:10173000FFF7F8F802950020ADF80C00ADF80E00A8
:10174000ADF81000ADF814000C20ADF8120002A99D
:101750002046FFF71BFD01212046FFF760FC2720F4
:101760008DF8040003208DF805008DF80600012097
:101770008DF8070001A8FFF767F9012240F2255113
:101780002046FFF7DEFC03E00748844200D000BF9C
:1017900007B030BD0038014000080140004400405F
:1017A00000480040000C0140004C00402DE9F04191
:1017B00007460D461646002401F04EFB00BF0FE021
:1017C00040213846FFF722FC295D3846FFF74FFDE0
:1017D00000BF40213846FFF77DFC0028F9D0641C8B
:1017E000B442EDD301F04AFBBDE8F0817CB5491E5F
:1017F0001C461546CDE90001044B6A4621462846A1
:1018000000F0C8F8009A002111707CBDC3200008C8
:1018100002E008C8121F08C1002AFAD170477047B9
:10182000002001E001C1121F002AFBD17047000017
:101830002DE9FF5FDDE90220010DDDF838B002433C
:1018400018D044F61050A1F2FF3141430D140F9807
:10185000012820D0A5EB0B00401C5FEA000A4FF0E6
:101860000004474EDFF81C91A046504616D5CAF139
:10187000000728E00F98012443A2012808D0002186
:1018800000980F9BC0E90021C0E90243BDE8FF9F1B
:101890006FEA0B01F4E7CBF10000DEE7074612E048
:1018A000F80707D02246334640464946FEF7F0FD8A
:1018B000804689462246334610461946FEF7E8FD23
:1018C00004460E467F10002FEAD1DDE90201BAF18D
:1018D000000F42464B4602DAFEF7DAFD01E0FEF762
:1018E00049FE04460E460022284BFEF7CBFE03D8E5
:1018F0004FF0FF30014607E00022254B20463146DD
:10190000FEF71FFDFEF7A5FE102409E0002C0ADB00
:101910000A220023FEF7E4FC019B30321A55641EB4
:1019200050EA0102F2D1641C019AC4F1110314447B
:101930000F9A012A03D0012208430DD10AE008437F
:1019400004D000204FF0110B0F9080E7A3EB0B05A4
:101950006D1E0DE05B4504DD4FF0000205F1010551
:1019600004E003DA4FF00002A5F10105002AECD0F3
:1019700000980F99C0E90231C0E9004586E70000F0
:10198000000024400000F03F300000000000F04361
:101990000000E03F2DE9FF4F95B09B468946064683
:1019A00000250FE2252877D100242746F84A012197
:1019B000059400E0044316F8013F203B01FA03F0D0
:1019C0001042F7D130782A2811D06FF02F033078E9
:1019D000A0F13002092A16D8059A44F0020402EB5D
:1019E000820203EB42021044761C0590EFE759F89F
:1019F000042B0592002A03DA504244F40054059067
:101A000044F00204761C30782E2816D116F8010F07
:101A100044F004042A280DD06FF02F023078A0F192
:101A20003003092B09D807EB870302EB4303C718E0
:101A3000761CF3E759F8047B761C30786C280FD0BD
:101A400006DC4C2817D068280DD06A2814D104E091
:101A5000742810D07A280FD10DE044F400140AE065
:101A600044F4801401E044F440147278824202D1BC
:101A700004F58014761C761C307866280BD013DCB5
:101A8000582877D009DC002875D04528F6D046289C
:101A9000F4D047281AD19DE118E0632835D0642896
:101AA00079D0652812D195E1702873D008DC6728B9
:101AB000F1D069286FD06E280DD06F2806D1B5E01F
:101AC00073282CD0752875D0782874D05A46179969
:101AD00090476D1C75E1C4F30250022809D0032819
:101AE0000DD0D9F8001004280DD00D6009F10409BB
:101AF00067E1D9F80010EA17C1E90052F6E7D9F812
:101B000000100D80F2E70D70F0E719F8041B8DF856
:101B1000001000208DF80100EA46012003E059F88A
:101B200004AB4FF0FF3061074FF0000102D40DE02D
:101B300008F101018846B9420FDA8045F8DB1AF84E
:101B400008100029F4D108E008F10101884681421B
:101B5000FADB1AF808100029F6D105985B46A0EBCD
:101B6000080721463846179A00F094FA284400EBFB
:101B7000080507E04DE029E10DE01AF8010B5A468F
:101B800017999047B8F10108F7D25B4621463846CD
:101B9000179A13E142E00A220092C4F302524FF076
:101BA000000A022A08D059F804CB032A4FEAEC7144
:101BB0000AD00DE029E02AE009F1070121F007022F
:101BC000F2E802C1914609E00FFA8CFC4FEAEC7191
:101BD000042A03D14FFA8CFC4FEAEC71002907DA92
:101BE0000A460021DCF1000C61EB02012D2202E02B
:101BF000220504D52B228DF80420012203E0E20700
:101C000001D02022F7E7904659E00A2102E0102295
:101C10000DE010214FF0000A00910BE010224FF070
:101C2000000A44F004040827009203E008224FF061
:101C3000000A0092C4F30252022A05D059F804CBDC
:101C40000021032A08D009E009F1070121F0070269
:101C5000F2E802C1914605E01FFA8CFC042A01D18A
:101C60000CF0FF0C4FF00008220728D5702806D092
:101C7000009B83F0100353EA0A0305D00EE04022D4
:101C80008DF80420012208E05CEA010206D030222F
:101C90008DF804208DF8050002229046009B83F009
:101CA000080353EA0A030AD15CEA010201D1620780
:101CB00005D530228DF804204FF001087F1E5828EA
:101CC00004D034A003900EA802900DE036A0F9E7EE
:101CD00053466046009AFEF703FB84460398825CF5
:101CE0000298401E029002705CEA0100F0D1029856
:101CF00006A9081A00F1200A600702D524F48034EE
:101D000000E00127574502DDA7EB0A0000E00020B4
:101D100000EB0A01009005984144401A0590E00349
:101D200006D45B462146179A059800F0B3F905449E
:101D3000002706E001A85A46C05D179990476D1C20
:101D40007F1C4745F6DBE0030CD55B462146179A1E
:101D5000059800F09FF9054404E030205A46179991
:101D600090476D1C0099481E00900029F5DC08E0A2
:101D7000029802995A460078491C02911799904797
:101D80006D1CBAF10001AAF1010AF1DC65E1000065
:101D90000928010030313233343536373839616241
:101DA0006364656600000000303132333435363705
:101DB00038394142434445460000000000F058F9DC
:101DC0000544761C307800287FF4ECAD19B0284625
:101DD000BDE8F08F620700D4062709F1070222F060
:101DE000070CFCE80223E14603F000485FEA080C18
:101DF00002D00FF2702C0DE05FEA045C02D50FF206
:101E0000682C07E05FEAC47C02D00FF2602C01E08E
:101E1000AFF2700C4FF0FF3823F00043CDF850C004
:101E200065280CD006DC452809D046281DD0472857
:101E30003DD13DE0662818D067287ED138E00021EA
:101E4000112F01DB112000E0781CCDE9000106A96B
:101E50000EA8FFF7EDFCDDE90F010E9A03910021BA
:101E6000009207F1010A04914DE04FF00040009705
:101E7000CDE9011006A90EA8FFF7DAFCDDE90F0293
:101E800003920E9B11990022DDF80CA0009304929E
:101E900011B9791C00EB010AB7EB0A0004D4C0F1B8
:101EA000FF3007F1010A0490AAEB0700019044E01B
:101EB000012F00DA01270021112F01DD112000E0A0
:101EC0003846CDE9000106A90EA8FFF7B1FCDDE90F
:101ED0000F010E9A0391002104910092BA46210746
:101EE0000CD40399514500DA8A46BAF1010F05DD99
:101EF000009AAAF10101515C302908D0B84202DAF7
:101F000010F1040F06DA0121CDE9011015E0AAF164
:101F10000101E9E7002805DC049901440491AAEBDA
:101F2000000102E0411C514500DD8A460499401A37
:101F3000401C01904FF000400290200704D401980B
:101F4000504501DBCDF8048000208DF84F00029849
:101F50000DF14F07B0F1004F25D02B200E900298C5
:101F60004FF0020800280CDA404202902D200E901B
:101F700007E00A210298FEF79DF93031029007F838
:101F8000011DB8F10001A8F10108F2DC0298002857
:101F9000EFD1791E0E980870307800F0200040F0E4
:101FA000450007F8020D12A8C01B00F1070814989D
:101FB000007800B1012000EB0A01019801EBE0710B
:101FC00005984144401A401E0590E00306D45B4644
:101FD0002146179A059800F05DF80544149800789A
:101FE00018B15A46179990476D1CE00324D55B46FB
:101FF0002146179A059800F04DF805441CE0049816
:10200000002807DBDDE90301884203DD0098405C1E
:10201000179901E0179930205A469047049805F126
:102020000105401C04900198401E019004D12E200F
:102030005A46179990476D1CBAF10001AAF1010A9E
:10204000DDDC05E017F8010B5A46179990476D1C27
:10205000B8F10001A8F10108F4DC5B462146179AAB
:102060000598ABE62D0000002B00000020000000CA
:102070002DE9F041044600251E461746880404D485
:1020800005E039462020B0476D1C641EF9D528466E
:10209000BDE8F0812DE9F041044600251E4690463A
:1020A000C80301D5302700E02027880404D505E0C7
:1020B00041463846B0476D1C641EF9D52846BDE838
:1020C000F0814A68002A06D00A68531C0B60107021
:1020D0004868401E4860704710B50420FEF714FEA3
:1020E0000E4800680E49B0FBF1F00E4908700B482D
:1020F00000680B49B0FBF1F44FF47A7044434FF0A1
:10210000E020006940F002004FF0E021086108463D
:102110004461006940F00100086110BD2400002006
:1021200040420F00AC00002010B5044601F020FB37
:10213000012803D0204600F01DFF08E04FF47A711B
:1021400004FB01F000F022F801A0FFF7E9F810BD50
:10215000456E746572204E6F6D616C2044656C61D4
:1021600079204D6F64652C2042656361757365202D
:102170007461736B5343484544554C45525F4E4F11
:10218000545F5354415254454400000070B5034617
:1021900000224FF0E02675690D4E367803FB06F4F9
:1021A0004FF0E026B16910E04FF0E026B0698842B8
:1021B0000BD0884202D20E1A324402E02E1A0E448C
:1021C00032440146A24200D300E0EDE700BF70BDFB
:1021D000AC0000201CB5FFF77FFF4FF4A060FEF7B6
:1021E0006BFC4FF4E1310F48FFF7E0F94FF4E131B8
:1021F0000D48FFF7DBF94FF4E1310C48FFF7D6F952
:102200000BA0FFF78DF81048012100230A02CDE949
:1022100000100EA1104801F07BFA00F0BBFF002077
:102220001CBD000000440040004800400038014050
:10223000416C6C207561727420696E697469616C9F
:10224000206F6B210D0A000018000020737461726A
:10225000745F7461736B0000411500082DE9F04153
:1022600005460E461C4807681C480068001D00F023
:10227000A9FD50B91948006890F82C100120884039
:1022800017490968814316480160681C38B936B19E
:1022900012480168091D134800F0D2FD1AE07C19AC
:1022A0000E4800684460BC4207D20C480168091D12
:1022B0000D48006800F0AAFD0CE008480168091DFF
:1022C0000A48006800F0A2FD09480068844201D273
:1022D00007480460BDE8F0814C0000203800002071
:1022E000500000206C020020400000203C00002034
:1022F0006800002010B5044600F0AEFD24480068D8
:10230000401C234908602348006840B92148046004
:102310000846006801280DD100F02CFA0AE01E489A
:10232000006838B91B480068C06AE16A884201D871
:102330001848046019480068401C1849086008469D
:102340000068606494F82C100120884014490968E2
:10235000084313490860E16A01EB8101114A02EB6D
:102360008100211D00F06CFD00F088FD0A48006826
:1023700068B108480068C06AE16A884207D24FF035
:10238000805009490860BFF34F8FBFF36F8F10BDB6
:102390004800002038000020540000206400002085
:1023A00050000020B801002004ED00E010B500F05E
:1023B00053FD10480068D0B90F4800F017FD0F48D2
:1023C00000F014FD0C480E4908600C480D490860E7
:1023D00000221021052000F0A5FF064908600846EC
:1023E000006820B108A10348006800F087FD00F0F4
:1023F00045FD10BD840000208002002094020020D2
:102400007C00002080000020546D7251000000000C
:1024100010B516E000F020FD0C48C068C468201D0F
:1024200000F0D0FC0A480068401E094908600948CD
:102430000068401E0749086000F020FD204600F0BB
:1024400075F8044800680028E4D110BD5802002047
:10245000480000204400002070B504460D46206C62
:1024600070B1216CE0680844E0606168E06888420F
:1024700001D32068E0602846226CE168FDF7C2FEC7
:1024800070BD2DE9F04104460F4615464FF0000897
:10249000A66B206C40B9206860BB606801F00CFA44
:1024A00080460020606025E07DB93946226CA06836
:1024B000FDF7A8FE216CA0680844A060D4E90110D3
:1024C000884217D32068A06014E03946226CE06887
:1024D000FDF798FE216CE068401AE0602168E06832
:1024E000884203D2216C6068401AE060022D01D15D
:1024F00006B1761E701CA0634046BDE8F081000066
:1025000070B504460D46164602A0FEF709FF0120ED
:1025100070BD0000656E7465722064656275672029
:102520006C6576656C20636C690D0A0010B5044615
:10253000206B00F0B3FC204600F0B0FC10BD0000A2
:102540000146084A126812680AB9012200E0002216
:102550000A600A6822B9034A1268D268106800E06B
:10256000002070477C0000200146002000220AE085
:102570000B78202B05D1012A04D0431C58B201222C
:1025800000E00022491C0B78002BF1D1012A01D177
:10259000431E58B27047000070B504460D461646FB
:1025A00002A0FEF7BDFE012070BD0000656E7465DF
:1025B000722067657473797374696D6520636C69E3
:1025C0000D0A000030B54FF42053174800F00704FF
:1025D0002CB1C01D20F00700134C041B1B1B02462E
:1025E000124C22600024114D6C60D018083820F085
:1025F00007000F4C206000240D4D2D686C600C4DC1
:102600002D682C601146441A4C60094C24680C60FB
:10261000084D4C682C60084D4C682C604FF000440D
:10262000064D2C6030BD0000A80200209000002064
:1026300098000020A00000209C000020A4000020A2
:102640002DE9F04106460D4617460E48006810B9C0
:102650000D480C4908600B48006800682A4641682C
:102660003046FDF705FE07480068406805490860E8
:102670000846006808B9002400E001242046BDE8AF
:10268000F0810000CC000020B800002000BFFFF760
:10269000BFFE064800680128F9D94FF08050044970
:1026A0000860BFF34F8FBFF36F8FF0E7B8010020D2
:1026B00004ED00E02DE9F04106460D461746984628
:1026C000069C0DB9246000E02760E66325640121C3
:1026D000204600F043FE84F850800020A064BDE84E
:1026E000F0812DE9F05F81460F4690469A460A9E9A
:1026F0000C9C4FEA8801A522206BFDF795FDA8F1FF
:102700000100216B01EB800B2BF0070B002507E08C
:10271000795D04F134004155785D00B902E06D1C2B
:10272000102DF5D300BF002143200155052E00D305
:102730000426E662E66400202065201D00F063FBAD
:1027400004F1180000F05FFB2461C6F10500A061F0
:10275000646200206065A06584F85C0052464946CA
:10276000584600F0E3FA20600B9808B10B9804601B
:10277000BDE8F09F10B5002407E004EB84010F4A88
:1027800002EB810000F032FB641C052CF5D30C48F1
:1027900000F02CFB0B4800F029FB0B4800F026FB57
:1027A0000A4800F023FB0A4800F020FB04480949CE
:1027B000086004480849086010BD0000B801002006
:1027C0001C02002030020020440200205802002099
:1027D0006C0200203C0000204000002010B50146A3
:1027E000164800E0006803688B42FBD3024643684A
:1027F00013448B4204D143684C6823444360014630
:102800000A464B6813440468A34211D10C4C036878
:102810002468A34208D04B680468646823444B6072
:1028200003681B680B6005E0054B1B680B6001E04B
:1028300003680B60884200D0016010BD900000204A
:10284000980000202DE9F04104460D4616461F462B
:102850004FF0000865602461B5420CD8F01BA169F7
:10286000884202D34FF0010811E0211D0948006899
:1028700000F0CCFA0BE0BE4204D2BD4202D34FF0CE
:10288000010804E0211D0448006800F0BFFA40463A
:10289000BDE8F081800000207C00002070B5054676
:1028A00000F0DAFAA86B08B9012400E0002400F077
:1028B000E5FA204670BD70B5054600F0CDFAA86B6C
:1028C000E96B884201D1012400E0002400F0D6FA2F
:1028D000204670BD2DE9F3410D460098846C002719
:1028E000A06BE16B88421BD294F945602A46694689
:1028F0002046FFF7C6FD0746701C60B9606A08B93C
:10290000012000E0002050B904F1240001F016F885
:1029100028B1012703E0701C40B284F8450000BFD5
:102920003846BDE8FC810000F8B505460E46104863
:102930000068C068C468201D00F044FAE0690128FE
:1029400011D1A06941192B4632462046FFF77AFF84
:1029500048B1002003462A4601460090204601F077
:10296000BFF8074600BF2046616A8847F8BD0000EF
:102970007C000020F0B587B056E00398002805DA07
:1029800004AED6E90020B168904700BF0398002844
:102990004ADB059C606908B9012000E0002010B9FD
:1029A000201D00F00FFA02A800F09EF805460398DB
:1029B0000A2837D2DFE800F0090507252732060884
:1029C000262800BF00BF00BF00BF0498A26981187D
:1029D00003462A462046FFF735FF88B12046616A44
:1029E0008847E06901280BD1002000900498A16974
:1029F000421800231946204601F072F8074600BF2E
:102A000011E000BF0FE000BF0498A061A069411968
:102A10002B462A462046FFF715FF04E0204600F02B
:102A20003DFA00E000BF00BF002203A90348006890
:102A300000F0BEFD0028A0D107B0F0BD840000204A
:102A4000F8B505460C4600F0DFFB684600F04CF890
:102A50000646009820BB44B9B54206D800F0AEFF48
:102A600031462846FFF760FF1CE03CB10E48006885
:102A7000006808B9012000E000200446A91B224696
:102A80000A48006800F050FA00F098FF50B94FF083
:102A9000805007490860BFF34F8FBFF36F8F01E08D
:102AA00000F08CFFF8BD00008000002084000020B2
:102AB00004ED00E00A490968096809B9012100E04C
:102AC000002121B14FF0FF31064A116006E00449B0
:102AD0000968C968C868034A416811607047000006
:102AE0003C0000206800002070B5044600F050FE55
:102AF000054607480068854204D200F00BF8012023
:102B0000206001E00020206001480560284670BD7B
:102B10008C0000202DE9F84326E01D480068C068BD
:102B200005681B480068C068C468201D00F04AF9A9
:102B30002046616A8847E069012815D1A0694619D5
:102B4000AE4207D966602461211D1148006800F07B
:102B50005DF909E0002003462A4601460090204620
:102B600000F0BEFF804600BF09480068006808B951
:102B7000012000E000200028CFD005480768054864
:102B800000680349086003480760BDE8F883000057
:102B90007C0000208000002000BFBF2080F311884F
:102BA000BFF34F8FBFF36F8F00BF00BFFEE708B5C5
:102BB00000BF6846FFF7C4FC044620460099FFF7B3
:102BC0003FFFFFF7D7FEF4E770B5044600F044F985
:102BD00094F945501AE0A06C38B100212046FFF767
:102BE00079FE88B100F052FA0EE0606A08B901205F
:102BF00000E0002038B904F1240000F09FFE18B175
:102C000000F044FA00E003E0681E45B2002DE2DC6B
:102C100000BFFF2084F8450000F030F900F01CF9F7
:102C200094F9445010E0206908B9012000E0002028
:102C300048B904F1100000F081FE08B100F026FA56
:102C4000681E45B200E001E0002DECDC00BFFF2073
:102C500084F8440000F012F970BD00002DE9F04145
:102C600005464FF0000800F0CFFA2B48006808B97D
:102C7000FFF7A8FC294800682840002847D145B143
:102C8000083505F0070020B105F00700C0F1080085
:102C90000544002D3BD022480068854237D8214E9C
:102CA0003046046801E0264624686068A84202D2E3
:102CB00020680028F7D118480068844227D030687F
:102CC00000F10808206830606068401B102807D9B0
:102CD00067196068401B786065603846FFF77EFDC5
:102CE0000F4960680968081A0D49086008460068BD
:102CF0000D490968884203D2094800680A490860FA
:102D0000064960680968084360600020206000F0A0
:102D100055FE4046BDE8F08198000020A400002048
:102D20009C00002090000020A0000020001F4FF019
:102D300080730360001F21F001030360001F034B39
:102D4000036014380260203870470000992B000897
:102D500070B506460D4600F07FF818480068806D93
:102D600088B901201549096881F85C005DB101212D
:102D70002846FFF773FA4FF0805011490860BFF3FF
:102D80004F8FBFF36F8F00F079F800F065F80B48B4
:102D90000068846D4CB126B1002008490968886537
:102DA00003E0601E05490968886500200349096839
:102DB00081F85C0000F062F8204670BD3800002009
:102DC00004ED00E001460A69D1E901309860D1E9DB
:102DD000010358605068884201D188685060002023
:102DE00008611068401E10601068704700F108010B
:102DF00041604FF0FF31816000F10801C160016165
:102E000000210160704700210161704710B5024642
:102E10000B685C1C0CB9106907E002F1080000E0C7
:102E20004068446824689C42FAD944684C604C6805
:102E3000A160886041600A611468641C146010BD60
:102E400042684A6093688B6093685960916008613A
:102E500003685B1C0360704700BFBF2080F31188CC
:102E6000BFF34F8FBFF36F8F00BF03480068401C54
:102E70000149086070470000A8000020064800686B
:102E8000401E054908600846006820B9002080F30C
:102E9000118800BF00BF7047A800002070B506462B
:102EA0003546D6B1083D2C460C4960680968084093
:102EB00098B1206888B909496068096888436060EA
:102EC00000F0A2F9064960680968084404490860EE
:102ED0002046FFF783FC00F071FD70BDA4000020C8
:102EE0009C00002000204FF0E0210861886102482A
:102EF00048610720086170473F1901000246002021
:102F00000BE0084B53F8303033B9064B43F8301020
:102F100003EBC0035A6002E0401C0828F1D300BF55
:102F200070470000780100202DE9F04105460E466B
:102F300017462C46FFF790FF94F94400401C10B947
:102F4000002084F8440094F94500401C10B900208A
:102F500084F84500FFF792FFA06B28B93A46314646
:102F600004F1240000F002F92046FFF72DFEBDE831
:102F7000F081000070B50446002544B100F044F92A
:102F800000212046FFF76AF900F018FD05463DB91B
:102F90004FF0805003490860BFF34F8FBFF36F8F2E
:102FA00070BD000004ED00E070B50546FFF754FF6A
:102FB00015B92748006800E028460446201DFFF7A1
:102FC00001FF78B9E06A00EB8000224951F8200047
:102FD00040B994F82C10012088401F4909688143AA
:102FE0001D480160A06A18B104F11800FFF7EAFE5D
:102FF0001A480068401C1949086015480068844256
:1030000009D1211D1648FFF71BFF16480068401C18
:103010001449086009E014480068401E124908601D
:103020002046FFF783FAFFF745FDFFF727FF0F481C
:10303000006858B106480068844207D14FF08050BC
:103040000B490860BFF34F8FBFF36F8F70BD000057
:1030500038000020B801002050000020640000204B
:1030600058020020440000204800002054000020A6
:1030700004ED00E003490968016003490968416003
:1030800070470000600000204C0000200120014932
:10309000086070475C0000202DE9F04105460E46AF
:1030A0002C4600BFBF21EFF3118081F31188BFF3DD
:1030B0004F8FBFF36F8F00BF074694F85C800220EC
:1030C00084F85C00A06D401CA065B8F1010F2AD106
:1030D00018480068A8B9201DFFF774FE94F82C105A
:1030E0000120884014490968084313490860E16ACF
:1030F00001EB8101114A02EB8100211DFFF7A0FEC7
:1031000004E004F118010E48FFF79AFE0D49E06A49
:103110000968C96A884206D916B10120306002E008
:1031200001200949086000BF87F3118800BFBDE88E
:10313000F08100007000002050000020B801002045
:1031400044020020380000205C00002070B50546D5
:103150000C460548016818312846FFF757FE012143
:103160002046FFF77BF870BD3800002070B506469A
:103170000D4614460648016818313046FFF760FED8
:103180000CB14FF0FF3521462846FFF767F870BDB8
:10319000380000201CB5154800210B468022CDE9DF
:1031A000001013A1144800F0B3FA0446012C02D118
:1031B00000F078FC0446012C16D100BFBF2080F33C
:1031C0001188BFF34F8FBFF36F8F00BF4FF0FF30F9
:1031D0000A49086001200A4908600020094908607E
:1031E000FDF70AFB00F06AF81CBD00006C0000202F
:1031F00049444C45000000008D260008680000206E
:10320000540000204C00002002480068401C014986
:1032100008607047700000202048006818B1012045
:103220001F49086038E000201D4908601D490868F2
:1032300049681D490860084600681C4909688842B9
:103240000BD91B49096801F15400496D164A1268EF
:10325000164B1B68D21A11440160134800681349C9
:10326000086014480068B0FA80F0C0F11F0101EB5B
:103270008102114B03EB820042685268426000F108
:1032800008024368934202D1426852684260426831
:10329000D268074B1A6000BF704700007000002022
:1032A0005C000020B00000207800002074000020A6
:1032B0003800002050000020B801002010B50A4856
:1032C000006840F47F00084908600846006840F044
:1032D0007F400860FFF706FE002004490860FCF705
:1032E00045FF002010BD000020ED00E0A8000020F8
:1032F00010B500BFBF2080F31188BFF34F8FBFF31D
:103300006F8F00BF00F04AFA18B14FF080500449A7
:10331000086000BF002080F3118800BF10BD0000CE
:1033200004ED00E02DE9F84307460D4690460DB93F
:10333000002601E007FB05F606F15400FFF78EFCBE
:10334000044644B104F1540943464A4629463846E6
:103350000094FFF7AFF92046BDE8F88370B5054645
:103360000E462C46FFF778FDD4E90F12206801FBCA
:10337000020060600020A0632068A060E06B401E37
:10338000226C216800FB0210E060FF2084F84400FA
:1033900084F845009EB9206908B9012000E00020AA
:1033A000A8B904F1100000F0C9FA80B14FF08050C4
:1033B00009490860BFF34F8FBFF36F8F07E004F137
:1033C0001000FFF713FD04F12400FFF70FFDFFF7D6
:1033D00055FD012070BD000004ED00E02DE9FF4324
:1033E00083B0074688461D464FF000093C4600BFA3
:1033F000FFF732FDA06BE16B884201D3022D38D17B
:103400002A4641462046FFF73CF80646A06C68B1C4
:1034100029462046FFF75EFA28B34FF080503C491A
:103420000860BFF34F8FBFF36F8F1CE0606A08B96D
:10343000012000E0002068B904F1240000F07EFAC9
:1034400088B14FF0805032490860BFF34F8FBFF30F
:103450006F8F08E03EB14FF080502D490860BFF3F8
:103460004F8FBFF36F8FFFF709FD012007B0BDE855
:10347000F083059818B9FFF701FD0020F6E7B9F1D0
:10348000000F04D101A8FFF7F5FD4FF00109FFF788
:10349000F5FCFFF7B9FEFFF7DFFC94F94400401C90
:1034A00010B9002084F8440094F94500401C10B97C
:1034B000002084F84500FFF7E1FC05A901A800F011
:1034C000F9F8F0B92046FFF7F6F9A0B104F11000C1
:1034D0000599FFF73BFE2046FFF776FB00F06EFAFA
:1034E000002885D14FF0805009490860BFF34F8F05
:1034F000BFF36F8F7CE72046FFF766FB00F05EFAB4
:1035000076E72046FFF760FB00F058FA0020ADE7B1
:1035100004ED00E02DE9F05F06468A4615461F4699
:10352000344600BFBF21EFF3118081F31188BFF350
:103530004F8FBFF36F8F00BF8146A06BE16B884256
:1035400001D3022F2BD194F945B03A46514620467B
:10355000FEF797FF0BF10100C8B9A06C40B13946E6
:103560002046FFF7B7F9B8B1B5B10120286013E0E4
:10357000606A08B9012000E0002068B904F1240065
:1035800000F0DCF940B13DB10120286004E00BF10E
:10359000010040B284F845004FF0010801E04FF00F
:1035A000000800BF89F3118800BF4046BDE8F09FC6
:1035B0002DE9F74183B005460F464FF000082C4631
:1035C00000BFFFF749FCA66BF6B139462046FEF76F
:1035D00043FF701EA063206908B9012000E00020AD
:1035E00060B904F1100000F0A9F938B14FF0805033
:1035F0002F490860BFF34F8FBFF36F8FFFF73EFC7B
:10360000012006B0BDE8F081059818B9FFF736FC37
:103610000020F6E7B8F1000F04D101A8FFF72AFD5A
:103620004FF00108FFF72AFCFFF7EEFDFFF714FC4F
:1036300094F94400401C10B9002084F8440094F927
:103640004500401C10B9002084F84500FFF716FC27
:1036500005A901A800F02EF8F0B92046FFF71EF9E1
:10366000A0B104F124000599FFF770FD2046FFF793
:10367000ABFA00F0A3F90028A3D14FF080500C4919
:103680000860BFF34F8FBFF36F8F9AE72046FFF7B5
:103690009BFA00F093F994E72046FFF795FA00F0C3
:1036A0008DF92046FFF7FAF800288AD00020A8E715
:1036B00004ED00E070B506460C46FFF7CDFB12485E
:1036C00002687068131A2068401C08B9002517E0CA
:1036D0000E4930680968884204D07068904201D869
:1036E00001250DE02068984207D92068C01A2060A3
:1036F0003046FFF7BFFC002502E0002020600125D6
:10370000FFF7BCFB284670BD4C0000206000002085
:103710002DE9FF4F85B0804689461746DDE912AB9B
:10372000B800FFF79BFA064656B16020FFF796FAFD
:1037300004460CB1266304E03046FFF7AFFB00E01F
:1037400000247CB10020CDE900ABCDE902403A462F
:1037500049464046089BFEF7C4FF2046FEF7CAFDD7
:10376000012501E04FF0FF35284609B0BDE8F08F94
:103770000549096809B9012005E00449096809B942
:10378000022000E00020704754000020700000205C
:1037900001490868704700004C0000202DE9F04105
:1037A00000273A480068002863D139480068451C62
:1037B000374805608DB93748D0F800803648006832
:1037C000344908603448C0F8008034480068401C20
:1037D00032490860FFF76EF900BF31480068854242
:1037E0003BD300BF2B480068006808B9012000E007
:1037F000002020B14FF0FF30294908602CE0254817
:103800000068C068C4686668B54202D22448066091
:1038100022E0201DFFF7D6FAA06A18B104F11800C3
:10382000FFF7D0FA94F82C10012088401D49096850
:1038300008431C490860E16A01EB81011A4A02EB66
:103840008100211DFFF7FCFA1849E06A0968C96A7E
:103850008842C7D30127C5E700BF14480068C06A83
:1038600000EB8000104951F82000012800D9012701
:1038700004E00F480068401C0D4908600D480068CE
:1038800000B101273846BDE8F0810000700000203B
:103890004C0000203C000020400000206000002080
:1038A0006800002050000020B801002038000020EF
:1038B000580000205C00002070B505462C4600260C
:1038C000ADB3206D401E2065E16CE06A88422ED0C9
:1038D000206D60BB201DFFF775FA78B9E06A00EB38
:1038E0008000144951F8200040B994F82C100120B0
:1038F00088401149096881430F480160E06CE0622B
:10390000E06AC0F10500A06194F82C100120884005
:1039100009490968084308490860E16A01EB810127
:10392000044A02EB8100211DFFF78AFA0126304686
:1039300070BD0000B80100205000002070B50646A0
:10394000F068C46804F11800FFF73CFA15480068F5
:10395000A8B9201DFFF736FA94F82C1001208840F2
:1039600011490968084310490860E16A01EB8101C7
:103970000E4A02EB8100211DFFF762FA04E004F118
:1039800018010B48FFF75CFA0A49E06A0968C96A3E
:10399000884204D9012501200749086000E000257C
:1039A000284670BD7000002050000020B8010020A3
:1039B00044020020380000205C00002070B5002484
:1039C0000026FFF749FA2E480068401E2C4908607F
:1039D0000846006800284FD12A48006800284BD0CC
:1039E00024E02948C068C46804F11800FFF7EAF928
:1039F000201DFFF7E7F994F82C1001208840234997
:103A00000968084321490860E16A01EB8101204A05
:103A100002EB8100211DFFF713FA1E49E06A0968D5
:103A2000C96A884202D301201B4908601648006811
:103A300008B9012000E000200028D2D00CB1FFF727
:103A400039F81648056865B100BFFFF7A7FE10B149
:103A50000120114908606D1E002DF6D100200F498C
:103A600008600D48006838B1012630070C4908602D
:103A7000BFF34F8FBFF36F8FFFF700FA304670BD73
:103A80007000002048000020440200205000002068
:103A9000B8010020380000205C0000205800002001
:103AA00004ED00E01CB50024FEF780FC0748006828
:103AB00050B10748042100238A01CDE9001005A177
:103AC0000648FFF725FE044620461CBD8400002062
:103AD00088000020546D722053766300AF2B0008DD
:103AE0002DE9FF4705460C4616461F46DDF8308097
:103AF0004FF000091448006810B300940196029535
:103B0000062C15DAFFF734FE022808D100234246BE
:103B100069460D480068FFF761FC814610E000230C
:103B20001A46694608480068FFF758FC814607E0D6
:103B300000233A46694604480068FFF7EBFC8146DB
:103B4000484604B0BDE8F08784000020B83C000877
:103B5000883C000841260008000000005F434D49F2
:103B60004F545F4D353331305F4765745265676937
:103B70007374657254696D65000000004D35333112
:103B8000300D0A4F4B0D0A0000000000000000003D
:103B90000000000000000000000000000000000025
:103BA000000000002B43474154543A30000000000D
:103BB00000000000000000002B43474154543A31FC
:103BC0000000000000000000000000005F434D49BD
:103BD0004F545F457865637574654174436D640047
:103BE000496E636F727265637420636F6D6D616E91
:103BF0006420706172616D657465722873292E206E
:103C000020456E746572202268656C702220746F86
:103C100020766965772061206C697374206F662057
:103C2000617661696C61626C6520636F6D6D616E58
:103C300064732E0D0A0D0A00436F6D6D616E642072
:103C40006E6F74207265636F676E697365642E2092
:103C500020456E746572202768656C702720746F2C
:103C600020766965772061206C697374206F662007
:103C7000617661696C61626C6520636F6D6D616E08
:103C800064732E0D0A0D0A000D0A68656C703A0DFA
:103C90000A204C6973747320616C6C207468652011
:103CA0007265676973746572656420636F6D6D61B9
:103CB0006E64730D0A0D0A0068656C7000000000E8
:103CC0000D0A61742B67657473797374696D65206F
:103CD0002C206765742073797374656D2072756E1E
:103CE0002074696D65286D73290D0A000D0A6465DD
:103CF0006275676C6576656C203C6C6576656C3EBC
:103D00002C206C6576656C2063616E2062653A20BC
:103D100030206F7220310D0A0000000061742B67A3
:103D2000657473797374696D6500000061742B6448
:103D3000656275676C6576656C0000005C3D000827
:103D400000000020F400000010180008503E000899
:103D5000F4000020343200002018000800000000A9
:103D6000010203040102030406070809020406080D
:103D70000000000000000000000000000000000043
:103D800000A24A0400000000000000000102030439
:103D90000607080900000000000000000000000005
:103DA0000000000000000000000000000000000013
:103DB0000000000000000000000000000000000003
:103DC00000000000000000000000000000000000F3
:103DD00000000000000000000000000000000000E3
:103DE00000000000000000000000000000000000D3
:103DF00000000000000000000000000000000000C3
:103E000000000000AAAAAAAA00000000000000000A
:103E1000000000004C3B0008000000000000000013
:103E2000B8000020000000000000000000000000BA
:103E30002C3D0008EC3C00080125000801000000B2
:103E40001C3D0008C03C0008992500080000000047
:0400000508000131BD
:00000001FF
