:020000040800F2
:10000000E0630020DD0100087F290008AF1400082C
:100010007B290008010D000897330008000000004C
:100020000000000000000000000000004501000882
:10003000410D00080000000089010008DD2C0008C7
:10004000F7010008F7010008F7010008F7010008B0
:10005000F7010008F7010008F7010008F7010008A0
:100060005D0E0008010F0008950F0008F701000859
:10007000F7010008F7010008F7010008F701000880
:10008000F7010008F7010008F7010008F701000870
:10009000F7010008F7010008F7010008F701000860
:1000A000F7010008F7010008F7010008F701000850
:1000B000F70100084D2D0008F7010008F7010008BE
:1000C000F7010008F7010008F7010008F701000830
:1000D000F7010008D92E0008A52F000839300008C4
:1000E000450D0008F7010008F7010008F7010008B6
:1000F000F7010008F7010008F7010008F701000800
:10010000F7010008F7010008F7010008F7010008EF
:10011000F7010008F7010008F7010008F7010008DF
:10012000F7010008F7010008F7010008F7010008CF
:10013000DFF80CD000F06CFC00480047B98F0008D5
:10014000E0630020224B19680868B0E8F00F80F3E4
:100150000988BFF36F8F4FF0000080F311884EF0D5
:100160000D0E70470000000006480068006880F32C
:10017000088862B661B6BFF34F8FBFF36F8F00DFA1
:1001800000BF00BF08ED00E0EFF30980BFF36F8F01
:100190000F4B1A6820E9F00F106008B54FF0BF0050
:1001A00080F31188BFF34F8FBFF36F8F0AF080F990
:1001B0004FF0000080F31188BDE808401968086816
:1001C000B0E8F00F80F30988BFF36F8F704700BF6E
:1001D0004C000020EFF30580704700000648804780
:1001E00006480047FEE7FEE7FEE7FEE7FEE7FEE71C
:1001F000FEE7FEE7FEE7FEE7ED2C00083101000810
:1002000040EA01039B0703D009E008C9121F08C098
:10021000042AFAD203E011F8013B00F8013B521E18
:10022000F9D27047D2B201E000F8012B491EFBD28F
:1002300070470022F6E710B513460A4604461946F1
:10024000FFF7F0FF204610BD421E12F8013F002BC1
:10025000FBD111F8013B02F8013B002BF9D17047AB
:1002600030B505462A460B4612F8010B13F8014B30
:1002700008B1A042F8D01CB1002802D06D1CF1E7F3
:10028000284630BD10B5044604E00B7800F8013B69
:1002900003B1491C521EF8D2204610BD421C10F872
:1002A000011B0029FBD1801A704710B5002200E025
:1002B000521C835C8C5CA34201D1002BF8D1D8B2D4
:1002C000E1B2401A10BD10B5044600E0401C0378AE
:1002D000002BFBD100E0401C521E04D311F8013B5F
:1002E0000370002BF7D100210170204610BD30B5FE
:1002F00005460020034600E05B1C934205D2EC5CFF
:10030000C85C201A01D1002CF6D130BD80EA010270
:1003100010B502F00043400022D04A001FD0010E69
:1003200001EB1261C0F35600C2F3560240F4000024
:1003300042F40002A0FB022000047F39140400D024
:10034000401C50EA124001D44000491EC2B20C06C3
:1003500004EBD010401C4008802A02D003E00020AB
:1003600010BD20F00100002900DA0020184310BD64
:1003700030B480EA010202F0004530F0004221F082
:10038000004013D090B1C30DD40DC2F31601C0F3D9
:100390001600E41A41F4000140F400027D34914259
:1003A00001D3641C00E04900002C02DA30BC0020BC
:1003B00070474FF400000023914201D3891A034390
:1003C00040084FEA4101F7D151B1914202D14FF0BB
:1003D000004105E002D24FF0010101E06FF00101A0
:1003E00003EBC450284430BC00F0DEB92DE9FE4FC9
:1003F000804681EA0300C00F0C46009021F00041C6
:1004000023F00045B8EB0200A94105D24046214641
:1004100090461C460B46024623F00040104347D04E
:10042000270DC7F30A00C3F30A510290401A019046
:1004300040286BDAC3F3130040F4801B0098924607
:1004400020B10023D2EB030A63EB0B0B0198594652
:10045000C0F14002504600F076F906460D4650467F
:100460005946019A00F08EF910EB08006141002412
:1004700087EA115284EAE7731A4340D0009A62B3C4
:10048000019A012A4FEA075215DC001B61EB0201B9
:100490004FF0004202EA0752CDE90042001C41F54C
:1004A000801132462B4600F0C5F903B0BDE8F08F4D
:1004B00040462146F9E7001B61EB0201001C41F5B3
:1004C000801300185B412018A2F5001747EB0301C9
:1004D00040EAD570B6196D4111E06D084FEA360655
:1004E00045EAC0754FEA0752001B61EB0201001C90
:1004F00041F5801149084FEA300000195141324658
:100500002B4603B0BDE8F04F00F085B900980122FA
:1005100040000023D0EB020263EBE0730098214619
:100520004FEAE074B8EB000061EB0401E9E783F007
:1005300000435BE781F0004158E72DE9FE4F81EA77
:10054000030404F0004421F0004100944FF0000B3C
:1005500023F0004350EA01045ED052EA03045BD06A
:10056000C3F30A54C1F30A552C44A4F2F3340194A2
:10057000A0FB0254C1F3130141F48011C3F3130330
:1005800043F4801301FB024400FB034E840A970AE4
:1005900044EA815447EA8357A4FB076802958D0A11
:1005A00005FB07854FEA932C04FB0C542705029D9D
:1005B0004FEA065847EA1637B5EB08056EEB070C0D
:1005C000870E920E47EA811742EA8312A7FB0201C7
:1005D000B6EB0B0164EB00042B0D43EA0C335E1801
:1005E00044EB1C50DA465146E7FB0201C5F3130405
:1005F0004FEA0B3343EA14534FEA0432019C43EAB7
:100600000603A4F10C040294009CCDE900B400F0B0
:1006100011F903B0BDE8F08F00200146F9E79623F9
:100620000022114600F0C9B8C1F30A5210B5C1F357
:10063000130140F2FF3341F480119A4201DA0020A5
:1006400010BD40F233439A42A2F2334203DC5242DD
:1006500000F088F810BD904010BD00F0004230F06E
:1006600000400AD0C10D01F56071C0F3160042EAE6
:100670000151C208400711437047002001467047EE
:1006800001F0004330B421F0004150EA010206D0ED
:100690000A0DA2F56072C1F31301002A02DC30BC1E
:1006A00000207047440F44EAC104C100E01830BC88
:1006B00000EBC25000F078B830B50B460146002080
:1006C0002022012409E021FA02F59D4205D303FA14
:1006D00002F5491B04FA02F52844151EA2F1010295
:1006E000F1DC30BD2DE9F05F0546002092469B46C7
:1006F00088460646814640241BE028464146474638
:10070000224600F02FF853465A46C01A914110D3A2
:1007100011461846224600F016F82D1A67EB01081C
:100720004F4622460120002100F00DF817EB00098A
:100730004E41201EA4F10104DFDC484631462A4622
:100740004346BDE8F09F202A04DB203A00FA02F17C
:10075000002070479140C2F1200320FA03F31943AF
:1007600090407047202A04DB203A21FA02F0002151
:10077000704721FA02F3D040C2F1200291400843B1
:1007800019467047202A06DBCB17203A41FA02F0BF
:1007900043EAE07306E041FA02F3D040C2F12002DE
:1007A00091400843194670470029A8BF7047401C74
:1007B000490008BF20F00100704710B4B0FA80FC77
:1007C00000FA0CF050EA010404BF10BC704749B1B4
:1007D000CCF1200421FA04F411FA0CF118BF012124
:1007E00021430843A3EB0C01CB1D4FEA00614FEA04
:1007F000102042BF002010BC704700EBC3501044D3
:100800000029A4BF10BC7047401C490008BF20F05D
:10081000010010BC704710B5141E73F1000408DA13
:10082000401C41F1000192185B411A4301D120F0B4
:10083000010010BD2DE9F04D92469B4611B1B1FA71
:1008400081F202E0B0FA80F220329046FFF77BFF9F
:1008500004460F4640EA0A0041EA0B0153465A4655
:10086000084313D0114653EA010019D0C8F14002E1
:100870005046FFF777FF05460E465046594642461A
:10088000FFF761FF084305D0012004E02046394608
:10089000BDE8F08D0020054346EAE0762C4337435F
:1008A0000A986305E40AA0EB08000022FD0A44EA66
:1008B00047540A3002D500200146E9E70105101926
:1008C0006941DDE9084500196941BDE8F04DA2E73D
:1008D0002DE9F04D81EA030404F0004B21F00045BE
:1008E00014464FF0000A23F0004150EA050220D0E0
:1008F00054EA01021DD0C5F30A570246C5F313039B
:10090000C1F31300C1F30A5640F4801543F4801379
:10091000A7EB0608101BD64608F2FD3873EB05005E
:1009200002D308F1010801E092185B41B8F1000F11
:1009300003DA00200146BDE8F08D00204FF480115D
:10094000064684460EE0171B73EB050705D3121B02
:1009500063EB050306434CEA010C49084FEA3000FB
:1009600092185B4150EA0107EDD152EA030012D020
:1009700082EA040083EA0501084305D0101BAB415D
:1009800006D20122002306E000224FF0004302E0DD
:100990006FF0010253101AEB06004CEB085110EBFC
:1009A0000A0041EB0B01BDE8F04DFFF734BFC1F386
:1009B0000A52C1F3130140F2FF3341F480119A420D
:1009C00002DA00200146704740F233439A42A2F215
:1009D000334202DC5242FFF7C5BEFFF7B4BE00004F
:1009E00030B5041E71F1000404DB4FF000444042B6
:1009F00064EB0101141E73F1000405DB1C464FF08B
:100A00000043524263EB0403994208BF904230BD59
:100A1000064C074D06E0E06840F0010394E807004B
:100A200098471034AC42F6D3FFF786FBB8F50108BF
:100A3000D8F5010870B58C1810F8015B15F00703A4
:100A400001D110F8013B2A1106D110F8012B03E067
:100A500010F8016B01F8016B5B1EF9D12B0705D46F
:100A60000023521E0DD401F8013BFAE710F8013BB8
:100A7000CB1A921C03E013F8015B01F8015B521ED4
:100A8000F9D5A142D8D3002070BD21B1826842F0CF
:100A90000102826003E0826822F0010282607047F6
:100AA00010B504461248844208D10121401501F0D6
:100AB000E5FF0021601501F0E1FF17E00D488442D9
:100AC00008D10121001501F0D9FF0021201501F006
:100AD000D5FF0BE00848844208D10121C80301F08A
:100AE000CDFF00214FF4004001F0C8FF10BD000011
:100AF0000024014000280140003C01400146002044
:100B00008A6802F004020AB1012000E00020704768
:100B10000146C86C80B270470246002013680B4043
:100B20000BB1012000E000207047014600208A68D8
:100B300002F008020AB1012000E000207047000026
:100B400030B502460020002350680F4C20400D793C
:100B50000C6844EA05242043506090680B4C204008
:100B6000D1E902542C434D7944EA45042043906076
:100B7000D06A20F470000C7C641EE4B2234340EA87
:100B80000350D06230BD0000FFFEF0FFFDF7F1FF23
:100B9000F0B504460D4600200021092D11DDE06866
:100BA000A5F10A0606EB4607072606FA07F1884371
:100BB000A5F10A0606EB460603FA06F10843E060D3
:100BC0000CE0206905EB4507072606FA07F1884384
:100BD00005EB450603FA06F108432061072A0FDA00
:100BE000606B561E06EB86071F2606FA07F1884340
:100BF000561E06EB860605FA06F10843606322E0FE
:100C00000D2A0FDA206BD61F06EB86071F2606FA81
:100C100007F18843D61F06EB860605FA06F108435E
:100C2000206310E0E06AA2F10D0606EB86071F269E
:100C300006FA07F18843A2F10D0606EB860605FACF
:100C400006F10843E062F0BD816841F0080181606F
:100C5000704721B1826842F4A002826003E082689A
:100C600022F4A00282607047816841F00401816033
:100C70007047000000B587B001214FF4017001F00A
:100C8000EDFE4FF4004001F0BDFE0220ADF804007F
:100C900000208DF8070001A9174800F001FB174854
:100CA000FFF7FEFE002002908DF80C008DF80D007D
:100CB0004FF4602004900020059001208DF818006A
:100CC00002A90E48FFF73CFF01210C48FFF7DDFEAB
:100CD0000A48FFF7B9FF00BF0848FFF726FF0028C2
:100CE000FAD10648FFF7C0FF00BF0448FFF706FF30
:100CF0000028FAD107B000BD0008014000240140DF
:100D000000BFFEE710B50021044A11605160472181
:100D100040F2E73002F034F810BD0000C8000020B7
:100D200029B1064A52680243044B5A6004E0034A60
:100D300052688243014B5A6070470000002004E073
:100D40007047000008B54FF4805000F073F9002898
:100D500026D0294929A003F0D3FB0A2008F088F8FF
:100D60002E480068C0B92E484078022808DA2C487E
:100D70000078022804DA2A480078401C28490870C4
:100D80000320274948711C4926A003F0B9FB694696
:100D90002948006809F0CCFA4FF4805000F044F97B
:100DA0004FF4006000F046F9002824D0124923A037
:100DB00003F0A6FB0A2008F05BF81848001F006843
:100DC000A8B91748007918B901201549087102E03F
:100DD000002013490871042011494871064911A0E7
:100DE00003F08EFB69461448006809F0A1FA4FF43D
:100DF000006000F019F908BD6BF001082573284B5D
:100E000045595F5249474854205072657373656471
:100E100020446F776E290D0A000000003001224245
:100E20003000002025732873656E645461736B4D28
:100E30007367290D0A000000200000202573284B4D
:100E400045595F454E544552205072657373656431
:100E500020446F776E290D0A0000000008B50420B9
:100E600000F0E8F800B908BD154916A003F048FBEA
:100E70000A2007F0FDFF1A480068D8B919484078E1
:100E8000012806DB17484078012807D1154800786B
:100E900020B914484078401C12494870012011497B
:100EA0004871074910A003F02BFB694613480068FE
:100EB00009F03EFA042000F0B7F800BFD3E70000C5
:100EC00038F001082573284B45595F444F574E2091
:100ED0005072657373656420446F776E290D0A0044
:100EE000088122423000002025732873656E645407
:100EF00061736B4D7367290D0A000000200000200C
:100F000008B5082000F096F800B908BD0A2007F0DF
:100F1000AFFF10480068C0B90F4910A003F0F0FA05
:100F200015484078002804DD13484078401E1249D7
:100F30004870002010494871074910A003F0E0FAFA
:100F400069461348006809F0F3F9082000F06CF8CE
:100F500000BFDAE70C81214249F001082573284BD4
:100F600045595F5550205072657373656420446F16
:100F7000776E290D0A0000003000002025732873C9
:100F8000656E645461736B4D7367290D0A00000030
:100F90002000002008B5102000F04CF800B908BD72
:100FA000114912A003F0ACFA0A2007F061FF1648BD
:100FB0000068A0B915480078002804DD13480078BF
:100FC000401E12490870022010494871064910A0BD
:100FD00003F096FA69461348006809F0A9F9102051
:100FE00000F022F800BFDAE75AF001082573284B19
:100FF00045595F4C454654205072657373656420B3
:10100000446F776E290D0A001081214230000020C4
:1010100025732873656E645461736B4D7367290D76
:101020000A0000002000002001490860704700000D
:1010300014040140014600200022074B1B6803EA0C
:101040000102054B14331B680B4013B10AB1012098
:1010500000E0002070470000000401400021234907
:101060008279002A3AD00A46126803689A430B46EE
:101070001A600A1D126803689A430B1D1A600279F0
:1010800011440A6803681A430A60184A0832126851
:1010900003689A43154B08331A601A1D12680368D7
:1010A0009A43124B0C331A604279102A0ED11A1F40
:1010B000126803681A430D4B08331A601A1D126830
:1010C00003681A43094B0C331A600DE00749427953
:1010D00011440A6803681A430A6005E00279114462
:1010E0000A6803689A430A607047000000040140E0
:1010F00030B50346002400200025156022E000E002
:101100005B1C1D7815B11D78202DF9D100E05B1C0A
:101110001D7815B11D78202DF9D01D788DB1641C76
:101120008C420FD1184603E015686D1C15605B1CDE
:101130001D7815B11D78202DF6D1156805B9002050
:1011400002E001E08C42DAD300BF30BD2DE9F04768
:101150000446884691460126207810B90020BDE853
:10116000F0872E48006898BB2D482C4908602AE07B
:101170002A480068006807683846FFF78FF8054678
:10118000605D202801D0605DC0B92A4639462046FE
:10119000FFF7ADF890B921480068006890F90C009D
:1011A00000280ADB204608F099FA1C4909680968FA
:1011B00091F90C10884200D0002608E0174800681A
:1011C000406816490860154800680028D0D100BF63
:1011D0001248006848B146B94A4612494046FFF7EE
:1011E00051F800200D49086016E00C48006868B10D
:1011F0000A48006800682246494683684046984786
:1012000006464EB900200549086005E04A460649F1
:101210004046FFF737F800263046A0E7E000002000
:10122000D4000020D0F2010828F3010870B505466B
:101230000026082008F04AFE044664B108F058FF72
:101240002560002060600548006844600348046031
:1012500008F060FF0126304670BD0000DC00002071
:1012600030B500228B071C0F0F2303FA04F20B4B3F
:101270008C1053F824309343084C8D1044F82530DB
:1012800023468C1053F824308C07240F00FA04F402
:101290002343024C8D1044F8253030BD0800014036
:1012A0002DE9F041024600250026002000230024FD
:1012B000002791F803C00CF00F0591F803C00CF063
:1012C000100CBCF1000F03D091F802C04CEA0505E8
:1012D00091F800C0BCF1000F31D0146800202BE061
:1012E0004FF0010C0CFA00F3B1F800C00CEA030651
:1012F0009E4220D183004FF00F0C0CFA03F7BC4341
:1013000005FA03FC4CEA040491F803C0BCF1280F71
:1013100006D14FF0010C0CFA00FCC2F814C00AE030
:1013200091F803C0BCF1480F05D14FF0010C0CFA45
:1013300000FCC2F810C0401C0828D1D31460B1F8DA
:1013400000C0BCF1FF0F34DD546800202EE000F136
:10135000080C4FF0010808FA0CF3B1F800C00CEAD1
:1013600003069E4221D183004FF00F0C0CFA03F7C5
:10137000BC4305FA03FC4CEA040491F803C0BCF139
:10138000280F05D100F1080C08FA0CF8C2F81480F7
:1013900091F803C0BCF1480F07D100F1080C4FF0E1
:1013A000010808FA0CF8C2F81080401C0828CED3B7
:1013B0005460BDE8F0810000F0B50A460023002427
:1013C0000021002500F00046B6F1004F02D11D4E6D
:1013D000F16901E01B4E7168C0F3034583B200F46C
:1013E0004016B6F5401F08D121F07061154E7668A1
:1013F00026F07066134F7E6012E000F48016B6F59A
:10140000801F06D1032606FA05F4A14341F070615E
:1014100006E0460D360103FA06F6B14341F070616D
:1014200022B1460D360103FA06F6314300F00046BC
:10143000B6F1004F02D1034EF16101E0014E71603F
:10144000F0BD0000000001400161704710B5044686
:101450000723012221460948FFF79AFB012107488B
:10146000FFF7F7FB00BF02210448FFF755FB0028F8
:10147000F9D00248FFF74CFB10BD000000240140EA
:101480002DE9F04107460C460025002608E03846C5
:10149000FFF7DCFF0544052007F0EAFC701CC6B22C
:1014A000A642F4DBB5FBF4F080B2BDE8F08100BFEA
:1014B000FEE7000038B5012001F082FB00BF61208B
:1014C00001F060FB0028FAD045F2555000F04CF8CE
:1014D000062000F03DF840F20E3000F03FF800F03A
:1014E0002FF800F025F80C4801231A4640F6B831D1
:1014F00000900AA009F02EFC0C49086009F09AFA45
:101500000446002003462246012100900748006857
:1015100009F056FC38BD000041150008576174639E
:1015200068446F6754696D65720000002C000020EC
:101530004CF6CC4001490860704700000030004084
:101540004AF6AA20014908607047000000300040B8
:101550000149486070470000003000400149886040
:1015600070470000003000400149086070470000EB
:101570000030004070B5044600250021084600F008
:1015800077FC01F0F5F900BF1DE00120104908606B
:1015900000201049C1F8BC0120120F49C86000208A
:1015A0000B49091F08600120086044F317000A492D
:1015B000C86000200649091F08600120086004492E
:1015C000091D08606D1CB5F5963FDED370BD0000A7
:1015D000B881214200802142001001402DE9FF4FD7
:1015E00085B081468A460020049003900798A0EBBE
:1015F00009050898A0EB0A06CDF80890CDF804A0DC
:10160000002D01DD012705E00DB9002702E04FF0B4
:10161000FF376D42002E02DD4FF0010806E016B9DB
:101620004FF0000802E04FF0FF387642B54201DD8E
:101630002C4600E034464FF0000B21E0019A91B2B5
:10164000029A90B200F022F804982844049003987B
:10165000304403900498A04205DD0498001B0490D8
:101660000298384402900398A04205DD0398001BBD
:1016700003900198404401900BF101001FFA80FB98
:10168000601C8345DADD09B0BDE8F08F70B5044613
:101690000D462946204600F0EBFB01F069F90120D8
:1016A0001049086000201049C1F8BC010F480088AB
:1016B00000120F49C86000200A49091F0860012074
:1016C0000949C1F8B401094800880949C8600020E7
:1016D0000449091F0860012008600249091D0860CB
:1016E00070BD0000B8812142008021421209002013
:1016F000001001402DE9F04104460D4616461F46F4
:101700002B46324629462046FFF768FF3B462246D5
:1017100029462046FFF762FF3B46324639462046BF
:10172000FFF75CFF3B46324629463046FFF756FF3F
:10173000BDE8F0812DE9F05F04460F4690469946DA
:10174000DDF828A04FF0000BA8EB0400401C1FFAA6
:1017500080FB3D462CE0002626E0A11988B22946F0
:1017600000F086FB01F004F9012013490860002015
:101770001249C1F8BC014FEA2A201149C860002073
:101780000D49091F0860012008604AF317000C4941
:10179000C86000200849091F086001200860064948
:1017A000091D0860701C86B25E45D6DB681C85B2D8
:1017B0004D45D0DDBDE8F09FB88121420080214237
:1017C0000010014008B50121192001F047F94FF23E
:1017D0000100ADF8000010208DF8030003208DF803
:1017E000020069460948FFF75BFD4FF20101074817
:1017F000FFF72AFEFF20ADF8000069460448FFF716
:101800004FFDFF210248FFF71FFE08BD000C0140FD
:101810000010014010B5FFF7D5FF0120FE49086018
:1018200000F010FB112001F08DF8782007F020FB6C
:10183000362001F087F84FF48040F84908604000F6
:10184000091D08600020F649C8604814F349091DC5
:101850000860091F0860800008603A2001F072F8F3
:101860004FF48040ED4908604000091D08600520E4
:10187000EB49C8604814E949091D0860091F086060
:1018800080000860B22001F05DF84FF48040E34929
:1018900008604000091D08600C20E149C860481438
:1018A000DE49091D0860091F0860800008604010BB
:1018B00008604000091D08600C20D949C860481420
:1018C000D649091D0860091F0860800008604010A3
:1018D00008604000091D08600020D149C860481414
:1018E000CE49091D0860091F08608000086040108B
:1018F00008604000091D08603320C949C8604814C9
:10190000C649091D0860091F086080000860401072
:1019100008604000091D08603320C149C8604814B0
:10192000BE49091D0860091F086080000860B720D3
:1019300001F008F84FF48040B84908604000091DE4
:1019400008603520B649C8604814B449091D0860CC
:10195000091F086080000860BB2000F0F3FF4FF40F
:101960008040AE4908604000091D08600E20AC4967
:10197000C8604814A949091D0860091F0860800053
:101980000860C02000F0DEFF4FF48040A3490860EB
:101990004000091D08602C20A149C86048149F49D7
:1019A000091D0860091F086080000860C22000F05F
:1019B000C9FF4FF48040994908604000091D086044
:1019C00001209749C86040039449091D0860091F18
:1019D000086080000860C32000F0B4FF4FF480402E
:1019E0008E4908604000091D086012208C49C860BB
:1019F00048148A49091D0860091F086080000860B2
:101A0000C42000F09FFF4FF48040844908604000EC
:101A1000091D086020208249C86000027F49091D15
:101A20000860091F086080000860C62000F08AFF77
:101A30004FF48040794908604000091D08600F207C
:101A40007749C86048147549091D0860091F086076
:101A500080000860D02000F075FF4FF480406F498F
:101A600008604000091D0860A4206D49C860481442
:101A70006A49091D0860091F08608000086040105D
:101A800008604000091D0860A1206549C86048142D
:101A90006249091D0860091F086080000860E02095
:101AA00000F050FF4FF480405C4908604000091D81
:101AB0000860D0205A49C86048145849091D086078
:101AC000091F086080000860401008604000091D80
:101AD000086000205249C86048145049091D086038
:101AE000091F086080000860401008604000091D60
:101AF000086005204A49C86048144849091D086023
:101B0000091F086080000860401008604000091D3F
:101B100008600D204249C86048144049091D08600A
:101B2000091F086080000860401008604000091D1F
:101B300008600F203A49C86048143849091D0860F8
:101B4000091F086080000860401008604000091DFF
:101B500008602B203249C86048143049091D0860CC
:101B6000091F086080000860401008604000091DDF
:101B700008603B202A49C86048142849091D0860AC
:101B8000091F086080000860401008604000091DBF
:101B9000086044202249C86048142049091D086093
:101BA000091F086080000860401008604000091D9F
:101BB00008604A201A49C86048141849091D08607D
:101BC000091F086080000860401008604000091D7F
:101BD000086018201249C86048141049091D08609F
:101BE000091F086080000860401008604000091D5F
:101BF00008600F200A49C86048140849091D086098
:101C0000091F086080000860401008604000091D3E
:101C100008600B20024905E0B0812142100C014010
:101C200000100140C860481484490860091F08601A
:101C300080000860401008604000091D08601F20F7
:101C40007F49C86048147D490860091F086080000A
:101C50000860401008604000091D08602220784993
:101C6000C860481475490860091F08608000086052
:101C7000E12000F067FE4FF480407049091F0860C2
:101C80004000091D0860D0206D49C86048146B49A8
:101C90000860091F0860800008604010086040006C
:101CA000091D086000206649C8604814634908603F
:101CB000091F086080000860401008604000091D8E
:101CC000086005205E49C86048145C490860091F27
:101CD000086080000860401008604000091D08602E
:101CE0000D205749C860481454490860091F08600E
:101CF00080000860401008604000091D0860102046
:101D00004F49C86040024D490860091F08608000C3
:101D10000860401008604000091D08602B204849F9
:101D2000C860481445490860091F086080000860C1
:101D3000401008604000091D08603D204049C8600F
:101D400048143E490860091F086080000860401080
:101D500008604000091D086054203949C8604814D3
:101D600036490860091F086080000860401008605C
:101D70004000091D086050203149C86048142F49AF
:101D80000860091F0860800008604010086040007B
:101D9000091D08602F202A49C86048142749086097
:101DA000091F086080000860401008604000091D9D
:101DB00008601F202249C860481420490860091F94
:101DC000086080000860401008604000091D08603D
:101DD0001F201B49C860481418490860091F086083
:101DE00080000860401008604000091D08601F2046
:101DF0001349C860481411490860091F0860800031
:101E00000860401008604000091D086023200C494C
:101E1000C860481409490860091F0860800008600C
:101E2000292000F08FFD2C2000F08CFD142007F0FD
:101E30001FF84FF6FF70FFF79DFB10BD140C01401B
:101E40000010014010B501200849086007F010F8A3
:101E500001200649091D0860142007F009F8012037
:101E600002490860142007F003F810BD100C01406F
:101E700010B503460C462A2000F064FD4FF4804064
:101E8000234908604000091D086018122149C860F4
:101E900048141F49091D0860091F08608000086078
:101EA000401008604000091D086043F317001949FD
:101EB000C86048141649091D0860091F08608000A1
:101EC00008602B2000F03EFD4FF480401049086070
:101ED0004000091D086020120E49C86048140C49D2
:101EE000091D0860091F0860800008604010086034
:101EF0004000091D086044F317000649C8604814F3
:101F00000349091D0860091F08608000086010BDB2
:101F1000100C0140001001402DE9F84F81468A461F
:101F200017461C46CB46694800880090B9F1E80F77
:101F300002DCBAF59C7F01DDBDE8F88FA7F1200037
:101F4000C7B20A9800287DD1002583E00C2C2AD145
:101F500007EB47005E4901EB800010F80580002682
:101F600016E008F0010018B158490098088003E015
:101F7000584800885549088051464846FFF786FB77
:101F80004FEA680809F101001FFA80F9701CC6B217
:101F900004EBD471B6EB610FE3DBD9460AF1010023
:101FA0001FFA80FA54E0102C28D14B4800EB0710A0
:101FB00010F80580002616E008F0010018B143492A
:101FC0000098088003E04348008840490880514653
:101FD0004846FFF75BFB4FEA680809F101001FFA6A
:101FE00080F9701CC6B204EBD471B6EB610FE3DB71
:101FF000D9460AF101001FFA80FA29E0374800EBC0
:10200000C71010F80580002616E008F0010018B18E
:102010002E490098088003E02E4800882B4908804C
:1020200051464846FFF732FB4FEA680809F10100C4
:102030001FFA80F9701CC6B204EBD471B6EB610FC5
:10204000E3DB00E00AE0D9460AF101001FFA80FA5A
:10205000681CC5B2A542FFF679AF32E000252EE03C
:102060000C2C07D107EB4700194901EB800010F851
:1020700005800CE0102C05D1174800EB071010F874
:10208000058004E0154800EBC71010F80580002615
:102090000EE008F0010038B10AEB050291B209EB3D
:1020A000060290B2FFF7F2FA4FEA6808701CC6B257
:1020B00004EBD471B6EB610FEBDB681CC5B2A54233
:1020C000CEDB02490098088000BF35E712090020E6
:1020D00014B200081409002088B6000878BC000873
:1020E0002DE9FF4F81B006468A460E9DB346CDF8D6
:1020F00000A00398002873D10498102873D01828E2
:1021000070D169E0002460E004EB041000EB800073
:10211000FD49085C2978884255D104EB041000EB96
:102120008000F94908444078697888424BD104EB33
:10213000041000EB8000F44908448078A9788842B4
:1021400041D100273DE004EB041000EB8000EE4994
:102150000844001D10F807904FF000082CE009F02B
:102160008000802807D1E9490F9808805146304601
:10217000FFF78CFA06E0E549109808805146304692
:10218000FFF784FA4FF6FF7000EA4909701C86B227
:10219000A6EB0B0018280BD15E460AF101001FFACE
:1021A00080FA0098AAEB00001B2801D1DDF800A0FE
:1021B00008F1010000F0FF08B8F1080FCFDB781C30
:1021C000C7B2512FBFDB601CC4B20D2C9CDBED1CD1
:1021D00006F1180086B2B3462878002892D16EE046
:1021E0006EE000E06AE065E000245CE004EB84005F
:1021F000C74911F830002978884252D104EB840095
:10220000C34901EBC00040786978884249D104EBAA
:102210008400BF4901EBC0008078A978884240D192
:1022200000273CE004EB8400B94901EBC000001D2D
:1022300010F807904FF000082CE009F0800080288B
:1022400007D1B2490F98088051463046FFF71EFA71
:1022500006E0AE491098088051463046FFF716FA5E
:102260004FF6FF7000EA4909701C86B2A6EB0B001E
:1022700010280BD15E460AF101001FFA80FA00987F
:10228000AAEB0000122801D1DDF800A008F101003E
:1022900000F0FF08B8F1080FCFDB781CC7B2242F7D
:1022A000C0DB601CC4B2312CA0DBED1C06F11000B9
:1022B00086B2B3462878002896D100E000BF72E1CC
:1022C0000398022877D10498102877D0182874D161
:1022D0006DE0002464E004EB440000EB04108D4941
:1022E00011F820002978884258D104EB440000EB13
:1022F0000410884901EB80004078697888424DD10C
:1023000004EB440000EB0410824901EB800080786C
:10231000A978884242D100273EE004EB440000EB5C
:1023200004107C4901EB8000001D10F807904FF06D
:1023300000082CE009F08000802807D173490F982D
:10234000088051463046FFF7A1F906E06F49109822
:10235000088051463046FFF799F94FF6FF7000EAC2
:102360004909701C86B2A6EB0B0018280BD15E46FB
:102370000AF101001FFA80FA0098AAEB0000182861
:1023800001D1DDF800A008F1010000F0FF08B8F16C
:10239000080FCFDB781CC7B2482FBEDB601CC4B26D
:1023A000062C98DBED1C06F1180086B2B34628789F
:1023B00000288ED16EE06EE000E06AE065E0002467
:1023C0005CE004EBC400544911F8200029788842ED
:1023D00052D104EBC400504901EB80004078697889
:1023E000884249D104EBC4004B4901EB800080785E
:1023F000A978884240D100273CE004EBC40046495C
:1024000001EB8000001D10F807904FF000082CE051
:1024100009F08000802807D13C490F980880514678
:102420003046FFF733F906E03849109808805146E6
:102430003046FFF72BF94FF6FF7000EA4909701C90
:1024400086B2A6EB0B0010280BD15E460AF1010004
:102450001FFA80FA0098AAEB0000102801D1DDF8DD
:1024600000A008F1010000F0FF08B8F1080FCFDB71
:10247000781CC7B2202FC0DB601CC4B26E2CA0DB5E
:10248000ED1C06F1100086B2B3462878002896D1DC
:1024900000E000BF87E0039801287DD10498102850
:1024A0007AD17CE0002471E0C4EBC40000EB04109E
:1024B0001A4911F810002978884265D1C4EBC4008C
:1024C00000EB0410154901EB400040786978884220
:1024D0005AD1C4EBC40000EB0410104901EB4000DA
:1024E0008078A97888424FD100274BE0C4EBC40024
:1024F00000EB0410094901EB4000001D10F80790A3
:102500004FF0000839E00000B00201081209002075
:102510006A010020F8EB0008C0ED0008010701087F
:1025200009F08000802807D120490F980880514683
:102530003046FFF7ABF806E01C491098088051467A
:102540003046FFF7A3F84FF6FF7000EA4909701C08
:1025500086B2A6EB0B0010280BD15E460AF10100F3
:102560001FFA80FA0098AAEB0000152801D1DDF8C7
:1025700000A008F1010000F0FF08B8F1080FCFDB60
:10258000781CC7B22A2FB1DB601CC4B2152C8BDBC0
:10259000ED1C06F1100000E005E086B2B346287895
:1025A00000287FF47FAF05B0BDE8F08F120900204E
:1025B0002DE9FF4F81B004460D461646A34600950F
:1025C0005AE00498182857D100274EE007EBC700BF
:1025D00000EB07102B4911F810003178884242D1E6
:1025E0004FF000083CE007EBC70000EB071025495F
:1025F00001EB4000801C10F808A04FF0000928E013
:102600000AF08000802807D11F490E9808802946CB
:102610002046FFF73BF806E01B490F980880294643
:102620002046FFF733F84FF6FF7000EA4A0A601CB5
:1026300084B2A4EB0B00102807D15C46681C85B25D
:102640000098281A182800D1009D09F1010000F017
:10265000FF09B9F1080FD3DB08F1010000F0FF0812
:10266000B8F1300FBFDB781CC7B21F2FAEDB761C72
:1026700004F1100084B2A34630780028A1D105B03F
:10268000BDE8F08F38FD0008120900202DE9FF4F4A
:1026900081B005460F461646AB460097DEE004982B
:1026A00018286AD1002460E004EB041000EB8000DD
:1026B0006E49085C3178884255D104EB041000EB78
:1026C00080006A4908444078717888424BD104EB15
:1026D000041000EB8000654908448078B178884296
:1026E00041D14FF000083BE004EB041000EB800008
:1026F0005E490844001D10F808A04FF0000928E0CA
:102700000AF08000802807D159490E980880394680
:102710002846FEF7BBFF06E055490F98088039466A
:102720002846FEF7B3FF4FF6FF7000EA4A0A681C1E
:1027300085B2A5EB0B00182807D15D46781C87B23F
:102740000098381A1B2800D1009F09F1010000F001
:10275000FF09B9F1080FD3DB08F1010000F0FF0811
:10276000B8F1510FC0DB601CC4B20C2C9CDBF61C12
:1027700005F1180085B2AB4670E0049810286DD1C1
:10278000002464E0C4EBC40000EB0410394911F8E4
:1027900010003178884258D1C4EBC40000EB04101B
:1027A000344901EB40004078717888424DD1C4EB48
:1027B000C40000EB04102F4901EB40008078B17891
:1027C000884242D14FF000083CE0C4EBC40000EB6B
:1027D0000410284901EB4000001D10F808A04FF03C
:1027E000000928E00AF08000802807D120490E98CF
:1027F000088039462846FEF749FF06E01C490F9835
:10280000088039462846FEF741FF4FF6FF7000EA80
:102810004A0A681C85B2A5EB0B00102807D15D465B
:10282000781C87B20098381A152800D1009F09F14A
:10283000010000F0FF09B9F1080FD3DB08F1010036
:1028400000F0FF08B8F12A0FBFDB601CC4B2122CE5
:1028500098DBF61C05F1100085B2AB4630780028F5
:102860007FF41DAF05B0BDE8F08F0000B002010895
:1028700012090020010701082DE9F05F8046894612
:1028800016469A46DDF828B0002700241FE00025F0
:102890001AE004FB0650012101EB40001BF8007018
:1028A0004FF6FF7000EA072704FB06501BF81000E4
:1028B00007430948078009EB040291B208EB0502BF
:1028C00090B2FEF7E3FE6D1CB542E2DB641C54459A
:1028D000DDDBBDE8F09F000012090020F8B50546D9
:1028E0000E4617461C4627E020780D2801D1641CAF
:1028F00022E020780A2803D1A81D85B2641C1BE0C1
:10290000E82D03DD552506F1100086B2B6F59C7F53
:1029100000DDF8BD0020009022783B463146284675
:10292000FFF7FAFA0C2F02D1A81D85B202E005F1DB
:10293000080085B2641C00BF20780028D4D100BFF5
:10294000E7E700004FF48041074A11604900116039
:1029500040F31701054AD1605114034A1160121F58
:102960001160890011607047140C01400010014093
:1029700000B52C20FFF7E6FF00BD00BFFEE7704763
:1029800070B5002100230F22C47804B3154C2468CD
:1029900004F4E064C4F5E064210AC1F10403CA4010
:1029A000447804FA03F184781440214309010E4C61
:1029B0000678A155047804F01F050124AC40057881
:1029C0006D11AD0005F1E025C5F8004109E004787E
:1029D00004F01F050124AC40044D0678761145F83B
:1029E000264070BD0CED00E000E400E080E100E076
:1029F00002490143024A1160704700000000FA05D5
:102A00000CED00E001460020034A506820F44040ED
:102A100008435060704700000010024029B1064A88
:102A2000D2690243044BDA6104E0034AD26982436B
:102A3000014BDA61704700000010024029B1064ADC
:102A400012690243044B1A6104E0034A126982438B
:102A5000014B1A61704700000010024029B1064A7C
:102A600092690243044B9A6104E0034A92698243EB
:102A7000014B9A61704700000010024029B1064ADC
:102A8000D2680243044BDA6004E0034AD26882430E
:102A9000014BDA6070470000001002400348406AB2
:102AA00040F0807001494862704700000010024009
:102AB00030B500210022002400232D4D6D6805F063
:102AC0000C0121B1042905D0082923D105E0294DA5
:102AD000056022E0274D05601FE0254D6D6805F477
:102AE0007012234D6D6805F48034022505EB924287
:102AF0001CB9214D554305600BE01D4D6D6805F473
:102B000000351DB11C4D5543056002E0194D55437C
:102B1000056002E0174D056000BF00BF144D6D68F1
:102B200005F0F0010909154D6B5C0568DD40456055
:102B30000F4D6D6805F4E061090A104D6B5C456846
:102B4000DD4085600A4D6D6805F46051C90A0B4D82
:102B50006B5C4568DD40C560054D6D6805F440411E
:102B6000890B074D6B5CC568B5FBF3F5056130BD9E
:102B70000010024000127A0000093D000000002011
:102B80001000002010B501460022002300204A1149
:102B9000012A02D1094C236806E0022A02D1074C1F
:102BA000236A01E0054C636A01F01F02012494408E
:102BB0001C400CB1012000E0002010BD00100240BC
:102BC00001490860704700008004424210B500F0DF
:102BD00001F810BD0CB5002001900090334800684A
:102BE00040F480303149086000BF3048006800F48C
:102BF000003000900198401C0190009818B901988D
:102C0000B0F5A06FF1D12948006800F4003010B190
:102C10000120009001E0002000900098012843D19D
:102C20002348006840F01000214908600846006809
:102C300020F0030008600846006840F002000860C9
:102C40001A48406819494860084640684860084684
:102C5000406840F4806048600846406820F47C107A
:102C600048600846406840F4E8104860084600683C
:102C700040F08070086000BF0C48006800F00070F1
:102C80000028F9D00948406820F00300074948604F
:102C90000846406840F00200486000BF03484068B2
:102CA00000F00C000828F9D10CBD00000010024013
:102CB00000200240042808D14FF0E021096941F0CA
:102CC00004014FF0E022116107E04FF0E0210969B3
:102CD00021F004014FF0E0221161704710B507F0B8
:102CE00099FE012801D007F055FC10BD10B513481E
:102CF000006840F00100114908600846406810492A
:102D000008400E494860084600680E4908400B49D3
:102D100008600846006820F4802008600846406883
:102D200020F4FE0048604FF41F008860FFF74EFF5C
:102D30004FF000600449086010BD00000010024020
:102D40000000FFF8FFFFF6FE08ED00E010B50121DE
:102D5000094800F054F8012808D108480268406882
:102D6000521C40F1000005490A60486001210248F8
:102D700000F036F810BD000000040040C80000203C
:102D80007FB505460C4601210220FFF747FEADF84E
:102D90000850ADF804400020ADF80A00ADF8060078
:102DA00001A90E4800F046F8012211460B4800F038
:102DB00037F81D208DF8000001208DF8010000205B
:102DC0008DF8020001208DF803006846FFF7D8FD5A
:102DD0000121024800F007F87FBD00000004004018
:102DE000CA430282704721B1028842F00102028088
:102DF00004E002884FF6FE731A400280704730B537
:102E00000246002000230024158A05EA0103958963
:102E100005EA010413B10CB1012000E0002030BD2F
:102E20001AB183890B43838102E083898B438381B9
:102E300070470000002202881D4B98420ED01D4BA7
:102E400098420BD0B0F1804F08D01B4B984205D070
:102E50001A4B984202D01A4B984204D14FF68F7306
:102E60001A404B881A43174B984207D0164B98428A
:102E700004D04FF6FF431A40CB881A4302808B8858
:102E800083850B8803850A4B98420BD0094B9842E7
:102E900008D00E4B984205D00D4B984202D00D4BF6
:102EA000984201D10B7A0386012383827047000088
:102EB000002C0140003401400004004000080040A4
:102EC000000C004000100040001400400040014091
:102ED000004401400048014038B540F225512748E0
:102EE00000F095F9002847D0244800F04BFAC4B20E
:102EF0002348007870B14021224800F017F921469C
:102F0000204800F044FA00BF40211E4800F072F94A
:102F10000028F9D01C480068B0F5FF7F09D81B488D
:102F200019490968445418480068401C164908604B
:102F30000FE04FF400711548FDF77BF900201249AE
:102F400008601248096844540F480068401C0E4944
:102F500008600FA10D4804F0C9F968B10F48007866
:102F60000E49497801EB41010844052804D169461E
:102F70000B48006807F0DCF938BD0000003801405C
:102F8000C200002000440040180900209C5D002081
:102F90003C2F526571756573743E0000300000204F
:102FA0002800002038B540F225511F4800F02FF9C5
:102FB000002836D01C4800F0E5F9C4B20D2C01D031
:102FC0000A2C09D12146184800F0E1F96946174852
:102FD000006807F0ADF938BD082C11D12146124820
:102FE00000F0D5F91248006848B111480068401E49
:102FF0000F49086000200F490D4A12688854EAE71B
:103000000B4800687F280CD22146074800F0BFF922
:10301000084807490968445405480068401C0449A9
:10302000086000BFD7E70000004400401C000020FB
:10303000140000202409002038B540F225512A4808
:1030400000F0E5F800284DD0274800F09BF9C4B205
:103050002648007870B14021254800F067F82146E5
:10306000234800F094F900BF4021214800F0C2F845
:103070000028F9D004B938BD1E480068B0F5FF7FBC
:1030800009D81D481B49096844541A480068401C67
:103090001849086002E019A001F032FA20480078CF
:1030A00000B3204800781F49497801EB41010844EA
:1030B000052817D107F0C4FC0546002003462A4620
:1030C000062100901848006807F07AFE07F0B8FC67
:1030D0000546002003462A46072100901248006852
:1030E00007F06EFE00BFC6E700480040C1000020A8
:1030F00000440040580100201C5B00205541525400
:10310000335F527842756666657228554152545F46
:103110004D35333130292069732066756C6C210080
:103120001C090020300000202009002001F400725A
:10313000B2F5007F00D100BFCA430280704721B1C1
:10314000828942F40052828104E082894DF6FF7345
:103150001A4082817047000010B50446204884421E
:1031600009D101218803FFF789FC00214FF4804039
:10317000FFF784FC32E01B48844209D10121480456
:10318000FFF75CFC00214FF40030FFF757FC25E00F
:103190001548844209D101218804FFF74FFC002122
:1031A0004FF48020FFF74AFC18E01048844209D110
:1031B0000121C804FFF742FC00214FF40020FFF773
:1031C0003DFC0BE00A48844208D101210805FFF7C5
:1031D00035FC00214FF48010FFF730FC10BD0000DB
:1031E000003801400044004000480040004C0040CE
:1031F0000050004002460020B1F5007F00D100BF22
:1032000013880B400BB1012000E00020704770B51F
:103210000246002400230025002040F66A16B14231
:1032200000D100BFC1F3421501F01F03012606FAC9
:1032300003F3012D02D19689334006E0022D02D11D
:10324000168A334001E0968A33400C12012606FAB2
:1032500004F41688344013B10CB1012000E00020C2
:1032600070BDF0B50346002400260025002040F67E
:103270006A17B94200D100BF1846C1F3421401F0E9
:103280001F06012707FA06F5012C01D10C3004E0D6
:10329000022C01D1103000E014301AB107682F431E
:1032A000076002E00768AF430760F0BD2DE9F04713
:1032B00086B005460E460024A24600BFA146002760
:1032C000B08900B100BF2F462C8A4CF6FF70044035
:1032D000F08804432C82AC894EF6F3100440B08889
:1032E00031890843718908430443AC81AC8A4FF6A5
:1032F000FF400440B0890443AC8201A8FFF7D8FB2B
:103300001F48874202D1DDF810A001E0DDF80CA0D3
:10331000A88900F4004040B10AEBCA0000EB0A1093
:1033200031684900B0FBF1F807E00AEBCA0000EB96
:103330000A1031688900B0FBF1F86420B8FBF0F0A6
:1033400004012009642101FB1089A88900F40040D0
:1033500040B1322000EBC900B0FBF1F000F00700F3
:10336000044308E0322000EB09106421B0FBF1F0C7
:1033700000F00F0004432C8106B0BDE8F087000088
:103380000038014001468888C0F308007047C1F347
:1033900008028280704700BFFEE7000030B5C1B070
:1033A0004FF4807101A8FCF744FF514951A001F08E
:1033B000A7F852A15448FCF753FF20B153A152483B
:1033C000FCF74EFF68B94A4953A001F099F84FF451
:1033D00000714D48FCF72DFF00205449086041B0B2
:1033E00030BD46A14848FCF73BFF00F1090447A166
:1033F0004548FCF735FF0546281BB0F5807F0CD902
:103400003B494BA001F07CF84FF400713E48FCF7BB
:1034100010FF002045490860E1E72A1B214601A86A
:10342000FCF7EEFE47A101A8FCF73FFF10B900F042
:10343000D9F953E046A101A8FCF737FF10B900F015
:10344000FBFA4BE045A101A8FCF72FFF10B900F0F3
:103450007BF943E044A101A8FCF727FF10B900F075
:103460009DFA3BE043A101A8FCF71FFF38B90120FA
:10347000434908701E4943A001F042F82EE046A1DE
:1034800001A8FCF712FF38B900203D49087018491F
:1034900045A001F035F821E048A101A803F04EFF56
:1034A000C0B148A101A803F021FF98B1104947A07D
:1034B00001F026F841A11448FCF7D2FE041D41A1F9
:1034C0001148FCF7CDFE05462A1B2146454804F06D
:1034D000ABFE03E0064944A001F012F84FF400717E
:1034E0000948FCF7A6FE00201049086000BF76E7F7
:1034F000B6F2010825732E2E2E0D0A003C5265717E
:10350000756573743E0000009C5D00203C2F526581
:1035100071756573743E00002573286572726F7251
:103520002064617461290D0A000000001809002060
:103530002573286F766572206C656E677468290D37
:103540000A000000646576696365496E666F000075
:10355000726164696F496E666F0000006174746126
:10356000636854696D65000070696E6744656C61DD
:1035700079000000626C654174456E61626C6500A3
:103580001C090020257328626C654174456E6162D8
:103590006C65290D0A000000626C65417444697312
:1035A00061626C6500000000257328626C654174DF
:1035B00044697361626C65290D0A00003C41543E08
:1035C000000000003C2F41543E00000025732852AB
:1035D00065637620415420436F6D6D616E64290DE3
:1035E0000A00000000480040257328756E6B6E6F5E
:1035F0007720636D64290D0A0000000030B58BB0A0
:103600002822104901A8FCF7FBFD05250E490FA053
:1036100000F076FF0DE041F28833012201A90DA0F0
:1036200001F000F80446012C01D10BB030BD681E3A
:10363000C5B2002DEFDC044908A000F061FF0020B6
:10364000F3E70000B8F0010897F0010825732E2E6B
:103650002E0D0A002B2B2B6100000000257328453E
:10366000786563757465206661696C21290D0A00AF
:1036700008B50D490DA000F043FF0E4802230022BB
:103680004FF4FA7100900CA007F064FB0E4908603B
:10369000FFF7B4FF00F01AF800F0A4FB00F042FBC3
:1036A00000F0D0FA08BD000040F2010825732E2E6C
:1036B0002E0D0A00B1550008626C654174457865AD
:1036C00054696D65720000002009002030B58BB090
:1036D0002822104901A8FCF793FD05250E490FA0EB
:1036E00000F00EFF0DE041F28833012201A90DA088
:1036F00000F098FF0446012C01D10BB030BD681ECC
:10370000C5B2002DEFDC04490AA000F0F9FE00204C
:10371000F3E70000F8F00108E0F0010825732E2E11
:103720002E0D0A0041542B4D41585055543D4F46E3
:10373000460D0A0025732845786563757465206613
:1037400061696C21290D0A0010B5A0B0802168467E
:10375000FCF76FFD11A16846FCF776FD124913A036
:1037600000F0CEFE01F060FF0446224611A1184889
:1037700004F0BEFD16496846FCF766FD15A16846D3
:10378000FCF762FD6846FCF789FD0446224669465F
:10379000134804F049FD20B010BD00003C52657391
:1037A000706F6E73653E000083F2010825732E2E44
:1037B0002E0D0A003C61747461636854696D653E46
:1037C00025643C2F61747461636854696D653E00C3
:1037D0009C5F00203C2F526573706F6E73653E00D6
:1037E0000038014010B5ADF5007D4FF4007168461A
:1037F000FCF71FFD39493AA000F082FE3AA1684665
:10380000FCF722FD40213B4801F06CFA3AA16846E2
:10381000FCF71AFD37496846FCF716FD39A16846E2
:10382000FCF712FD4021334801F0D4FA38A1684674
:10383000FCF70AFD2F496846FCF706FD38A16846EB
:10384000FCF702FD40212B4801F0F0F838A1684652
:10385000FCF7FAFC27496846FCF7F6FC36A16846F7
:10386000FCF7F2FC4021234801F0C6F935A1684677
:10387000FCF7EAFC1F496846FCF7E6FC33A1684602
:10388000FCF7E2FC40211B4801F042F931A16846F7
:10389000FCF7DAFC17496846FCF7D6FC2FA168460E
:1038A000FCF7D2FC2FA16846FCF7CEFC30A168469D
:1038B000FCF7CAFC32A16846FCF7C6FC33A1684697
:1038C000FCF7C2FC6846FCF7E9FC04462246694660
:1038D000314804F0A9FC0DF5007D10BD50F201083F
:1038E00025732E2E2E0D0A003C526573706F6E7379
:1038F000653E00009C5F00203C6D6F64756C653E0A
:10390000000000003C2F6D6F64756C653E00000088
:103910003C6D6F64756C655F7665723E00000000FB
:103920003C2F6D6F64756C655F7665723E000000BC
:103930003C69636369643E003C2F69636369643E6C
:10394000000000003C696D73693E00003C2F696D0A
:1039500073693E003C696D65693E00003C2F696DEE
:1039600065693E003C6669726D776172653E000074
:103970004E425F5465726D696E616C5F5630310006
:103980003C2F6669726D776172653E003C2F52650F
:1039900073706F6E73653E000038014010B5A0B0C3
:1039A00080216846FCF745FC114912A000F0A8FDF3
:1039B00012A16846FCF748FC01F014FB04462246BD
:1039C00011A1184804F094FC16496846FCF73CFC29
:1039D00015A16846FCF738FC6846FCF75FFC044616
:1039E00022466946134804F01FFC20B010BD0000B9
:1039F0009DF2010825732E2E2E0D0A003C52657390
:103A0000706F6E73653E00003C70696E6744656C54
:103A100061793E25643C2F70696E6744656C6179FD
:103A20003E0000009C5F00203C2F526573706F6E5B
:103A300073653E000038014010B5ADF5287D4FF4A8
:103A4000007128A8FCF7F5FB202120A8FCF7F1FB6A
:103A5000202118A8FCF7EDFB202110A8FCF7E9FBBA
:103A6000202108A8FCF7E5FB404941A000F048FDF3
:103A700041A128A8FCF7E8FB01F064FE04462246B9
:103A800040A1444804F034FC424928A8FCF7DCFB80
:103A9000684601F0BFFE2022694608A8FCF7B0FB8B
:103AA0003DA13C480A9A04F023FC3A4928A8FCF7B7
:103AB000CBFB3DA13748099A04F01AFC354928A8E8
:103AC000FCF7C2FB3CA13348089A04F011FC3149D1
:103AD00028A8FCF7B9FB3DA12E480B9A04F008FC7E
:103AE0002C4928A8FCF7B0FB0CAA3CA1294804F0FB
:103AF000FFFB284928A8FCF7A7FB01F0E5F90446DD
:103B000022463BA1234804F0F3FB224928A8FCF7F6
:103B10009BFB202218A920A801F060FB18AB20AA6B
:103B200037A11C4804F0E4FB1A4928A8FCF78CFBD9
:103B3000202110A801F0E8FA10AA3AA1154804F0D3
:103B4000D7FB144928A8FCF77FFB3AA128A8FCF76B
:103B50007BFB28A8FCF7A2FB0446224628A938488C
:103B600004F062FB0DF5287D10BD00006AF201082B
:103B700025732E2E2E0D0A003C526573706F6E73E6
:103B8000653E00003C6373713E25643C2F63737196
:103B90003E0000009C5F00203C736E723E25643C3A
:103BA0002F736E723E0000003C727372713E25648A
:103BB0003C2F727372713E003C65617266636E3EAB
:103BC00025643C2F65617266636E3E003C65636CE4
:103BD0003E25643C2F65636C3E0000003C63656CD1
:103BE0006C69643E25733C2F63656C6C69643E00B0
:103BF0003C62616E643E25643C2F62616E643E00EF
:103C00003C74333332343E25733C2F7433333234B7
:103C10003E3C74333431323E25733C2F743334319F
:103C2000323E00003C706C6D6E3E25733C2F706C14
:103C30006D6E3E003C2F526573706F6E73653E0073
:103C40000038014070B58AB0282220496846FCF748
:103C5000D7FA05260A251E491EA000F051FC2DE0CA
:103C600041F28833012269461CA000F0DBFC0446C7
:103C7000012C21D11BE01BA11C48FCF7F1FA40B13B
:103C80004FF400711948FCF7D4FA00201849086075
:103C90000FE0681EC5B235B90D4916A000F030FC22
:103CA00002200AB070BD4FF47A7005F0E1F8002DE3
:103CB000E1DC00BF0120F4E7701EC6B2002ECFDCAD
:103CC000034913A000F01CFC0020EAE700F2010801
:103CD000ECF1010825732E2E2E0D0A0041542B5AAB
:103CE0000D0A00005553522D424C45009C5D0020AA
:103CF0001809002025732857616974426F6F744D4D
:103D000073672074696D656F7574290D0A00000072
:103D100025732845786563757465206661696C2133
:103D2000290D0A0070B5A2B028221F4918A8FCF777
:103D300067FA0525402108A8FCF77BFA2021684690
:103D4000FCF777FA19491AA000F0DAFB202168463F
:103D500000F0DEFE18A108A8FCF776FA6846FCF72A
:103D60009DFA69460844861E314608A8FCF76CFA9D
:103D700016A108A8FCF768FA0DE041F28833012289
:103D800018A908A800F04EFC0446012C01D122B06D
:103D900070BD681EC5B2002DEFDC04490CA000F018
:103DA000AFFB0020F3E700007CF1010868F1010897
:103DB00025732E2E2E0D0A0041542B4E414D453DAC
:103DC00044353331302D415F000000000D0A000002
:103DD00025732845786563757465206661696C2173
:103DE000290D0A0030B58BB02822104901A8FCF734
:103DF00007FA05250E490FA000F082FB0DE041F205
:103E00008833012201A90DA000F00CFC0446012C0E
:103E100001D10BB030BD681EC5B2002DEFDC0449E6
:103E20000AA000F06DFB0020F3E7000040F101085C
:103E300020F1010825732E2E2E0D0A0041542B551A
:103E4000415254544D3D3130300D0A002573284500
:103E5000786563757465206661696C21290D0A00B7
:103E60000EB54FF6FF70002105A21023CDE9002109
:103E70000290022296215020FEF732F900BFFEE7A1
:103E8000E58A9FE883BDE5BC80E58F91E4B8AD008D
:103E9000FFF7EEFB0EE042F21071012006F090F801
:103EA00004462246044905A000F02AFB012C01D15A
:103EB000FFF774FAEFE7000081AE00082573286E63
:103EC0006F7469667956616C75653A202564290DB1
:103ED0000A00000010B5002406E0054901EB0410BB
:103EE000FDF7A4F9601CC4B2072CF6D310BD000086
:103EF000E8000020184919A000F002FBFFF7EAFFD4
:103F000029E042F21071012006F05AF804462246D8
:103F1000114914A000F0F4FA012C1CD164211748B7
:103F2000FCF787F900BF642214491548FDF70EF924
:103F300005461248FCF7B2F9064632460F491148C9
:103F400004F072F9002DEED164210D48FCF771F9EF
:103F500000200D490860D4E746AE000825732E2ED8
:103F60002E0D0A002573286E6F7469667956616C90
:103F700075653A202564290D0A0000008809002093
:103F80002409002000440040140000202DE9F04FD7
:103F900093B083464FF0000900240025002700203D
:103FA00012901190804610900F900E90002682463D
:103FB0000D900C900B9040F29E5040F23F134F2218
:103FC000282100900020FDF7B5FB40F29E50002113
:103FD000FEA21023CDE90021029002223221052009
:103FE000FEF77EF840F29E500021FCA21023CDE99E
:103FF0000021029002226E210520FEF771F840F2A6
:104000009E500021F9A21023CDE900210290022246
:10401000BE210520FEF764F840F29E500021F7A271
:104020001023CDE90021029002224FF48771052070
:10403000FEF756F844F29830F44908804F23EF22F7
:1040400019460020FDF7CAFA9F23EF2219460020E7
:10405000FDF7C4FAEF231A4619460020FDF7BEFA11
:1040600040F23F13502228211046FDF7B7FA41F6DF
:104070000510E64908804323EC2231217D20FDF71D
:1040800039FB4FF6FF700021E1A21023CDE900219A
:104090000290022256215520FEF722F84FF6FF70BB
:1040A0000021DFA21023CDE90021029002226D2120
:1040B0005520FEF715F84FF6FF700021DCA2102303
:1040C000CDE900210290022284215520FEF708F854
:1040D0004FF6FF700021CEA21023CDE900210290FF
:1040E0000222A6215520FDF7FBFF4FF6FF700021AD
:1040F000D3A21023CDE9002102900222BD21552038
:10410000FDF7EEFF4FF6FF700021C5A21023CDE9A9
:10411000002102900222D4215520FDF7E1FF4FF645
:10412000FF700021BAA21023CDE9002102900222E3
:10413000F6215520FDF7D4FF4FF6FF700021B8A2FD
:104140001023CDE900210290022240F20D115520EA
:10415000FDF7C6FF4FF6FF700021BDA21023CDE989
:104160000021029002224FF492715520FDF7B8FF12
:1041700040F29E5042237F22322100907E20FDF7A4
:10418000D9FAB3E109F101095B464A46B4A1B64840
:1041900004F0AEF800209D4908804FF6FF70B34947
:1041A0000880B14B102232215520FEF797FB01F019
:1041B0003BFA0446322004F05BFE012C10D9E91BC7
:1041C000129800FB0141E81B401CB1FBF0F012907B
:1041D000E81B02D01198844200D911946D1C01E0B3
:1041E0006D1C7F1C0020894908804FF6FF709F4995
:1041F00008801298FCF713FA9D490690FCF7B8F86E
:104200000790FCF72AFA02460B46CDE9080199A16E
:10421000954804F06DF8944B102256219620FEF735
:104220005DFB1198FCF7FBF991490690FCF7A0F8AB
:104230000790FCF712FA02460B46CDE908018DA162
:10424000894804F055F8884B10226D219620FEF71E
:1042500045FB2846FCF7E3F90590E81BFCF7DFF97E
:1042600004900599FCF784F884490690FCF74EF811
:104270000790FCF7F2F902460B46CDE9080180A150
:10428000794804F035F8784B102284219620FEF707
:1042900025FB01F057FA0446CCB11F2C17D80F9814
:1042A00000FB084108F10100B1FBF0F00F90B8F1FC
:1042B000000F02D00E98844200D20E94B8F1000F85
:1042C00002D01098844200D9109408F101086FA11F
:1042D00065480F9A04F00CF8634B1022A621962033
:1042E000FEF7FCFA69A160480E9A04F001F85E4BF3
:1042F0001022BD219620FEF7F1FA64A15A48109AC7
:1043000003F0F6FF584B1022D4219620FEF7E6FA70
:1043100000F068FE0446B4B1A6EB0A010D9800FB5C
:104320000141A6EB0A00401CB1FBF0F00D9016B164
:104330000C98844200D90C9416B10B98844200D298
:104340000B94761C02E0761C0AF1010A51A1464842
:104350000D9A03F0CDFF444B1022F6219620FEF774
:10436000BDFA4CA140480C9A03F0C2FF3E4B10220C
:1043700040F20D119620FEF7B1FA3046FCF74FF9E6
:1043800005905046FCF74BF904900599FBF7F0FFB8
:104390003A490690FBF7BAFF0790FCF75EF9024630
:1043A0000B46CDE9080136A12F4803F0A1FF2E4BA3
:1043B00010224FF492719620FEF790FA5846FCF7BF
:1043C0002EF901904846FCF72AF967E0E6B58BE83C
:1043D000AF95E8BF9BE5BAA600000000E9A9BBE7DE
:1043E000BD91E697B6E997B400000000E4BFA1E5EF
:1043F0008FB7E8B4A8E9878F00000000E7BD91E718
:10440000BB9CE5BBB6E697B6000000001209002091
:10441000E5B9B3E59D87E580BCEFBC9A00000000DC
:10442000E69C80E5A4A7E580BCEFBC9A00000000F4
:10443000E68890E58A9FE78E87EFBC9A000000002F
:10444000E69C80E5B08FE580BCEFBC9A00000000E0
:10445000E4B8A2E58C85E78E87EFBC9A00000000E7
:1044600025642F25640000001C5D00201409002035
:1044700000007A44252D352E316673000000C842B5
:10448000252D352E3166252500000000252D3264AE
:1044900000000000252D35646D7300000090019927
:1044A000FBF766FF14490290FBF730FF0390FCF71F
:1044B000D4F8CDE9040104F011FD00220F4BCDE941
:1044C0000601FBF793FFCDE90801FCF7ADF880B2D8
:1044D0000A9040F29E504223009032217E200A9A98
:1044E000FDF728F94FF4FA6004F0C2FCD945FFF457
:1044F00049AE13B0BDE8F08F0000DC4200805F40A1
:104500000FB410B5C2B04FF4807102A8FBF791FE52
:1045100045A80190F92102A8019B449A03F0FCFEF2
:10452000002001900748007840B102A8FBF7B6FED2
:104530000446224602A9044803F076FE42B010BCAD
:104540005DF814FBD0000020004400402DE9F05F2E
:1045500005460E46174698464FF000094FF0640A8C
:104560004FF400711D48FBF764FE00201C490860F1
:104570002846FBF793FE83465A462946194803F01E
:1045800053FE2A46184919A0FFF7BAFF24E0002479
:1045900011E004EB840006EB80011048FBF760FE9D
:1045A00038B1621C104914A0FFF7AAFF601CBDE8D7
:1045B000F09F601CC4B2BC42EBDB09FB0AF0404533
:1045C00005D3094911A0FFF79BFF0020EFE75046F4
:1045D00004F04EFC09F10109D9E700001C5B002042
:1045E00058010020004800401CAF000825732853E4
:1045F000656E642D3E25730025732872657475728F
:104600006E3A202564290D0A0000000025732865F4
:104610007865637574652074696D656F757421299B
:104620000D0A00002DE9F05F05460E461746984634
:104630004FF000094FF0640A4FF400711D48FBF77A
:10464000F8FD00201C4908602846FBF727FE83463A
:104650005A462946194803F0E7FD2A46184919A089
:10466000FFF74EFF24E0002411E004EB840006EB8A
:1046700080011048FBF7F4FD38B1621C104914A00A
:10468000FFF73EFF601CBDE8F09F601CC4B2BC4257
:10469000EBDB09FB0AF0404505D3094911A0FFF700
:1046A0002FFF0020EFE7504604F0E2FB09F101097B
:1046B000D9E700009C5D0020180900200038014067
:1046C00080F0010825732853656E642D3E25730024
:1046D00025732872657475726E3A202564290D0A57
:1046E0000000000025732865786563757465207483
:1046F000696D656F757421290D0A0000FEB50546C8
:104700000E469D499DA0FFF7FBFE06EB46002844A0
:10471000C4B24FF6FF70FCF72DFF9A481E231A46CD
:10472000052100900846FEF7A7F84FF6FF7040F20B
:10473000194195A21823CDE90021029000220621FB
:104740002320FDF7CDFC944814231A460A2100903B
:10475000A520FEF791F80020904908802723EF223A
:104760001946FCF73BFF8E4832231A463C21009045
:104770000F20FEF781F86CB940F29E50002189A20B
:104780001023CDE90021029002226E210820FDF7BE
:10479000A7FC0CE04FF6FF70002182A21023CDE9A8
:1047A0000021029002226E210820FDF799FC814829
:1047B00032231A463C2100905F20FEF75DF8012C61
:1047C0000DD140F29E5000217BA21023CDE90021A3
:1047D000029002226E215820FDF782FC0CE04FF679
:1047E000FF70002174A21023CDE900210290022263
:1047F0006E215820FDF774FC734832231A463C2181
:104800000090AF20FEF738F8022C0DD140F29E50F8
:1048100000216EA21023CDE90021029002226E2118
:10482000A820FDF75DFC0CE04FF6FF70002167A2A9
:104830001023CDE90021029002226E21A820FDF76D
:104840004FFC664832231A46962100900F20FEF74F
:1048500013F8032C0DD140F29E50002160A21023CA
:10486000CDE9002102900222C8210820FDF738FC82
:104870000CE04FF6FF70002159A21023CDE9002172
:1048800002900222C8210820FDF72AFC5848322352
:104890001A46962100905F20FDF7EEFF042C0DD103
:1048A00040F29E50002153A21023CDE90021029036
:1048B0000222C8215820FDF713FC0CE04FF6FF70D0
:1048C00000214CA21023CDE9002102900222C82130
:1048D0005820FDF705FC4B4832231A4696210090DC
:1048E000AF20FDF7C9FF052C0DD140F29E500021ED
:1048F00045A21023CDE9002102900222C821A82060
:10490000FDF7EEFB0CE04FF6FF7000213EA21023F6
:10491000CDE9002102900222C821A820FDF7E0FB8A
:104920003D4832231A46F02100900F20FDF7A4FFE6
:10493000062C0ED140F29E50002138A21023CDE962
:104940000021029002224FF491710820FDF7C8FB6C
:104950000DE04FF6FF70002130A21023CDE90021B9
:10496000029002224FF491710820FDF7B9FB3C2020
:1049700001F074F9FEBD000028F0010825732E2E09
:104980002E0000001F120108E4B8ADE7A7BBE789BD
:10499000A9E88194E7BD9100C70A01081209002027
:1049A00047670108E8AEBEE5A487E4BFA1E681AF92
:1049B00000000000578E0108E9A9BBE7BD91E6B5EC
:1049C0008BE8AF9500000000CF7A0108E4BFA1E5B5
:1049D0008FB7E58F82E695B000000000DFA10108E7
:1049E000E7BD91E7BB9CE5BBB6E697B600000000CB
:1049F00067B50108E7BBBCE59088E6B58BE8AF95E5
:104A000000000000EFC80108E8939DE78999E79B43
:104A1000B4E8BF9E0000000077DC0108E4BDBFE7FA
:104A200094A8E8AFB4E6988E000000002DE9F043AA
:104A30008BB005460E462822204901A8FBF7E0FB73
:104A4000052731462846FBF7F4FB2AE0781EC7B25B
:104A50004FF4FA63022201A919A0FFF777FD00F0D5
:104A6000FF08B8F1010F18D118A11A48FBF7F8FB9D
:104A7000841D19A12046FBF7F3FB8146A9EB040234
:104A800021462846FBF71FFC2A46164916A0FFF7C9
:104A900037FD01200BB0BDE8F0834FF4FA7004F04D
:104AA000E7F9002FD2DC324612A12846FBF7EAFBD9
:104AB0000C4912A0FFF724FD0020EBE748B00008E6
:104AC00041542B4E434349440D0A00004E43434991
:104AD000443A00001C5B00200D0A0D0A4F4B0D0AE2
:104AE0000000000038B000082573282573290D0A3E
:104AF000000000004E4F2053494D0000257328450B
:104B00007865204661696C656421290D0A00000002
:104B10002DE9F0438BB005460E462822204901A816
:104B2000FBF76EFB052731462846FBF782FB2AE0A0
:104B3000781EC7B24FF4FA63022201A919A0FFF749
:104B400005FD00F0FF08B8F1010F18D118A11A48AF
:104B5000FBF786FB441D19A12046FBF781FB81462C
:104B6000A9EB040221462846FBF7ADFB2A4616496D
:104B700016A0FFF7C5FC01200BB0BDE8F0834FF491
:104B8000FA7004F075F9002FD2DC324612A12846E3
:104B9000FBF778FB0C4913A0FFF7B2FC0020EBE712
:104BA000B8B0000841542B4347534E3D310D0A0025
:104BB0004347534E3A0000001C5B00200D0A0D0ACB
:104BC0004F4B0D0A00000000A8B0000825732825EF
:104BD00073290D0A000000004E4F204D6F64756C64
:104BE00065000000257328457865204661696C657D
:104BF0006421290D0A0000002DE9F0438BB0054621
:104C00000E462822264901A8FBF7FAFA0527314665
:104C10002846FBF70EFB35E0781EC7B24FF4FA6367
:104C2000022201A91FA0FFF791FC00F0FF08B8F1D4
:104C3000010F23D11E4C0BE02078202805D02078CE
:104C40000D2802D020780A2801D1641C00E000E081
:104C5000F2E700BF17A12046FBF702FB8146A9EB54
:104C6000040221462846FBF72EFB2A46124913A0D0
:104C7000FFF746FC01200BB0BDE8F0834FF4FA705B
:104C800004F0F6F8002FC7DC32460FA12846FBF7E8
:104C9000F9FA09490EA0FFF733FC0020EBE700000A
:104CA00080B0000841542B43494D490D0A000000D3
:104CB0001C5B00200D0A000070B000082573282539
:104CC00073290D0A000000004E4F2053494D00008B
:104CD000257328457865204661696C656421290D36
:104CE0000A0000002DE9F0438BB005460E4628224D
:104CF000264901A8FBF784FA052731462846FBF729
:104D000098FA35E0781EC7B24FF4FA63022201A97F
:104D10001FA0FFF71BFC00F0FF08B8F1010F23D123
:104D20001E4C0BE02078202805D020780D2802D0DA
:104D300020780A2801D1641C00E000E0F2E700BFFF
:104D400017A12046FBF78CFA8146A9EB0402214605
:104D50002846FBF7B8FA2A46134914A0FFF7D0FB00
:104D600001200BB0BDE8F0834FF4FA7004F080F836
:104D7000002FC7DC324610A12846FBF783FA0A4908
:104D80000FA0FFF7BDFB0020EBE70000D0AF00084D
:104D900041542B43474D4D0D0A0000001C5B002081
:104DA0000D0A0D0A4F4B0000B8AF000825732825E7
:104DB00073290D0A000000004552524F52000000B6
:104DC000257328457865204661696C656421290D45
:104DD0000A0000002DE9F0438BB005460E4628225C
:104DE000264901A8FBF70CFA052731462846FBF7B0
:104DF00020FA35E0781EC7B24FF4FA63022201A907
:104E00001FA0FFF7A3FB00F0FF08B8F1010F23D1AB
:104E10001E4C0BE02078202805D020780D2802D0E9
:104E200020780A2801D1641C00E000E0F2E700BF0E
:104E300017A12046FBF714FA8146A9EB040221468C
:104E40002846FBF740FA2A46144915A0FFF758FBFD
:104E500001200BB0BDE8F0834FF4FA7004F008F8BD
:104E6000002FC7DC324611A12846FBF70BFA0B498D
:104E700010A0FFF745FB0020EBE7000010B0000892
:104E800041542B434D5645520D0A00001C5B002037
:104E90000D0A0D0A4F4B0D0A00000000F8AF000884
:104EA0002573282573290D0A000000004552524F32
:104EB00052000000257328457865204661696C65BD
:104EC0006421290D0A0000002DE9F0418AB0282252
:104ED0002E496846FBF794F9052600254EE0701E22
:104EE000C6B24FF4FA630222694629A0FFF72EFBEF
:104EF000C7B2012F3ED129A12A48FBF7B1F90446D8
:104F0000002C33D0E41D4FF000081CE0207820284E
:104F100001D1641C17E020782D2803D14FF001083F
:104F2000641C10E0207830280BDB2078392808DC5E
:104F3000207805EB850100EB4100A0F13005641CF1
:104F400000E001E000BFE1E700BFB8F1000F02D0D0
:104F50004FF0FF3000E0012045432A46124913A0DC
:104F6000FFF7CEFA28460AB0BDE8F0810E4912A03C
:104F7000FFF7C6FA4FF4FA7003F07AFF002EAEDCAA
:104F8000094913A0FFF7BCFA0020ECE72CB1000898
:104F900041542B4E42414E443F0D0A002B4E42419C
:104FA0004E443A001C5B002018B1000825732825E8
:104FB00064290D0A0000000025732842414E442058
:104FC0004E6F7420466F756E6421290D0A00000033
:104FD000257328457865204661696C656421290D33
:104FE0000A000000F0B59FB03C22304910A8FBF742
:104FF00007F90527002640216846FBF71AF92CA17E
:105000006846FBF721F92D496846FBF71DF92CA1ED
:105010006846FBF719F940E0781EC7B242F6E06334
:10502000032210A96846FFF791FAC5B2012D28D1D5
:105030004FF47A7003F01CFF1FA12548FBF710F90D
:10504000441C14E02078202801D1641C0FE0207853
:1050500030280BDB2078392808DC207806EB860125
:1050600000EB4100A0F13006641C00E000E0E9E73D
:1050700000BF3246174918A0FFF742FA30461FB06A
:10508000F0BD022D05D1134916A0FFF739FA002013
:10509000F5E74FF4FA7003F0EBFE002FBCDC0D498E
:1050A00014A0FFF72DFA0020E9E70000B0B10008D6
:1050B00041542B4E50494E473D0000005C010020FA
:1050C0002C3130302C31303030302C310D0A000092
:1050D0001C5B002098B100082573282564290D0A5F
:1050E000000000002573284E50494E47455252217A
:1050F000290D0A00257328457865204661696C658D
:105100006421290D0A0000002DE9F0438BB005460B
:105110000E462822204901A8FBF772F805273146E0
:105120002846FBF786F82AE0781EC7B24FF4FA63E8
:10513000022201A919A0FFF709FA00F0FF08B8F14F
:10514000010F18D118A11948FBF78AF8441C16A1C1
:105150002046FBF785F88146A9EB04022146284644
:10516000FBF7B1F82A46124912A0FFF7C9F901204E
:105170000BB0BDE8F0834FF4FA7003F079FE002F16
:10518000D2DC32460EA12846FBF77CF808490EA077
:10519000FFF7B6F90020EBE7F0B0000841542B43CD
:1051A0004F50533F0D0A0000220000001C5B0020FE
:1051B000E0B000082573282573290D0A00000000BF
:1051C0004552524F5200000025732845786520460D
:1051D00061696C656421290D0A0000002DE9F04F1A
:1051E0008DB083460F46904628228F4903A8FBF7CF
:1051F00007F84FF005090020009001900290414609
:105200005846FBF716F841463846FBF712F8F7E028
:10521000A9F1010000F0FF094FF4FA63022203A98B
:1052200082A0FFF793F900F0FF0ABAF1010F78D1DD
:10523000814A824982A0FFF763F983A17E48FBF788
:105240000FF8441C80A12046FBF70AF8441C7EA1FD
:105250002046FBF705F8441C7BA12046FBF700F82D
:105260000646032279A12046FBF741F828B90A2215
:1052700077A16846FBF706F859E0032276A120469D
:10528000FBF735F828B90A2274A16846FAF7FAFF45
:105290004DE0032272A12046FBF729F828B90A2223
:1052A00070A16846FAF7EEFF41E003226EA12046A6
:1052B000FBF71DF828B90A226CA16846FAF7E2FF4D
:1052C00035E003226AA12046FBF711F828B90A222B
:1052D00068A16846FAF7D6FF29E0032266A12046B6
:1052E000FBF705F828B90A2264A16846FAF7CAFF55
:1052F0001DE0032263A12046FAF7F9FF28B90A222C
:1053000061A16846FAF7BEFF11E0032260A12046C2
:10531000FAF7EDFF30B90A225EA16846FAF7B2FF4C
:1053200005E069E007225BA16846FAF7ABFFE41CE1
:10533000002505E0207800EB4500A0F13005641C55
:10534000B442F7D36B462A4654A1384602F0D0FF48
:105350003DA12046FAF784FF441C52A12046FAF7EB
:105360007FFF0646032239A12046FAF7C0FF28B97D
:105370000A223EA16846FAF785FF28E0032236A1FB
:105380002046FAF7B4FF28B90A223CA16846FAF78A
:1053900079FF1CE0032232A12046FAF7A8FF28B9C2
:1053A0000A2241A16846FAF76DFF10E0032238A1F6
:1053B0002046FAF79CFF28B90A2236A16846FAF778
:1053C00061FF04E0072233A16846FAF75BFF00257E
:1053D000E41C05E0207800EB4500A0F13005641CDA
:1053E000B442F7D36B462A462CA1584602F080FF00
:1053F00001200DB0BDE8F08F4FF4FA7003F038FDD6
:10540000B9F1000F3FF704AF42462AA13846FAF738
:1054100039FF424627A15846FAF734FF074927A02B
:10542000FFF76EF80020E4E770B1000841542B4309
:1054300050534D533F0D0A001C5B002054B100082F
:1054400025732825732900002C000000303030001F
:1054500031306D696E00000030303100316800007D
:1054600030313000313068003031310032730000AB
:10547000313030003330730031303100316D696EBE
:10548000000000003131300033323068000000008D
:1054900031313100496E76616C6964002564202ADF
:1054A000202573000D0A000064656369686F7572DA
:1054B000730000004552524F5200000025732845EA
:1054C0007865204661696C656421290D0A00000039
:1054D00010B50446034904A0FFF712F8044801F090
:1054E00049FF10BD59AE000825732E2E2E0D0A005F
:1054F000300000201CB503F0A5FB04F0F9FD1A48AC
:10550000012100234A02CDE9001018A11A4805F034
:1055100051FA04F0FFFD25E042F21071012004F081
:105520004FFD04462246154915A0FEF7E9FF012C60
:1055300018D104F0DDFD0C48006838B10A48006855
:1055400004F07EFE0D4914A0FEF7DAFF06480121A3
:1055500000234A02CDE9001004A1074805F02AFA09
:1055600004F0D8FDD8E70000240000206C63645FDD
:105570007461736B00000000D15400086CAE000829
:105580002573286E6F7469667956616C75653A206B
:105590002564290D0A00000025732844656C657494
:1055A00065204C6364207461736B290D0A00000050
:1055B00010B50E490EA0FEF7A3FF0E220EA1124851
:1055C00002F032FE1148124902680F4802F02CFE28
:1055D000102210A10C4802F027FE4FF400710C4875
:1055E000FAF727FE00200949086010BD28F20108DB
:1055F00025732E2E2E0D0A003C526573706F6E734C
:10560000653E3C41543E00000038014058010020F6
:105610001C5B00203C2F41543E3C2F526573706F41
:105620006E73653E0000000070B594B028222549D5
:105630000AA8FAF7E5FD2822224928316846FAF738
:10564000DFFD41F2883301220AA91FA0FEF77EFF89
:105650000646012E30D11F480468406820E041F220
:105660008833022269461CA0FEF770FF0646022E10
:1056700000D116E0174802684068121B60F1000074
:10568000184B00219A1A814106D2174917A0FEF73C
:1056900037FF012014B070BD4FF4FA7003F0E8FB3F
:1056A000DDE700BF0B48056840682A1B0E4915A0BE
:1056B000FEF726FF281BEDE70B4918A0FEF720FF99
:1056C0000020E7E7CCAE000841542B4E52420D0AB1
:1056D00000000000C800002041542B4347415454AF
:1056E0003F0D0A0020BF0200ACAE00082573284120
:1056F00074746163682074696D656F757421290D18
:105700000A00000025732872657475726E3A2025B0
:105710006C64206D73290D0A000000002573285762
:1057200061697420626F6F7420696E666F726D615B
:1057300074696F6E2074696D656F757421290D0A27
:1057400000000000F0B58BB02822234901A8FAF729
:1057500057FD0527002636E0781EC7B24FF4FA63DE
:10576000022201A91DA0FEF7F1FE0546012D26D15A
:105770001DA11F48FAF774FD0446241D15E020788A
:10578000202801D1641C10E0207830280BDB207821
:10579000392808DC207806EB860100EB4100303820
:1057A000C6B2641C00E001E000BFE8E700BF32467B
:1057B000104911A0FEF7A4FE30460BB0F0BD4FF427
:1057C000FA7003F055FB002FC6DC0A490DA0FEF766
:1057D00097FE0020F1E7000050AF000841542B4332
:1057E00053510D0A000000004353513A00000000DD
:1057F0001C5B002030AF00082573282564290D0AA2
:10580000000000002573284661696C656421290D3C
:105810000A0000002DE9F04792B0824620210AA834
:10582000FAF707FD4FF005082822A1496846FAF764
:10583000E7FC00262BE1A8F1010000F0FF084FF47F
:10584000FA63022269469BA0FEF780FE0746012FFD
:1058500070D19CA19D48FAF703FD0446002C2FD07F
:10586000E41D00261CE02078202801D1641C17E0EC
:1058700020782D2802D10126641C11E020783028E0
:105880000CDB2078392809DC20780A9901EB8101AA
:1058900000EB410030380A90641C00E001E000BFDA
:1058A000E1E700BF0A9816B14FF0FF3100E0012197
:1058B00048430A90864987A00A9AFEF721FE03E032
:1058C000834989A0FEF71CFE8DA18048FAF7C8FC29
:1058D000044684B3641D00261CE02078202801D1F2
:1058E000641C17E020782D2802D10126641C11E0E9
:1058F000207830280CDB2078392809DC20780B99B7
:1059000001EB810100EB410030380B90641C00E09A
:1059100001E000BFE1E700BF0B9816B14FF0FF3187
:1059200000E0012148430B90694977A00B9AFEF7EC
:10593000E7FD05E0A7E0FFE7654977A0FEF7E0FD9A
:105940007BA16248FAF78CFC04467CB3241D002638
:105950001CE02078202801D1641C17E020782D2835
:1059600002D10126641C11E0207830280CDB20785D
:10597000392809DC20780C9901EB810100EB41000A
:1059800030380C90641C00E001E000BFE1E700BF8C
:105990000C9816B14FF0FF3100E0012148430C9004
:1059A0004B4965A00C9AFEF7ABFD04E0FFE74849C0
:1059B00065A0FEF7A5FD6AA14448FAF751FC04462C
:1059C0007CB3241D00261CE02078202801D1641C13
:1059D00017E020782D2802D10126641C11E02078E0
:1059E00030280CDB2078392809DC20780D9901EB70
:1059F000810100EB410030380D90641C00E001E0B3
:105A000000BFE1E700BF0D9816B14FF0FF3100E095
:105A1000012148430D902E4953A00D9AFEF770FDC9
:105A200004E0FFE72A4954A0FEF76AFD58A1274881
:105A3000FAF716FC00F1080585B142A12846FAF7ED
:105A40000FFC8146A9EB050229460EA8FAF7D8FB00
:105A50000EAA1F4951A0FEF753FD0CE054A00168A7
:105A60000E918188ADF83C1080798DF83E00184980
:105A700051A0FEF745FD20220AA95046FAF7C0FBC7
:105A800012B0BDE8F087124951A0FEF739FDB8F118
:105A9000000F3FF7D0AE102252A10EA8FAF7F2FB8A
:105AA00020220AA95046FAF7ABFB00BFE8E7000046
:105AB00090AF000841542B4E554553544154530D5B
:105AC0000A00000045415246434E3A001C5B00204C
:105AD00078AF000825732845415246434E3A2025A9
