:020000040800F2
:10000000700A0020E1010008550C00089108000862
:10001000510C000875070008DB15000800000000FF
:10002000000000000000000000000000490100087E
:1000300079070008000000008D010008410F00084A
:10004000FB010008FB010008FB010008FB010008A0
:10005000FB010008FB010008FB010008FB01000890
:10006000FB010008FB010008FB010008FB01000880
:10007000FB010008FB010008FB010008FB01000870
:10008000FB010008FB010008FB010008FB01000860
:10009000FB010008FB010008FB010008FB01000850
:1000A000FB010008FB010008FB010008FB01000840
:1000B000FB01000835120008FB010008FB010008E5
:1000C000FB010008FB010008FB010008FB01000820
:1000D000FB010008911200089512000805130008A2
:1000E000FB010008FB010008FB010008FB01000800
:1000F000FB010008FB010008FB010008FB010008F0
:10010000FB010008FB010008FB010008FB010008DF
:10011000FB010008FB010008FB010008FB010008CF
:10012000FB010008FB010008FB010008FB010008BF
:10013000DFF80CD000F07EFA00480047CD2300081D
:10014000700A002070470000224B19680868B0E868
:10015000F00F80F30988BFF36F8F4FF0000080F33A
:1001600011884EF00D0E7047000000000648006830
:10017000006880F3088862B661B6BFF34F8FBFF3A3
:100180006F8F00DF00BF00BF08ED00E0EFF30980D4
:10019000BFF36F8F0F4B1A6820E9F00F106008B59E
:1001A0004FF0BF0080F31188BFF34F8FBFF36F8F05
:1001B00002F0AEFA4FF0000080F31188BDE808406D
:1001C00019680868B0E8F00F80F30988BFF36F8FF3
:1001D000704700BF38000020EFF305807047000033
:1001E0000648804706480047FEE7FEE7FEE7FEE7D1
:1001F000FEE7FEE7FEE7FEE7FEE7FEE7510F000839
:1002000031010008D2B201E000F8012B491EFBD2F7
:1002100070470022F6E710B513460A460446194611
:10022000FFF7F0FF204610BD421C10F8011B00290B
:10023000FBD1801A704730B50B46014600202022C2
:10024000012409E021FA02F59D4205D303FA02F5E3
:10025000491B04FA02F52844151EA2F10102F1DC43
:1002600030BD2DE9F05F0546002092469B4688464A
:100270000646814640241BE0284641464746224622
:1002800000F0F9F953465A46C01A914110D311466D
:100290001846224600F0E0F92D1A67EB01084F4698
:1002A00022460120002100F0D7F917EB00094E414A
:1002B000201EA4F10104DFDC484631462A464346AD
:1002C000BDE8F09F2DE9FE4F804681EA0300C00F94
:1002D0000C46009021F0004123F00045B8EB0200ED
:1002E000A94105D24046214690461C460B4602468F
:1002F00023F00040104347D0270DC7F30A00C3F393
:100300000A510290401A019040286BDAC3F313009F
:1003100040F4801B0098924620B10023D2EB030AE0
:1003200063EB0B0B01985946C0F14002504600F0B8
:1003300093F906460D4650465946019A00F0ABF92E
:1003400010EB08006141002487EA115284EAE77348
:100350001A4340D0009A62B3019A012A4FEA075229
:1003600015DC001B61EB02014FF0004202EA07526C
:10037000CDE90042001C41F5801132462B4600F0C9
:10038000ABF903B0BDE8F08F40462146F9E7001B0A
:1003900061EB0201001C41F5801300185B4120183D
:1003A000A2F5001747EB030140EAD570B6196D417D
:1003B00011E06D084FEA360645EAC0754FEA07526C
:1003C000001B61EB0201001C41F5801149084FEA56
:1003D00030000019514132462B4603B0BDE8F04FC2
:1003E00000F06BB90098012240000023D0EB02021C
:1003F00063EBE073009821464FEAE074B8EB00002D
:1004000061EB0401E9E783F000435BE781F0004121
:1004100058E72DE9FE4F81EA030404F0004421F07F
:10042000004100944FF0000B23F0004350EA010418
:100430005ED052EA03045BD0C3F30A54C1F30A55F9
:100440002C44A4F2F3340194A0FB0254C1F3130131
:1004500041F48011C3F3130343F4801301FB0244FE
:1004600000FB034E840A970A44EA815447EA835703
:10047000A4FB076802958D0A05FB07854FEA932CBC
:1004800004FB0C542705029D4FEA065847EA16372D
:10049000B5EB08056EEB070C870E920E47EA811745
:1004A00042EA8312A7FB0201B6EB0B0164EB0004E6
:1004B0002B0D43EA0C335E1844EB1C50DA465146D0
:1004C000E7FB0201C5F313044FEA0B3343EA14536D
:1004D0004FEA0432019C43EA0603A4F10C0402949F
:1004E000009CCDE900B400F0F7F803B0BDE8F08F50
:1004F00000200146F9E72DE9F04D81EA030404F0FC
:10050000004B21F0004514464FF0000A23F0004153
:1005100050EA050220D054EA01021DD0C5F30A5763
:100520000246C5F31303C1F31300C1F30A5640F4A6
:10053000801543F48013A7EB0608101BD64608F27B
:10054000FD3873EB050002D308F1010801E09218B1
:100550005B41B8F1000F03DA00200146BDE8F08DE1
:1005600000204FF48011064684460EE0171B73EB03
:10057000050705D3121B63EB050306434CEA010C88
:1005800049084FEA300092185B4150EA0107EDD16B
:1005900052EA030012D082EA040083EA050108430C
:1005A00005D0101BAB4106D20122002306E0002239
:1005B0004FF0004302E06FF0010253101AEB060007
:1005C0004CEB085110EB0A0041EB0B01BDE8F04D7C
:1005D00000F073B8C1F30A52C1F3130140F2FF33C4
:1005E00041F480119A4202DA00200146704740F23D
:1005F00033439A42A2F2334202DC524200F03BB84B
:1006000000F02AB830B5041E71F1000404DB4FF08D
:100610000044404264EB0101141E73F1000405DB49
:100620001C464FF00043524263EB0403994208BF5B
:10063000904230BD064C074D06E0E06840F00103F3
:1006400094E8070098471034AC42F6D3FFF774FDE6
:10065000F445000814460008202A04DB203A00FA7A
:1006600002F1002070479140C2F1200320FA03F309
:10067000194390407047202A04DB203A21FA02F007
:100680000021704721FA02F3D040C2F120029140CC
:10069000084319467047202A06DBCB17203A41FA57
:1006A00002F043EAE07306E041FA02F3D040C2F1FF
:1006B0002002914008431946704710B5141E73F18B
:1006C000000408DA401C41F1000192185B411A4312
:1006D00001D120F0010010BD2DE9F04D92469B465E
:1006E00011B1B1FA81F202E0B0FA80F22032904604
:1006F000FFF7B2FF04460F4640EA0A0041EA0B0149
:1007000053465A46084313D0114653EA010019D004
:10071000C8F140025046FFF7AEFF05460E46504670
:1007200059464246FFF798FF084305D0012004E0F0
:1007300020463946BDE8F08D0020054346EAE076C4
:100740002C4337430A986305E40AA0EB0800002213
:10075000FD0A44EA47540A3002D500200146E9E781
:10076000010510196941DDE9084500196941BDE835
:10077000F04DA2E700BFFEE770472DE9F0410246C9
:1007800000250026002000230024002791F803C044
:100790000CF00F0591F803C00CF0100CBCF1000F29
:1007A00003D091F802C04CEA050591F800C0BCF1F5
:1007B000000F31D0146800202BE04FF0010C0CFA30
:1007C00000F3B1F800C00CEA03069E4220D183007A
:1007D0004FF00F0C0CFA03F7BC4305FA03FC4CEA8C
:1007E000040491F803C0BCF1280F06D14FF0010CAE
:1007F0000CFA00FCC2F814C00AE091F803C0BCF186
:10080000480F05D14FF0010C0CFA00FCC2F810C0E3
:10081000401C0828D1D31460B1F800C0BCF1FF0F10
:1008200034DD546800202EE000F1080C4FF0010880
:1008300008FA0CF3B1F800C00CEA03069E4221D17D
:1008400083004FF00F0C0CFA03F7BC4305FA03FCCE
:100850004CEA040491F803C0BCF1280F05D100F163
:10086000080C08FA0CF8C2F8148091F803C0BCF127
:10087000480F07D100F1080C4FF0010808FA0CF8F6
:10088000C2F81080401C0828CED35460BDE8F08127
:1008900010B5FFF757FC10BD70B506460F484088ED
:1008A000401E83B20D480088401E82B200210846D7
:1008B00000F056F800240CE0002504E0304600F07B
:1008C000C1F9681C85B205484088A842F6DC601C66
:1008D00084B202480088A042EEDC70BD9400002083
:1008E00010B50446B4B9012000F068F94FF48070E7
:1008F00000F086F9032000F061F941F2300000F0C9
:100900007FF94FF4C8700E494880F020088000201D
:10091000887114E0012000F051F9002000F070F916
:10092000032000F04BF941F2380000F069F9F020A3
:10093000034948804FF4C87008800120887110BDB9
:100940009400002070B504460D4616462B462246FC
:100950002946204600F004F8304600F073F970BDD7
:100960002DE9F04107460C4615461E462E48807973
:1009700050BB4FF4047000F021F9384600F040F904
:1009800040F2112000F01AF9284600F039F940F23F
:10099000122000F013F9204600F032F940F2132043
:1009A00000F00CF9304600F02BF94FF4007000F025
:1009B00005F9384600F024F940F2012000F0FEF875
:1009C000204600F01DF929E040F2122000F0F6F870
:1009D000384600F015F940F2132000F0EFF82846F1
:1009E00000F00EF94FF4047000F0E8F8204600F033
:1009F00007F940F2112000F0E1F8304600F000F96C
:100A000040F2012000F0DAF8384600F0F9F84FF42F
:100A1000007000F0D3F8204600F0F2F840F2022017
:100A200000F0CCF8BDE8F081940000202DE9F84FEB
:100A300080460E4617461C46B3462046E31704EB95
:100A40005373DB1021464FEAE47C04EB5C7C4FEAF5
:100A5000EC0CA4EBCC0CBCF1000F02D04FF0010C5D
:100A600001E04FF0000C6344224604EBD27C4FEAD5
:100A70006C0C03FB0CF3DBB20093A7F12000C7B2B0
:100A8000002556E00C2C07D107EB47002B4901EB62
:100A9000800010F8059013E0102C05D1284800EBD9
:100AA000071010F805900BE0182C07D107EBC700D2
:100AB000244901EB800010F8059001E0BDE8F88FB3
:100AC0004FF0000A2FE009F0800030B11E48028884
:100AD00031464046FFF736FF07E00A9828B91B4821
:100AE000028831464046FFF72DFF4FEA49604FEA42
:100AF0001069701C86B216484088B04200DCDDE701
:100B0000A6EB0B00A0420AD15E4608F101001FFAD5
:100B100080F80F480088404500DCCFE706E00AF186
:100B2000010000F0FF0ABAF1080FCCDB00BF681C1F
:100B3000C5B200988542A5DB00BFBFE70C2A0008BC
:100B4000802E0008703400089C0000209E000020C9
:100B5000940000202DE9F84F04460D469046994632
:100B6000DDE90A6704F0FF0A08EB04001FFA80F8C9
:100B700009EB05001FFA80F916E0444502DB5446F4
:100B8000A81985B24D4500DB14E0002000903A78AA
:100B9000334629462046FFF749FF304606EBD07121
:100BA00004EB61018CB27F1C38787E2802DC387837
:100BB0002028E2DA00BFBDE8F88F000010B5044637
:100BC000012000F00DFD00200A4908600A49C1F823
:100BD0008001012009490860204600F04BFD0020FB
:100BE0000649091D0860012008600349C1F8B001E9
:100BF00010BD0000B0012442000024429081224236
:100C000010B50446012000F0EBFC00200A49086002
:100C100001200A49C1F8800109490860204600F016
:100C200029FD00200649091D0860012008600349CC
:100C3000C1F8B00110BD0000B00124420000244200
:100C40009081224210B504462046FFF7D9FF10BD1F
:100C500000BFFEE77047000070B5002100230F229F
:100C6000C47804B3154C246804F4E064C4F5E0646B
:100C7000210AC1F10403CA40447804FA03F18478DC
:100C80001440214309010E4C0678A155047804F064
:100C90001F050124AC4005786D11AD0005F1E0257C
:100CA000C5F8004109E0047804F01F050124AC40B8
:100CB000044D0678761145F8264070BD0CED00E035
:100CC00000E400E080E100E002490143024A1160D3
:100CD000704700000000FA050CED00E029B1064A5B
:100CE000D2690243044BDA6104E0034AD2698243C9
:100CF000014BDA61704700000010024029B1064A3A
:100D000012690243044B1A6104E0034A12698243E8
:100D1000014B1A61704700000010024029B1064AD9
:100D200092690243044B9A6104E0034A9269824348
:100D3000014B9A61704700000010024029B1064A39
:100D4000D2680243044BDA6004E0034AD26882436B
:100D5000014BDA60704700000010024030B50021FE
:100D60000022002400232D4D6D6805F00C0121B1F7
:100D7000042905D0082923D105E0294D056022E08A
:100D8000274D05601FE0254D6D6805F47012234D59
:100D90006D6805F48034022505EB92421CB9214DA3
:100DA000554305600BE01D4D6D6805F400351DB120
:100DB0001C4D5543056002E0194D5543056002E0A6
:100DC000174D056000BF00BF144D6D6805F0F001C0
:100DD0000909154D6B5C0568DD4045600F4D6D6878
:100DE00005F4E061090A104D6B5C4568DD408560E3
:100DF0000A4D6D6805F46051C90A0B4D6B5C45687E
:100E0000DD40C560054D6D6805F44041890B074D17
:100E10006B5CC568B5FBF3F5056130BD00100240A1
:100E200000127A0000093D000000002010000020A0
:100E300010B500F001F810BD0CB500200190009035
:100E40003348006840F480303149086000BF3048C2
:100E5000006800F4003000900198401C0190009858
:100E600018B90198B0F5A06FF1D12948006800F4D5
:100E7000003010B10120009001E0002000900098A7
:100E8000012843D12348006840F010002149086040
:100E90000846006820F0030008600846006840F03B
:100EA000020008601A4840681949486008464068CE
:100EB00048600846406840F48060486008464068E2
:100EC00020F47C1048600846406840F4E810486010
:100ED0000846006840F08070086000BF0C48006859
:100EE00000F000700028F9D00948406820F00300A5
:100EF000074948600846406840F00200486000BF6B
:100F00000348406800F00C000828F9D10CBD00002F
:100F10000010024000200240042808D14FF0E021D8
:100F2000096941F004014FF0E022116107E04FF040
:100F3000E021096921F004014FF0E02211617047BE
:100F400010B501F051FC012801D001F033FC10BDB7
:100F500010B51348006840F00100114908600846C8
:100F60004068104908400E494860084600680E492C
:100F700008400B4908600846006820F4802008609B
:100F80000846406820F4FE0048604FF41F00886067
:100F9000FFF74EFF4FF000600449086010BD0000ED
:100FA000001002400000FFF8FFFFF6FE08ED00E031
:100FB00010B500F0ABFB322001F0B2F90020FFF7D2
:100FC000FDFD0020FFF71CFE0020FFF7F7FD0020CD
:100FD000FFF716FE0020FFF7F1FD0020FFF710FEDF
:100FE0004FF48060FFF7EAFD4FF4C440FFF708FEBE
:100FF0000820FFF7E3FD40F60800FFF701FE01209F
:10100000FFF7DCFD4FF48070FFF7FAFD0220FFF7D9
:10101000D5FD4FF48070FFF7F3FD0320FFF7CEFD01
:1010200041F23000FFF7ECFD0820FFF7C7FD40F666
:101030000800FFF7E5FD4FF44070FFF7BFFD0C20FF
:10104000FFF7DEFD40F20130FFF7B8FD45F60B205B
:10105000FFF7D6FD40F20230FFF7B0FD40F6061074
:10106000FFF7CEFD40F20330FFF7A8FD41F2170075
:10107000FFF7C6FD4FF44170FFF7A0FD4FF40C5091
:10108000FFF7BEFD40F20530FFF798FD4FF4B85072
:10109000FFF7B6FD40F20630FFF790FD46F209304B
:1010A000FFF7AEFD40F20730FFF788FD40F609403C
:1010B000FFF7A6FD4FF44270FFF780FD41F20C00F0
:1010C000FFF79EFD40F20930FFF778FD42F2322033
:1010D000FFF796FD1020FFF771FD1420FFF790FD3C
:1010E0001120FFF76BFD40F20110FFF789FD4FF46F
:1010F0008070FFF763FD4FF40C70FFF781FD322025
:1011000001F00EF940F20110FFF758FD40F24720C0
:10111000FFF776FD4FF4FA7401E0601E84B2002CF4
:10112000FBDC322001F0FCF840F20310FFF746FD33
:101130004FF42060FFF764FD4FF4FA7401E0601E85
:1011400084B2002CFBDC0A2001F0EAF84FF4207096
:10115000FFF734FD4FF2FF00FFF752FD322001F0A0
:10116000DFF84FF4FA7401E0601E84B2002CFBDC5F
:101170004FF48170FFF722FD4BF2B010FFF740FDF6
:101180004FF4FA7401E0601E84B2002CFBDC3220C4
:1011900001F0C6F84FF40470FFF710FD0020FFF7D0
:1011A0002FFD40F21120FFF709FDEF20FFF728FD8A
:1011B00040F21220FFF702FD0020FFF721FD40F270
:1011C0001320FFF7FBFC40F28F10FFF719FD4FF4DF
:1011D0000070FFF7F3FC0020FFF712FD40F2012042
:1011E000FFF7ECFC0020FFF70BFD40F20140FFF79A
:1011F000E5FC0020FFF704FD0720FFF7DFFC4FF4BC
:101200008070FFF7FDFC4FF4FA7401E0601E84B2B9
:10121000002CFBDC322001F083F840F20220FFF7C3
:10122000CDFC0020FFF75CFB4FF6FF70FFF734FBAF
:1012300010BD000010B50121094800F018F8012880
:1012400008D1084802684068521C40F10000054976
:101250000A6048600121024800F006F810BD000055
:101260000004004088000020CA430282704730B565
:101270000246002000230024158A05EA010395890F
:1012800005EA010413B10CB1012000E0002030BDDB
:101290007047000038B540F22551164800F0D9F8E3
:1012A00030B3144800F090F9C4B20D2C01D00A2CD0
:1012B00009D121460F4800F08CF969460E480068B4
:1012C00001F0C4F938BD0D2C12D00A2C10D00B48F7
:1012D00000687F280CD22146064800F07AF90848B9
:1012E00006490968445405480068401C03490860E1
:1012F00000BFE7E7004400401C000020140000206D
:10130000A000002010B540F225510D4800F0A1F8D2
:10131000A0B10B4800F058F9C4B20A4800687F2811
:1013200009D2094807490968445406480068401C26
:101330000449086002E005A000F012FA10BD0000A8
:101340000048004090000020EC010020554152541C
:10135000335F527842756666657228554152545F14
:101360004D35333130292069732066756C6C21004E
:1013700001F40072B2F5007F00D100BFCA430280C1
:10138000704721B1828942F40052828104E082894F
:101390004DF6FF731A4082817047000010B5044675
:1013A0002048844209D101218803FFF7C7FC0021AE
:1013B0004FF48040FFF7C2FC32E01B48844209D161
:1013C00001214804FFF79AFC00214FF40030FFF799
:1013D00095FC25E01548844209D101218804FFF7D6
:1013E0008DFC00214FF48020FFF788FC18E01048A6
:1013F000844209D10121C804FFF780FC00214FF489
:101400000020FFF77BFC0BE00A48844208D1012151
:101410000805FFF773FC00214FF48010FFF76EFC06
:1014200010BD00000038014000440040004800406A
:10143000004C00400050004002460020B1F5007F03
:1014400000D100BF13880B400BB1012000E0002049
:10145000704770B50246002400230025002040F6A6
:101460006A16B14200D100BFC1F3421501F01F035B
:10147000012606FA03F3012D02D19689334006E0D6
:10148000022D02D1168A334001E0968A33400C12B5
:10149000012606FA04F41688344013B10CB1012079
:1014A00000E0002070BDF0B50346002400260025B2
:1014B000002040F66A17B94200D100BF1846C1F3B8
:1014C000421401F01F06012707FA06F5012C01D18D
:1014D0000C3004E0022C01D1103000E014301AB1BD
:1014E00007682F43076002E00768AF430760F0BD5D
:1014F0002DE9F04786B005460E460024A24600BFFF
:10150000A1460027B08900B100BF2F462C8A4CF6B7
:10151000FF700440F08804432C82AC894EF6F3102F
:101520000440B08831890843718908430443AC8181
:10153000AC8A4FF6FF400440B0890443AC8201A856
:10154000FFF70CFC1F48874202D1DDF810A001E034
:10155000DDF80CA0A88900F4004040B10AEBCA00F5
:1015600000EB0A1031684900B0FBF1F807E00AEB24
:10157000CA0000EB0A1031688900B0FBF1F8642062
:10158000B8FBF0F004012009642101FB1089A8894F
:1015900000F4004040B1322000EBC900B0FBF1F094
:1015A00000F00700044308E0322000EB091064213A
:1015B000B0FBF1F000F00F0004432C8106B0BDE851
:1015C000F08700000038014001468888C0F3080019
:1015D0007047C1F308028280704700BFFEE7000039
:1015E00038B5044601212020FFF798FB0121402057
:1015F000FFF794FBE4B14CF20370ADF80000032058
:101600008DF8020010208DF8030069461748FFF797
:10161000B4F84FF68070ADF8000003208DF802009A
:1016200010208DF8030069461148FFF7A6F81BE06B
:101630004CF20370ADF8000003208DF80200482042
:101640008DF8030069460948FFF797F84FF6807058
:10165000ADF8000003208DF8020048208DF803004B
:1016600069460348FFF789F838BD000000140140BF
:10167000001801400021014601F00102204B1A60D0
:10168000C1F340021F4BC3F8BC21C1F380021C4BC5
:10169000383B1A60C1F3C0021B1D1A60C1F300126F
:1016A000194B1A60C1F340121B1D1A60C1F380125E
:1016B0001B1D1A60C1F3C0121B1D1A60C1F300226A
:1016C0001B1D1A60C1F340221B1D1A60C1F380224A
:1016D0001B1D1A60C1F3C0221B1D1A60C1F300322A
:1016E0001B1D1A60C1F34032054B183B1A60C1F351
:1016F00080321B1D1A60CA0B024BC3F8A821704729
:10170000B8812242008022429C01234208B5012177
:101710002020FFF703FB01210802FFF7FFFA30202A
:10172000ADF8000003208DF8020010208DF80300B2
:1017300069460948FFF721F841F20100ADF80000C1
:1017400003208DF8020010208DF80300694603483D
:10175000FFF713F808BD000000140140002001400D
:101760000FB410B5C2B04FF4807102A8FEF751FD5E
:1017700045A80190F92102A8019B449A00F032F992
:101780000020019002A8FEF74FFD0446224602A960
:10179000034800F007F942B010BC5DF814FB0000EC
:1017A0000044004030B587B004460D467748844277
:1017B0004AD1FFF7F3FD01210420FFF7AFFA012121
:1017C0008803FFF7ABFA6015ADF8180018208DF804
:1017D0001B0003208DF81A0006A96D48FEF7CDFF07
:1017E0002015ADF8180004208DF81B0006A96848E4
:1017F000FEF7C3FF02950020ADF80C00ADF80E0017
:10180000ADF81000ADF814000C20ADF8120002A9DC
:101810002046FFF76DFE01212046FFF7B2FD25208F
:101820008DF8040003208DF805008DF806000120D6
:101830008DF8070001A8FFF70FFA012240F22551A9
:101840002046FFF730FE9FE0524884424AD1FFF71E
:10185000A5FD01210420FFF761FA01214804FFF7EB
:101860003DFA0420ADF8180018208DF81B00032065
:101870008DF81A0006A94648FEF77FFF0820ADF84C
:10188000180004208DF81B0006A94148FEF775FFDB
:1018900002950020ADF80C00ADF80E00ADF8100078
:1018A000ADF814000C20ADF8120002A92046FFF795
:1018B0001FFE01212046FFF764FD26208DF804005D
:1018C00003208DF805008DF8060001208DF8070033
:1018D00001A8FFF7C1F9012240F225512046FFF788
:1018E000E2FD51E02C4884424AD1FFF757FD012127
:1018F0000820FFF713FA01218804FFF7EFF92015FC
:10190000ADF8180018208DF81B0003208DF81A0080
:1019100006A92248FEF731FFE014ADF818000420B4
:101920008DF81B0006A91D48FEF727FF0295002031
:10193000ADF80C00ADF80E00ADF81000ADF81400D5
:101940000C20ADF8120002A92046FFF7D1FD0121BD
:101950002046FFF716FD27208DF8040003208DF8A0
:1019600005008DF8060001208DF8070001A8FFF79B
:1019700073F9012240F225512046FFF794FD03E060
:101980000748844200D000BF07B030BD0038014096
:10199000000801400044004000480040000C0140A5
:1019A000004C00402DE9F04107460D461646002444
:1019B00000F010FE00BF0FE040213846FFF7D8FCD2
:1019C000295D3846FFF705FE00BF40213846FFF786
:1019D00033FD0028F9D0641CB442EDD300F00CFEB6
:1019E000BDE8F0817CB5491E1C461546CDE90001D5
:1019F000044B6A462146284600F0C8F8009A0021A8
:101A000011707CBDBB22000802E008C8121F08C18B
:101A1000002AFAD170477047002001E001C1121F6F
:101A2000002AFBD1704700002DE9FF5FDDE90220AD
:101A3000010DDDF838B0024318D044F61050A1F281
:101A4000FF3141430D140F98012820D0A5EB0B0066
:101A5000401C5FEA000A4FF00004474EDFF81C917B
:101A6000A046504616D5CAF1000728E00F98012479
:101A700043A2012808D0002100980F9BC0E9002153
:101A8000C0E90243BDE8FF9F6FEA0B01F4E7CBF129
:101A90000000DEE7074612E0F80707D0224633468B
:101AA00040464946FEF7B5FC804689462246334605
:101AB00010461946FEF7ADFC04460E467F10002F77
:101AC000EAD1DDE90201BAF1000F42464B4602DAE3
:101AD000FEF79FFC01E0FEF70EFD04460E460022D5
:101AE000284BFEF78FFD03D84FF0FF30014607E08B
:101AF0000022254B20463146FEF7E4FBFEF76AFD47
:101B0000102409E0002C0ADB0A220023FEF7A9FBBF
:101B1000019B30321A55641E50EA0102F2D1641C56
:101B2000019AC4F1110314440F9A012A03D001222F
:101B300008430DD10AE0084304D000204FF0110BF8
:101B40000F9080E7A3EB0B056D1E0DE05B4504DDF8
:101B50004FF0000205F1010504E003DA4FF0000246
:101B6000A5F10105002AECD000980F99C0E90231D7
:101B7000C0E9004586E70000000024400000F03F77
:101B8000300000000000F0430000E03F2DE9FF4F6F
:101B900095B09B468946064600250FE2252877D159
:101BA00000242746F84A0121059400E0044316F872
:101BB000013F203B01FA03F01042F7D130782A2888
:101BC00011D06FF02F033078A0F13002092A16D817
:101BD000059A44F0020402EB820203EB4202104435
:101BE000761C0590EFE759F8042B0592002A03DADA
:101BF000504244F40054059044F00204761C3078BE
:101C00002E2816D116F8010F44F004042A280DD00E
:101C10006FF02F023078A0F13003092B09D807EBC1
:101C2000870302EB4303C718761CF3E759F8047BDC
:101C3000761C30786C280FD006DC4C2817D068282A
:101C40000DD06A2814D104E0742810D07A280FD15E
:101C50000DE044F400140AE044F4801401E044F47C
:101C600040147278824202D104F58014761C761CEE
:101C7000307866280BD013DC582877D009DC002890
:101C800075D04528F6D04628F4D047281AD19DE1D2
:101C900018E0632835D0642879D0652812D195E101
:101CA000702873D008DC6728F1D069286FD06E28BF
:101CB0000DD06F2806D1B5E073282CD0752875D0CB
:101CC000782874D05A46179990476D1C75E1C4F373
:101CD0000250022809D003280DD0D9F8001004289A
:101CE0000DD00D6009F1040967E1D9F80010EA1779
:101CF000C1E90052F6E7D9F800100D80F2E70D7047
:101D0000F0E719F8041B8DF8001000208DF8010091
:101D1000EA46012003E059F804AB4FF0FF306107B9
:101D20004FF0000102D40DE008F101018846B942EC
:101D30000FDA8045F8DB1AF808100029F4D108E022
:101D400008F1010188468142FADB1AF808100029DF
:101D5000F6D105985B46A0EB080721463846179A4E
:101D600000F094FA284400EB080507E04DE029E173
:101D70000DE01AF8010B5A4617999047B8F101087F
:101D8000F7D25B4621463846179A13E142E00A2211
:101D90000092C4F302524FF0000A022A08D059F808
:101DA00004CB032A4FEAEC710AD00DE029E02AE0C7
:101DB00009F1070121F00702F2E802C1914609E0AA
:101DC0000FFA8CFC4FEAEC71042A03D14FFA8CFC19
:101DD0004FEAEC71002907DA0A460021DCF1000C19
:101DE00061EB02012D2202E0220504D52B228DF8A1
:101DF0000420012203E0E20701D02022F7E7904609
:101E000059E00A2102E010220DE010214FF0000AF3
:101E100000910BE010224FF0000A44F00404082760
:101E2000009203E008224FF0000A0092C4F302522D
:101E3000022A05D059F804CB0021032A08D009E072
:101E400009F1070121F00702F2E802C1914605E01D
:101E50001FFA8CFC042A01D10CF0FF0C4FF0000893
:101E6000220728D5702806D0009B83F0100353EA80
:101E70000A0305D00EE040228DF80420012208E07C
:101E80005CEA010206D030228DF804208DF80500AE
:101E900002229046009B83F0080353EA0A030AD10A
:101EA0005CEA010201D1620705D530228DF80420D9
:101EB0004FF001087F1E582804D034A003900EA8CC
:101EC00002900DE036A0F9E753466046009AFEF70F
:101ED000C8F984460398825C0298401E0290027002
:101EE0005CEA0100F0D1029806A9081A00F1200A64
:101EF000600702D524F4803400E00127574502DD55
:101F0000A7EB0A0000E0002000EB0A010090059812
:101F10004144401A0590E00306D45B462146179AD7
:101F2000059800F0B3F90544002706E001A85A46D9
:101F3000C05D179990476D1C7F1C4745F6DBE00399
:101F40000CD55B462146179A059800F09FF9054489
:101F500004E030205A46179990476D1C0099481E9E
:101F600000900029F5DC08E0029802995A460078B2
:101F7000491C0291179990476D1CBAF10001AAF112
:101F8000010AF1DC65E1000009280100303132333B
:101F900034353637383961626364656600000000A5
:101FA000303132333435363738394142434445468F
:101FB0000000000000F058F90544761C3078002835
:101FC0007FF4ECAD19B02846BDE8F08F620700D46D
:101FD000062709F1070222F0070CFCE80223E1467C
:101FE00003F000485FEA080C02D00FF2702C0DE0FD
:101FF0005FEA045C02D50FF2682C07E05FEAC47C5C
:1020000002D00FF2602C01E0AFF2700C4FF0FF38FD
:1020100023F00043CDF850C065280CD006DC4528DD
:1020200009D046281DD047283DD13DE0662818D06C
:1020300067287ED138E00021112F01DB112000E05C
:10204000781CCDE9000106A90EA8FFF7EDFCDDE93B
:102050000F010E9A03910021009207F1010A0491E9
:102060004DE04FF000400097CDE9011006A90EA801
:10207000FFF7DAFCDDE90F0203920E9B11990022B3
:10208000DDF80CA00093049211B9791C00EB010A51
:10209000B7EB0A0004D4C0F1FF3007F1010A049045
:1020A000AAEB0700019044E0012F00DA012700218C
:1020B000112F01DD112000E03846CDE9000106A90D
:1020C0000EA8FFF7B1FCDDE90F010E9A0391002184
:1020D00004910092BA4621070CD40399514500DAC5
:1020E0008A46BAF1010F05DD009AAAF10101515C9F
:1020F000302908D0B84202DA10F1040F06DA0121C3
:10210000CDE9011015E0AAF10101E9E7002805DC9D
:10211000049901440491AAEB000102E0411C5145DD
:1021200000DD8A460499401A401C01904FF000409F
:102130000290200704D40198504501DBCDF80480BB
:1021400000208DF84F0002980DF14F07B0F1004FBD
:1021500025D02B200E9002984FF0020800280CDAB0
:10216000404202902D200E9007E00A210298FEF7CF
:1021700062F83031029007F8011DB8F10001A8F1B2
:102180000108F2DC02980028EFD1791E0E98087041
:10219000307800F0200040F0450007F8020D12A84A
:1021A000C01B00F107081498007800B1012000EB73
:1021B0000A01019801EBE07105984144401A401E64
:1021C0000590E00306D45B462146179A059800F077
:1021D0005DF805441498007818B15A46179990474D
:1021E0006D1CE00324D55B462146179A059800F044
:1021F0004DF805441CE00498002807DBDDE90301E5
:10220000884203DD0098405C179901E0179930205F
:102210005A469047049805F10105401C0490019826
:10222000401E019004D12E205A46179990476D1CEC
:10223000BAF10001AAF1010ADDDC05E017F8010B93
:102240005A46179990476D1CB8F10001A8F1010892
:10225000F4DC5B462146179A0598ABE62D0000009A
:102260002B000000200000002DE9F041044600256D
:102270001E461746880404D405E039462020B0479E
:102280006D1C641EF9D52846BDE8F0812DE9F041AA
:10229000044600251E469046C80301D5302700E0BD
:1022A0002027880404D505E041463846B0476D1C18
:1022B000641EF9D52846BDE8F0814A68002A06D098
:1022C0000A68531C0B6010704868401E48607047D5
:1022D00010B50420FEF720FE0E4800680E49B0FB42
:1022E000F1F00E4908700B4800680B49B0FBF1F49F
:1022F0004FF47A7044434FF0E020006940F0020050
:102300004FF0E021086108464461006940F0010097
:10231000086110BD2400002040420F008000002012
:1023200010B5044600F060FA012803D0204600F002
:1023300073F908E04FF47A7104FB01F000F022F821
:1023400001A0FFF70DFA10BD456E746572204E6F47
:102350006D616C2044656C6179204D6F64652C2043
:1023600042656361757365207461736B53434845BF
:1023700044554C45525F4E4F545F5354415254455F
:102380004400000070B5034600224FF0E026756956
:102390000D4E367803FB06F44FF0E026B16910E0ED
:1023A0004FF0E026B06988420BD0884202D20E1A64
:1023B000324402E02E1A0E4432440146A24200D3B7
:1023C00000E0EDE700BF70BD800000201CB5FFF706
:1023D0007FFF4FF4A060FEF777FC4FF4E1311B481C
:1023E000FFF7E0F94FF4E1311948FFF7DBF94FF45B
:1023F000E1311848FFF7D6F917A0FFF7B1F9FEF75A
:10240000D7FD21E04FF6FF70FEF746FA18A018211D
:10241000CDE900101A484388028832210A20FEF7CD
:1024200099FB18A01821CDE90010154843880288AF
:1024300032210A20FEF78EFB4FF47840FEF72CFA8B
:102440004FF47A70FFF76CFFDCE7000000440040B7
:102450000048004000380140416C6C207561727486
:1024600020696E697469616C206F6B210D0A000030
:1024700048656C6C6F20576F726C6421000000001F
:1024800094000020616263646520576F726C642160
:10249000000000002DE9F04105460E461C48076883
:1024A0001C480068001D00F05BF850B9194800682E
:1024B00090F82C100120884017490968814316487C
:1024C0000160681C38B936B112480168091D13480B
:1024D00000F074F81AE07C190E4800684460BC42B1
:1024E00007D20C480168091D0D48006800F04CF83F
:1024F0000CE008480168091D0A48006800F044F82B
:1025000009480068844201D207480460BDE8F081B0
:102510004C0000203800002050000020D80100208E
:10252000400000203C000020680000200A490968A3
:10253000096809B9012100E0002121B14FF0FF3104
:10254000064A116006E004490968C968C868034A78
:1025500041681160704700003C00002068000020C6
:1025600001460A69D1E901309860D1E90103586058
:102570005068884201D18868506000200861106866
:10258000401E10601068704710B502460B685C1C56
:102590000CB9106907E002F1080000E040684468E7
:1025A00024689C42FAD944684C604C68A1608860F9
:1025B00041600A611468641C146010BD42684A607E
:1025C00093688B60936859609160086103685B1C35
:1025D0000360704700BFBF2080F31188BFF34F8FA7
:1025E000BFF36F8F00BF03480068401C01490860BB
:1025F000704700007C00002006480068401E054926
:1026000008600846006820B9002080F3118800BFE8
:1026100000BF70477C00002070B50446002544B11F
:1026200000F06EF800212046FFF734FF00F07AF941
:1026300005463DB94FF0805003490860BFF34F8F06
:10264000BFF36F8F70BD000004ED00E02DE9F04195
:1026500005460E462C4600BFBF21EFF3118081F3E3
:102660001188BFF34F8FBFF36F8F00BF074694F8F9
:102670005C80022084F85C00A06D401CA065B8F16D
:10268000010F2AD118480068A8B9201DFFF768FF7C
:1026900094F82C1001208840144909680843134914
:1026A0000860E16A01EB8101114A02EB8100211D02
:1026B000FFF784FF04E004F118010E48FFF77EFFE6
:1026C0000D49E06A0968C96A884206D916B1012035
:1026D000306002E001200949086000BF87F31188DB
:1026E00000BFBDE8F0810000700000205000002015
:1026F00024010020B0010020380000205C000020F0
:1027000002480068401C01490860704770000020C2
:102710002048006818B101201F49086038E00020F7
:102720001D4908601D49086849681D490860084638
:1027300000681C49096888420BD91B49096801F1E6
:102740005400496D164A1268164B1B68D21A114480
:102750000160134800681349086014480068B0FA23
:1027600080F0C0F11F0101EB8102114B03EB8200ED
:1027700042685268426000F108024368934202D105
:102780004268526842604268D268074B1A6000BFD4
:1027900070470000700000205C00002088000020CE
:1027A0007800002074000020380000205000002035
:1027B0002401002010B500BFBF2080F31188BFF3B3
:1027C0004F8FBFF36F8F00BF00F01EF818B14FF0AE
:1027D00080500449086000BF002080F3118800BFCA
:1027E00010BD000004ED00E00549096809B90120A9
:1027F00005E00449096809B9022000E0002070479B
:1028000054000020700000202DE9F04100273A48D4
:102810000068002863D139480068451C37480560C6
:102820008DB93748D0F800803648006834490860D0
:102830003448C0F8008034480068401C32490860C1
:10284000FFF774FE00BF3148006885423BD300BFEC
:102850002B480068006808B9012000E0002020B182
:102860004FF0FF30294908602CE025480068C06817
:10287000C4686668B54202D22448066022E0201D82
:10288000FFF76EFEA06A18B104F11800FFF768FEAA
:1028900094F82C10012088401D49096808431C4900
:1028A0000860E16A01EB81011A4A02EB8100211DF7
:1028B000FFF784FE1849E06A0968C96A8842C7D3ED
:1028C0000127C5E700BF14480068C06A00EB80001C
:1028D000104951F82000012800D9012704E00F48D1
:1028E0000068401C0D4908600D48006800B10127D0
:1028F0003846BDE8F0810000700000204C00002048
:102900003C00002040000020600000206800002003
:102910005000002024010020380000205800002032
:102920005C00002070B500240026FFF753FE2E48FF
:102930000068401E2C4908600846006800284FD1F6
:102940002A48006800284BD024E02948C068C468A1
:1029500004F11800FFF704FE201DFFF701FE94F8B4
:102960002C10012088402349096808432149086048
:10297000E16A01EB8101204A02EB8100211DFFF792
:102980001DFE1E49E06A0968C96A884202D3012017
:102990001B4908601648006808B9012000E00020C3
:1029A0000028D2D00CB1FFF7C1FD1648056865B10B
:1029B00000BFFFF729FF10B10120114908606D1E0B
:1029C000002DF6D100200F4908600D48006838B18D
:1029D000012630070C490860BFF34F8FBFF36F8F9C
:1029E000FFF70AFE304670BD70000020480000204E
:1029F000B0010020500000202401002038000020F9
:102A00005C0000205800002004ED00E00000000001
:102A10000000000000000000000000003F40000037
:102A200000000000000030004000300040000000C6
:102A300009000BC03D000BC03D00090018C0244038
:102A40007FE0224031800000180024C01B000D8070
:102A50003240018003801C4027401C80074000401A
:102A600010006000000000000000000000000000F6
:102A700000001F80204040200000402020401F8098
:102A800000000000090006001F8006000900000089
:102A9000040004003F8004000400000000100060F7
:102AA0000000000000000000040004000400040016
:102AB00004000000000000400000000000000000D2
:102AC000002001C006003800400000001F802040A8
:102AD000204020401F800000000010403FC0004008
:102AE0000000000018C0214022402440184000008F
:102AF00010802040244024401B80000002000D0074
:102B000011003FC0014000003C802440244024408C
:102B1000238000001F8024402440344003800000B4
:102B20003000200027C03800200000001B80244017
:102B3000244024401B8000001C0022C02240224070
:102B40001F8000000000000008400000000000009E
:102B5000000000000460000000000000000004000D
:102B60000A00110020804040090009000900090006
:102B70000900000000004040208011000A0004000D
:102B80001800200023402400180000001F8020406F
:102B9000274029401F400000004007C039000F00B7
:102BA00001C0004020403FC0244024401B80000062
:102BB0001F802040204020403080000020403FC047
:102BC000204020401F80000020403FC024402E4075
:102BD00030C0000020403FC024402E0030000000E4
:102BE0000F001080204022403380020020403FC070
:102BF000040004003FC02040204020403FC020404F
:102C0000204000000060202020203FC02000200045
:102C100020403FC024400B0030C0204020403FC037
:102C200020400040004000C03FC03C0003C03C00CA
:102C30003FC0000020403FC00C4023003FC02000A8
:102C40001F802040204020401F80000020403FC0C7
:102C500024402400180000001F802140214020E073
:102C60001FA0000020403FC02440260019C00040A3
:102C700018C0244024402240318000003000204011
:102C80003FC020403000000020003F800040004056
:102C90003F80200020003E0001C0070038002000D7
:102CA000380007C03C0007C038000000204039C091
:102CB000060039C0204000002000384007C03840DE
:102CC00020000000304021C02640384020C00000D5
:102CD000000000007FE04020402000000000700065
:102CE0000C000380004000000000402040207FE0F6
:102CF0000000000000002000400020000000000054
:102D00000010001000100010001000100000000063
:102D10004000000000000000000002800540054067
:102D200003C0004020003FC0044004400380000076
:102D300000000380044004400640000000000380BF
:102D4000044024403FC0004000000380054005408F
:102D500003400000000004401FC024402440200025
:102D6000000002E0055005500650042020403FC0FE
:102D70000440040003C000400000044027C000409D
:102D80000000000000100010041027E00000000008
:102D900020403FC00140070004C0044020402040C4
:102DA0003FC000400040000007C0040007C004000E
:102DB00003C00000044007C00440040003C00040FA
:102DC000000003800440044003800000041007F06A
:102DD00004500440038000000000038004400450BD
:102DE00007F00010044007C0024004000400000087
:102DF000000006400540054004C00000000004003B
:102E00001F80044000400000040007800040044090
:102E100007C000400400070004C001800600040051
:102E2000060001C0070001C006000000044006C003
:102E3000010006C0044000000410071004E00180F7
:102E4000060004000000044005C0064004400000E5
:102E50000000000004007BE04020000000000000B3
:102E60000000FFF000000000000040207BE00400B4
:102E700000000000400080004000200020004000D2
:102E80000000000000000000000000000000000042
:102E90000000000000001FCC000C0000000000003B
:102EA00000000800300060000800300060000000F2
:102EB000022003FC1E20022003FC1E200220000032
:102EC00000000E1811043FFF10840C780000000071
:102ED0000F0010840F3800C00778188400780000B5
:102EE00000780F8410C411240E9800E400840008B8
:102EF00008006800700000000000000000000000F2
:102F000000000000000007E0181820044002000044
:102F1000000040022004181807E000000000000034
:102F20000240024001800FF0018002400240000098
:102F30000080008000800FF800800080008000008A
:102F40000001000D000E0000000000000000000065
:102F500000000080008000800080008000800080F1
:102F60000000000C000C0000000000000000000049
:102F70000000000600180060018006001800200014
:102F8000000007F0080810041004080807F000000B
:102F90000000080408041FFC0004000400000000F6
:102FA00000000E0C10141024104411840E0C0000AC
:102FB00000000C1810041104110412880C70000099
:102FC000000000E00320042408241FFC002400006B
:102FD00000001F9810841104110410881070000064
:102FE000000007F008881104110418880070000020
:102FF00000001C00100010FC13001C00100000005A
:1030000000000E3811441084108411440E38000062
:1030100000000700088C10441044088807F00000E6
:10302000000000000000030C030C00000000000082
:103030000000000000010106000000000000000088
:103040000000008001400220041008081004000065
:103050000220022002200220022002200220000082
:103060000000100408080410022001400080000045
:1030700000000E001200100C106C10800F000000F9
:1030800003E00C1813E4142417C4082807D0000028
:103090000004003C03C41C40074000E4001C000482
:1030A00010041FFC1104110411040E8800700000AC
:1030B00003E00C1810041004100410081C10000089
:1030C00010041FFC100410041004080807F000008E
:1030D00010041FFC1104110417C410040818000088
:1030E00010041FFC1104110017C01000080000009C
:1030F00003E00C181004100410441C780040000079
:1031000010041FFC10840080008010841FFC100439
:103110000000100410041FFC100410040000000044
:1031200000030001100110011FFE1000100000003C
:1031300010041FFC110403801464181C1004000008
:1031400010041FFC1004000400040004000C000024
:1031500010041FFC1F0000FC1F001FFC10040000D7
:1031600010041FFC0C04030000E010181FFC1000EA
:1031700007F00808100410041004080807F0000005
:1031800010041FFC10841080108010800F000000BD
:1031900007F0081810241024101C080A07F2000079
:1031A00010041FFC1104110011C011300E0C00049A
:1031B00000000E1C11041084108410441C38000000
:1031C0001800100010041FFC10041000180000006C
:1031D00010001FF810040004000410041FF8100071
:1031E00010001E0011E0001C007013801C00100075
:1031F0001FC0103C00E01F0000E0103C1FC000009A
:103200001004180C163401C001C01634180C100438
:1032100010001C00130400FC13041C00100000002C
:103220000804101C1064108413041C0410180000FF
:103230000000000000007FFE40024002400200004B
:10324000000030000C0003800060001C0003000040
:1032500000004002400240027FFE0000000000002B
:10326000000000002000400040004000200000005E
:103270000001000100010001000100010001000146
:10328000000040004000200000000000000000009E
:1032900000000098012401440144014400FC0004A2
:1032A00010001FFC00880104010400880070000069
:1032B000000000700088010401040104008800007F
:1032C0000000007000880104010411081FFC0004C4
:1032D000000000F8014401440144014400C800001A
:1032E0000000010401040FFC110411041100180076
:1032F000000000D601290129012901C901060000A9
:1033000010041FFC008401000100010400FC000403
:1033100000000104190419FC00040004000000006E
:103320000000000300010101190119FE0000000066
:1033300010041FFC0024004001B4010C0104000033
:103340000000100410041FFC000400040000000032
:10335000010401FC0104010001FC0104010000FC66
:10336000010401FC008401000100010400FC0004D0
:10337000000000F8010401040104010400F8000049
:10338000010101FF008501040104008800700000B4
:1033900000000070008801040104010501FF000124
:1033A0000104010401FC008401040100018000000B
:1033B000000000CC01240124012401240198000014
:1033C00000000100010007F80104010400000000F2
:1033D000010001F8000400040004010801FC0004DD
:1033E000010001800170000C0010016001800100EB
:1033F00001F0010C003001C00030010C01F00100AF
:1034000000000104018C00740170018C01040000B3
:10341000010101810171000E0018016001800100AD
:1034200000000184010C013401440184010C0000FE
:10343000000000000000000001003EFC40024002CD
:103440000000000000000000FFFF0000000000007E
:103450000000400240023EFC0100000000000000AD
:10346000000060008000800040004000200020003C
:10347000000000000000000000000000000000004C
:10348000000000000000000000000000000000003C
:10349000000000000000000000000000000000002C
:1034A0000000000F80380FFE380F80380000000049
:1034B000000000000000000000000000000001000B
:1034C000000600000C00003800003100000600007B
:1034D0000C00003800003000000000000000000078
:1034E00061800067F807F9800061800061800061F9
:1034F000800061800067F807F980006180000000AB
:1035000000000000000001C0E003E0F00630080405
:1035100018081FFFFE040E080787F00381E0000073
:103520000000000001F000060C00040408060C7006
:1035300001F9C0000E00003BE000EC180708080489
:103540000C180003E00000000001E00007F003F8A1
:1035500018041C0804170807E1D003C0E00023B0DA
:10356000003C0800200800001000000000000001DE
:1035700000003100003200001C00000000000000CC
:10358000000000000000000000000000000000003B
:10359000000000000000000000000000000000002B
:1035A0007F0001FFC00780F00C001810000420000D
:1035B000020000000000002000021000040C0018AF
:1035C0000780F001FFC0007F000000000000000045
:1035D0000000000000000000000000004200006643
:1035E00000006600003C0000180003FFC000180047
:1035F000003C000066000066000042000000000081
:10360000080000080000080000080000080001FF92
:10361000C0000800000800000800000800000800C2
:1036200000000000000100003100003200001C001A
:10363000000000000000000000000000000000008A
:103640000000000000000000080000080000080062
:103650000008000008000008000008000008000042
:10366000080000080000000000000000000000004A
:1036700038000038000038000000000000000000A2
:10368000000000000000000000000000000000003A
:10369000000600001C000070000180000E000038D1
:1036A0000000C0000700001C000030000000000007
:1036B000000000007F8001FFE00380700600180416
:1036C000000804000806001803807001FFE0007F76
:1036D0008000000000000000000001000801000858
:1036E00001000803FFF807FFF800000800000800C9
:1036F000000800000000000000000001C03802C007
:1037000058040098040118040218040418061C1830
:1037100003F81801E0F800000000000000000001BC
:10372000C0E003C0F00400080408080408080618F4
:103730000803F41801E7F00001E0000000000000B9
:10374000000000000300000D0000110000610000F7
:10375000810803010807FFF80FFFF80001080001C6
:10376000080000000000000000E007FCD006080888
:10377000061008061008061008061838060FF0068E
:1037800007C0000000000000000000003F8001FFB3
:10379000E00384300208180410080410080410081C
:1037A000071810030FF00007C00000000000000021
:1037B000000003C0000700000600000600F806072E
:1037C000F806180006E000070000060000000000F0
:1037D00000000001E1E003F7F006341004180804CB
:1037E0001808040C08040C0806161803F3F001C1AD
:1037F000E000000000000000F80003FC3003063881
:103800000402080402080402080404100308F0017A
:10381000FFC0007F0000000000000000000000006A
:1038200000000000000000007038007038007038A0
:103830000000000000000000000000000000000088
:10384000000000000000000000000000301A0030FE
:103850001C0000000000000000000000000000004C
:10386000000000000000000800001400002200001A
:103870004100008080010040020020040010080088
:1038800008000000000000002100002100002100CD
:103890000021000021000021000021000021000083
:1038A00021000021000000000000000000000800CE
:1038B0000804001002002001004000808000410048
:1038C00000220000140000080000000000000003B7
:1038D000C00004C000040000080038080F380808C1
:1038E000380810000C300007E00003C000000000A2
:1038F000000000003F8000FFE0038070020F100610
:10390000708804C088048308047F8802C090030183
:103910002000FE400000080000180001F8003E08EA
:1039200001C20007020007E20000FE00001FC800FD
:1039300001F800003800000804000807FFF807FF3E
:10394000F804080804080804080804080806180809
:1039500003F41801E7F00001E0000000000000009F
:103960003F8001FFE003807002001804000804009B
:10397000080400080400100600200780C0000000B2
:1039800004000807FFF807FFF80400080400080413
:10399000000804001802001003807001FFE0007F9F
:1039A0008000000004000807FFF807FFF80408087B
:1039B000040808040808040808043E08040008066F
:1039C000001801006000000004000807FFF807FF6E
:1039D000F8040808040800040800040800043E0075
:1039E000060000060000018000000000000000004A
:1039F0003F8001FFE0038070060018040008040205
:103A0000080402080203F00783F00002000002002D
:103A100004000807FFF807FFF80408080008000082
:103A2000080000080000080004080807FFF807FF66
:103A3000F80400080000000000000400080400086A
:103A400004000807FFF807FFF80400080400080452
:103A50000008000000000000000000000006000058
:103A60000700000104000104000104000307FFFE39
:103A700007FFFC0400000400000400000400080725
:103A8000FFF807FFF8040C08001800003E0004C708
:103A9000800503C80600F804003804001800000878
:103AA00004000807FFF807FFF804000800000800FA
:103AB00000080000080000080000080000180000CE
:103AC0006000000004000807FFF807800807FC00FA
:103AD000007FC00003F80007C000780007800807D7
:103AE000FFF807FFF804000804000807FFF80700C4
:103AF0000803C00000E000003800001E00000700BE
:103B00000001C00400F007FFF804000000000000FE
:103B10007F8001FFE00380700600180400080400A5
:103B20000806001803003001FFE0007F800000005D
:103B300004000807FFF807FFF80404080404000461
:103B40000400040400040400060C0003F80001F063
:103B500000000000000000007F8001FFE003807093
:103B60000600880400880400C806003C03003E01EB
:103B7000FFE6007F8400000004000807FFF807FF4D
:103B8000F8040808040800040C00040F00040BC02B
:103B90000610F003F03801E0080000080000000102
:103BA000E0F803F030063010041808041808040C7C
:103BB00008040C080206180207F00781E000000064
:103BC0000180000600000400000400000400080753
:103BD000FFF807FFF80400080400000400000600D6
:103BE0000001800004000007FFE007FFF004001858
:103BF0000000080000080000080000080000080499
:103C0000001007FFE004000004000006000007E0C9
:103C10000007FE00041FE00001F80000380001E08A
:103C2000043E0007C0000600000400000400000776
:103C3000E00007FFC0041FF80007C007F80007FFF7
:103C400080043FF80007C004F800070000040000EB
:103C500000000004000806001807C07805F1C8003D
:103C60003E00001F800463E80780F8060018040087
:103C70000800000004000006000007800007E008BC
:103C8000047C08001FF80007F800180804E0080783
:103C9000000006000004000000000001000806000B
:103CA000380400F80403E8040F08047C0805F00851
:103CB00007C00807001804006000000000000000B2
:103CC00000000000000000000000003FFFFE200098
:103CD000022000022000022000022000020000005A
:103CE00000000000000008000007000000C0000005
:103CF00038000006000001C000003000000E000087
:103D0000010000000000000000002000022000026E
:103D10002000022000022000023FFFFE0000000001
:103D20000000000000000000000000000000000093
:103D300000080000100000300000200000300000EB
:103D4000100000080000000000000000000001005A
:103D5000000100000100000100000100000100005E
:103D6000010000010000010000010000010000014D
:103D700000000000000000000020000020000010F3
:103D80000000100000000000000000000000000023
:103D9000000000000000000000F00019F8001B18EF
:103DA000002208002608002408002410003FF80024
:103DB0001FF800000800001800000004000007FFC2
:103DC000F80FFFF000181800100800200800200865
:103DD000003018001FF0000FC000000000000000BD
:103DE00007C0001FF0001830002008002008002045
:103DF00008003C08001C10000060000000000000EB
:103E00000000000007C0001FF00038180020080064
:103E1000200800200804101007FFF80FFFF0000032
:103E2000100000000000000000000007C0001FF0AC
:103E30000012300022180022080022080032080078
:103E40001E10000E200000000000000020000020D6
:103E50000800200801FFF803FFF8062008042008E6
:103E600004200807200003000000000000000000FC
:103E7000000E000E6E001FF30031B10020B10020D3
:103E8000B1003191001F13002E1E00200E003000E3
:103E900000000004000807FFF80FFFF800100800FA
:103EA0002000002000002008003FF8001FF800005C
:103EB00008000000000000000000002008002008AA
:103EC000002008063FF8063FF80000080000080040
:103ED00000080000000000000000000000000000DA
:103EE00003000003002001002001002003063FFE24
:103EF000063FFC000000000000000000000000047D
:103F0000000807FFF80FFFF8000188000300002FEA
:103F1000C00038F800203800200800000800000029
:103F20000000000000000400080400080400080766
:103F3000FFF80FFFF800000800000800000800006C
:103F400000000000002008003FF8003FF8001008C3
:103F5000002000003FF8003FF8001008002000009B
:103F60003FF8003FF8000008000000002008003F74
:103F7000F8003FF8001008001000002000002008A2
:103F8000003FF8001FF800000800000000000000DB
:103F900007C0000FF0001830003008002008002093
:103FA00008003008001830000FF00007C0000000C3
:103FB000000000002001003FFF003FFF0010110043
:103FC0002009002008002008003038001FF0000FF2
:103FD000C00000000000000007C0001FF0003818FB
:103FE000002008002008002009001011001FFF0019
:103FF0003FFF000001000000002008002008002012
:1040000008003FF8003FF8000808001008002008EA
:104010000020000030000030000000000000000020
:104020000000000C78001E1800330800230800214F
:10403000080021880021980030F00038600000005E
:1040400000000000200000200000200000FFF0031E
:10405000FFF80020080020080020080000300000C1
:1040600000000000000000002000003FF0007FF88A
:10407000000018000008000008002010003FF800B1
:104080007FF0000010000000000000002000003061
:1040900000003C00003F800023F00000780000702A
:1040A000002380003C0000300000200000200000C1
:1040B0003C00003FE00023F80000E0002700003E45
:1040C00000003FE00021F80001E0003E0000200079
:1040D000000000002008002008003838003E68007A
:1040E00027800003C8002CF8003838002018002072
:1040F00008000000000000002000003003003C0128
:10410000003F830023EC000070002380003C00008F
:104110002000002000000000000000000000003827
:10412000080020380020F80023E8002F88003E080F
:104130000038080020180000700000000000000097
:104140000000000000000000000000000800001453
:10415000001FF7FC300006200002000000000000F5
:10416000000000000000000000000000000000004F
:104170000000FFFFFF000000000000000000000042
:1041800000000000000000000000200002300006D7
:104190001FF7FC00140000080000000000000000F1
:1041A0000000000000000000000000180000600097
:1041B0000040000040000020000010000008000047
:1041C0000400000400000C0000100000C6D5000030
:1041D000000000E0380000783C00003C7800003C23
:1041E00070C0001CE1E01FFFFFF0001CE3000E1C8C
:1041F000E7C0079CE78003DCEF0003DCEE0001DC96
:10420000FC60009CF9F07FFFFFF80000000001C097
:104210000E0001FFFF0001C00E0001C00E0001C032
:104220000E0001FFFE0001C00E0001C00E0001C023
:104230000E0001FFFE0001C00E0001C00E000000D4
:104240000000D6D00000000000070000000780003A
:1042500000070000000700000007000000070180C1
:104260001FFFFFE01FFFFFE01E0701C01E0701C088
:104270001E0701C01E0701C01E0701C01E0701C0A6
:104280001FFFFFC01FFFFFC01E0701C01C070180EA
:104290000007000000070000000700000007000002
:1042A00000070000000700000007000000070000F2
:1042B0000007000000000000BFC600000000000072
:1042C0000780003C07C001FC07803FE0078039C140
:1042D000C78001C0E78001C0F78001C0778001DEA0
:1042E00077807FFE078001C0078003C3C78003E19A
:1042F000E78003F8F78007FCE7F00FDE67F80FDCD4
:1043000007F81FC0FF801DDFE78039CC078071C030
:10431000078061C0078001C0078001C0078001E0FD
:10432000078001E0078001C0070000000000BCBC5E
:10433000000000000380300003C03C0003C03C00CC
:1043400003C0380003C0380003C0386003F838F0F9
:104350007FFFFFF003C0380003C0380003C03800FF
:1043600003DC39C003FFFFE007E383C03FC183C024
:104370007FC1C3803BC1C78003C0EF0003C0EF0013
:1043800003C07E0003C07C0003C07C0003C0FE00AD
:104390003BC3EF803F8787F80FBF03F8077800E043
:1043A00000000000C4EA0000000000C0000001F0AE
:1043B000000001E0000003C000C003C001E007FFEF
:1043C000FFF00703C0000E03C0001E03C0003C0343
:1043D000C3007303C78063FFFFC00383C000038370
:1043E000C0000383C0000383C0000383C060038355
:1043F000C0F07FFFFFF80003C0000003C00000030F
:10440000C0000003C0000003C0000003C0000003A0
:10441000C0000003C00000000000D4C20000000083
:104420000000000000E0070000FFFF8000F00780B0
:1044300000F0070000F0070000F0070000F00700A0
:1044400000FFFF0000FFFF0000F0070000F0070082
:1044500000F0070000F0070000E0070000FFFF0089
:1044600000E0070000E0070000E0070001E00700AF
:1044700001C0070001C00700038007000780F700A4
:104480000F007F001E001F0038001C00000000000D
:10449000C8D500000000000000000300030003FF77
:1044A000FF8003FFFF800380070003800700038075
:1044B00007000380070003800700038007000380D4
:1044C00007000380070003FFFF000380070003804D
:1044D00007000380070003800700038007000380B4
:1044E000070003800700038007000380070003FF25
:1044F000FF0003800700038007000380070003001C
:10450000000000000000D0C7000000000000000014
:104510000380070003FFFF8003800700038007007C
:104520000380070003FFFF000380070003800700EC
:1045300003FFFF0003FFFF00038707000387C0009E
:1045400003C7810003C7838007FFFFC00707800000
:104550000F0780001E0786001C078F003BFFFF80AF
:104560007007800000078000000780E0000781F0EE
:104570007FFFFFF80000000000000000C6DA000026
:10458000000006000000079E0000079E7FF0079EC7
:104590007FF0079FF8F03FFFF8F01F9E78F0079E2E
:1045A00078F0079E78F007FE7FF0079E78F0079E70
:1045B00078F0079E70F007FE70F0079E70F0079E7F
:1045C0007FF0079FFFF03FFFF0F0119070F003DCE9
:1045D000F0F003DEE0F0078FE0F00F0FE0F00E07E1
:1045E000C0F01C038FF0380F03E0201C01C0000056
:1045F000000000001446000800000020A000000099
:10460000081A0008B4460008A0000020D0090000E5
:10461000181A00080000000001020304010203044C
:104620000607080902040608000000000000000058
:10463000000000000000000000A24A04000000008A
:104640000000000001020304060708090000000042
:10465000000000000000000000000000000000005A
:10466000000000000000000000000000000000004A
:10467000000000000000000000000000000000003A
:10468000000000000000000000000000000000002A
:10469000AAAAAAAA00000000000000000000000072
:1046A000000000000000000000000000000000000A
:0446B0000000FFFF08
:0400000508000131BD
:00000001FF
