:020000040800F2
:10000000C0660020DD0100083F2A0008EB1500084B
:100010003B2A0008390D0008D73400080000000012
:100020000000000000000000000000004501000882
:10003000790D000800000000890100089D2D0008CE
:10004000F7010008F7010008F7010008F7010008B0
:10005000F7010008F7010008F7010008F7010008A0
:10006000E50E0008C10F000891100008F701000814
:10007000F7010008F7010008F7010008F701000880
:10008000F7010008F7010008F7010008F701000870
:10009000F7010008F7010008F7010008F701000860
:1000A000F7010008F7010008F7010008F701000850
:1000B000F70100080D2E0008F7010008F7010008FD
:1000C000F7010008F7010008F7010008F701000830
:1000D000F7010008992F0008E53000087931000881
:1000E0007D0D0008F7010008F7010008F70100087E
:1000F000F7010008F7010008F7010008F701000800
:10010000F7010008F7010008F7010008F7010008EF
:10011000F7010008F7010008F7010008F7010008DF
:10012000F7010008F7010008F7010008F7010008CF
:10013000DFF80CD000F088FC0048004735A7000825
:10014000C0660020224B19680868B0E8F00F80F301
:100150000988BFF36F8F4FF0000080F311884EF0D5
:100160000D0E70470000000006480068006880F32C
:10017000088862B661B6BFF34F8FBFF36F8F00DFA1
:1001800000BF00BF08ED00E0EFF30980BFF36F8F01
:100190000F4B1A6820E9F00F106008B54FF0BF0050
:1001A00080F31188BFF34F8FBFF36F8F0BF0A0FF69
:1001B0004FF0000080F31188BDE808401968086816
:1001C000B0E8F00F80F30988BFF36F8F704700BF6E
:1001D00050000020EFF3058070470000064880477C
:1001E00006480047FEE7FEE7FEE7FEE7FEE7FEE71C
:1001F000FEE7FEE7FEE7FEE7AD2D0008310100084F
:1002000040EA01039B0703D009E008C9121F08C098
:10021000042AFAD203E011F8013B00F8013B521E18
:10022000F9D27047D2B201E000F8012B491EFBD28F
:1002300070470022F6E710B513460A4604461946F1
:10024000FFF7F0FF204610BD421E12F8013F002BC1
:10025000FBD111F8013B02F8013B002BF9D17047AB
:1002600030B505462A460B4612F8010B13F8014B30
:1002700008B1A042F8D01CB1002802D06D1CF1E7F3
:10028000284630BD10B5044604E00B7800F8013B69
:1002900003B1491C521EF8D2204610BD421C10F872
:1002A000011B0029FBD1801A704710B5002200E025
:1002B000521C835C8C5CA34201D1002BF8D1D8B2D4
:1002C000E1B2401A10BD10B5044600E0401C0378AE
:1002D000002BFBD100E0401C521E04D311F8013B5F
:1002E0000370002BF7D100210170204610BD30B5FE
:1002F00005460020034600E05B1C934205D2EC5CFF
:10030000C85C201A01D1002CF6D130BD70B50F4D5C
:1003100000B92868002412E00A4602E09E4203D099
:10032000521C1378002BF9D1DAB2224305D02BB13D
:1003300024B1002100F8011B04E00446401C0678AB
:10034000002EE9D12860204670BD00006809002019
:1003500080EA010210B502F00043400022D04A00BA
:100360001FD0010E01EB1261C0F35600C2F356021A
:1003700040F4000042F40002A0FB022000047F3998
:10038000140400D0401C50EA124001D44000491E21
:10039000C2B20C0604EBD010401C4008802A02D0E8
:1003A00003E0002010BD20F00100002900DA002049
:1003B000184310BD30B480EA010202F0004530F06D
:1003C000004221F0004013D090B1C30DD40DC2F310
:1003D0001601C0F31600E41A41F4000140F40002D3
:1003E0007D34914201D3641C00E04900002C02DA04
:1003F00030BC002070474FF400000023914201D32D
:10040000891A034340084FEA4101F7D151B19142A3
:1004100002D14FF0004105E002D24FF0010101E0AE
:100420006FF0010103EBC450284430BC00F0F0B978
:100430002DE9FE4F804681EA0300C00F0C46009074
:1004400021F0004123F00045B8EB0200A94105D29C
:100450004046214690461C460B46024623F000408B
:10046000104347D0270DC7F30A00C3F30A51029087
:10047000401A019040286BDAC3F3130040F4801B4C
:100480000098924620B10023D2EB030A63EB0B0BDA
:1004900001985946C0F14002504600F088F90646DE
:1004A0000D4650465946019A00F0A0F910EB08009D
:1004B0006141002487EA115284EAE7731A4340D06D
:1004C000009A62B3019A012A4FEA075215DC001B19
:1004D00061EB02014FF0004202EA0752CDE900420F
:1004E000001C41F5801132462B4600F0D7F903B0CD
:1004F000BDE8F08F40462146F9E7001B61EB0201A1
:10050000001C41F5801300185B412018A2F500176C
:1005100047EB030140EAD570B6196D4111E06D0853
:100520004FEA360645EAC0754FEA0752001B61EBF9
:100530000201001C41F5801149084FEA3000001902
:10054000514132462B4603B0BDE8F04F00F097B959
:100550000098012240000023D0EB020263EBE0731D
:10056000009821464FEAE074B8EB000061EB04010B
:10057000E9E783F000435BE781F0004158E72DE9AC
:10058000FE4F81EA030404F0004421F0004100948E
:100590004FF0000B23F0004350EA01045ED052EA12
:1005A00003045BD0C3F30A54C1F30A552C44A4F2EC
:1005B000F3340194A0FB0254C1F3130141F4801100
:1005C000C3F3130343F4801301FB024400FB034E07
:1005D000840A970A44EA815447EA8357A4FB0768D0
:1005E00002958D0A05FB07854FEA932C04FB0C54FA
:1005F0002705029D4FEA065847EA1637B5EB08056E
:100600006EEB070C870E920E47EA811742EA8312BF
:10061000A7FB0201B6EB0B0164EB00042B0D43EAD0
:100620000C335E1844EB1C50DA465146E7FB0201DE
:10063000C5F313044FEA0B3343EA14534FEA043271
:10064000019C43EA0603A4F10C040294009CCDE94A
:1006500000B400F023F903B0BDE8F08F002001469C
:10066000F9E7C10F80EAE0700844CA079623002129
:1006700000F0D7B896230022114600F0D2B800F05F
:10068000004230F000400AD0C10D01F56071C0F3A6
:10069000160042EA0151C20840071143704700208A
:1006A0000146704730B5041E71F1000404DB4FF0C1
:1006B0000044404264EB0101141E73F1000405DBA9
:1006C0001C464FF00043524263EB0403994208BFBB
:1006D000904230BD01F0004330B421F0004150EAB7
:1006E000010206D00A0DA2F56072C1F31301002ABF
:1006F00002DC30BC00207047440F44EAC104C10052
:10070000E01830BC00EBC25000F082B8002801DBDA
:10071000C0F10040002901DBC1F10041884270476F
:1007200030B50B46014600202022012409E021FAC1
:1007300002F59D4205D303FA02F5491B04FA02F5BE
:100740002844151EA2F10102F1DC30BD2DE9F05F55
:100750000546002092469B46884606468146402430
:100760001BE0284641464746224600F02FF85346F4
:100770005A46C01A914110D311461846224600F03D
:1007800016F82D1A67EB01084F462246012000217A
:1007900000F00DF817EB00094E41201EA4F10104F2
:1007A000DFDC484631462A464346BDE8F09F202A12
:1007B00004DB203A00FA02F1002070479140C2F1B8
:1007C000200320FA03F3194390407047202A04DBEA
:1007D000203A21FA02F00021704721FA02F3D040BA
:1007E000C2F120029140084319467047202A06DBD7
:1007F000CB17203A41FA02F043EAE07306E041FAEF
:1008000002F3D040C2F120029140084319467047DC
:100810000029A8BF7047401C490008BF20F0010014
:10082000704710B4B0FA80FC00FA0CF050EA0104F2
:1008300004BF10BC704749B1CCF1200421FA04F484
:1008400011FA0CF118BF012121430843A3EB0C015D
:10085000CB1D4FEA00614FEA102042BF002010BCC0
:10086000704700EBC35010440029A4BF10BC704770
:10087000401C490008BF20F0010010BC704710B5B3
:10088000141E73F1000408DA401C41F100019218B3
:100890005B411A4301D120F0010010BD2DE9F04D5C
:1008A00092469B4611B1B1FA81F202E0B0FA80F2B1
:1008B00020329046FFF77BFF04460F4640EA0A00CD
:1008C00041EA0B0153465A46084313D0114653EAF6
:1008D000010019D0C8F140025046FFF777FF0546E6
:1008E0000E46504659464246FFF761FF084305D081
:1008F000012004E020463946BDE8F08D0020054384
:1009000046EAE0762C4337430A986305E40AA0EBF5
:1009100008000022FD0A44EA47540A3002D50020AC
:100920000146E9E7010510196941DDE908450019AB
:100930006941BDE8F04DA2E72DE9F04D81EA0304DD
:1009400004F0004B21F0004514464FF0000A23F05C
:10095000004150EA050220D054EA01021DD0C5F33F
:100960000A570246C5F31303C1F31300C1F30A5635
:1009700040F4801543F48013A7EB0608101BD646FD
:1009800008F2FD3873EB050002D308F1010801E01D
:1009900092185B41B8F1000F03DA00200146BDE870
:1009A000F08D00204FF48011064684460EE0171BA0
:1009B00073EB050705D3121B63EB050306434CEAF3
:1009C000010C49084FEA300092185B4150EA0107D8
:1009D000EDD152EA030012D082EA040083EA050155
:1009E000084305D0101BAB4106D20122002306E0CC
:1009F00000224FF0004302E06FF0010253101AEBA7
:100A000006004CEB085110EB0A0041EB0B01BDE86E
:100A1000F04DFFF734BFC1F30A52C1F3130140F2A6
:100A2000FF3341F480119A4202DA002001467047F8
:100A300040F233439A42A2F2334202DC5242FFF7C1
:100A4000C5BEFFF7B4BE0000064C074D06E0E068E7
:100A500040F0010394E8070098471034AC42F6D305
:100A6000FFF76AFBB0670208D067020870B58C1800
:100A700010F8015B15F0070301D110F8013B2A11B2
:100A800006D110F8012B03E010F8016B01F8016B9F
:100A90005B1EF9D12B0705D40023521E0DD401F89B
:100AA000013BFAE710F8013BCB1A921C03E013F864
:100AB000015B01F8015B521EF9D5A142D8D3002099
:100AC00070BD21B1826842F00102826003E0826859
:100AD00022F001028260704710B504461248844239
:100AE00008D10121401502F029F80021601502F01B
:100AF00025F817E00D48844208D10121001502F0C5
:100B00001DF80021201502F019F80BE00848844276
:100B100008D10121C80302F011F800214FF4004070
:100B200002F00CF810BD0000002401400028014034
:100B3000003C0140014600208A6802F004020AB12C
:100B4000012000E0002070470146C86C80B2704769
:100B50000246002013680B400BB1012000E000208A
:100B60007047014600208A6802F008020AB101209D
:100B700000E000207047000030B50246002000234E
:100B800050680F4C20400D790C6844EA052420433E
:100B9000506090680B4C2040D1E902542C434D79B1
:100BA00044EA450420439060D06A20F470000C7C35
:100BB000641EE4B2234340EA0350D06230BD00001B
:100BC000FFFEF0FFFDF7F1FFF0B504460D460020F3
:100BD0000021092D11DDE068A5F10A0606EB4607A4
:100BE000072606FA07F18843A5F10A0606EB460632
:100BF00003FA06F10843E0600CE0206905EB4507C5
:100C0000072606FA07F1884305EB450603FA06F1C5
:100C100008432061072A0FDA606B561E06EB860731
:100C20001F2606FA07F18843561E06EB860605FACC
:100C300006F10843606322E00D2A0FDA206BD61F0D
:100C400006EB86071F2606FA07F18843D61F06EB38
:100C5000860605FA06F10843206310E0E06AA2F177
:100C60000D0606EB86071F2606FA07F18843A2F158
:100C70000D0606EB860605FA06F10843E062F0BDB4
:100C8000816841F008018160704721B1826842F4B7
:100C9000A002826003E0826822F4A00282607047B2
:100CA000816841F0040181607047000000B587B0A1
:100CB00001214FF4017001F031FF4FF4004001F0C9
:100CC00001FF0220ADF8040000208DF8070001A903
:100CD000174800F081FB1748FFF7FEFE0020029046
:100CE0008DF80C008DF80D004FF46020049000206A
:100CF000059001208DF8180002A90E48FFF73CFF6F
:100D000001210C48FFF7DDFE0A48FFF7B9FF00BFDD
:100D10000848FFF726FF0028FAD10648FFF7C0FF72
:100D200000BF0448FFF706FF0028FAD107B000BD56
:100D3000000801400024014000BFFEE710B500217B
:100D4000044A11605160472140F2E73002F078F820
:100D500010BD0000C800002029B1064A52680243B5
:100D6000044B5A6004E0034A52688243014B5A60C4
:100D700070470000002004E07047000008B54FF401
:100D8000805000F0F3F9002837D04FF4805000F085
:100D9000E7F90A2009F0C2FC3248006800282CD18B
:100DA000314932A003F02EFC38484078022820DA7E
:100DB0003648007802281CDA34480079C8B934482B
:100DC0000078B0B931480078401C304908700320E1
:100DD000487101202E49087023492EA003F012FC0F
:100DE0006946314800680BF0C3F8012009F060FC47
:100DF00003E01D492DA003F005FC4FF4006000F056
:100E0000B5F900282DD04FF4006000F0A9F90A20B0
:100E100009F084FC1348001F006810BB1C480078D0
:100E2000F8B9114927A003F0EDFB1848007918B96B
:100E300001201649087102E00020144908710420BD
:100E400012494871012012490870074911A003F0A6
:100E5000D9FB6946144800680BF08AF8012009F0B4
:100E600027FC08BD30012242826002082573284B0E
:100E700045595F5249474854205072657373656401
:100E800020446F776E290D0A000000003400002016
:100E90001800002025732873656E645461736B4DD0
:100EA0007367290D0A0000002400002025732869BB
:100EB0006E76616C6964206F7065726174696F6EC3
:100EC000290D0A002573284B45595F454E5445525C
:100ED000205072657373656420446F776E290D0A24
:100EE0000000000008B5042000F040F9002837D0C9
:100EF000042000F035F90A2009F010FC19480068B8
:100F000000282DD1184919A003F07CFB1E48407819
:100F1000401C00EB40001C490978084407281BDAF4
:100F200019480079C0B919480078A8B9164840781E
:100F3000401C1549487001204871144908700A493D
:100F400013A003F05FFB6946164800680BF010F829
:100F5000012009F0ADFB03E0034913A003F052FBAD
:100F600008BD0000088122424F6002082573284B0B
:100F700045595F444F574E20507265737365642026
:100F8000446F776E290D0A003400002018000020FD
:100F900025732873656E645461736B4D7367290DF7
:100FA0000A00000024000020257328696E76616C19
:100FB0006964206F7065726174696F6E290D0A0033
:100FC00008B5082000F0D2F8002832D0082000F040
:100FD000C7F80A2009F0A2FB16480068002828D1AB
:100FE000154916A003F00EFB1B48407800281CDDB5
:100FF00019480079C8B919480078B0B9164840783E
:10100000401E15494870002048710120134908709E
:10101000094913A003F0F6FA6946164800680AF079
:10102000A7FF012009F044FB03E0034912A003F0ED
:10103000E9FA08BD0C812142606002082573284B43
:1010400045595F5550205072657373656420446F35
:10105000776E290D0A0000003400002018000020DF
:1010600025732873656E645461736B4D7367290D26
:101070000A00000024000020257328696E76616C48
:101080006964206F7065726174696F6E290D0A0062
:1010900008B5102000F06AF8002832D0102000F0C7
:1010A0005FF80A2009F03AFB16480068002828D1AA
:1010B000154916A003F0A6FA1B48007800281CDD8D
:1010C00019480079C8B919480078B0B916480078AD
:1010D000401E15490870022048710120134908700C
:1010E000094913A003F08EFA6946164800680AF011
:1010F0003FFF012009F0DCFA03E0034912A003F0EE
:1011000081FA08BD10812142716002082573284BC5
:1011100045595F4C45465420507265737365642091
:10112000446F776E290D0A0034000020180000205B
:1011300025732873656E645461736B4D7367290D55
:101140000A00000024000020257328696E76616C77
:101150006964206F7065726174696F6E290D0A0091
:101160000149086070470000140401400146002056
:101170000022074B1B6803EA0102054B14331B686E
:101180000B4013B10AB1012000E0002070470000BD
:1011900000040140002123498279002A3AD00A46FE
:1011A000126803689A430B461A600A1D12680368A6
:1011B0009A430B1D1A60027911440A6803681A43A6
:1011C0000A60184A0832126803689A43154B0833BC
:1011D0001A601A1D126803689A43124B0C331A6086
:1011E0004279102A0ED11A1F126803681A430D4B58
:1011F00008331A601A1D126803681A43094B0C332E
:101200001A600DE00749427911440A6803681A43DD
:101210000A6005E0027911440A6803689A430A608B
:10122000704700000004014030B503460024002050
:101230000025156022E000E05B1C1D7815B11D78CB
:10124000202DF9D100E05B1C1D7815B11D78202DF3
:10125000F9D01D788DB1641C8C420FD1184603E083
:1012600015686D1C15605B1C1D7815B11D78202D4F
:10127000F6D1156805B9002002E001E08C42DAD30E
:1012800000BF30BD2DE9F04704468846914601264F
:10129000207810B90020BDE8F0872E48006898BB80
:1012A0002D482C4908602AE02A4800680068076831
:1012B0003846FEF7F3FF0546605D202801D0605DEB
:1012C000C0B92A4639462046FFF711F890B921489F
:1012D0000068006890F90C0000280ADB204609F03D
:1012E00079FE1C490968096891F90C10884200D000
:1012F000002608E01748006840681649086015484D
:1013000000680028D0D100BF1248006848B146B933
:101310004A4612494046FEF7B5FF00200D490860D5
:1013200016E00C48006868B10A4800680068224668
:10133000494683684046984706464EB9002005490D
:10134000086005E04A4606494046FEF79BFF002636
:101350003046A0E7E0000020D40000204C630208E3
:10136000A463020870B50546002608200AF0CEFBEB
:10137000044664B10AF0DCFC25600020606005488A
:1013800000684460034804600AF0E4FC012630462B
:1013900070BD0000DC00002030B500228B071C0F60
:1013A0000F2303FA04F20B4B8C1053F824309343B1
:1013B000084C8D1044F8253023468C1053F8243007
:1013C0008C07240F00FA04F42343024C8D1044F8D8
:1013D000253030BD080001402DE9F04102460025CE
:1013E0000026002000230024002791F803C00CF001
:1013F0000F0591F803C00CF0100CBCF1000F03D0E6
:1014000091F802C04CEA050591F800C0BCF1000F4C
:1014100031D0146800202BE04FF0010C0CFA00F3DF
:10142000B1F800C00CEA03069E4220D183004FF0C1
:101430000F0C0CFA03F7BC4305FA03FC4CEA040456
:1014400091F803C0BCF1280F06D14FF0010C0CFA43
:1014500000FCC2F814C00AE091F803C0BCF1480FC8
:1014600005D14FF0010C0CFA00FCC2F810C0401C72
:101470000828D1D31460B1F800C0BCF1FF0F34DDEF
:10148000546800202EE000F1080C4FF0010808FA23
:101490000CF3B1F800C00CEA03069E4221D1830090
:1014A0004FF00F0C0CFA03F7BC4305FA03FC4CEAAF
:1014B000040491F803C0BCF1280F05D100F1080C19
:1014C00008FA0CF8C2F8148091F803C0BCF1480F78
:1014D00007D100F1080C4FF0010808FA0CF8C2F827
:1014E0001080401C0828CED35460BDE8F081000075
:1014F000F0B50A46002300240021002500F0004634
:10150000B6F1004F02D11D4EF16901E01B4E71682A
:10151000C0F3034583B200F44016B6F5401F08D16E
:1015200021F07061154E766826F07066134F7E606C
:1015300012E000F48016B6F5801F06D1032606FAE5
:1015400005F4A14341F0706106E0460D360103FA4F
:1015500006F6B14341F0706122B1460D360103FA3F
:1015600006F6314300F00046B6F1004F02D1034EBB
:10157000F16101E0014E7160F0BD0000000001402A
:10158000416170470161704710B50446072301228D
:1015900021460948FFF718FB01210748FFF775FBB3
:1015A00000BF02210448FFF7D3FA0028F9D002480F
:1015B000FFF7CAFA10BD0000002401402DE9F041F8
:1015C00007460C460025002608E03846FFF7DCFFFA
:1015D0000544052009F06CF8701CC6B2A642F4DB85
:1015E000B5FBF4F080B2BDE8F08100BFFEE700007B
:1015F0004CF6CC40014908607047000000300040C4
:101600004AF6AA20014908607047000000300040F7
:10161000014948607047000000300040014988607F
:10162000704700000030004001490860704700002A
:101630000030004070B5044600250021084600F047
:1016400077FC01F0F5F900BF1DE0012010490860AA
:1016500000201049C1F8BC0120120F49C8600020C9
:101660000B49091F08600120086044F317000A496C
:10167000C86000200649091F08600120086004496D
:10168000091D08606D1CB5F5963FDED370BD0000E6
:10169000B881214200802142001001402DE9FF4F16
:1016A00085B081468A460020049003900798A0EBFD
:1016B00009050898A0EB0A06CDF80890CDF804A01B
:1016C000002D01DD012705E00DB9002702E04FF0F4
:1016D000FF376D42002E02DD4FF0010806E016B91B
:1016E0004FF0000802E04FF0FF387642B54201DDCE
:1016F0002C4600E034464FF0000B21E0019A91B2F5
:10170000029A90B200F022F80498284404900398BA
:10171000304403900498A04205DD0498001B049017
:101720000298384402900398A04205DD0398001BFC
:1017300003900198404401900BF101001FFA80FBD7
:10174000601C8345DADD09B0BDE8F08F70B5044652
:101750000D462946204600F0EBFB01F069F9012017
:101760001049086000201049C1F8BC010F480088EA
:1017700000120F49C86000200A49091F08600120B3
:101780000949C1F8B401094800880949C860002026
:101790000449091F0860012008600249091D08600A
:1017A00070BD0000B8812142008021425409002010
:1017B000001001402DE9F04104460D4616461F4633
:1017C0002B46324629462046FFF768FF3B46224615
:1017D00029462046FFF762FF3B46324639462046FF
:1017E000FFF75CFF3B46324629463046FFF756FF7F
:1017F000BDE8F0812DE9F05F04460F46904699461A
:10180000DDF828A04FF0000BA8EB0400401C1FFAE5
:1018100080FB3D462CE0002626E0A11988B229462F
:1018200000F086FB01F004F9012013490860002054
:101830001249C1F8BC014FEA2A201149C8600020B2
:101840000D49091F0860012008604AF317000C4980
:10185000C86000200849091F086001200860064987
:10186000091D0860701C86B25E45D6DB681C85B217
:101870004D45D0DDBDE8F09FB88121420080214276
:101880000010014008B50121192001F047F94FF27D
:101890008100ADF8000010208DF8030003208DF8C2
:1018A000020069460948FFF797FD4FF2810107489A
:1018B000FFF768FEFF20ADF8000069460448FFF717
:1018C0008BFDFF210248FFF75DFE08BD000C0140C3
:1018D0000010014010B5FFF7D5FF0120FE49086058
:1018E00000F010FB112001F08DF8782008F0E0FEE8
:1018F000362001F087F84FF48040F8490860400036
:10190000091D08600020F649C8604814F349091D04
:101910000860091F0860800008603A2001F072F832
:101920004FF48040ED4908604000091D0860052023
:10193000EB49C8604814E949091D0860091F08609F
:1019400080000860B22001F05DF84FF48040E34968
:1019500008604000091D08600C20E149C860481477
:10196000DE49091D0860091F0860800008604010FA
:1019700008604000091D08600C20D949C86048145F
:10198000D649091D0860091F0860800008604010E2
:1019900008604000091D08600020D149C860481453
:1019A000CE49091D0860091F0860800008604010CA
:1019B00008604000091D08603320C949C860481408
:1019C000C649091D0860091F0860800008604010B2
:1019D00008604000091D08603320C149C8604814F0
:1019E000BE49091D0860091F086080000860B72013
:1019F00001F008F84FF48040B84908604000091D24
:101A000008603520B649C8604814B449091D08600B
:101A1000091F086080000860BB2000F0F3FF4FF44E
:101A20008040AE4908604000091D08600E20AC49A6
:101A3000C8604814A949091D0860091F0860800092
:101A40000860C02000F0DEFF4FF48040A34908602A
:101A50004000091D08602C20A149C86048149F4916
:101A6000091D0860091F086080000860C22000F09E
:101A7000C9FF4FF48040994908604000091D086083
:101A800001209749C86040039449091D0860091F57
:101A9000086080000860C32000F0B4FF4FF480406D
:101AA0008E4908604000091D086012208C49C860FA
:101AB00048148A49091D0860091F086080000860F1
:101AC000C42000F09FFF4FF480408449086040002C
:101AD000091D086020208249C86000027F49091D55
:101AE0000860091F086080000860C62000F08AFFB7
:101AF0004FF48040794908604000091D08600F20BC
:101B00007749C86048147549091D0860091F0860B5
:101B100080000860D02000F075FF4FF480406F49CE
:101B200008604000091D0860A4206D49C860481481
:101B30006A49091D0860091F08608000086040109C
:101B400008604000091D0860A1206549C86048146C
:101B50006249091D0860091F086080000860E020D4
:101B600000F050FF4FF480405C4908604000091DC0
:101B70000860D0205A49C86048145849091D0860B7
:101B8000091F086080000860401008604000091DBF
:101B9000086000205249C86048145049091D086077
:101BA000091F086080000860401008604000091D9F
:101BB000086005204A49C86048144849091D086062
:101BC000091F086080000860401008604000091D7F
:101BD00008600D204249C86048144049091D08604A
:101BE000091F086080000860401008604000091D5F
:101BF00008600F203A49C86048143849091D086038
:101C0000091F086080000860401008604000091D3E
:101C100008602B203249C86048143049091D08600B
:101C2000091F086080000860401008604000091D1E
:101C300008603B202A49C86048142849091D0860EB
:101C4000091F086080000860401008604000091DFE
:101C5000086044202249C86048142049091D0860D2
:101C6000091F086080000860401008604000091DDE
:101C700008604A201A49C86048141849091D0860BC
:101C8000091F086080000860401008604000091DBE
:101C9000086018201249C86048141049091D0860DE
:101CA000091F086080000860401008604000091D9E
:101CB00008600F200A49C86048140849091D0860D7
:101CC000091F086080000860401008604000091D7E
:101CD00008600B20024905E0B0812142100C014050
:101CE00000100140C860481484490860091F08605A
:101CF00080000860401008604000091D08601F2037
:101D00007F49C86048147D490860091F0860800049
:101D10000860401008604000091D086022207849D2
:101D2000C860481475490860091F08608000086091
:101D3000E12000F067FE4FF480407049091F086001
:101D40004000091D0860D0206D49C86048146B49E7
:101D50000860091F086080000860401008604000AB
:101D6000091D086000206649C8604814634908607E
:101D7000091F086080000860401008604000091DCD
:101D8000086005205E49C86048145C490860091F66
:101D9000086080000860401008604000091D08606D
:101DA0000D205749C860481454490860091F08604D
:101DB00080000860401008604000091D0860102085
:101DC0004F49C86040024D490860091F0860800003
:101DD0000860401008604000091D08602B20484939
:101DE000C860481445490860091F08608000086001
:101DF000401008604000091D08603D204049C8604F
:101E000048143E490860091F0860800008604010BF
:101E100008604000091D086054203949C860481412
:101E200036490860091F086080000860401008609B
:101E30004000091D086050203149C86048142F49EE
:101E40000860091F086080000860401008604000BA
:101E5000091D08602F202A49C860481427490860D6
:101E6000091F086080000860401008604000091DDC
:101E700008601F202249C860481420490860091FD3
:101E8000086080000860401008604000091D08607C
:101E90001F201B49C860481418490860091F0860C2
:101EA00080000860401008604000091D08601F2085
:101EB0001349C860481411490860091F0860800070
:101EC0000860401008604000091D086023200C498C
:101ED000C860481409490860091F0860800008604C
:101EE000292000F08FFD2C2000F08CFD142008F03C
:101EF000DFFB4FF6FF70FFF79DFB10BD140C014098
:101F00000010014010B501200849086008F0D0FB1E
:101F100001200649091D0860142008F0C9FB0120B2
:101F200002490860142008F0C3FB10BD100C0140EA
:101F300010B503460C462A2000F064FD4FF48040A3
:101F4000234908604000091D086018122149C86033
:101F500048141F49091D0860091F086080000860B7
:101F6000401008604000091D086043F3170019493C
:101F7000C86048141649091D0860091F08608000E0
:101F800008602B2000F03EFD4FF4804010490860AF
:101F90004000091D086020120E49C86048140C4911
:101FA000091D0860091F0860800008604010086073
:101FB0004000091D086044F317000649C860481432
:101FC0000349091D0860091F08608000086010BDF2
:101FD000100C0140001001402DE9F84F81468A465F
:101FE00017461C46CB46694800880090B9F1E80FB7
:101FF00002DCBAF59C7F01DDBDE8F88FA7F1200077
:10200000C7B20A9800287DD1002583E00C2C2AD184
:1020100007EB47005E4901EB800010F805800026C1
:1020200016E008F0010018B158490098088003E054
:10203000584800885549088051464846FFF786FBB6
:102040004FEA680809F101001FFA80F9701CC6B256
:1020500004EBD471B6EB610FE3DBD9460AF1010062
:102060001FFA80FA54E0102C28D14B4800EB0710DF
:1020700010F80580002616E008F0010018B1434969
:102080000098088003E04348008840490880514692
:102090004846FFF75BFB4FEA680809F101001FFAA9
:1020A00080F9701CC6B204EBD471B6EB610FE3DBB0
:1020B000D9460AF101001FFA80FA29E0374800EBFF
:1020C000C71010F80580002616E008F0010018B1CE
:1020D0002E490098088003E02E4800882B4908808C
:1020E00051464846FFF732FB4FEA680809F1010004
:1020F0001FFA80F9701CC6B204EBD471B6EB610F05
:10210000E3DB00E00AE0D9460AF101001FFA80FA99
:10211000681CC5B2A542FFF679AF32E000252EE07B
:102120000C2C07D107EB4700194901EB800010F890
:1021300005800CE0102C05D1174800EB071010F8B3
:10214000058004E0154800EBC71010F80580002654
:102150000EE008F0010038B10AEB050291B209EB7C
:10216000060290B2FFF7F2FA4FEA6808701CC6B296
:1021700004EBD471B6EB610FEBDB681CC5B2A54272
:10218000CEDB02490098088000BF35E754090020E3
:10219000C0D000085609002034D5000824DB000810
:1021A0002DE9FF4F81B006468A460E9DB346CDF815
:1021B00000A00398002873D10498102873D0182821
:1021C00070D169E0002460E004EB041000EB8000B3
:1021D000FD49085C2978884255D104EB041000EBD6
:1021E0008000F94908444078697888424BD104EB73
:1021F000041000EB8000F44908448078A9788842F4
:1022000041D100273DE004EB041000EB8000EE49D3
:102210000844001D10F807904FF000082CE009F06A
:102220008000802807D1E9490F9808805146304640
:10223000FFF78CFA06E0E5491098088051463046D1
:10224000FFF784FA4FF6FF7000EA4909701C86B266
:10225000A6EB0B0018280BD15E460AF101001FFA0D
:1022600080FA0098AAEB00001B2801D1DDF800A03D
:1022700008F1010000F0FF08B8F1080FCFDB781C6F
:10228000C7B2512FBFDB601CC4B20F2C9CDBED1C0E
:1022900006F1180086B2B3462878002892D16EE085
:1022A0006EE000E06AE065E000245CE004EB84009E
:1022B000C74911F830002978884252D104EB8400D4
:1022C000C34901EBC00040786978884249D104EBEA
:1022D0008400BF4901EBC0008078A978884240D1D2
:1022E00000273CE004EB8400B94901EBC000001D6D
:1022F00010F807904FF000082CE009F080008028CB
:1023000007D1B2490F98088051463046FFF71EFAB0
:1023100006E0AE491098088051463046FFF716FA9D
:102320004FF6FF7000EA4909701C86B2A6EB0B005D
:1023300010280BD15E460AF101001FFA80FA0098BE
:10234000AAEB0000122801D1DDF800A008F101007D
:1023500000F0FF08B8F1080FCFDB781CC7B2242FBC
:10236000C0DB601CC4B2312CA0DBED1C06F11000F8
:1023700086B2B3462878002896D100E000BF72E10B
:102380000398022877D10498102877D0182874D1A0
:102390006DE0002464E004EB440000EB04108D4980
:1023A00011F820002978884258D104EB440000EB52
:1023B0000410884901EB80004078697888424DD14B
:1023C00004EB440000EB0410824901EB80008078AC
:1023D000A978884242D100273EE004EB440000EB9C
:1023E00004107C4901EB8000001D10F807904FF0AD
:1023F00000082CE009F08000802807D173490F986D
:10240000088051463046FFF7A1F906E06F49109861
:10241000088051463046FFF799F94FF6FF7000EA01
:102420004909701C86B2A6EB0B0018280BD15E463A
:102430000AF101001FFA80FA0098AAEB00001828A0
:1024400001D1DDF800A008F1010000F0FF08B8F1AB
:10245000080FCFDB781CC7B2482FBEDB601CC4B2AC
:10246000062C98DBED1C06F1180086B2B3462878DE
:1024700000288ED16EE06EE000E06AE065E00024A6
:102480005CE004EBC400544911F82000297888422C
:1024900052D104EBC400504901EB800040786978C8
:1024A000884249D104EBC4004B4901EB800080789D
:1024B000A978884240D100273CE004EBC40046499B
:1024C00001EB8000001D10F807904FF000082CE091
:1024D00009F08000802807D13C490F9808805146B8
:1024E0003046FFF733F906E0384910980880514626
:1024F0003046FFF72BF94FF6FF7000EA4909701CD0
:1025000086B2A6EB0B0010280BD15E460AF1010043
:102510001FFA80FA0098AAEB0000102801D1DDF81C
:1025200000A008F1010000F0FF08B8F1080FCFDBB0
:10253000781CC7B2202FC0DB601CC4B2782CA0DB93
:10254000ED1C06F1100086B2B3462878002896D11B
:1025500000E000BF87E0039801287DD1049810288F
:102560007AD17CE0002471E0C4EBC40000EB0410DD
:102570001A4911F810002978884265D1C4EBC400CB
:1025800000EB0410154901EB40004078697888425F
:102590005AD1C4EBC40000EB0410104901EB400019
:1025A0008078A97888424FD100274BE0C4EBC40063
:1025B00000EB0410094901EB4000001D10F80790E2
:1025C0004FF0000839E00000C4220108540900203F
:1025D000AC010020A40A01086C0C0108BF27010807
:1025E00009F08000802807D120490F9808805146C3
:1025F0003046FFF7ABF806E01C49109808805146BA
:102600003046FFF7A3F84FF6FF7000EA4909701C47
:1026100086B2A6EB0B0010280BD15E460AF1010032
:102620001FFA80FA0098AAEB0000152801D1DDF806
:1026300000A008F1010000F0FF08B8F1080FCFDB9F
:10264000781CC7B22A2FB1DB601CC4B2172C8BDBFD
:10265000ED1C06F1100000E005E086B2B3462878D4
:1026600000287FF47FAF05B0BDE8F08F540900204B
:102670002DE9FF4F81B004460D461646A34600954E
:102680005AE00498182857D100274EE007EBC700FE
:1026900000EB07102B4911F810003178884242D125
:1026A0004FF000083CE007EBC70000EB071025499E
:1026B00001EB4000801C10F808A04FF0000928E052
:1026C0000AF08000802807D11F490E98088029460B
:1026D0002046FFF73BF806E01B490F980880294683
:1026E0002046FFF733F84FF6FF7000EA4A0A601CF5
:1026F00084B2A4EB0B00102807D15C46681C85B29D
:102700000098281A182800D1009D09F1010000F056
:10271000FF09B9F1080FD3DB08F1010000F0FF0851
:10272000B8F1300FBFDB781CC7B21F2FAEDB761CB1
:1027300004F1100084B2A34630780028A1D105B07E
:10274000BDE8F08F4C1D0108540900202DE9FF4F12
:1027500081B005460F461646AB460097DEE004986A
:1027600018286AD1002460E004EB041000EB80001C
:102770006E49085C3178884255D104EB041000EBB7
:1027800080006A4908444078717888424BD104EB54
:10279000041000EB8000654908448078B1788842D5
:1027A00041D14FF000083BE004EB041000EB800047
:1027B0005E490844001D10F808A04FF0000928E009
:1027C0000AF08000802807D159490E9808803946C0
:1027D0002846FEF7BBFF06E055490F9808803946AA
:1027E0002846FEF7B3FF4FF6FF7000EA4A0A681C5E
:1027F00085B2A5EB0B00182807D15D46781C87B27F
:102800000098381A1B2800D1009F09F1010000F040
:10281000FF09B9F1080FD3DB08F1010000F0FF0850
:10282000B8F1510FC0DB601CC4B20C2C9CDBF61C51
:1028300005F1180085B2AB4670E0049810286DD100
:10284000002464E0C4EBC40000EB0410394911F823
:1028500010003178884258D1C4EBC40000EB04105A
:10286000344901EB40004078717888424DD1C4EB87
:10287000C40000EB04102F4901EB40008078B178D0
:10288000884242D14FF000083CE0C4EBC40000EBAA
:102890000410284901EB4000001D10F808A04FF07B
:1028A000000928E00AF08000802807D120490E980E
:1028B000088039462846FEF749FF06E01C490F9874
:1028C000088039462846FEF741FF4FF6FF7000EAC0
:1028D0004A0A681C85B2A5EB0B00102807D15D469B
:1028E000781C87B20098381A152800D1009F09F18A
:1028F000010000F0FF09B9F1080FD3DB08F1010076
:1029000000F0FF08B8F12A0FBFDB601CC4B2122C24
:1029100098DBF61C05F1100085B2AB463078002834
:102920007FF41DAF05B0BDE8F08F0000C4220108A0
:1029300054090020BF2701082DE9F05F8046894631
:1029400016469A46DDF828B0002700241FE000252F
:102950001AE004FB0650012101EB40001BF8007057
:102960004FF6FF7000EA072704FB06501BF8100023
:1029700007430948078009EB040291B208EB0502FE
:1029800090B2FEF7E3FE6D1CB542E2DB641C5445D9
:10299000DDDBBDE8F09F000054090020F8B50546D6
:1029A0000E4617461C4627E020780D2801D1641CEE
:1029B00022E020780A2803D1A81D85B2641C1BE000
:1029C000E82D03DD502506F1140086B2B6F59C7F94
:1029D00000DDF8BD0020009022783B4631462846B5
:1029E000FFF7FAFA0C2F02D1A81D85B202E005F11B
:1029F000080085B2641C00BF20780028D4D100BF35
:102A0000E7E700004FF48041074A11604900116078
:102A100040F31701054AD1605114034A1160121F97
:102A20001160890011607047140C014000100140D2
:102A300000B52C20FFF7E6FF00BD00BFFEE77047A2
:102A400070B5002100230F22C47804B3154C24680C
:102A500004F4E064C4F5E064210AC1F10403CA404F
:102A6000447804FA03F184781440214309010E4CA0
:102A70000678A155047804F01F050124AC400578C0
:102A80006D11AD0005F1E025C5F8004109E00478BD
:102A900004F01F050124AC40044D0678761145F87A
:102AA000264070BD0CED00E000E400E080E100E0B5
:102AB00002490143024A1160704700000000FA0514
:102AC0000CED00E001460020034A506820F440402D
:102AD00008435060704700000010024029B1064AC8
:102AE000D2690243044BDA6104E0034AD2698243AB
:102AF000014BDA61704700000010024029B1064A1C
:102B000012690243044B1A6104E0034A12698243CA
:102B1000014B1A61704700000010024029B1064ABB
:102B200092690243044B9A6104E0034A926982432A
:102B3000014B9A61704700000010024029B1064A1B
:102B4000D2680243044BDA6004E0034AD26882434D
:102B5000014BDA6070470000001002400348406AF1
:102B600040F0807001494862704700000010024048
:102B700030B500210022002400232D4D6D6805F0A2
:102B80000C0121B1042905D0082923D105E0294DE4
:102B9000056022E0274D05601FE0254D6D6805F4B6
:102BA0007012234D6D6805F48034022505EB9242C6
:102BB0001CB9214D554305600BE01D4D6D6805F4B2
:102BC00000351DB11C4D5543056002E0194D5543BC
:102BD000056002E0174D056000BF00BF144D6D6831
:102BE00005F0F0010909154D6B5C0568DD40456095
:102BF0000F4D6D6805F4E061090A104D6B5C456886
:102C0000DD4085600A4D6D6805F46051C90A0B4DC1
:102C10006B5C4568DD40C560054D6D6805F440415D
:102C2000890B074D6B5CC568B5FBF3F5056130BDDD
:102C30000010024000127A0000093D000000002050
:102C40001000002010B501460022002300204A1188
:102C5000012A02D1094C236806E0022A02D1074C5E
:102C6000236A01E0054C636A01F01F0201249440CD
:102C70001C400CB1012000E0002010BD00100240FB
:102C800001490860704700008004424210B500F01E
:102C900001F810BD0CB50020019000903348006889
:102CA00040F480303149086000BF3048006800F4CB
:102CB000003000900198401C0190009818B90198CC
:102CC000B0F5A06FF1D12948006800F4003010B1D0
:102CD0000120009001E0002000900098012843D1DD
:102CE0002348006840F01000214908600846006849
:102CF00020F0030008600846006840F00200086009
:102D00001A484068194948600846406848600846C3
:102D1000406840F4806048600846406820F47C10B9
:102D200048600846406840F4E8104860084600687B
:102D300040F08070086000BF0C48006800F0007030
:102D40000028F9D00948406820F00300074948608E
:102D50000846406840F00200486000BF03484068F1
:102D600000F00C000828F9D10CBD00000010024052
:102D700000200240042808D14FF0E021096941F009
:102D800004014FF0E022116107E04FF0E0210969F2
:102D900021F004014FF0E0221161704710B509F0F5
:102DA00059FC012801D009F015FA10BD10B51348DF
:102DB000006840F001001149086008464068104969
:102DC00008400E494860084600680E4908400B4913
:102DD00008600846006820F48020086008464068C3
:102DE00020F4FE0048604FF41F008860FFF74EFF9C
:102DF0004FF000600449086010BD00000010024060
:102E00000000FFF8FFFFF6FE08ED00E010B501211D
:102E1000094800F054F8012808D1084802684068C1
:102E2000521C40F1000005490A6048600121024837
:102E300000F036F810BD000000040040C80000207B
:102E40007FB505460C4601210220FFF747FEADF88D
:102E50000850ADF804400020ADF80A00ADF80600B7
:102E600001A90E4800F046F8012211460B4800F077
:102E700037F81D208DF8000001208DF8010000209A
:102E80008DF8020001208DF803006846FFF7D8FD99
:102E90000121024800F007F87FBD00000004004057
:102EA000CA430282704721B1028842F001020280C7
:102EB00004E002884FF6FE731A400280704730B576
:102EC0000246002000230024158A05EA01039589A3
:102ED00005EA010413B10CB1012000E0002030BD6F
:102EE0001AB183890B43838102E083898B438381F9
:102EF00070470000002202881D4B98420ED01D4BE7
:102F000098420BD0B0F1804F08D01B4B984205D0AF
:102F10001A4B984202D01A4B984204D14FF68F7345
:102F20001A404B881A43174B984207D0164B9842C9
:102F300004D04FF6FF431A40CB881A4302808B8897
:102F400083850B8803850A4B98420BD0094B984226
:102F500008D00E4B984205D00D4B984202D00D4B35
:102F6000984201D10B7A03860123838270470000C7
:102F7000002C0140003401400004004000080040E3
:102F8000000C0040001000400014004000400140D0
:102F9000004401400048014038B540F22551354811
:102FA00000F0D5F9002863D0324800F08BFAC4B2A3
:102FB0003148007878B14021304800F057F9214677
:102FC0002E4800F084FA00BF40212C4800F0B2F9EE
:102FD0000028F9D038BD2A48007870B14021274830
:102FE00000F044F92146254800F071FA00BF402165
:102FF000224800F09FF90028F9D02248006840F2EA
:10300000FF31884209D220481E49096844541D48AE
:103010000068401C1B49086013E01C491CA001F01B
:10302000F1FA4FF480611848FDF703F900201549C3
:10303000086015480968445412480068401C11494A
:1030400008601DA1104805F073FB88B11D48007889
:103050001C49497801EB41010844052808D10B4976
:1030600019A001F0CFFA69461D48006808F080FFFA
:1030700000BFAFE700380140C70000200044004017
:10308000C60000205C090020805E002011CB0008F3
:103090002573286275666665722069732066756C93
:1030A0006C2C20726561647920746F20636C65619B
:1030B00072290D0A000000003C2F5265717565737E
:1030C000743E00003400002025732873656E642070
:1030D0007461736B206E6F74696679290D0A000044
:1030E0002C00002038B540F225511F4800F02FF980
:1030F000002837D01C4800F0E5F9C4B20D2C09D1E6
:103100002146194800F0E3F969461848006808F0BC
:103110002FFF38BD0A2C00D1FBE7082C11D1214626
:10312000114800F0D4F91248006848B1104800680E
:10313000401E0F49086000200E490D4A126888544D
:10314000E7E70B480068FF280CD22146064800F04C
:10315000BEF9084806490968445405480068401CFF
:103160000349086000BFD4E700440040200000206D
:10317000140000206C09002038B540F225512A487F
:1031800000F0E5F800284DD0274800F09BF9C4B2C4
:103190002648007870B14021254800F067F82146A4
:1031A000234800F094F900BF4021214800F0C2F804
:1031B0000028F9D004B938BD1E480068B0F5FF7F7B
:1031C00009D81D481B49096844541A480068401C26
:1031D0001849086002E019A001F014FA20480078AC
:1031E00000B3204800781F49497801EB41010844A9
:1031F000052817D109F044FA0546002003462A465F
:10320000062100901848006809F0FAFB09F038FA26
:103210000546002003462A46072100901248006810
:1032200009F0EEFB00BFC6E700480040C5000020E3
:1032300000440040A8010020005C00205541525489
:10324000335F527842756666657228554152545F05
:103250004D35333130292069732066756C6C21003F
:1032600060090020340000206409002001F400728D
:10327000B2F5007F00D100BFCA430280704721B180
:10328000828942F40052828104E082894DF6FF7304
:103290001A4082817047000010B5044620488442DD
:1032A00009D101218803FFF749FC00214FF4804038
:1032B000FFF744FC32E01B48844209D10121480455
:1032C000FFF71CFC00214FF40030FFF717FC25E04E
:1032D0001548844209D101218804FFF70FFC002121
:1032E0004FF48020FFF70AFC18E01048844209D10F
:1032F0000121C804FFF702FC00214FF40020FFF772
:10330000FDFB0BE00A48844208D101210805FFF7C4
:10331000F5FB00214FF48010FFF7F0FB10BD00001B
:10332000003801400044004000480040004C00408C
:103330000050004002460020B1F5007F00D100BFE0
:1033400013880B400BB1012000E00020704770B5DE
:103350000246002400230025002040F66A16B142F0
:1033600000D100BFC1F3421501F01F03012606FA88
:1033700003F3012D02D19689334006E0022D02D1DC
:10338000168A334001E0968A33400C12012606FA71
:1033900004F41688344013B10CB1012000E0002081
:1033A00070BDF0B50346002400260025002040F63D
:1033B0006A17B94200D100BF1846C1F3421401F0A8
:1033C0001F06012707FA06F5012C01D10C3004E095
:1033D000022C01D1103000E014301AB107682F43DD
:1033E000076002E00768AF430760F0BD2DE9F047D2
:1033F00086B005460E460024A24600BFA14600271F
:10340000B08900B100BF2F462C8A4CF6FF700440F3
:10341000F08804432C82AC894EF6F3100440B08847
:1034200031890843718908430443AC81AC8A4FF663
:10343000FF400440B0890443AC8201A8FFF798FB29
:103440001F48874202D1DDF810A001E0DDF80CA092
:10345000A88900F4004040B10AEBCA0000EB0A1052
:1034600031684900B0FBF1F807E00AEBCA0000EB55
:103470000A1031688900B0FBF1F86420B8FBF0F065
:1034800004012009642101FB1089A88900F400408F
:1034900040B1322000EBC900B0FBF1F000F00700B2
:1034A000044308E0322000EB09106421B0FBF1F086
:1034B00000F00F0004432C8106B0BDE8F087000047
:1034C0000038014001468888C0F308007047C1F306
:1034D00008028280704700BFFEE7000030B5C1B02F
:1034E0004FF4807101A8FCF7A4FE604960A001F0D0
:1034F00089F861A16348FCF7B3FE002870D062A18F
:103500006048FCF7ADFE0028F8D0584961A001F0F2
:1035100079F859A15B48FCF7A3FE00F109045AA110
:103520005848FCF79DFE0546281BB0F5807F0DD955
:103530004E495DA001F066F84FF480615148FCF7F8
:1035400078FE00206249086041B030BD2A1B214648
:1035500001A8FCF755FE4FF480614A48FCF769FE6C
:1035600000205B4908605BA101A8FCF79EFE10B932
:1035700000F020FB6CE05AA101A8FCF796FE10B900
:1035800000F082FC64E059A101A8FCF78EFE10B99E
:1035900000F00CFA5CE058A101A8FCF786FE10B917
:1035A00000F018FC54E057A101A8FCF77EFE10B90A
:1035B00000F04AFA4CE058A101A8FCF776FE80B969
:1035C0004FF400715748FCF734FE0020564908605C
:1035D000012056490870254955A001F013F837E03D
:1035E00032E058A101A8FCF760FE38B900204F492D
:1035F00008701E4957A001F005F829E05AA101A85A
:1036000005F0BEF8D8B15AA101A805F091F8B0B103
:10361000012046490870154957A000F0F3FF52A158
:1036200001A8FCF71DFE041D51A101A8FCF718FE1E
:1036300005462A1B2146564806F040F808E00B498B
:1036400054A000F0DFFF03E0084957A000F0DAFFC4
:1036500006495CA000F0D6FF4FF480610948FCF7F2
:10366000E8FD00201A49086000BF6DE733630208D7
:1036700025732E2E2E0D0A003C52657175657374EC
:103680003E000000805E00203C2F5265717565731E
:10369000743E00002573287265717565737420642B
:1036A000617461290D0A0000257328626C6520721F
:1036B0006571756573742064617461206F766572DD
:1036C000206C656E6774683A323536290D0A000041
:1036D0005C090020646576696365496E666F000069
:1036E000726164696F496E666F0000006174746195
:1036F000636854696D65000070696E6744656C614C
:1037000079000000636F6D70726568656E7369762D
:103710006554657374000000626C654174456E61A8
:10372000626C6500005C0020A80100206009002098
:10373000257328626C654174456E61626C65290D64
:103740000A000000626C65417444697361626C65D3
:1037500000000000257328626C6541744469736140
:10376000626C65290D0A00003C41543E00000000D7
:103770003C2F41543E00000025732852656376209B
:10378000415420436F6D6D616E64290D0A00000085
:1037900000480040257328756E6B6E6F7720636D4F
:1037A00064290D0A000000002573286572726F728B
:1037B0002072657175657374206461746121290DCF
:1037C0000A000000257328436C65617220626C65F5
:1037D00020627566666572290D0A000030B58BB0EF
:1037E0002822104901A8FCF70BFD05250E490FA062
:1037F00000F008FF0DE04FF4FA63022201A90DA0CA
:1038000000F094FF0446012C01D10BB030BD681EBE
:10381000C5B2002DEFDC044909A000F0F3FE002042
:10382000F3E70000206202080062020825732E2ED2
:103830002E0D0A0041542B454E544D0D0A00000038
:1038400025732845786563757465206661696C2108
:10385000290D0A0030B58BB02822104901A8FCF7C9
:10386000CFFC05250E490FA000F0CCFE0DE04FF473
:10387000FA63022201A90DA000F058FF0446012CB2
:1038800001D10BB030BD681EC5B2002DEFDC04497C
:1038900008A000F0B7FE0020F3E700001461020862
:1038A000F460020825732E2E2E0D0A002B2B2B619F
:1038B00000000000257328457865637574652066EF
:1038C00061696C21290D0A0008B5104910A000F0AB
:1038D00099FE1148022300224FF4FA7100900FA0C4
:1038E00009F058F811490860FFF7B4FF00F020F81C
:1038F00000F0EEFC00F08EFC00F010FC4FF47A704B
:1039000006F0D6FEFFF7A6FF08BD00009C62020885
:1039100025732E2E2E0D0A00095F0008626C65418A
:103920007445786554696D65720000006409002073
:1039300030B58BB02822104901A8FCF761FC0525A1
:103940000E490FA000F05EFE0DE04FF4FA63022274
:1039500001A90DA000F0EAFE0446012C01D10BB034
:1039600030BD681EC5B2002DEFDC04490AA000F08E
:1039700049FE0020F3E70000546102083C610208A0
:1039800025732E2E2E0D0A0041542B4D41585055B3
:10399000543D4F46460D0A002573284578656375EA
:1039A0007465206661696C21290D0A0010B5A0B00C
:1039B00080216846FCF73DFC11A16846FCF744FCF9
:1039C000124913A000F01EFE02F0DAFA0446224665
:1039D00011A1184805F0EAFE16496846FCF734FCC8
:1039E00015A16846FCF730FC6846FCF757FC044616
:1039F00022466946134805F061FE20B010BD000064
:103A00003C526573706F6E73653E0000DF620208A2
:103A100025732E2E2E0D0A003C6174746163685468
:103A2000696D653E25643C2F6174746163685469F7
:103A30006D653E00806200203C2F526573706F6E92
:103A400073653E000038014010B5D0B04FF480716E
:103A500010A8FCF7EEFB2A492AA000F0D3FD2BA109
:103A600010A8FCF7F1FB02F08BFA044622462EA1C7
:103A7000344805F09BFE334910A8FCF7E5FB42F201
:103A80001072642130A001F019FC0446224632A1D4
:103A90002C4805F08BFE2B4910A8FCF7D5FB02A89B
:103AA00001F008FD1C2202A909A8FCF7A9FB31A11D
:103AB00024480E9A05F07AFE224910A8FCF7C4FBB0
:103AC000684602F053FB2022694608A8FCF798FBE1
:103AD0002CA11C480A9A05F069FE1A4910A8FCF7A7
:103AE000B3FB2CA110A8FCF7AFFB10A8FCF7D6FB8A
:103AF0000446224610A92E4805F0E0FD50B010BD46
:103B00001263020825732E2E2E0D0A003C52657397
:103B1000706F6E73653E3C636F6D70726568656E45
:103B2000736976653E0000003C617474616368549B
:103B3000696D653E25643C2F6174746163685469E6
:103B40006D653E00806200203131342E3131342EDB
:103B50003131342E313134003C70696E6744656C0C
:103B600061793E25643C2F70696E6744656C6179AC
:103B70003E0000003C727373693E25643C2F7273F3
:103B800073693E003C736E723E25643C2F736E7207
:103B90003E0000003C2F636F6D70726568656E7348
:103BA0006976653E3C2F526573706F6E73653E009B
:103BB0000038014070B5ADF5007D4FF400716846E6
:103BC000FCF737FB474948A000F01CFD49A16846B7
:103BD000FCF73AFB40214D4801F0EAF94CA1684658
:103BE000FCF732FB49496846FCF72EFB4BA16846BF
:103BF000FCF72AFB4021454801F058FA4AA16846E3
:103C0000FCF722FB41496846FCF71EFB4AA16846C7
:103C1000FCF71AFB40213D4801F05AF84AA16846DA
:103C2000FCF712FB39496846FCF70EFB48A16846D1
:103C3000FCF70AFB4021354801F044F947A16846EA
:103C4000FCF702FB31496846FCF7FEFA45A16846DD
:103C5000FCF7FAFA40212D4801F0ACF843A1684680
:103C6000FCF7F2FA29496846FCF7EEFA41A16846EA
:103C7000FCF7EAFA41A16846FCF7E6FA402123483E
:103C800006F014FB21496846FCF7DEFA3EA16846BF
:103C9000FCF7DAFA06F0EAFA0646FCF7F0FC04460E
:103CA00022460B463BA1194805F080FD3BA1684622
:103CB000FCF7CAFA15496846FCF7C6FA3AA1684605
:103CC000FCF7C2FA3BA16846FCF7BEFA6846FCF76F
:103CD000E5FA0446224669463D4805F0EFFC0DF53D
:103CE000007D70BDAC62020825732829202E2E2E7F
:103CF0000D0A00003C526573706F6E73653E3C6444
:103D00006576696365496E666F3E000080620020DB
:103D10003C6D6F64756C653E000000003C2F6D6F5C
:103D200064756C653E0000003C6D6F64756C655F8A
:103D30007665723E000000003C2F6D6F64756C6507
:103D40005F7665723E0000003C69636369643E0013
:103D50003C2F69636369643E000000003C696D7339
:103D6000693E00003C2F696D73693E003C696D65DA
:103D7000693E00003C2F696D65693E003C666972D2
:103D80006D776172653E00003C2F6669726D7761E8
:103D900072653E00252E3166000000003C766F6C97
:103DA000746167653E0000003C2F766F6C7461673C
:103DB000653E00003C2F646576696365496E666FF9
:103DC0003E3C2F526573706F6E73653E00000000BD
:103DD0000038014010B590B040216846FCF729FA40
:103DE000134914A000F00EFC14A16846FCF72CFA4D
:103DF00042F21072642114A001F060FA04462246D7
:103E000015A11C4805F0D2FC1A496846FCF71CFABB
:103E100019A16846FCF718FA6846FCF73FFA044611
:103E200022466946174805F049FC10B010BD000055
:103E3000F962020825732E2E2E0D0A003C5265737E
:103E4000706F6E73653E00003131342E3131342E87
:103E50003131342E313134003C70696E6744656C09
:103E600061793E25643C2F70696E6744656C6179A9
:103E70003E000000806200203C2F526573706F6E20
:103E800073653E000038014010B5ADF5387D4FF444
:103E9000007138A8FCF7CDF9202130A8FCF7C9F94A
:103EA000202128A8FCF7C5F9202120A8FCF7C1F99A
:103EB000202118A8FCF7BDF9504951A000F0A2FB41
:103EC00041F28832642150A001F0F8F952A138A8DB
:103ED000FCF7BAF902A801F0EDFA1C2202A909A820
:103EE000FCF78EF952A156480E9A05F05FFC544932
:103EF00038A8FCF7A9F953A151480C9A05F056FCD3
:103F00004F4938A8FCF7A0F901A802F02FF92022A8
:103F100001A910A8FCF774F94EA14948129A05F0BE
:103F200045FC474938A8FCF78FF94EA14448119A3F
:103F300005F03CFC424938A8FCF786F94DA1404801
:103F4000109A05F033FC3E4938A8FCF77DF94EA1E4
:103F50003B48139A05F02AFC394938A8FCF774F954
:103F600014AA4DA1364805F021FC354938A8FCF7C4
:103F70006BF901F015F9044622464CA1304805F0D2
:103F800015FC2F4938A8FCF75FF9202228A930A892
:103F900001F014FD28AB30AA48A1294805F006FC21
:103FA000274938A8FCF750F9202120A801F01AFA77
:103FB00020AA4BA1224805F0F9FB214938A8FCF7BB
:103FC00043F9202118A806F0C3F818AA48A11C48F4
:103FD00005F0ECFB1A4938A8FCF736F948A138A8D7
:103FE000FCF732F938A8FCF759F90446224638A9FB
:103FF000494805F063FB0DF5387D10BDC662020827
:1040000025732E2E2E0D0A003131342E3131342EEF
:104010003131342E313134003C526573706F6E7320
:10402000653E3C726164696F496E666F3E000000D8
:104030003C727373693E25643C2F727373693E0052
:10404000806200203C727372703E25643C2F727354
:1040500072703E003C736E723E25643C2F736E722C
:104060003E0000003C727372713E25643C2F7273F7
:1040700072713E003C65617266636E3E25643C2F42
:1040800065617266636E3E003C65636C3E25643C10
:104090002F65636C3E0000003C63656C6C69643E98
:1040A00025733C2F63656C6C69643E003C62616EF5
:1040B000643E25643C2F62616E643E003C74333381
:1040C00032343E25733C2F74333332343E3C7433E8
:1040D0003431323E25733C2F74333431323E00008C
:1040E0003C706C6D6E3E25733C2F706C6D6E3E00A7
:1040F0003C61706E3E25733C2F61706E3E00000087
:104100003C2F726164696F496E666F3E3C2F526549
:1041100073706F6E73653E000038014070B58AB0F1
:10412000282222496846FCF76BF805260A25204913
:1041300020A000F067FA31E041F28833022269469C
:104140001EA000F0F3FA0446012C25D11BE01DA1AE
:104150001E48FCF785F840B14FF480611B48FCF71E
:1041600068F800201A4908600FE0681EC5B235B92A
:104170000F4918A000F046FA02200AB070BD4FF4B3
:104180007A7006F095FA002DE1DC00BF084918A00E
:1041900000F038FA0120F0E7701EC6B2002ECBDC2A
:1041A000034917A000F02EFA0020E6E75C6202083F
:1041B0004862020825732E2E2E0D0A0041542B5AF8
:1041C0000D0A00005553522D424C4500805E0020E0
:1041D0005C09002025732857616974426F6F744D24
:1041E00073672074696D656F7574290D0A0000008E
:1041F000257328626F6F74206F6B290D0A00000011
:1042000025732845786563757465206661696C213E
:10421000290D0A0070B5A2B028221F4918A8FBF783
:10422000EFFF0525402108A8FCF703F82021684688
:10423000FBF7FFFF19491AA000F0E4F920216846B6
:1042400000F0B8FD18A108A8FBF7FEFF6846FCF7D0
:1042500025F869460844061F314608A8FBF7F4FF15
:1042600015A108A8FBF7F0FF0DE04FF4FA63022256
:1042700018A908A800F05AFA0446012C01D122B06E
:1042800070BD681EC5B2002DEFDC04490BA000F024
:10429000B9F90020F3E70000D8610208C461020800
:1042A00025732E2E2E0D0A0041542B4E414D453DB7
:1042B00044353230305F00000D0A00002573284578
:1042C000786563757465206661696C21290D0A0043
:1042D00030B58BB02822104901A8FBF791FF0525C6
:1042E0000E490FA000F08EF90DE04FF4FA630222A0
:1042F00001A90DA000F01AFA0446012C01D10BB05F
:1043000030BD681EC5B2002DEFDC04490AA000F0E4
:1043100079F90020F3E700009C6102087C61020843
:1043200025732E2E2E0D0A0041542B554152545404
:104330004D3D3130300D0A00257328457865637591
:104340007465206661696C21290D0A0008B5012198
:104350001120FEF7E3FB4FF44070ADF80000482059
:104360008DF8030069460248FDF736F808BD0000E5
:104370000010014010B5FFF7E9FF10BD09490AA080
:1043800000F040F9FFF7AAF80BE00A48007840B9BE
:1043900001F084FE044603F031FE41F2883006F05D
:1043A00087F9F2E7C1CA000825732829202E2E2E8E
:1043B0000D0A00006009002010B5012005490860C1
:1043C0004FF47A7006F074F900200349C1F8BC017B
:1043D00010BD0000BC0121420000214208B50121AE
:1043E0000520FEF79BFB4FF40040ADF800001020C5
:1043F0008DF8030003208DF8020069460148FCF7A0
:10440000EBFF08BD000801400EB54FF480610F4876
:10441000FBF70FFF00200E4908604FF6FF700021E8
:104420000CA21023CDE9002102900222DC211420ED
:10443000FDF7B6FE114864231A461946009046203F
:10444000FEF77AFAFFF7CAF900BFFEE7805E0020A8
:104450005C090020E8AFB7E4BDBFE794A8E5BEAEB5
:10446000E4BFA1E5B08FE7A88BE5BA8FE8BF9BE872
:10447000A18CE6B58BE8AF9500000000E1110208C1
:104480001CB528E042F21071012007F0B9FB044688
:104490002246114911A000F0B5F8012C1BD107F0FC
:1044A00047FC1448006850B11248006807F0E8FC67
:1044B00000201049086008490FA000F0A3F80D483B
:1044C000012100238A02CDE9001013A1174808F04A
:1044D00091F807F03FFCD5E7DECA00082573286E87
:1044E0006F7469667956616C75653A202564290D8B
:1044F0000A0000003000002025732844656C6574B4
:104500006520626C65436D6450726F6365737320E0
:104510007461736B290D0A00626C65436D6450729F
:104520006F636573735F7461736B00007D43000894
:1045300010B5002406E0074901EB0410FCF712FF58
:10454000601CC4B20C2CF6D3034904A000F05AF846
:1045500010BD0000E800002034CB00082573286F50
:104560006B21290D0A00000019491AA000F04AF831
:10457000FFF7DEFF2AE042F21071012007F040FB56
:1045800004462246124915A000F03CF8012C1DD12A
:1045900064211848FBF74DFE00BF642215491648F8
:1045A000FCF770FE05461348FBF778FE06463246D8
:1045B0001049124805F082F8002DEED14FF48071B9
:1045C0000D48FBF736FE00200D490860D3E70000D8
:1045D00086CA000825732E2E2E0D0A002573286E1C
:1045E0006F7469667956616C75653A202564290D8A
:1045F0000A0000006C0A00206C0900200044004002
:10460000140000200FB410B5C2B04FF4807102A89E
:10461000FBF70FFE45A801904FF4807102A8019BA3
:10462000449A05F0D7F8002001900848007840B17E
:1046300002A8FBF733FE0446224602A9044805F00F
:104640003DF842B010BC5DF814FB0000D000002023
:10465000004400402DE9F05F05460E461746984697
:104660004FF000094FF0640A4FF400711D48FBF74A
:10467000E0FD00201C4908602846FBF70FFE83463A
:104680005A462946194805F019F82A46184919A02A
:10469000FFF7B8FF24E0002411E004EB840006EBF0
:1046A00080011048FBF7DCFD38B1621C104914A0F2
:1046B000FFF7A8FF601CBDE8F09F601CC4B2BC42BD
:1046C000EBDB09FB0AF0404505D3094911A0FFF7D0
:1046D00099FF0020EFE7504605F0EAFF09F10109D4
:1046E000D9E70000005C0020A8010020004800403D
:1046F000B4CB0008257328292025730D0A0000007B
:1047000025732872657475726E3A202564290D0A26
:104710000000000025732865786563757465207452
:10472000696D656F757421290D0A00002DE9F05F30
:1047300005460E46174698464FF000094FF0640AAA
:104740004FF480611D48FBF774FD00201C49086090
:104750002846FBF7A3FD83465A462946194804F02C
:10476000ADFF2A46184919A0FFF74CFF24E00024AA
:1047700011E004EB840006EB80011048FBF770FDAC
:1047800038B1621C104914A0FFF73CFF601CBDE863
:10479000F09F601CC4B2BC42EBDB09FB0AF0404551
:1047A00005D3094911A0FFF72DFF0020EFE7504680
:1047B00005F07EFF09F10109D9E70000805E0020C5
:1047C0005C09002000380140986002082573282900
:1047D0002025730D0A000000257328726574757218
:1047E0006E3A202564290D0A000000002573286513
:1047F0007865637574652074696D656F75742129BA
:104800000D0A0000FEB505460E46AE49AEA0FFF704
:10481000F9FE06EB46002844C4B24FF6FF70FCF7E1
:1048200009FF0020AA4908802723EF221946FCF738
:1048300035FFA8481E231A46052100900846FEF7BA
:104840007BF84FF6FF7040F21941A3A21823CDE97F
:1048500000210290002206212320FDF7A1FCA2489E
:1048600032231A463C2100900F20FEF765F86CB900
:1048700040F29E5000219DA21023CDE9002102901C
:1048800002226E210820FDF78BFC0CE04FF6FF7032
:10489000002196A21023CDE90021029002226E2170
:1048A0000820FDF77DFC954832231A463C210090F4
:1048B0005F20FEF741F8012C0DD140F29E500021FF
:1048C0008FA21023CDE90021029002226E215820F0
:1048D000FDF766FC0CE04FF6FF70002188A2102364
:1048E000CDE90021029002226E215820FDF758FCEC
:1048F000874832231A463C210090AF20FEF71CF86F
:10490000022C0DD140F29E50002182A21023CDE94D
:104910000021029002226E21A820FDF741FC0CE04C
:104920004FF6FF7000217BA21023CDE900210290F9
:1049300002226E21A820FDF733FC7A4832231A4662
:10494000962100900F20FDF7F7FF032C0DD140F2C8
:104950009E50002174A21023CDE900210290022272
:10496000C8210820FDF71CFC0CE04FF6FF70002169
:104970006DA21023CDE9002102900222C821082057
:10498000FDF70EFC6C4832231A46962100905F20FA
:10499000FDF7D2FF042C0DD140F29E50002167A2FA
:1049A0001023CDE9002102900222C8215820FDF7F2
:1049B000F7FB0CE04FF6FF70002160A21023CDE959
:1049C000002102900222C8215820FDF7E9FB5F4830
:1049D00032231A4696210090AF20FDF7ADFF052C3B
:1049E0000DD140F29E50002159A21023CDE90021A3
:1049F00002900222C821A820FDF7D2FB0CE04FF65E
:104A0000FF70002152A21023CDE900210290022262
:104A1000C821A820FDF7C4FB514832231A46F021D3
:104A200000900F20FDF788FF062C0ED140F29E501B
:104A300000214CA21023CDE90021029002224FF464
:104A400091710820FDF7ACFB0DE04FF6FF700021DF
:104A500044A21023CDE90021029002224FF491716B
:104A60000820FDF79DFB434814230F220A210090E4
:104A7000A020FDF761FF01F011FB074603F0BEFA2D
:104A800002F00CF8052C1BD10E493BA0FFF7BAFD34
:104A9000FEF7E0FE4FF480613D48FBF7CAFB0020C3
:104AA0003C4908603C48006850B13B48006807F04A
:104AB000E7F9002038490860024938A0FFF7A2FD55
:104AC000FEBD00003F60020825732E2E2E0D0A0049
:104AD0005409002001340108E4B8ADE59BBDE7A707
:104AE000BBE58AA80000000029890108E8AEBEE500
:104AF000A487E4BFA1E681AF0000000039B001083F
:104B0000E9A9BBE7BD91E6B58BE8AF9500000000D1
:104B1000B19C0108E4BFA1E58FB7E58F82E695B0AF
:104B200000000000C1C30108E7BD91E7BB9CE5BBE5
:104B3000B6E697B60000000049D70108E9809FE774
:104B40008E87E6B58BE8AF9500000000D1EA01083A
:104B5000E8939DE78999E79BB4E8BF9E00000000B9
:104B600059FE0108E4BDBFE794A8E8AFB4E6988E0B
:104B700000000000E12B0108257328657869742086
:104B8000666F726D20626C656D6F6465290D0A0039
:104B9000805E00205C09002030000020257328443E
:104BA000656C65746520626C65436D6450726F63FB
:104BB000657373207461736B290D0A0070B58AB038
:104BC000282221496846FBF71BFB05261F4920A028
:104BD000FFF718FD30E04FF4FA63022269461EA089
:104BE000FFF7A4FD0446012C24D11EA11F48FBF7AA
:104BF00037FB0546002D1DD0AD1D07221CA1284600
:104C0000FBF775FB30B911491BA0FFF7FBFC002037
:104C10000AB070BD06221CA12846FBF768FB28B924
:104C20000A491BA0FFF7EEFC0120F1E707491CA091
:104C3000FFF7E8FC701EC6B2002ECCDC03491FA0B3
:104C4000FFF7E0FC0020E3E7CC600208AF60020859
:104C500025732E2E2E0D0A0041542B4C494E4B3FEE
:104C60000D0A00002B4C696E6B3A0000805E00203C
:104C70004F66664C696E65002573284F66664C6901
:104C80006E65290D0A0000004F6E4C696E650000CC
:104C90002573284F6E4C696E65290D0A00000000CF
:104CA000257328756E6B6E6F77206C696E6B207341
:104CB0007461746521290D0A0000000025732845E0
:104CC000786563757465206661696C21290D0A0039
:104CD0002DE9F0438BB005460E462822204901A855
:104CE000FBF78EFA052731462846FBF7A2FA2AE0A1
:104CF000781EC7B24FF4FA63022201A919A0FFF788
:104D0000A9FC00F0FF08B8F1010F18D118A11A484A
:104D1000FBF7A6FA841D19A12046FBF7A1FA8146EC
:104D2000A9EB040221462846FBF7CDFA2A4616498C
:104D300016A0FFF767FC01200BB0BDE8F0834FF42D
:104D4000FA7005F0B5FC002FD2DC324612A12846DD
:104D5000FBF798FA0C4912A0FFF754FC0020EBE790
:104D6000E0CC000841542B4E434349440D0A000057
:104D70004E434349443A0000005C00200D0A0D0AEE
:104D80004F4B0D0A00000000D0CC000825732825E9
:104D900073290D0A000000004E4F2053494D0000BA
:104DA000257328457865204661696C656421290D65
:104DB0000A0000002DE9F0438BB005460E4628227C
:104DC000254901A8FBF71CFA052737E0314628469C
:104DD000FBF72FFA781EC7B24FF4FA63022201A93B
:104DE0001EA0FFF737FC00F0FF08B8F1010F21D13A
:104DF0001DA11F48FBF734FA441D1EA12046FBF7F6
:104E00002FFA8146A9EB040221462846FBF75BFAFC
:104E10002A461B491BA0FFF7F5FB1DA1284603F0FE
:104E2000AFFC38B116491CA0FFF7ECFB01200BB01A
:104E3000BDE8F0834FF47A7005F03AFC002FC5DC32
:104E4000324618A12846FBF71DFA0D4918A0FFF7B6
:104E5000D9FB0020EBE7000050CD000841542B4364
:104E600047534E3D310D0A004347534E3A00000070
:104E7000005C00200D0A0D0A4F4B0D0A00000000D7
:104E800040CD00082573282573290D0A0000000075
:104E900038363538000000002573284F4B290D0A9D
:104EA000000000004E4F204D6F64756C65000000DF
:104EB000257328457865204661696C656421290D54
:104EC0000A0000002DE9F0438BB005460E4628226B
:104ED000264901A8FBF794F9052731462846FBF738
:104EE000A8F935E0781EC7B24FF4FA63022201A98F
:104EF0001FA0FFF7AFFB00F0FF08B8F1010F23D1AF
:104F00001E4C0BE02078202805D020780D2802D0F8
:104F100020780A2801D1641C00E000E0F2E700BF1D
:104F200017A12046FBF79CF98146A9EB0402214614
:104F30002846FBF7C8F92A46124913A0FFF762FB7F
:104F400001200BB0BDE8F0834FF4FA6005F0B0FB30
:104F5000002FC7DC32460FA12846FBF793F9094919
:104F60000EA0FFF74FFB0020EBE7000018CD000874
:104F700041542B43494D490D0A000000005C0020BC
:104F80000D0A000008CD00082573282573290D0A95
:104F9000000000004E4F2053494D00002573284566
:104FA0007865204661696C656421290D0A0000005E
:104FB0002DE9F0438BB005460E462822284901A86A
:104FC000FBF71EF905273EE031462846FBF731F98D
:104FD000781EC7B24FF4FA63022201A921A0FFF79D
:104FE00039FB00F0FF08B8F1010F28D1204C0BE08D
:104FF0002078202805D020780D2802D020780A2893
:1050000001D1641C00E000E0F2E700BF19A12046D6
:10501000FBF726F98146A9EB040221462846FBF757
:1050200052F916A1284603F0ABFB40B12A461449B9
:1050300014A0FFF7E7FA01200BB0BDE8F0834FF4AE
:10504000FA7005F035FB002FBEDC324610A1284671
:10505000FBF718F90A4910A0FFF7D4FA0020EBE794
:1050600068CC000841542B43474D4D0D0A00000009
:10507000005C00200D0A0D0A4F4B00004D0000009F
:1050800050CC00082573282573290D0A0000000064
:105090004552524F5200000025732845786520463E
:1050A00061696C656421290D0A0000002DE9F04357
:1050B0008BB005460E462822264901A8FBF7A0F82A
:1050C000052731462846FBF7B4F835E0781EC7B20D
:1050D0004FF4FA63022201A91FA0FFF7BBFA00F008
:1050E000FF08B8F1010F23D11E4C0BE020782028D7
:1050F00005D020780D2802D020780A2801D1641C20
:1051000000E000E0F2E700BF17A12046FBF7A8F897
:105110008146A9EB040221462846FBF7D4F82A462B
:10512000144915A0FFF76EFA01200BB0BDE8F0831B
:105130004FF4FA7005F0BCFA002FC7DC324611A11B
:105140002846FBF79FF80B4910A0FFF75BFA0020F9
:10515000EBE70000A8CC000841542B434D564552C4
:105160000D0A0000005C00200D0A0D0A4F4B0D0ACD
:105170000000000090CC00082573282573290D0A33
:10518000000000004552524F520000002573284590
:105190007865204661696C656421290D0A0000006C
:1051A0002DE9F0418AB028222E496846FBF728F8FD
:1051B000052600254EE0701EC6B24FF4FA630222A7
:1051C000694629A0FFF746FAC7B2012F3ED129A1AF
:1051D0002A48FBF745F80446002C33D0E41D4FF075
:1051E00000081CE02078202801D1641C17E02078FA
:1051F0002D2803D14FF00108641C10E020783028DE
:105200000BDB2078392808DC207805EB850100EBE2
:105210004100A0F13005641C00E001E000BFE1E7BF
:1052200000BFB8F1000F02D04FF0FF3000E00120C6
:1052300045432A46124913A0FFF7E4F928460AB06D
:10524000BDE8F0810E4912A0FFF7DCF94FF4FA70C7
:1052500005F02EFA002EAEDC094913A0FFF7D2F9B3
:105260000020ECE7C4CD000841542B4E42414E448F
:105270003F0D0A002B4E42414E443A00005C002094
:10528000B0CD00082573282564290D0A0000000010
:1052900025732842414E44204E6F7420466F756E30
:1052A0006421290D0A0000002573284578652046F1
:1052B00061696C656421290D0A0000002DE9F04741
:1052C000B0B00746884691463C22304921A8FAF7FB
:1052D00097FF4FF0050A0026802101A8FAF7A9FFE1
:1052E00043463A462AA101A8CDF8009004F05EFAA0
:1052F00043E0AAF1010000F0FF0A42F6E063032256
:1053000021A901A8FFF7A6F9C5B2012D29D14FF4B3
:105310007A7005F0CDF924A12448FAF7A1FF441CC6
:1053200014E02078202801D1641C0FE02078302878
:105330000BDB2078392808DC207806EB860100EBAF
:105340004100A0F13006641C00E000E0E9E700BF86
:105350003246174917A0FFF755F9304630B0BDE87F
:10536000F087022D05D1124915A0FFF74BF9002057
:10537000F4E74FF4FA7005F09BF9BAF1000FB8DCCE
:105380000B4913A0FFF73EF90020E7E748CE0008DD
:1053900041542B4E50494E473D25732C25642C25F6
:1053A000642C310D0A0000003D000000005C00206C
:1053B00030CE00082573282564206D73290D0A005E
:1053C0002573284E50494E4745525221290D0A0057
:1053D000257328457865204661696C656421290D2F
:1053E0000A0000002DE9F0438BB0064689462822CA
:1053F000214901A8FAF704FF052749463046FAF784
:1054000018FF31E0781EC7B24FF4FA63022201A9F7
:105410001AA0FFF71FF900F0FF08B8F1010F1FD124
:1054200019A11A48FAF71CFF04461CB900200BB05A
:10543000BDE8F083641C14A12046FAF711FF05466D
:10544000A54201D10020F2E72A1B21463046FAF797
:105450003AFF32460E490FA0FFF7D4F80120E6E7E5
:105460004FF4FA7005F024F9002FCBDC08490CA0AA
:10547000FFF7C8F80020DAE788CD000841542B4335
:105480004F50533F0D0A000022000000005C002036
:1054900078CD00082573282573290D0A0000000027
:1054A000257328457865204661696C656421290D5E
:1054B0000A0000002DE9F043CFB08046282245497C
:1054C00045A8FAF79DFE05261C213EA8FAF7B1FE75
:1054D000E02106A8FAF7ADFE72E0701EC6B241F2F6
:1054E0008833022245A93CA0FFF7B4F8C7B2012FC8
:1054F00062D13EA14148FAF7B3FE0446002C3FD0EA
:105500003F4940A0FFF77EF80E3437A12046FAF756
:10551000A7FE0546291B481C06F0F8FA81462A1BFF
:1055200021464846FAF76CFE3DA2494606A805F01A
:1055300061F807281CD106A804F0E0F83E900EA8F8
:1055400004F0DCF83F9016A804F0D8F840901EA8AC
:1055500004F0D4F8419026A804F0D0F842902EA888
:1055600004F0CCF8439036A804F0C8F8449003E067
:1055700023492CA0FFF746F8484606F0FBFB03E062
:105580001F492FA0FFF73EF8429B419A4399449848
:10559000CDE90123CDE903104098009018492F4828
:1055A000DDE93E23FFF72EF81C223EA94046FAF71C
:1055B00027FE4FB0BDE8F0834FF47A7005F078F81D
:1055C000002E8ADC1C223EA94046FAF719FE00BFD5
:1055D000EFE70000D8CE000841542B4E55455354F8
:1055E0004154533D43454C4C0D0A00004E55455324
:1055F000544154533A43454C4C2C0000005C00206D
:10560000C0CE00082573284765742063656C6C2044
:1056100075657374617473206F6B290D0A00000047
:105620002C00000025732863656C6C20706172612A
:10563000206E756D206572726F72290D0A00000070
:105640002573284765742063656C6C2075657374D9
:10565000617473206661696C290D0A005C67020839
:105660002DE9F047C8B0074628226C493EA8FAF752
:10567000C7FD4FF0050880211EA8FAF7DAFD60216A
:1056800006A8FAF7D6FD002002900390049005903A
:105690000025B9E000200590049003900290A8F145
:1056A000010000F0FF0841F2883302223EA95CA00D
:1056B000FEF7D0FF00F0FF09B9F1010F74D15DA131
:1056C0005F48FAF7CDFD0446002C6ED05D495EA020
:1056D000FEF798FF63A12046FAF7C2FD0646311B8C
:1056E000481C06F013FA8246301B411C5046FAF75C
:1056F000A0FD321B21465046FAF782FD5CA25146BE
:105700001EA804F077FF04285ED1002559E01EA8EA
:1057100000EB45136A1C4B4956A0FEF773FF1EA809
:1057200000EB451158A206A804F064FF032842D1FB
:1057300056A10EA8FAF7B9FD48B916AA414955A0D5
:10574000FEF760FF16A803F0D9FF029037E058A1DA
:105750000EA8FAF7AAFD48B916AA3A4956A0FEF7CC
:1057600051FF16A803F0CAFF039028E059A10EA824
:10577000FAF79BFD48B916AA324958A0FEF742FF36
:1057800016A803F0BBFF049019E05BA10EA8FAF77E
:105790008CFD58B916AA2B4959A0FEF733FF16A85D
:1057A00003F0ACFF05900AE02AE025E025495BA064
:1057B000FEF728FF03E023495EA0FEF723FF681CE5
:1057C000C5B2042DA3DB03E01E4961A0FEF71AFF5A
:1057D000504606F0CFFADDE90401CDE90001194990
:1057E00061A0DDE90223FEF70DFF02A80FC887E8DC
:1057F0000F0048B0BDE8F087124969A0FEF702FF2C
:105800004FF47A7004F054FFB8F1000F3FF742AF45
:1058100002A80FC887E80F0000BFEAE718CF00080A
:1058200041542B4E554553544154533D5448500D0B
:105830000A0000004E5545535441545300000000E7
:10584000005C002000CF0008257328476574207491
:1058500068702075657374617473206F6B290D0A0D
:10586000000000000D0A0D0A4F4B0D0A0000000059
:105870000D0A00002573286C696E655B25645D3A2E
:10588000202573290D0A00002C000000524C4320F3
:10589000554C0000257328524C4320554C202D3E7A
:1058A00020537472696E6728257329290D0A000038
:1058B000524C4320444C0000257328524C43204452
:1058C0004C202D3E20537472696E67282573292958
:1058D0000D0A00004D414320554C00002573284D12
:1058E000414320554C202D3E20537472696E672829
:1058F000257329290D0A00004D414320444C000026
:105900002573284D414320444C202D3E2053747272
:10591000696E6728257329290D0A000025732875EB
:105920006E6B6E6F77205448502054797065290D46
:105930000A0000002573286C696E65207061726131
:10594000206E756D206572726F7221290D0A00003C
:105950002573286C696E65206E756D206572726F97
:105960007221290D0A000000257328726C635F758F
:105970006C3A2025642C20726C635F646C3A20259D
:10598000642C206D61635F756C3A2025642C206D5A
:1059900061635F646C3A202564290D0A00000000F1
:1059A000257328676574207565737461747320743A
:1059B0006870206572726F72290D0A002DE9F04F30
:1059C0008DB083460F46904628228F4903A8FAF7E8
:1059D00017FC4FF00509002000900190029041460D
:1059E0005846FAF726FC41463846FAF722FCF7E01B
:1059F000A9F1010000F0FF094FF4FA63022203A9A4
:105A000082A0FEF727FE00F0FF0ABAF1010F78D15D
:105A1000814A824982A0FEF7F5FD84A17E48FAF70B
:105A20001FFC441C81A12046FAF71AFC441C7FA1EC
:105A30002046FAF715FC441C7CA12046FAF710FC1E
:105A4000064603227AA12046FAF751FC28B90A2219
:105A500078A16846FAF716FC59E0032277A12046A0
:105A6000FAF745FC28B90A2275A16846FAF70AFC3C
:105A70004DE0032273A12046FAF739FC28B90A2227
:105A800071A16846FAF7FEFB41E003226FA12046B0
:105A9000FAF72DFC28B90A226DA16846FAF7F2FB45
:105AA00035E003226BA12046FAF721FC28B90A222F
:105AB00069A16846FAF7E6FB29E0032267A12046C0
:105AC000FAF715FC28B90A2265A16846FAF7DAFB4D
:105AD0001DE0032264A12046FAF709FC28B90A2236
