:020000040800F2
:10000000F8600020DD0100082326000851120008D6
:100010001F260008EB090008972E000800000000CA
:100020000000000000000000000000004501000882
:100030002D0A000800000000890100080D290008B1
:10004000F7010008F7010008F7010008F7010008B0
:10005000F7010008F7010008F7010008F7010008A0
:10006000B50B0008950C00084D0D0008F7010008BD
:10007000F7010008F7010008F7010008F701000880
:10008000F7010008F7010008F7010008F701000870
:10009000F7010008F7010008F7010008F701000860
:1000A000F7010008F7010008F7010008F701000850
:1000B000F70100087D290008F7010008F701000892
:1000C000F7010008F7010008F7010008F701000830
:1000D000F7010008092B0008252B0008B92B0008A0
:1000E000310A0008F7010008F7010008F7010008CD
:1000F000F7010008F7010008F7010008F701000800
:10010000F7010008F7010008F7010008F7010008EF
:10011000F7010008F7010008F7010008F7010008DF
:10012000F7010008F7010008F7010008F7010008CF
:10013000DFF80CD000F08EFB00480047515F00084C
:10014000F8600020224B19680868B0E8F00F80F3CF
:100150000988BFF36F8F4FF0000080F311884EF0D5
:100160000D0E70470000000006480068006880F32C
:10017000088862B661B6BFF34F8FBFF36F8F00DFA1
:1001800000BF00BF08ED00E0EFF30980BFF36F8F01
:100190000F4B1A6820E9F00F106008B54FF0BF0050
:1001A00080F31188BFF34F8FBFF36F8F06F0ECFF22
:1001B0004FF0000080F31188BDE808401968086816
:1001C000B0E8F00F80F30988BFF36F8F704700BF6E
:1001D00048000020EFF30580704700000648804784
:1001E00006480047FEE7FEE7FEE7FEE7FEE7FEE71C
:1001F000FEE7FEE7FEE7FEE71D29000831010008E3
:1002000040EA01039B0703D009E008C9121F08C098
:10021000042AFAD203E011F8013B00F8013B521E18
:10022000F9D27047D2B201E000F8012B491EFBD28F
:1002300070470022F6E710B513460A4604461946F1
:10024000FFF7F0FF204610BD30B505462A460B46A5
:1002500012F8010B13F8014B08B1A042F8D01CB101
:10026000002802D06D1CF1E7284630BD10B50446C9
:1002700004E00B7800F8013B03B1491C521EF8D290
:10028000204610BD421C10F8011B0029FBD1801A2A
:10029000704710B5044600E0401C0378002BFBD1EA
:1002A00000E0401C521E04D311F8013B0370002BE8
:1002B000F7D100210170204610BD30B50546002061
:1002C000034600E05B1C934205D2EC5CC85C201A3C
:1002D00001D1002CF6D130BD80EA010210B502F048
:1002E0000043400022D04A001FD0010E01EB1261F2
:1002F000C0F35600C2F3560240F4000042F400027C
:10030000A0FB022000047F39140400D0401C50EAF6
:10031000124001D44000491EC2B20C0604EBD010BA
:10032000401C4008802A02D003E0002010BD20F0CD
:100330000100002900DA0020184310BD30B480EA23
:10034000010202F0004530F0004221F0004013D0DD
:1003500090B1C30DD40DC2F31601C0F31600E41A18
:1003600041F4000140F400027D34914201D3641C49
:1003700000E04900002C02DA30BC002070474FF446
:1003800000000023914201D3891A034340084FEA39
:100390004101F7D151B1914202D14FF0004105E046
:1003A00002D24FF0010101E06FF0010103EBC450F4
:1003B000284430BC00F05FB896230022114600F0BC
:1003C00063B800F0004230F000400AD0C10D01F5E2
:1003D0006071C0F3160042EA0151C20840071143A0
:1003E000704700200146704730B50B46014600209B
:1003F0002022012409E021FA02F59D4205D303FAE7
:1004000002F5491B04FA02F52844151EA2F1010267
:10041000F1DC30BD2DE9F05F0546002092469B4699
:1004200088460646814640241BE02846414647460A
:10043000224600F030FA53465A46C01A914110D372
:1004400011461846224600F017FA2D1A67EB0108EC
:100450004F4622460120002100F00EFA17EB00095A
:100460004E41201EA4F10104DFDC484631462A46F5
:100470004346BDE8F09F0029A8BF7047401C4900D3
:1004800008BF20F00100704710B4B0FA80FC00FAF9
:100490000CF050EA010404BF10BC704749B1CCF124
:1004A000200421FA04F411FA0CF118BF01212143B0
:1004B0000843A3EB0C01CB1D4FEA00614FEA10206B
:1004C00042BF002010BC704700EBC350104400290D
:1004D000A4BF10BC7047401C490008BF20F00100B9
:1004E00010BC70472DE9FE4F804681EA0300C00F23
:1004F0000C46009021F0004123F00045B8EB0200CB
:10050000A94105D24046214690461C460B4602466C
:1005100023F00040104347D0270DC7F30A00C3F370
:100520000A510290401A019040286BDAC3F313007D
:1005300040F4801B0098924620B10023D2EB030ABE
:1005400063EB0B0B01985946C0F14002504600F096
:1005500093F906460D4650465946019A00F0ABF90C
:1005600010EB08006141002487EA115284EAE77326
:100570001A4340D0009A62B3019A012A4FEA075207
:1005800015DC001B61EB02014FF0004202EA07524A
:10059000CDE90042001C41F5801132462B4600F0A7
:1005A000ABF903B0BDE8F08F40462146F9E7001BE8
:1005B00061EB0201001C41F5801300185B4120181B
:1005C000A2F5001747EB030140EAD570B6196D415B
:1005D00011E06D084FEA360645EAC0754FEA07524A
:1005E000001B61EB0201001C41F5801149084FEA34
:1005F00030000019514132462B4603B0BDE8F04FA0
:1006000000F06BB90098012240000023D0EB0202F9
:1006100063EBE073009821464FEAE074B8EB00000A
:1006200061EB0401E9E783F000435BE781F00041FF
:1006300058E72DE9FE4F81EA030404F0004421F05D
:10064000004100944FF0000B23F0004350EA0104F6
:100650005ED052EA03045BD0C3F30A54C1F30A55D7
:100660002C44A4F2F3340194A0FB0254C1F313010F
:1006700041F48011C3F3130343F4801301FB0244DC
:1006800000FB034E840A970A44EA815447EA8357E1
:10069000A4FB076802958D0A05FB07854FEA932C9A
:1006A00004FB0C542705029D4FEA065847EA16370B
:1006B000B5EB08056EEB070C870E920E47EA811723
:1006C00042EA8312A7FB0201B6EB0B0164EB0004C4
:1006D0002B0D43EA0C335E1844EB1C50DA465146AE
:1006E000E7FB0201C5F313044FEA0B3343EA14534B
:1006F0004FEA0432019C43EA0603A4F10C0402947D
:10070000009CCDE900B400F0F7F803B0BDE8F08F2D
:1007100000200146F9E72DE9F04D81EA030404F0D9
:10072000004B21F0004514464FF0000A23F0004131
:1007300050EA050220D054EA01021DD0C5F30A5741
:100740000246C5F31303C1F31300C1F30A5640F484
:10075000801543F48013A7EB0608101BD64608F259
:10076000FD3873EB050002D308F1010801E092188F
:100770005B41B8F1000F03DA00200146BDE8F08DBF
:1007800000204FF48011064684460EE0171B73EBE1
:10079000050705D3121B63EB050306434CEA010C66
:1007A00049084FEA300092185B4150EA0107EDD149
:1007B00052EA030012D082EA040083EA05010843EA
:1007C00005D0101BAB4106D20122002306E0002217
:1007D0004FF0004302E06FF0010253101AEB0600E5
:1007E0004CEB085110EB0A0041EB0B01BDE8F04D5A
:1007F00000F073B8C1F30A52C1F3130140F2FF33A2
:1008000041F480119A4202DA00200146704740F21A
:1008100033439A42A2F2334202DC524200F03BB828
:1008200000F02AB830B5041E71F1000404DB4FF06B
:100830000044404264EB0101141E73F1000405DB27
:100840001C464FF00043524263EB0403994208BF39
:10085000904230BD064C074D06E0E06840F00103D1
:1008600094E8070098471034AC42F6D3FFF764FCD5
:10087000989F0108B89F0108202A04DB203A00FA5B
:1008800002F1002070479140C2F1200320FA03F3E7
:10089000194390407047202A04DB203A21FA02F0E5
:1008A0000021704721FA02F3D040C2F120029140AA
:1008B000084319467047202A06DBCB17203A41FA35
:1008C00002F043EAE07306E041FA02F3D040C2F1DD
:1008D0002002914008431946704710B5141E73F169
:1008E000000408DA401C41F1000192185B411A43F0
:1008F00001D120F0010010BD2DE9F04D92469B463C
:1009000011B1B1FA81F202E0B0FA80F220329046E1
:10091000FFF7B2FF04460F4640EA0A0041EA0B0126
:1009200053465A46084313D0114653EA010019D0E2
:10093000C8F140025046FFF7AEFF05460E4650464E
:1009400059464246FFF798FF084305D0012004E0CE
:1009500020463946BDE8F08D0020054346EAE076A2
:100960002C4337430A986305E40AA0EB08000022F1
:10097000FD0A44EA47540A3002D500200146E9E75F
:10098000010510196941DDE9084500196941BDE813
:10099000F04DA2E770B58C1810F8015B15F0070355
:1009A00001D110F8013B2A1106D110F8012B03E008
:1009B00010F8016B01F8016B5B1EF9D12B0705D410
:1009C0000023521E0DD401F8013BFAE710F8013B59
:1009D000CB1A921C03E013F8015B01F8015B521E75
:1009E000F9D5A142D8D3002070BD00BFFEE70000BA
:1009F00010B50021044A11605160472140F2E730F0
:100A000001F0D6FF10BD0000C000002029B1064A49
:100A100052680243044B5A6004E0034A526882431E
:100A2000014B5A6070470000002004E0704700004E
:100A300008B54FF4805000F0FFF900283FD03D4941
:100A40003DA002F089FA0A2005F04CFA42480068FD
:100A5000002830D141480078022809D100BF3E4823
:100A600000680028FBD14FF4805000F0DFF908BD8A
:100A70003A4890F900003A4908703A4890F9000065
:100A800039490870394890F90000394908703348ED
:100A90000078401C40B23149087000BF2E48006801
:100AA0000028FBD1234933A002F056FA69463648A4
:100AB000006806F0A9FA4FF4805000F0B7F94FF43F
:100AC000006000F0B9F9002831D01A492FA002F0D7
:100AD00043FA0A2005F006FA1F48001F006810BB01
:100AE000324833490A880280897881701F4800782B
:100AF00018B901201D49087006E01C48007801283B
:100B000002D100201949087000BF1348001F006877
:100B10000028FAD1074917A002F01EFA69461A48C0
:100B2000006806F071FA4FF4006000F07FF900BF32
:100B30009DE70000C89D01082573284B45595F5269
:100B400049474854205072657373656420446F7739
:100B50006E290D0A00000000300122422E00002004
:100B6000310000202F000020320000203000002043
:100B70003300002025732873656E645461736B4DD8
:100B80007367290D0A000000200000202573284B00
:100B900045595F454E5445522050726573736564E4
:100BA00020446F776E290D0A000000002B00002002
:100BB0002800002008B5042000F03EF900B908BD67
:100BC0001F4920A002F0C8F90A2005F08BF924483B
:100BD000006800282FD123480078012808D100BFE1
:100BE0001F4800680028FBD1042000F01FF9E6E749
:100BF0001D4890F900001D4908701A4890F900003E
:100C00001B4908701B4890F900001B4908701548E3
:100C10000078401C40B21349087000BF10480068BB
:100C20000028FBD1064915A002F096F9694618483C
:100C3000006806F0E9F9042000F0F8F800BFBEE70C
:100C4000959D01082573284B45595F444F574E2009
:100C50005072657373656420446F776E290D0A00C6
:100C6000088122422F0000202E00002031000020A9
:100C7000320000203000002033000020257328734C
:100C8000656E645461736B4D7367290D0A00000033
:100C90002000002008B5082000F0CEF800B908BDFB
:100CA000154916A002F058F90A2005F01BF91A4858
:100CB0000068E0B9194890F900001949087019480E
:100CC00090F9000018490870184890F90000184978
:100CD000087000BF104800680028FBD0064915A026
:100CE00002F03AF969461848006806F08DF90820C4
:100CF00000F09CF800BFD2E7A69D01082573284BA1
:100D000045595F5550205072657373656420446F78
:100D1000776E290D0A0000000C8121422E00002070
:100D2000310000202F000020320000203000002081
:100D30003300002025732873656E645461736B4D16
:100D40007367290D0A0000002000002008B510205C
:100D500000F072F800B908BD1F4920A002F0FCF8AD
:100D60000A2005F0BFF82448006800282ED1234847
:100D7000007840B900BF204800680028FBD110204F
:100D800000F054F8E7E71D4890F900001C4908708E
:100D90001C4890F900001C4908701C4890F900009C
:100DA0001B49087015480078401E40B2134908706E
:100DB00000BF114800680028FBD1074915A002F0C8
:100DC000CBF869461848006806F01EF9102000F0BC
:100DD0002DF800BFBFE70000B79D01082573284B21
:100DE00045595F4C454654205072657373656420C5
:100DF000446F776E290D0A00108121422E000020D9
:100E0000310000202F0000203200002030000020A0
:100E10003300002025732873656E645461736B4D35
:100E20007367290D0A0000002000002001490860B6
:100E30007047000014040140014600200022074BC7
:100E40001B6803EA0102054B14331B680B4013B106
:100E50000AB1012000E000207047000000040140BA
:100E6000002123498279002A3AD00A461268036891
:100E70009A430B461A600A1D126803689A430B1DB9
:100E80001A60027911440A6803681A430A60184A12
:100E90000832126803689A43154B08331A601A1D0A
:100EA000126803689A43124B0C331A604279102A75
:100EB0000ED11A1F126803681A430D4B08331A60CB
:100EC0001A1D126803681A43094B0C331A600DE0AF
:100ED0000749427911440A6803681A430A6005E029
:100EE000027911440A6803689A430A607047000057
:100EF0000004014030B503460024002000251560A1
:100F000022E000E05B1C1D7815B11D78202DF9D181
:100F100000E05B1C1D7815B11D78202DF9D01D78DF
:100F20008DB1641C8C420FD1184603E015686D1C0E
:100F300015605B1C1D7815B11D78202DF6D1156844
:100F400005B9002002E001E08C42DAD300BF30BDD9
:100F50002DE9F0470446884691460126207810B9CD
:100F60000020BDE8F0872E48006898BB2D482C492A
:100F700008602AE02A480068006807683846FFF7DA
:100F800081F90546605D202801D0605DC0B92A4620
:100F900039462046FFF791F990B92148006800686A
:100FA00090F90C0000280ADB204605F067FA1C497E
:100FB0000968096891F90C10884200D0002608E001
:100FC00017480068406816490860154800680028FE
:100FD000D0D100BF1248006848B146B94A4612490C
:100FE0004046FFF743F900200D49086016E00C4821
:100FF000006868B10A48006800682246494683686C
:101000004046984706464EB900200549086005E06D
:101010004A4606494046FFF729F900263046A0E730
:10102000D8000020CC000020E09D0108389E010877
:1010300070B505460026082005F0B4FD044664B1ED
:1010400005F0C2FE2560002060600548006844602D
:101050000348046005F0CAFE0126304670BD00005A
:10106000D400002030B500228B071C0F0F2303FA99
:1010700004F20B4B8C1053F824309343084C8D1022
:1010800044F8253023468C1053F824308C07240F65
:1010900000FA04F42343024C8D1044F8253030BD8F
:1010A000080001402DE9F0410246002500260020FD
:1010B00000230024002791F803C00CF00F0591F8DD
:1010C00003C00CF0100CBCF1000F03D091F802C06B
:1010D0004CEA050591F800C0BCF1000F31D014684E
:1010E00000202BE04FF0010C0CFA00F3B1F800C027
:1010F0000CEA03069E4220D183004FF00F0C0CFA3D
:1011000003F7BC4305FA03FC4CEA040491F803C05E
:10111000BCF1280F06D14FF0010C0CFA00FCC2F80C
:1011200014C00AE091F803C0BCF1480F05D14FF09C
:10113000010C0CFA00FCC2F810C0401C0828D1D3E6
:101140001460B1F800C0BCF1FF0F34DD546800201A
:101150002EE000F1080C4FF0010808FA0CF3B1F88A
:1011600000C00CEA03069E4221D183004FF00F0C11
:101170000CFA03F7BC4305FA03FC4CEA040491F8AB
:1011800003C0BCF1280F05D100F1080C08FA0CF8D7
:10119000C2F8148091F803C0BCF1480F07D100F1E8
:1011A000080C4FF0010808FA0CF8C2F81080401C37
:1011B0000828CED35460BDE8F0810000F0B50A469F
:1011C000002300240021002500F00046B6F1004F66
:1011D00002D11D4EF16901E01B4E7168C0F3034559
:1011E00083B200F44016B6F5401F08D121F07061BB
:1011F000154E766826F07066134F7E6012E000F49C
:101200008016B6F5801F06D1032606FA05F4A14321
:1012100041F0706106E0460D360103FA06F6B1436F
:1012200041F0706122B1460D360103FA06F63143F2
:1012300000F00046B6F1004F02D1034EF16101E02B
:10124000014E7160F0BD0000000001400161704777
:1012500000BFFEE770B5044600250021084600F0F7
:1012600057FC01F0D7F900BF1DE0012010490860CC
:1012700000201049C1F8BC0120120F49C8600020AD
:101280000B49091F08600120086044F317000A4950
:10129000C86000200649091F086001200860044951
:1012A000091D08606D1CB5F5963FDED370BD0000CA
:1012B000B881214200802142001001402DE9FF4FFA
:1012C00085B081468A460020049003900798A0EBE1
:1012D00009050898A0EB0A06CDF80890CDF804A0FF
:1012E000002D01DD012705E00DB9002702E04FF0D8
:1012F000FF376D42002E02DD4FF0010806E016B9FF
:101300004FF0000802E04FF0FF387642B54201DDB1
:101310002C4600E034464FF0000B21E0019A91B2D8
:10132000029A90B200F022F804982844049003989E
:10133000304403900498A04205DD0498001B0490FB
:101340000298384402900398A04205DD0398001BE0
:1013500003900198404401900BF101001FFA80FBBB
:10136000601C8345DADD09B0BDE8F08F70B5044636
:101370000D462946204600F0CBFB01F04BF9012039
:101380001049086000201049C1F8BC010F480088CE
:1013900000120F49C86000200A49091F0860012097
:1013A0000949C1F8B401094800880949C86000200A
:1013B0000449091F0860012008600249091D0860EE
:1013C00070BD0000B881214200802142BC0800208D
:1013D000001001402DE9F05F04460F469046994603
:1013E000DDF828A04FF0000BA8EB0400401C1FFA0A
:1013F00080FB3D462CE0002626E0A11988B2294654
:1014000000F086FB01F006F9012013490860002076
:101410001249C1F8BC014FEA2A201149C8600020D6
:101420000D49091F0860012008604AF317000C49A4
:10143000C86000200849091F0860012008600649AB
:10144000091D0860701C86B25E45D6DB681C85B23B
:101450004D45D0DDBDE8F09FB8812142008021429A
:101460000010014008B50121192001F03DF94FF2AB
:101470000100ADF8000010208DF8030003208DF866
:10148000020069460948FFF70DFE4FF201010748C7
:10149000FFF7DCFEFF20ADF8000069460448FFF7C7
:1014A00001FEFF210248FFF7D1FE08BD000C0140FC
:1014B0000010014010B5FFF7D5FF0120FE4908607C
:1014C00000F010FB112001F08FF8782004F00AFDE5
:1014D000362001F089F84FF48040F8490860400058
:1014E000091D08600020F649C8604814F349091D29
:1014F0000860091F0860800008603A2001F074F855
:101500004FF48040ED4908604000091D0860052047
:10151000EB49C8604814E949091D0860091F0860C3
:1015200080000860B22001F05FF84FF48040E3498A
:1015300008604000091D08600C20E149C86048149B
:10154000DE49091D0860091F08608000086040101E
:1015500008604000091D08600C20D949C860481483
:10156000D649091D0860091F086080000860401006
:1015700008604000091D08600020D149C860481477
:10158000CE49091D0860091F0860800008604010EE
:1015900008604000091D08603320C949C86048142C
:1015A000C649091D0860091F0860800008604010D6
:1015B00008604000091D08603320C149C860481414
:1015C000BE49091D0860091F086080000860B72037
:1015D00001F00AF84FF48040B84908604000091D46
:1015E00008603520B649C8604814B449091D086030
:1015F000091F086080000860BB2000F0F5FF4FF471
:101600008040AE4908604000091D08600E20AC49CA
:10161000C8604814A949091D0860091F08608000B6
:101620000860C02000F0E0FF4FF48040A34908604C
:101630004000091D08602C20A149C86048149F493A
:10164000091D0860091F086080000860C22000F0C2
:10165000CBFF4FF48040994908604000091D0860A5
:1016600001209749C86040039449091D0860091F7B
:10167000086080000860C32000F0B6FF4FF480408F
:101680008E4908604000091D086012208C49C8601E
:1016900048148A49091D0860091F08608000086015
:1016A000C42000F0A1FF4FF480408449086040004E
:1016B000091D086020208249C86000027F49091D79
:1016C0000860091F086080000860C62000F08CFFD9
:1016D0004FF48040794908604000091D08600F20E0
:1016E0007749C86048147549091D0860091F0860DA
:1016F00080000860D02000F077FF4FF480406F49F1
:1017000008604000091D0860A4206D49C8604814A5
:101710006A49091D0860091F0860800008604010C0
:1017200008604000091D0860A1206549C860481490
:101730006249091D0860091F086080000860E020F8
:1017400000F052FF4FF480405C4908604000091DE2
:101750000860D0205A49C86048145849091D0860DB
:10176000091F086080000860401008604000091DE3
:10177000086000205249C86048145049091D08609B
:10178000091F086080000860401008604000091DC3
:10179000086005204A49C86048144849091D086086
:1017A000091F086080000860401008604000091DA3
:1017B00008600D204249C86048144049091D08606E
:1017C000091F086080000860401008604000091D83
:1017D00008600F203A49C86048143849091D08605C
:1017E000091F086080000860401008604000091D63
:1017F00008602B203249C86048143049091D086030
:10180000091F086080000860401008604000091D42
:1018100008603B202A49C86048142849091D08600F
:10182000091F086080000860401008604000091D22
:10183000086044202249C86048142049091D0860F6
:10184000091F086080000860401008604000091D02
:1018500008604A201A49C86048141849091D0860E0
:10186000091F086080000860401008604000091DE2
:10187000086018201249C86048141049091D086002
:10188000091F086080000860401008604000091DC2
:1018900008600F200A49C86048140849091D0860FB
:1018A000091F086080000860401008604000091DA2
:1018B00008600B20024905E0B0812142100C014074
:1018C00000100140C860481484490860091F08607E
:1018D00080000860401008604000091D08601F205B
:1018E0007F49C86048147D490860091F086080006E
:1018F0000860401008604000091D086022207849F7
:10190000C860481475490860091F086080000860B5
:10191000E12000F069FE4FF480407049091F086023
:101920004000091D0860D0206D49C86048146B490B
:101930000860091F086080000860401008604000CF
:10194000091D086000206649C860481463490860A2
:10195000091F086080000860401008604000091DF1
:10196000086005205E49C86048145C490860091F8A
:10197000086080000860401008604000091D086091
:101980000D205749C860481454490860091F086071
:1019900080000860401008604000091D08601020A9
:1019A0004F49C86040024D490860091F0860800027
:1019B0000860401008604000091D08602B2048495D
:1019C000C860481445490860091F08608000086025
:1019D000401008604000091D08603D204049C86073
:1019E00048143E490860091F0860800008604010E4
:1019F00008604000091D086054203949C860481437
:101A000036490860091F08608000086040100860BF
:101A10004000091D086050203149C86048142F4912
:101A20000860091F086080000860401008604000DE
:101A3000091D08602F202A49C860481427490860FA
:101A4000091F086080000860401008604000091D00
:101A500008601F202249C860481420490860091FF7
:101A6000086080000860401008604000091D0860A0
:101A70001F201B49C860481418490860091F0860E6
:101A800080000860401008604000091D08601F20A9
:101A90001349C860481411490860091F0860800094
:101AA0000860401008604000091D086023200C49B0
:101AB000C860481409490860091F08608000086070
:101AC000292000F091FD2C2000F08EFD142004F060
:101AD00009FA4FF6FF70FFF7BDFB10BD140C014073
:101AE0000010014010B501200849086004F0FAF91F
:101AF00001200649091D0860142004F0F3F90120B3
:101B000002490860142004F0EDF910BD100C0140EA
:101B100010B503460C462A2000F066FD4FF48040C5
:101B2000234908604000091D086018122149C86057
:101B300048141F49091D0860091F086080000860DB
:101B4000401008604000091D086043F31700194960
:101B5000C86048141649091D0860091F0860800004
:101B600008602B2000F040FD4FF4804010490860D1
:101B70004000091D086020120E49C86048140C4935
:101B8000091D0860091F0860800008604010086097
:101B90004000091D086044F317000649C860481456
:101BA0000349091D0860091F08608000086010BD16
:101BB000100C0140001001402DE9F84F81468A4683
:101BC00017461C46CB46694800880090B9F1E80FDB
:101BD00002DCBAF59C7F01DDBDE8F88FA7F120009B
:101BE000C7B20A9800287DD1002583E00C2C2AD1A9
:101BF00007EB47005E4901EB800010F805800026E6
:101C000016E008F0010018B158490098088003E078
:101C1000584800885549088051464846FFF7A6FBBA
:101C20004FEA680809F101001FFA80F9701CC6B27A
:101C300004EBD471B6EB610FE3DBD9460AF1010086
:101C40001FFA80FA54E0102C28D14B4800EB071003
:101C500010F80580002616E008F0010018B143498D
:101C60000098088003E043480088404908805146B6
:101C70004846FFF77BFB4FEA680809F101001FFAAD
:101C800080F9701CC6B204EBD471B6EB610FE3DBD4
:101C9000D9460AF101001FFA80FA29E0374800EB23
:101CA000C71010F80580002616E008F0010018B1F2
:101CB0002E490098088003E02E4800882B490880B0
:101CC00051464846FFF752FB4FEA680809F1010008
:101CD0001FFA80F9701CC6B204EBD471B6EB610F29
:101CE000E3DB00E00AE0D9460AF101001FFA80FABE
:101CF000681CC5B2A542FFF679AF32E000252EE0A0
:101D00000C2C07D107EB4700194901EB800010F8B4
:101D100005800CE0102C05D1174800EB071010F8D7
:101D2000058004E0154800EBC71010F80580002678
:101D30000EE008F0010038B10AEB050291B209EBA0
:101D4000060290B2FFF712FB4FEA6808701CC6B299
:101D500004EBD471B6EB610FEBDB681CC5B2A54296
:101D6000CEDB02490098088000BF35E7BC080020A0
:101D7000A07D0008BE080020148200080488000826
:101D80002DE9FF4F81B006468A460E9DB346CDF839
:101D900000A00398002873D10498102873D0182845
:101DA00070D169E0002460E004EB041000EB8000D7
:101DB000FD49085C2978884255D104EB041000EBFA
:101DC0008000F94908444078697888424BD104EB97
:101DD000041000EB8000F44908448078A978884218
:101DE00041D100273DE004EB041000EB8000EE49F8
:101DF0000844001D10F807904FF000082CE009F08F
:101E00008000802807D1E9490F9808805146304664
:101E1000FFF7ACFA06E0E5491098088051463046D5
:101E2000FFF7A4FA4FF6FF7000EA4909701C86B26A
:101E3000A6EB0B0018280BD15E460AF101001FFA31
:101E400080FA0098AAEB00001B2801D1DDF800A061
:101E500008F1010000F0FF08B8F1080FCFDB781C93
:101E6000C7B2512FBFDB601CC4B20C2C9CDBED1C35
:101E700006F1180086B2B3462878002892D16EE0A9
:101E80006EE000E06AE065E000245CE004EB8400C2
:101E9000C74911F830002978884252D104EB8400F8
:101EA000C34901EBC00040786978884249D104EB0E
:101EB0008400BF4901EBC0008078A978884240D1F6
:101EC00000273CE004EB8400B94901EBC000001D91
:101ED00010F807904FF000082CE009F080008028EF
:101EE00007D1B2490F98088051463046FFF73EFAB5
:101EF00006E0AE491098088051463046FFF736FAA2
:101F00004FF6FF7000EA4909701C86B2A6EB0B0081
:101F100010280BD15E460AF101001FFA80FA0098E2
:101F2000AAEB0000122801D1DDF800A008F10100A1
:101F300000F0FF08B8F1080FCFDB781CC7B2242FE0
:101F4000C0DB601CC4B2312CA0DBED1C06F110001C
:101F500086B2B3462878002896D100E000BF72E12F
:101F60000398022877D10498102877D0182874D1C4
:101F70006DE0002464E004EB440000EB04108D49A4
:101F800011F820002978884258D104EB440000EB76
:101F90000410884901EB80004078697888424DD16F
:101FA00004EB440000EB0410824901EB80008078D0
:101FB000A978884242D100273EE004EB440000EBC0
:101FC00004107C4901EB8000001D10F807904FF0D1
:101FD00000082CE009F08000802807D173490F9891
:101FE000088051463046FFF7C1F906E06F49109866
:101FF000088051463046FFF7B9F94FF6FF7000EA06
:102000004909701C86B2A6EB0B0018280BD15E465E
:102010000AF101001FFA80FA0098AAEB00001828C4
:1020200001D1DDF800A008F1010000F0FF08B8F1CF
:10203000080FCFDB781CC7B2482FBEDB601CC4B2D0
:10204000062C98DBED1C06F1180086B2B346287802
:1020500000288ED16EE06EE000E06AE065E00024CA
:102060005CE004EBC400544911F820002978884250
:1020700052D104EBC400504901EB800040786978EC
:10208000884249D104EBC4004B4901EB80008078C1
:10209000A978884240D100273CE004EBC4004649BF
:1020A00001EB8000001D10F807904FF000082CE0B5
:1020B00009F08000802807D13C490F9808805146DC
:1020C0003046FFF753F906E038491098088051462A
:1020D0003046FFF74BF94FF6FF7000EA4909701CD4
:1020E00086B2A6EB0B0010280BD15E460AF1010068
:1020F0001FFA80FA0098AAEB0000102801D1DDF841
:1021000000A008F1010000F0FF08B8F1080FCFDBD4
:10211000781CC7B2202FC0DB601CC4B22C2CA0DB03
:10212000ED1C06F1100086B2B3462878002896D13F
:1021300000E000BF87E0039801287DD104981028B3
:102140007AD17CE0002471E0C4EBC40000EB041001
:102150001A4911F810002978884265D1C4EBC400EF
:1021600000EB0410154901EB400040786978884283
:102170005AD1C4EBC40000EB0410104901EB40003D
:102180008078A97888424FD100274BE0C4EBC40087
:1021900000EB0410094901EB4000001D10F8079006
:1021A0004FF0000839E0000094C70008BC08002088
:1021B0001401002084B700084CB9000890CB000837
:1021C00009F08000802807D120490F9808805146E7
:1021D0003046FFF7CBF806E01C49109808805146BE
:1021E0003046FFF7C3F84FF6FF7000EA4909701C4C
:1021F00086B2A6EB0B0010280BD15E460AF1010057
:102200001FFA80FA0098AAEB0000152801D1DDF82A
:1022100000A008F1010000F0FF08B8F1080FCFDBC3
:10222000781CC7B22A2FB1DB601CC4B2122C8BDB26
:10223000ED1C06F1100000E005E086B2B3462878F8
:1022400000287FF47FAF05B0BDE8F08FBC08002008
:102250002DE9FF4F81B004460D461646A346009572
:102260005AE00498182857D100274EE007EB870062
:1022700000EB47102B4911F810003178884242D109
:102280004FF000083CE007EB870000EB47102549C2
:1022900001EB4000801C10F808A04FF0000928E076
:1022A0000AF08000802807D11F490E98088029462F
:1022B0002046FFF75BF806E01B490F980880294687
:1022C0002046FFF753F84FF6FF7000EA4A0A601CF9
:1022D00084B2A4EB0B00182807D15C46681C85B2B9
:1022E0000098281A182800D1009D09F1010000F07B
:1022F000FF09B9F1080FD3DB08F1010000F0FF0876
:10230000B8F1480FBFDB781CC7B21D2FAEDB761CBF
:1023100004F1100084B2A34630780028A1D105B0A2
:10232000BDE8F08F7CBF0008BC0800202DE9FF4FFE
:1023300081B005460F461646AB460097DEE004988E
:1023400018286AD1002460E004EB041000EB800040
:102350006E49085C3178884255D104EB041000EBDB
:1023600080006A4908444078717888424BD104EB78
:10237000041000EB8000654908448078B1788842F9
:1023800041D14FF000083BE004EB041000EB80006B
:102390005E490844001D10F808A04FF0000928E02D
:1023A0000AF08000802807D159490E9808803946E4
:1023B0002846FEF7DBFF06E055490F9808803946AE
:1023C0002846FEF7D3FF4FF6FF7000EA4A0A681C62
:1023D00085B2A5EB0B00182807D15D46781C87B2A3
:1023E0000098381A1B2800D1009F09F1010000F065
:1023F000FF09B9F1080FD3DB08F1010000F0FF0875
:10240000B8F1510FC0DB601CC4B20C2C9CDBF61C75
:1024100005F1180085B2AB4670E0049810286DD124
:10242000002464E0C4EBC40000EB0410394911F847
:1024300010003178884258D1C4EBC40000EB04107E
:10244000344901EB40004078717888424DD1C4EBAB
:10245000C40000EB04102F4901EB40008078B178F4
:10246000884242D14FF000083CE0C4EBC40000EBCE
:102470000410284901EB4000001D10F808A04FF09F
:10248000000928E00AF08000802807D120490E9832
:10249000088039462846FEF769FF06E01C490F9878
:1024A000088039462846FEF761FF4FF6FF7000EAC4
:1024B0004A0A681C85B2A5EB0B00102807D15D46BF
:1024C000781C87B20098381A152800D1009F09F1AE
:1024D000010000F0FF09B9F1080FD3DB08F101009A
:1024E00000F0FF08B8F12A0FBFDB601CC4B2122C49
:1024F00098DBF61C05F1100085B2AB463078002859
:102500007FF41DAF05B0BDE8F08F000094C7000850
:10251000BC08002090CB00082DE9F05F804689467A
:1025200016469A46DDF828B0002700241FE0002553
:102530001AE004FB0650012101EB40001BF800707B
:102540004FF6FF7000EA072704FB06501BF8100047
:1025500007430948078009EB040291B208EB050222
:1025600090B2FEF703FF6D1CB542E2DB641C5445DC
:10257000DDDBBDE8F09F0000BC080020F8B5054693
:102580000E4617461C4629E020780D2801D1641C10
:1025900024E020780A2805D14B2506F1100086B2E8
:1025A000641C1BE0E82D03DD4B2506F1100086B20C
:1025B000B6F59C7F00DDF8BD0020009022783B46F8
:1025C00031462846FFF7F8FA0C2F02D1A81D85B234
:1025D00002E005F1080085B2641C00BF20780028E5
:1025E000D2D100BFE7E700004FF48041074A1160F5
:1025F0004900116040F31701054AD1605114034AA4
:102600001160121F1160890011607047140C0140A5
:102610000010014000B52C20FFF7E6FF00BD00BF11
:10262000FEE7704770B5002100230F22C47804B381
:10263000154C246804F4E064C4F5E064210AC1F197
:102640000403CA40447804FA03F184781440214317
:1026500009010E4C0678A155047804F01F050124E9
:10266000AC4005786D11AD0005F1E025C5F80041DD
:1026700009E0047804F01F050124AC40044D0678FD
:10268000761145F8264070BD0CED00E000E400E056
:1026900080E100E002490143024A116070470000F6
:1026A0000000FA050CED00E029B1064AD2690243A8
:1026B000044BDA6104E0034AD2698243014BDA61D8
:1026C000704700000010024029B1064A1269024317
:1026D000044B1A6104E0034A12698243014B1A61F8
:1026E000704700000010024029B1064A9269024377
:1026F000044B9A6104E0034A92698243014B9A6158
:10270000704700000010024029B1064AD268024317
:10271000044BDA6004E0034AD2688243014BDA607A
:10272000704700000010024030B500210022002454
:1027300000232D4D6D6805F00C0121B1042905D051
:10274000082923D105E0294D056022E0274D0560C9
:102750001FE0254D6D6805F47012234D6D6805F47A
:102760008034022505EB92421CB9214D554305608A
:102770000BE01D4D6D6805F400351DB11C4D554332
:10278000056002E0194D5543056002E0174D0560F4
:1027900000BF00BF144D6D6805F0F0010909154D2B
:1027A0006B5C0568DD4045600F4D6D6805F4E061C8
:1027B000090A104D6B5C4568DD4085600A4D6D6807
:1027C00005F46051C90A0B4D6B5C4568DD40C5607E
:1027D000054D6D6805F44041890B074D6B5CC5687C
:1027E000B5FBF3F5056130BD0010024000127A0020
:1027F00000093D00000000201000002010B500F08E
:1028000001F810BD0CB5002001900090334800681D
:1028100040F480303149086000BF3048006800F45F
:10282000003000900198401C0190009818B9019860
:10283000B0F5A06FF1D12948006800F4003010B164
:102840000120009001E0002000900098012843D171
:102850002348006840F010002149086008460068DD
:1028600020F0030008600846006840F0020008609D
:102870001A48406819494860084640684860084658
:10288000406840F4806048600846406820F47C104E
:1028900048600846406840F4E81048600846006810
:1028A00040F08070086000BF0C48006800F00070C5
:1028B0000028F9D00948406820F003000749486023
:1028C0000846406840F00200486000BF0348406886
:1028D00000F00C000828F9D10CBD000000100240E7
:1028E00000200240042808D14FF0E021096941F09E
:1028F00004014FF0E022116107E04FF0E021096987
:1029000021F004014FF0E0221161704710B504F08E
:10291000BFFE012801D004F0A9FC10BD10B513487A
:10292000006840F0010011490860084640681049FD
:1029300008400E494860084600680E4908400B49A7
:1029400008600846006820F4802008600846406857
:1029500020F4FE0048604FF41F008860FFF74EFF30
:102960004FF000600449086010BD000000100240F4
:102970000000FFF8FFFFF6FE08ED00E010B50121B2
:10298000094800F054F8012808D108480268406856
:10299000521C40F1000005490A60486001210248CC
:1029A00000F036F810BD000000040040C000002018
:1029B0007FB505460C4601210220FFF775FEADF8F4
:1029C0000850ADF804400020ADF80A00ADF806004C
:1029D00001A90E4800F046F8012211460B4800F00C
:1029E00037F81D208DF8000001208DF8010000202F
:1029F0008DF8020001208DF803006846FFF712FEF3
:102A00000121024800F007F87FBD000000040040EB
:102A1000CA430282704721B1028842F0010202805B
:102A200004E002884FF6FE731A400280704730B50A
:102A30000246002000230024158A05EA0103958937
:102A400005EA010413B10CB1012000E0002030BD03
:102A50001AB183890B43838102E083898B4383818D
:102A600070470000002202881D4B98420ED01D4B7B
:102A700098420BD0B0F1804F08D01B4B984205D044
:102A80001A4B984202D01A4B984204D14FF68F73DA
:102A90001A404B881A43174B984207D0164B98425E
:102AA00004D04FF6FF431A40CB881A4302808B882C
:102AB00083850B8803850A4B98420BD0094B9842BB
:102AC00008D00E4B984205D00D4B984202D00D4BCA
:102AD000984201D10B7A038601238382704700005C
:102AE000002C014000340140000400400008004078
:102AF000000C004000100040001400400040014065
:102B0000004401400048014010B540F225510448FE
:102B100000F0FDF818B1024800F0B4F9C4B210BDDD
:102B20000038014038B540F225511F4800F0EFF859
:102B3000002836D01C4800F0A5F9C4B20D2C01D0F5
:102B40000A2C09D12146184800F0A1F96946174816
:102B5000006804F059FA38BD082C11D121461248FA
:102B600000F095F91248006848B111480068401E0D
:102B70000F49086000200F490D4A12688854EAE79F
:102B80000B4800687F280CD22146074800F07FF9E7
:102B9000084807490968445405480068401C04492E
:102BA000086000BFD7E70000004400401C00002080
:102BB00014000020C408002010B540F225510F4831
:102BC00000F0A5F8B8B10D4800F05CF9C4B204B942
:102BD00010BD0B480068B0F5FF7F09D809480849C7
:102BE0000968445406480068401C0549086002E032
:102BF00005A000F0B1F900BFEAE70000004800407E
:102C000010010020785A002055415254335F527809
:102C100042756666657228554152545F4D353331B1
:102C200030292069732066756C6C210001F40072F4
:102C3000B2F5007F00D100BFCA430280704721B1C6
:102C4000828942F40052828104E082894DF6FF734A
:102C50001A4082817047000010B504462048844223
:102C600009D101218803FFF74FFD00214FF4804077
:102C7000FFF74AFD32E01B48844209D10121480494
:102C8000FFF722FD00214FF40030FFF71DFD25E086
:102C90001548844209D101218804FFF715FD002160
:102CA0004FF48020FFF710FD18E01048844209D14E
:102CB0000121C804FFF708FD00214FF40020FFF7B1
:102CC00003FD0BE00A48844208D101210805FFF703
:102CD000FBFC00214FF48010FFF7F6FC10BD000054
:102CE000003801400044004000480040004C0040D3
:102CF0000050004002460020B1F5007F00D100BF27
:102D000013880B400BB1012000E00020704770B524
:102D10000246002400230025002040F66A16B14236
:102D200000D100BFC1F3421501F01F03012606FACE
:102D300003F3012D02D19689334006E0022D02D122
:102D4000168A334001E0968A33400C12012606FAB7
:102D500004F41688344013B10CB1012000E00020C7
:102D600070BDF0B50346002400260025002040F683
:102D70006A17B94200D100BF1846C1F3421401F0EE
:102D80001F06012707FA06F5012C01D10C3004E0DB
:102D9000022C01D1103000E014301AB107682F4323
:102DA000076002E00768AF430760F0BD2DE9F04718
:102DB00086B005460E460024A24600BFA146002765
:102DC000B08900B100BF2F462C8A4CF6FF7004403A
:102DD000F08804432C82AC894EF6F3100440B0888E
:102DE00031890843718908430443AC81AC8A4FF6AA
:102DF000FF400440B0890443AC8201A8FFF794FC73
:102E00001F48874202D1DDF810A001E0DDF80CA0D8
:102E1000A88900F4004040B10AEBCA0000EB0A1098
:102E200031684900B0FBF1F807E00AEBCA0000EB9B
:102E30000A1031688900B0FBF1F86420B8FBF0F0AB
:102E400004012009642101FB1089A88900F40040D5
:102E500040B1322000EBC900B0FBF1F000F00700F8
:102E6000044308E0322000EB09106421B0FBF1F0CC
:102E700000F00F0004432C8106B0BDE8F08700008D
:102E80000038014001468888C0F308007047C1F34C
:102E900008028280704700BFFEE7000010B50024E2
:102EA00006E0054901EB0410FEF7C2F8601CC4B24D
:102EB000032CF6D310BD0000E0000020174918A035
:102EC00000F04AF8FFF7EAFF27E04EF66021012004
:102ED00003F0E2FE0446012C1FD113A000F03CF8E1
:102EE00064211948FDF7A5F900BF64221649174867
:102EF000FEF72EF805461448FDF7C4F9064632469B
:102F00001149134802F0E8F9002DEED120210F48B5
:102F1000FDF78FF900200F490860D6E73E7A0008D8
:102F200025732E2E2E0D0A00434C4920436F6D6DE4
:102F3000616E642052656365697665205B43525D0E
:102F40005B4C465D0D0A0000E4080020C408002028
:102F500000440040140000200FB410B5C2B04FF47C
:102F6000807102A8FDF765F945A80190F92102A832
:102F7000019B449A02F028FA00200190074800784B
:102F800040B102A8FDF77EF90446224602A9044892
:102F900002F0A2F942B010BC5DF814FBC80000209A
:102FA000004400402DE9F05F05460E46174698465E
:102FB0004FF000094FF0640A4FF400711D48FDF70F
:102FC00038F900201C4908602846FDF75BF9834664
:102FD0005A462946194802F07FF92A46184919A08D
:102FE000FFF7BAFF24E0002411E004EB840006EBB5
:102FF00080011048FDF728F938B1621C104915A06E
:10300000FFF7AAFF601CBDE8F09F601CC4B2BC4281
:10301000EBDB09FB0AF0404505D3094912A0FFF795
:103020009BFF0020EFE7504602F05CFF09F1010929
:10303000D9E70000785A0020100100200048004025
:10304000FC7A000825732853656E642D3E25730DA8
:103050000A00000025732872657475726E3A202587
:1030600064290D0A000000002573286578656375E2
:1030700074652074696D656F757421290D0A0000EF
:10308000FEB505460E461746864987A0FFF764FF42
:103090001FB187A0FFF760FFFEBD06EB4600284486
:1030A000C4B24FF6FF70FEF7D5F887481E231A46C4
:1030B000052100900846FFF72FFA4FF6FF7040F207
:1030C000194182A21823CDE9002102900022062195
:1030D0002320FEF755FE0020804908802723EF2299
:1030E0001946FEF7EBF87E4832231A463C21009041
:1030F0000F20FFF711FA6CB940F29E50002179A21F
:103100001023CDE90021029002226E210820FEF753
:1031100037FE0CE04FF6FF70002172A21023CDE9BC
:103120000021029002226E210820FEF729FE71483C
:1031300032231A463C2100905F20FFF7EDF9012C65
:103140000DD140F29E5000216BA21023CDE9002149
:10315000029002226E215820FEF712FE0CE04FF67C
:10316000FF70002164A21023CDE900210290022209
:103170006E215820FEF704FE634832231A463C2194
:103180000090AF20FFF7C8F9022C0DD140F29E50FD
:1031900000215EA21023CDE90021029002226E21BF
:1031A000A820FEF7EDFD0CE04FF6FF70002157A2BE
:1031B0001023CDE90021029002226E21A820FEF703
:1031C000DFFD564832231A46962100900F20FFF764
:1031D000A3F9032C0DD140F29E50002150A21023E0
:1031E000CDE9002102900222C8210820FEF7C8FD87
:1031F0000CE04FF6FF70002149A21023CDE9002119
:1032000002900222C8210820FEF7BAFD4848322366
:103210001A46962100905F20FFF77EF9042C0DD10D
:1032200040F29E50002143A21023CDE900210290DC
:103230000222C8215820FEF7A3FD0CE04FF6FF70D4
:1032400000213CA21023CDE9002102900222C821D6
:103250005820FEF795FD3B4832231A4696210090F0
:10326000AF20FFF759F9052C0DD140F29E500021F7
:1032700035A21023CDE9002102900222C821A82006
:10328000FEF77EFD0CE04FF6FF7000212EA210230A
:10329000CDE9002102900222C821A820FEF770FD8E
:1032A00000BFF9E6859D010825732E2E2E00000033
:1032B0007A496E64657820213D20302C2072657437
:1032C00075726E65640D0A0004D30008E4B8ADE7BA
:1032D000A7BBE789A9E88194E7BD9100BC0800205D
:1032E0002C280108E8AEBEE5A487E4BFA1E681AFC3
:1032F000000000003C4F0108E9A9BBE7BD91E6B51D
:103300008BE8AF9500000000B43B0108E4BFA1E5E5
:103310008FB7E58F82E695B000000000C462010817
:10332000E7BD91E7BB9CE5BBB6E697B600000000A1
:103330004C760108E7BBBCE59088E6B58BE8AF9515
:1033400000000000D4890108E8939DE78999E79B74
:10335000B4E8BF9E000000002DE9F0438BB0814629
:103360000D4628221D4901A8FCF74AFF05262946DB
:103370004846FCF75EFF23E0701EC6B24FF4FA63C6
:10338000022201A916A0FFF70DFEC7B2012F13D12B
:1033900016A11848FCF758FF841D17A12046FCF71A
:1033A00053FF8046A8EB040221464846FCF771FF14
:1033B00001200BB0BDE8F0834FF4FA7002F092FDEB
:1033C000002ED9DC2A460EA14846FCF74FFF0E49D5
:1033D0000EA0FFF7C1FD0020EBE70000287C0008ED
:1033E00041542B4E434349440D0A00004E43434988
:1033F000443A0000785A00200D0A4F4B0D0A000095
:103400004552524F52000000187C00082573284591
:103410007865204661696C656421290D0A00000009
:103420002DE9F0438BB081460D4628221D4901A8A5
:10343000FCF7E6FE052629464846FCF7FAFE23E09F
:10344000701EC6B24FF4FA63022201A916A0FFF75C
:10345000A9FDC7B2012F13D116A11848FCF7F4FE3D
:10346000441D17A12046FCF7EFFE8046A8EB04029E
:1034700021464846FCF70DFF01200BB0BDE8F08364
:103480004FF4FA7002F02EFD002ED9DC2A460EA170
:103490004846FCF7EBFE0E490EA0FFF75DFD00204D
:1034A000EBE70000987C000841542B4347534E3D06
:1034B000310D0A004347534E3A000000785A00206D
:1034C0000D0A4F4B0D0A00004552524F52000000AA
:1034D000887C0008257328457865204661696C65FD
:1034E0006421290D0A0000002DE9F0438BB08146CC
:1034F0000D462822224901A8FCF782FE052629460E
:103500004846FCF796FE2EE0701EC6B24FF4FA63F2
:10351000022201A91BA0FFF745FDC7B2012F1ED152
:103520001B4C0BE02078202805D020780D2802D0F5
:1035300020780A2801D1641C00E000E0F2E700BF17
:1035400014A12046FCF780FE8046A8EB0402214629
:103550004846FCF79EFE01200BB0BDE8F0834FF417
:10356000FA7002F0BFFC002ECEDC2A460BA14846C2
:10357000FCF77CFE0B490CA0FFF7EEFC0020EBE70C
:10358000607C000841542B43494D490D0A0000005E
:10359000785A00200D0A4F4B0D0A00004552524F39
:1035A00052000000507C00082573284578652046AD
:1035B00061696C656421290D0A0000002DE9F04362
:1035C0008BB081460D462822224901A8FCF718FE3F
:1035D000052629464846FCF72CFE2EE0701EC6B292
:1035E0004FF4FA63022201A91BA0FFF7DBFCC7B26C
:1035F000012F1ED11B4C0BE02078202805D020780D
:103600000D2802D020780A2801D1641C00E000E0D7
:10361000F2E700BF14A12046FCF716FE8046A8EB97
:10362000040221464846FCF734FE01200BB0BDE8F9
:10363000F0834FF4FA7002F055FC002ECEDC2A46DF
:103640000BA14846FCF712FE0B490CA0FFF784FCC7
:103650000020EBE7B07B000841542B43474D4D0D54
:103660000A000000785A00200D0A4F4B00000000AD
:103670004552524F52000000987B000825732845A0
:103680007865204661696C656421290D0A00000097
:103690002DE9F0438BB081460D462822224901A82E
:1036A000FCF7AEFD052629464846FCF7C2FD2EE094
:1036B000701EC6B24FF4FA63022201A91BA0FFF7E5
:1036C00071FCC7B2012F1ED11B4C0BE020782028C3
:1036D00005D020780D2802D020780A2801D1641C5A
:1036E00000E000E0F2E700BF14A12046FCF7ACFDCB
:1036F0008046A8EB040221464846FCF7CAFD01209B
:103700000BB0BDE8F0834FF4FA7002F0EBFB002E33
:10371000CEDC2A460BA14846FCF7A8FD0B490CA0BD
:10372000FFF71AFC0020EBE7F07B000841542B4325
:103730004D5645520D0A0000785A00200D0A4F4B95
:103740000D0A00004552524F52000000D87B00087D
:10375000257328457865204661696C656421290DCB
:103760000A0000002DE9F0418AB028222B49684662
:10377000FCF746FD0526002548E0701EC6B24FF452
:10378000FA630222694626A0FFF70CFCC7B2012F9C
:1037900038D126A12748FCF757FD044674B3E41D31
:1037A0004FF000081CE02078202801D1641C17E0AD
:1037B00020782D2803D14FF00108641C10E02078F8
:1037C00030280BDB2078392808DC207805EB8501D0
:1037D00000EB4100A0F13005641C00E001E000BFF7
:1037E000E1E700BFB8F1000F02D04FF0FF3000E07A
:1037F0000120454328460AB0BDE8F0810E490FA0DC
:10380000FFF7AAFB4FF4FA7002F06CFB002EB4DC59
:10381000094910A0FFF7A0FB0020ECE70C7D000891
:1038200041542B4E42414E443F0D0A002B4E424123
:103830004E443A00785A0020F87C0008257328424C
:10384000414E44204E6F7420466F756E6421290DE1
:103850000A000000257328457865204661696C657B
:103860006421290D0A0000002DE9F0438BB0814648
:103870000D4628221D4901A8FCF7C2FC0526294651
:103880004846FCF7D6FC23E0701EC6B24FF4FA633C
:10389000022201A916A0FFF785FBC7B2012F13D1A1
:1038A00016A11748FCF7D0FC441C14A12046FCF7D5
:1038B000CBFC8046A8EB040221464846FCF7E9FC15
:1038C00001200BB0BDE8F0834FF4FA7002F00AFB60
:1038D000002ED9DC2A460BA14846FCF7C7FC0B4951
:1038E0000BA0FFF739FB0020EBE70000D07C0008BD
:1038F00041542B434F50533F0D0A0000220000005B
:10390000785A00204552524F52000000C07C0008F7
:10391000257328457865204661696C656421290D09
:103920000A0000002DE9F04F8DB083460F46904607
:1039300028228D4903A8FCF763FC4FF005090020FD
:1039400000900190029041465846FCF772FC4146B7
:103950003846FCF76EFCF2E0A9F1010000F0FF0927
:103960004FF4FA63022203A980A0FFF71BFB00F0CB
:10397000FF0ABAF1010F73D17FA18048FCF764FC04
:10398000441C7DA12046FCF75FFC441C7AA1204624
:10399000FCF75AFC441C78A12046FCF755FC06466F
:1039A000032277A12046FCF788FC28B90A2275A1DA
:1039B0006846FCF75BFC59E0032274A12046FCF743
:1039C0007CFC28B90A2272A16846FCF74FFC4DE046
:1039D000032270A12046FCF770FC28B90A226EA1D0
:1039E0006846FCF743FC41E003226CA12046FCF74B
:1039F00064FC28B90A226AA16846FCF737FC35E066
:103A0000032268A12046FCF758FC28B90A2266A1C7
:103A10006846FCF72BFC29E0032264A12046FCF752
:103A20004CFC28B90A2262A16846FCF71FFC1DE085
:103A3000032261A12046FCF740FC28B90A225FA1BD
:103A40006846FCF713FC11E003225EA12046FCF758
:103A500034FC30B90A225CA16846FCF707FC05E09B
:103A600069E0072258A16846FCF700FCE41C002529
:103A700005E0207800EB4500A0F13005641CB4425D
:103A8000F7D36B462A4652A1384601F089FC3AA189
:103A90002046FCF7D9FB441C4FA12046FCF7D4FB81
:103AA0000646032236A12046FCF707FC28B90A2265
:103AB0003BA16846FCF7DAFB28E0032233A120464D
:103AC000FCF7FBFB28B90A2239A16846FCF7CEFBBC
:103AD0001CE003222FA12046FCF7EFFB28B90A22A5
:103AE0003EA16846FCF7C2FB10E0032235A1204648
:103AF000FCF7E3FB28B90A2233A16846FCF7B6FBC2
:103B000004E0072230A16846FCF7B0FB0025E41C66
:103B100005E0207800EB4500A0F13005641CB442BC
:103B2000F7D36B462A462AA1584601F039FC0120FA
:103B30000DB0BDE8F08F4FF4FA7002F0D3F9B9F18F
:103B4000000F3FF709AF424627A13846FCF78EFB2E
:103B5000424625A15846FCF789FB254925A0FFF7D9
:103B6000FBF90020E4E70000507D000841542B439E
:103B700050534D533F0D0A002C000000785A00208E
:103B80003030300031306D696E000000303031006F
:103B900031680000303130003130680030313100A0
:103BA0003273000031303000333073003130310077
:103BB000316D696E00000000313130003332306801
:103BC0000000000031313100496E76616C6964009B
:103BD0002564202A202573000D0A000064656369AE
:103BE000686F7572730000004552524F520000001A
:103BF000347D0008257328457865204661696C6529
:103C00006421290D0A0000001CB500BF0D490EA05B
:103C1000FFF7A2F90E4890F900000E4991F9001043
:103C2000CDE900100C4890F900300C4890F90020C4
:103C30000B4890F900100B4890F9000001F09AF839
:103C400000BFFEE7517A000825732E2E2E0D0A00C4
:103C5000330000203200002031000020300000201E
:103C60002F0000202E0000201CB51C491CA0FFF7CF
:103C700073F903F0A9F81C48012100234A02CDE999
:103C800000101AA11C4803F0D3FC03F0AFF824E0A5
:103C90004EF66021012002F0FFFF0446012C1CD1EA
:103CA0000E4916A0FFF758F90F48006838B10E48C2
:103CB000006803F031F9094917A0FFF74DF903F047
:103CC00083F80948012100234A02CDE9001007A129
:103CD000094803F0ADFC03F089F8D9E7647A0008DD
:103CE00025732E2E2E0D0A00240000206C63645FC5
:103CF0007461736B00000000093C000825732852B2
:103D0000656376206B6579646F776E206576656E86
:103D100074290D0A0000000025732844656C657441
:103D200065204C6364207461736B290D0A000000E8
:103D300070B594B0282225490AA8FCF761FA282218
:103D4000224928316846FCF75BFA41F288330122A8
:103D50000AA91FA0FFF726F90646012E30D11F48F9
:103D60000468406820E041F28833022269461CA0C2
:103D7000FFF718F90646022E00D116E01748026830
:103D80004068121B60F10000184B00219A1A814113
:103D900006D2174917A0FFF7DFF8012014B070BD55
:103DA0004FF4FA7002F09EF8DDE700BF0B4805689B
:103DB00040682A1B0E4915A0FFF7CEF8281BEDE737
:103DC0000B4918A0FFF7C8F80020E7E7AC7A000815
:103DD00041542B4E52420D0A00000000C00000204A
:103DE00041542B43474154543F0D0A0020BF020069
:103DF0008C7A0008257328417474616368207469A3
:103E00006D656F757421290D0A00000025732872F5
:103E1000657475726E3A20256C64206D73290D0AE5
:103E2000000000002573285761697420626F6F7469
:103E300020696E666F726D6174696F6E2074696D52
:103E4000656F757421290D0A00000000F0B58BB074
:103E50002822234901A8FCF7D3F90527002636E0DC
:103E6000781EC7B24FF4FA63022201A91DA0FFF722
:103E700099F80546012D26D11DA11F48FCF7E4F94C
:103E80000446241D15E02078202801D1641C10E090
:103E9000207830280BDB2078392808DC207806EBE6
:103EA000860100EB41003038C6B2641C00E001E03E
:103EB00000BFE8E700BF3246104911A0FFF74CF8F9
:103EC00030460BB0F0BD4FF4FA7002F00BF8002F43
:103ED000C6DC0A490FA0FFF73FF80020F1E7000019
:103EE000307B000841542B4353510D0A0000000061
:103EF0004353513A00000000785A0020107B00081C
:103F000025732872657475726E3A202564290D0A2E
:103F1000000000002573284661696C656421290D45
:103F20000A0000002DE9F04792B0824620210AA83D
:103F3000FCF77FF94FF005082822A1496846FCF7F5
:103F40005FF900262BE1A8F1010000F0FF084FF413
:103F5000FA63022269469BA0FFF724F80746012F67
:103F600070D19CA19D48FCF76FF90446002C2FD01E
:103F7000E41D00261CE02078202801D1641C17E0F5
:103F800020782D2802D10126641C11E020783028E9
:103F90000CDB2078392809DC20780A9901EB8101B3
:103FA00000EB410030380A90641C00E001E000BFE3
:103FB000E1E700BF0A9816B14FF0FF3100E00121A0
:103FC00048430A90864987A00A9AFEF7C5FF03E096
:103FD000834989A0FEF7C0FF8DA18048FCF734F922
:103FE000044684B3641D00261CE02078202801D1FB
:103FF000641C17E020782D2802D10126641C11E0F2
:10400000207830280CDB2078392809DC20780B99BF
:1040100001EB810100EB410030380B90641C00E0A3
:1040200001E000BFE1E700BF0B9816B14FF0FF3190
:1040300000E0012148430B90694977A00B9AFEF7F5
:104040008BFF05E0A7E0FFE7654977A0FEF784FF57
:104050007BA16248FCF7F8F804467CB3241D0026D7
:104060001CE02078202801D1641C17E020782D283E
:1040700002D10126641C11E0207830280CDB207866
:10408000392809DC20780C9901EB810100EB410013
:1040900030380C90641C00E001E000BFE1E700BF95
:1040A0000C9816B14FF0FF3100E0012148430C900D
:1040B0004B4965A00C9AFEF74FFF04E0FFE7484923
:1040C00065A0FEF749FF6AA14448FCF7BDF8044625
:1040D0007CB3241D00261CE02078202801D1641C1C
:1040E00017E020782D2802D10126641C11E02078E9
:1040F00030280CDB2078392809DC20780D9901EB79
:10410000810100EB410030380D90641C00E001E0BB
:1041100000BFE1E700BF0D9816B14FF0FF3100E09E
:10412000012148430D902E4953A00D9AFEF714FF2C
:1041300004E0FFE72A4954A0FEF70EFF58A12748E4
:10414000FCF782F800F1080585B142A12846FCF78A
:104150007BF88146A9EB050229460EA8FCF750F82A
:104160000EAA1F4951A0FEF7F7FE0CE054A001680B
:104170000E918188ADF83C1080798DF83E00184989
:1041800051A0FEF7E9FE20220AA95046FCF738F8B4
:1041900012B0BDE8F087124951A0FEF7DDFEB8F17C
:1041A000000F3FF7D0AE102252A10EA8FCF75EF828
:1041B00020220AA95046FCF723F800BFE8E70000D8
:1041C000707B000841542B4E554553544154530DB8
:1041D0000A00000045415246434E3A00785A0020FA
:1041E000587B000825732845415246434E3A202506
:1041F0006C64290D0A00000025732845415246438E
:104200004E204E6F7420466F756E6421290D0A0092
:10421000525352513A000000257328525352513ADA
:1042200020256C64290D0A00257328525352512011
:104230004E6F7420466F756E6421290D0A000000D0
:10424000534E523A00000000257328534E523A2034
:10425000256C64290D0A0000257328534E52204E08
:104260006F7420466F756E6421290D0A00000000EE
:1042700045434C3A0000000025732845434C3A2042
:10428000256C64290D0A000025732845434C204EF7
:104290006F7420466F756E6421290D0A00000000BE
:1042A00043656C6C2049443A0000000025732843A4
:1042B000454C4C49443A202573290D0A0000000062
:1042C000496E76616C69640025732843454C4C49FE
:1042D00044204E6F7420466F756E6421290D0A00CC
:1042E000257328415420525350204552524F522199
:1042F000290D0A004552524F5200000038B50446BD
:1043000022460E490EA0FEF727FE4FF6FF7040F240
:104310003F13EF22282100900020FDF75BF824B125
:10432000012C04D0022C06D103E000F011F800F0BB
:10433000CFF800F0DBFA00BF00BF38BD6C9D01086C
:10434000257328696E6465783A2564290D0A000092
:104350000EB50020434908804FF6FF70002142A2AD
:104360001023CDE900210290022232214B20FDF7DB
:1043700007FD00203B49088080213F48FFF71EF9D8
:104380003D4B102232219B20FEF7F8F84FF6FF70CC
:1043900000213AA21023CDE90021029002224B21F4
:1043A0000846FDF7EDFC00202E49088080213248A8
:1043B000FFF76EF9304B10224B219B20FEF7DEF801
:1043C00032A3102278214B20FEF7D8F880212A480A
:1043D000FEF7C2FF284B10228C214B20FEF7CEF8AF
:1043E0002CA31022A5214B20FEF7C8F880212248DB
:1043F000FFF716F8204B1022B9214B20FEF7BEF82C
:1044000026A31022D2214B20FEF7B8F880211A48AB
:10441000FFF76AF8184B1022E6214B20FEF7AEF8A2
:104420004FF6FF7000211FA21023CDE9002102905A
:104430000222FF214B20FDF7A3FC00200949088040
:104440001CA3102240F213114B20FEF797F808E04E
:10445000FFF7FCFC044600F0A1FB4FF47A7001F07A
:1044600041FDF5E7BC080020E6A8A1E7BB84E59E76
:104470008BE58FB7EFBC9A00785C0020E6A8A1E737
:10448000BB84E78988E69CACEFBC9A00494343496A
:10449000443A0000494D45493A000000494D53490E
:1044A0003A000000E8BDAFE4BBB6E78988E69CAC03
:1044B000EFBC9A004E422D496F54205465737454DA
:1044C00065726D696E616C205630303100000000FD
:1044D0000EB500250026AA46AB46A9464FF6FF704A
:1044E00040F29E51D6A21823CDE90021029000226D
:1044F00037216920FDF744FC4FF6FF704FF6074166
:104500001823D3A2CDE9001055215F20FDF7A0FEAE
:104510004FF6FF700021D0A21023CDE900210290B8
:10452000022282215020FDF72BFC0020CE4908807A
:10453000CEA3102282219620FEF720F84FF6FF70BE
:104540000021CBA21023CDE90021029002229B2161
:104550005020FDF715FC0020C3490880C3A310229A
:104560009B219620FEF70AF84FF6FF700021C4A2A7
:104570001023CDE9002102900222B4215020FDF742
:10458000FFFB0020B8490880B8A31022B421962070
:10459000FDF7F4FF4FF6FF700021BCA21023CDE918
:1045A000002102900222CD215020FDF7E9FB0020DE
:1045B000AD490880ADA31022CD219620FDF7DEFF86
:1045C0004FF6FF700021B5A21023CDE90021029023
:1045D0000222E6215020FDF7D3FB0020A2490880EB
:1045E000A2A31022E6219620FDF7C8FF4FF6FF7028
:1045F0000021AEA21023CDE9002102900222FF216A
:104600005020FDF7BDFB00209749088097A310229A
:10461000FF219620FDF7B2FF11E1FFF789FB044669
:10462000322001F05FFC012C1ED96D1C2046FBF7E7
:10463000C3FEA2490190FBF781FE0290FBF7C1FE89
:1046400007463A460B469EA19F4800F0A9FE4FF64A
:10465000FF704FF6074118239B4ACDE90010552102
:104660005F20FDF7F5FD1CE0012C0ED14FF6FF7029
:104670004FF47841182395A2CDE900105A215F200C
:10468000FDF7E6FD6D1C761C0BE04FF6FF704FF456
:10469000784118238FA2CDE900105A215F20FDF741
:1046A000D7FD0020704908802A468CA1864800F07A
:1046B00077FE4FF6FF709623EF2282210090A5200F
:1046C000FCF788FE804B10228221A520FDF756FFC3
:1046D000324682A17C4800F063FE4FF6FF709623BD
:1046E000EF229B210090A520FCF774FE764B102250
:1046F0009B21A520FDF742FF15B3A81BB0FBF5F0E9
:104700000090FBF759FE76490190FBF7E5FD02901A
:10471000FBF757FE07463A460B4672A16A4800F07F
:104720003FFE4FF6FF709623EF22B4210090A520A4
:10473000FCF750FE644B1022B421A520FDF71EFFAC
:10474000012C26D9A81B401E0BFB0040A91BB0FB67
:10475000F1FB5846FBF730FE58490190FBF7EEFDA0
:104760000290FBF72EFE07463A460B4654A15648E8
:1047700000F016FE4FF6FF709623EF22CD21009039
:10478000A520FCF727FE504B1022CD21A520FDF7D8
:10479000F5FE544502D9012C00D9A2465046FBF73C
:1047A0000BFE46490190FBF7C9FD0290FBF709FE9D
:1047B00007463A460B4642A1434800F0F1FD4FF64A
:1047C000FF709623EF22E6210090A520FCF702FE61
:1047D0003D4B1022E621A520FDF7D0FE4C4502D32B
:1047E000B9F1000F02D1012C00D9A1464846FBF7D0
:1047F000E3FD32490190FBF7A1FD0290FBF7E1FDDB
:1048000007463A460B462EA12F4800F0C9FD4FF649
:10481000FF709623EF22FF210090A520FCF7DAFD20
:10482000294B1022FF21A520FDF7A8FEFFF70EFB64
:10483000074600F0B3F94FF47A7001F053FBECE651
:10484000E9A9BBE7BD91E697B6E997B4000000007F
:104850002D2D2D2E2D2D2D00E6B58BE8AF95E6AC38
:10486000A1E695B000000000BC0800203A0000005E
:10487000E5A4B1E8B4A5E6ACA1E695B0000000005F
:10488000E68890E58A9FE78E87000000E5B9B3E5EA
:104890009D87E697B6E995BF00000000E69C80E59D
:1048A000A4A7E697B6E995BF00000000E69C80E764
:1048B0009FADE697B6E995BF0000000000007A447E
:1048C0002530372E33667300785C002074696D657F
:1048D0006F757400626F6F746572720025640000FA
:1048E0000000C842252E326625250000A0B0002415
:1048F000202110A8FBF79DFC202108A8FBF799FCBC
:1049000000208549088085A3102232214B20FDF725
:1049100035FE85A310224B210846FDF72FFE85A307
:10492000102264214B20FDF729FE85A310227D2152
:104930004B20FDF723FE85A3102296214B20FDF787
:104940001DFE85A31022AF214B20FDF717FE85A386
:104950001022C8214B20FDF711FE85A31022E12172
:104960004B20FDF70BFE85A31022FA214B20FDF70B
:1049700005FE85A3102240F213114B20FDF7FEFD2A
:10498000C8E0FFF763FA0446204600F007F9224624
:1049900080A1814800F004FD4FF6FF704623EF220E
:1049A000322100909B20FCF715FD7B4B1022322119
:1049B0009B20FDF7E3FD6846FFF7B4FA2022694625
:1049C00018A8FBF71DFC73A173481A9A00F0E8FCC5
:1049D0004FF6FF705F23EF224B2100909B20FCF7E6
:1049E000F9FC6D4B10224B219B20FDF7C7FD69A1FF
:1049F0006948199A00F0D4FC4FF6FF707823EF2233
:104A0000642100909B20FCF7E5FC634B102264219D
:104A10009B20FDF7B3FD5FA15F48189A00F0C0FC32
:104A20004FF6FF709623EF227D2100909B20FCF72C
:104A3000D1FC594B10227D219B20FDF79FFD55A1F4
:104A400055481B9A00F0ACFC4FF6FF70AA23EF22EA
:104A5000962100909B20FCF7BDFC4F4B1022962125
:104A60009B20FDF78BFD4FF6FF7040F22713EF22DE
:104A700040F2131100909B20FCF7ACFC1CAB102201
:104A800040F213119B20FDF779FD80214248FEF78B
:104A9000EBFE4FF6FF70C323EF22AF2100909B2067
:104AA000FCF798FC3C4B1022AF219B20FDF766FDE4
:104AB000FEF758FE05462A4636A1374800F070FC3E
:104AC000354B1022C8219B20FDF758FD202210A94C
:104AD00008A8FEF727FF4FF6FF70F523EF22E1212C
:104AE00000909B20FCF776FC08AB1022E1219B2074
:104AF000FDF744FD4FF6FF704FF48773EF22FA2164
:104B000000909B20FCF766FC10AB1022FA219B2042
:104B1000FDF734FD35E70000BC0800204353512069
:104B20002020203A00000000534E52202020203A3E
:104B300000000000525352512020203A0000000093
:104B400045415246434E203A0000000045434C2068
:104B50002020203A00000000504C4D4E2020203AEA
:104B60000000000042414E442020203A0000000096
:104B7000543333323420203A0000000054333431AF
:104B80003220203A0000000043454C4C4944203A72
:104B90000000000025640000785C002038B5044661
:104BA0004FF6FF702623D22200210090B420FCF79C
:104BB00011FC142C2FDD1F2C2DDC44F298301E2309
:104BC000B7221A210090B420FCF704FC44F298307C
:104BD0001E23BD2216210090BA20FCF7FBFB44F2F5
:104BE00098301E23C32212210090C020FCF7F2FB54
:104BF00044F298301E23C9220E210090C620FCF7F3
:104C0000E9FB44F298301E23CF220A210090CC20E9
:104C1000FCF7E0FB6CE00F2C26DD142C24DC44F2C6
:104C200098301E23B7221A210090B420FCF7D2FB43
:104C300044F298301E23BD2216210090BA20FCF7C2
:104C4000C9FB44F298301E23C32212210090C020D9
:104C5000FCF7C0FB44F298301E23C9220E210090BD
:104C6000C620FCF7B7FB43E00A2C1DDD0F2C1BDC34
:104C700044F298301E23B7221A210090B420FCF78A
:104C8000A9FB44F298301E23BD2216210090BA20C1
:104C9000FCF7A0FB44F298301E23C322122100909F
:104CA000C020FCF797FB23E0052C14DD0A2C12DC56
:104CB00044F298301E23B7221A210090B420FCF74A
:104CC00089FB44F298301E23BD2216210090BA20A1
:104CD000FCF780FB0CE0002C0ADD052C08DC44F21C
:104CE00098301E23B7221A210090B420FCF772FBE3
:104CF00038BD00001CB50446104911A0FEF72CF980
:104D000002F062F81048012100230A02CDE90010E8
:104D10000EA1114802F08CFC1048012100234A0228
:104D2000CDE900100EA1114802F082FC1048006885
:104D300002F0F2F802F05AF81CBD0000297A0008CF
:104D400025732E2E2E0D0A001C000020636C695F57
:104D50007461736B00000000BD2E0008200000206D
:104D60006D353331305F7461736B0000693C00084E
:104D7000180000202DE9FF4704460D4690461E46C8
:104D8000DDE90C792B462246804981A0CDE90279E4
:104D9000CDE90086FEF7E0F8C84516D07B4988A02B
:104DA000FEF7DAF8B8F1000F09D14FF6FF70FCF703
:104DB00051FA424629462046FEF762F905E005EB26
:104DC00045012144C8B2FFF799FAB44201D1BD426E
:104DD0007DD0B8F1000F7AD107EB4700304460B9BD
:104DE0004FF6FF7000217CA21023CDE90021029034
:104DF00002226E210820FCF7C3FF07EB4700304476
:104E000001280CD14FF6FF70002177A21023CDE9C5
:104E10000021029002226E215820FCF7B1FF07EB1F
:104E20004700304402280CD14FF6FF70002172A2D7
:104E30001023CDE90021029002226E21A820FCF768
:104E40009FFF07EB4700304403280CD14FF6FF705B
:104E500000216DA21023CDE9002102900222C82179
:104E60000820FCF78DFF07EB4700304404280CD1E5
:104E70004FF6FF70002168A21023CDE900210290B7
:104E80000222C8215820FCF77BFF07EB4700304483
:104E900005280CD14FF6FF70002163A21023CDE945
:104EA000002102900222C821A820FCF769FF05EB2F
:104EB0004500204470B940F29E50002146A21023C4
:104EC000CDE90021029002226E21082000E05BE083
:104ED000FCF756FF05EB4500204401280CD140F2B9
:104EE0009E50002140A21023CDE900210290022211
:104EF0006E215820FCF744FF05EB450020440228B2
:104F00000CD140F29E5000213BA21023CDE900219C
:104F1000029002226E21A820FCF732FF05EB45002B
:104F2000204403280CD140F29E50002136A21023C9
:104F3000CDE9002102900222C8210820FCF720FFC1
:104F400005EB4500204404280CD140F29E5000217E
:104F500031A21023CDE9002102900222C82158205D
:104F6000FCF70EFF05EB4500204405280CD140F26C
:104F70009E5000212CA21023CDE900210290022294
:104F8000C821A820FCF7FCFEBDE8FF875C9D010856
:104F900025732863757272656E7420783A25642CC7
:104FA000793A25642C7A3A2564206F6C6420783A2B
:104FB00025642C793A25642C7A3A2564290D0A0057
:104FC0002573287A496E646578206368616E676529
:104FD00064290D0A00000000E8AEBEE5A487E4BF26
:104FE000A1E681AF00000000E9A9BBE7BD91E6B5ED
:104FF0008BE8AF9500000000E4BFA1E58FB7E58F17
:1050000082E695B000000000E7BD91E7BB9CE5BBE0
:10501000B6E697B600000000E7BBBCE59088E6B5B1
:105020008BE8AF9500000000E8939DE78999E79B26
:10503000B4E8BF9E000000001CB51A4864231A465D
:10504000322100904620FDF767FA4FF6FF7040F2DC
:105050001941182314A2CDE90010AA213C20FDF724
:1050600065F940F21940144908804FF6FF7040F28C
:105070001941182311A2CDE90010D2210F20FDF70C
:10508000E7F84FF6FF7040F2194118230DA2CDE961
:105090000010D2216E20FDF749F94FF47A7000F02C
:1050A00021FF1CBD0CDA0008E4B8ADE7A7BBE78917
:1050B000A9E88194E7BD9100BC0800204E422D492B
:1050C0004F540000E7BD91E7BB9CE6B58BE8AF9578
:1050D000E4BBAA0030B587B004460D467848844248
:1050E0004BD1FDF7B9FD01210420FDF7FDFA0121A7
:1050F0008803FDF7F9FA6015ADF8180018208DF84F
:105100001B0003208DF81A0006A96E48FBF7CAFFA2
:105110002015ADF8180004208DF81B0006A9694879
:10512000FBF7C0FF02950020ADF80C00ADF80E00B3
:10513000ADF81000ADF814000C20ADF8120002A973
:105140002046FDF733FE01212046FDF778FD25209E
:105150008DF8040003208DF8050002208DF806006C
:1051600001208DF8070001A8FDF75CFA012240F24A
:1051700025512046FDF7F5FD9FE0534884424AD172
:10518000FDF76AFD01210420FDF7AEFA0121480474
:10519000FDF78AFA0420ADF8180018208DF81B00DE
:1051A00003208DF81A0006A94648FBF77BFF08206C
:1051B000ADF8180004208DF81B0006A94148FBF744
:1051C00071FF02950020ADF80C00ADF80E00ADF8AF
:1051D0001000ADF814000C20ADF8120002A9204612
:1051E000FDF7E4FD01212046FDF729FD26208DF87D
:1051F000040003208DF8050001208DF806008DF8CD
:10520000070001A8FDF70EFA012240F225512046C1
:10521000FDF7A7FD51E02D4884424AD1FDF71CFD62
:1052200001210820FDF760FA01218804FDF73CFA0E
:105230002015ADF8180018208DF81B0003208DF8FC
:105240001A0006A92248FBF72DFFE014ADF818005C
:1052500004208DF81B0006A91D48FBF723FF0295CB
:105260000020ADF80C00ADF80E00ADF81000ADF860
:1052700014000C20ADF8120002A92046FDF796FD9F
:1052800001212046FDF7DBFC27208DF804000320D8
:105290008DF805008DF8060001208DF8070001A8A3
:1052A000FDF7C0F9012240F225512046FDF759FDD6
:1052B00003E00848844200D000BF07B030BD0000C2
:1052C0000038014000080140004400400048004010
:1052D000000C0140004C00402DE9F04107460D460E
:1052E0001646002401F070FD00BF0FE04021384653
:1052F000FDF79CFC295D3846FDF7C9FD00BF402144
:105300003846FDF7F7FC0028F9D0641CB442EDD311
:1053100001F06CFDBDE8F0812DE9F041024600206E
:1053200003460446002510782D2802D010782B283B
:1053300004D110782D2801D10125521C1EE01078CF
:1053400030281ADB1078392817DC0A214FF0000CBE
:105350001E46A6FB010804FB018103FB0C17117814
:1053600066468446384637461CEB01067841B6F15E
:10537000300360F10004521C00E000E0DFE700BFF2
:1053800015B14FF0FF3000E00120C117A0FB03670B
:1053900001FB037100FB04113046BDE8F081000001
:1053A0000FB4084B10B504A902AA039800F0E0F866
:1053B000044602A9002000F07DFC204610BC5DF8E8
:1053C00014FB0000B55C00087CB5491E1C46154660
:1053D000CDE90001044B6A462146284600F0C8F892
:1053E000009A002111707CBD9F5C000802E008C893
:1053F000121F08C1002AFAD170477047002001E04F
:1054000001C1121F002AFBD1704700002DE9FF5F88
:10541000DDE90220010DDDF838B0024318D044F672
:105420001050A1F2FF3141430D140F98012820D0F4
:10543000A5EB0B00401C5FEA000A4FF00004474E4A
:10544000DFF81C91A046504616D5CAF1000728E0A7
:105450000F98012443A2012808D0002100980F9B37
:10546000C0E90021C0E90243BDE8FF9F6FEA0B01DC
:10547000F4E7CBF10000DEE7074612E0F80707D0BB
:105480002246334640464946FBF7D3F880468946D4
:105490002246334610461946FBF7CBF804460E4623
:1054A0007F10002FEAD1DDE90201BAF1000F424678
:1054B0004B4602DAFBF7BDF801E0FBF72CF9044696
:1054C0000E460022284BFBF7ADF903D84FF0FF3012
:1054D000014607E00022254B20463146FBF702F843
:1054E000FBF788F9102409E0002C0ADB0A220023CC
:1054F000FAF790FF019B30321A55641E50EA010200
:10550000F2D1641C019AC4F1110314440F9A012AC8
:1055100003D0012208430DD10AE0084304D0002043
:105520004FF0110B0F9080E7A3EB0B056D1E0DE004
:105530005B4504DD4FF0000205F1010504E003DAEC
:105540004FF00002A5F10105002AECD000980F9958
:10555000C0E90231C0E9004586E7000000002440B0
:105560000000F03F300000000000F0430000E03F8A
:105570002DE9FF4F95B09B468946064600250FE270
:10558000252877D100242746F84A0121059400E018
:10559000044316F8013F203B01FA03F01042F7D113
:1055A00030782A2811D06FF02F033078A0F1300224
:1055B000092A16D8059A44F0020402EB820203EB92
:1055C00042021044761C0590EFE759F8042B05922F
:1055D000002A03DA504244F40054059044F00204D7
:1055E000761C30782E2816D116F8010F44F00404EA
:1055F0002A280DD06FF02F023078A0F13003092B4C
:1056000009D807EB870302EB4303C718761CF3E7BF
:1056100059F8047B761C30786C280FD006DC4C28B7
:1056200017D068280DD06A2814D104E0742810D04F
:105630007A280FD10DE044F400140AE044F48014F9
:1056400001E044F440147278824202D104F58014DF
:10565000761C761C307866280BD013DC582877D05F
:1056600009DC002875D04528F6D04628F4D0472814
:105670001AD19DE118E0632835D0642879D06528D7
:1056800012D195E1702873D008DC6728F1D0692821
:105690006FD06E280DD06F2806D1B5E073282CD0BE
:1056A000752875D0782874D05A46179990476D1C84
:1056B00075E1C4F30250022809D003280DD0D9F8AF
:1056C000001004280DD00D6009F1040967E1D9F834
:1056D0000010EA17C1E90052F6E7D9F800100D8072
:1056E000F2E70D70F0E719F8041B8DF800100020A8
:1056F0008DF80100EA46012003E059F804AB4FF0B1
:10570000FF3061074FF0000102D40DE008F1010104
:105710008846B9420FDA8045F8DB1AF808100029EC
:10572000F4D108E008F1010188468142FADB1AF859
:1057300008100029F6D105985B46A0EB0807214622
:105740003846179A00F094FA284400EB080507E061
:105750004DE029E10DE01AF8010B5A4617999047E0
:10576000B8F10108F7D25B4621463846179A13E193
:1057700042E00A220092C4F302524FF0000A022AC9
:1057800008D059F804CB032A4FEAEC710AD00DE097
:1057900029E02AE009F1070121F00702F2E802C13D
:1057A000914609E00FFA8CFC4FEAEC71042A03D110
:1057B0004FFA8CFC4FEAEC71002907DA0A46002107
:1057C000DCF1000C61EB02012D2202E0220504D580
:1057D0002B228DF80420012203E0E20701D02022D1
:1057E000F7E7904659E00A2102E010220DE010216F
:1057F0004FF0000A00910BE010224FF0000A44F035
:1058000004040827009203E008224FF0000A0092E7
:10581000C4F30252022A05D059F804CB0021032A0E
:1058200008D009E009F1070121F00702F2E802C1FE
:10583000914605E01FFA8CFC042A01D10CF0FF0C04
:105840004FF00008220728D5702806D0009B83F06F
:10585000100353EA0A0305D00EE040228DF804201D
:10586000012208E05CEA010206D030228DF8042013
:105870008DF8050002229046009B83F0080353EA4E
:105880000A030AD15CEA010201D1620705D5302280
:105890008DF804204FF001087F1E582804D034A052
:1058A00003900EA802900DE036A0F9E7534660463B
:1058B000009AFAF7AFFD84460398825C0298401E76
:1058C000029002705CEA0100F0D1029806A9081A61
:1058D00000F1200A600702D524F4803400E001279B
:1058E000574502DDA7EB0A0000E0002000EB0A01AB
:1058F000009005984144401A0590E00306D45B46A9
:105900002146179A059800F0B3F90544002706E0F0
:1059100001A85A46C05D179990476D1C7F1C4745EA
:10592000F6DBE0030CD55B462146179A059800F09C
:105930009FF9054404E030205A46179990476D1CA2
:105940000099481E00900029F5DC08E002980299B1
:105950005A460078491C0291179990476D1CBAF17C
:105960000001AAF1010AF1DC65E10000092801004B
:1059700030313233343536373839616263646566C5
:105980000000000030313233343536373839414287
:10599000434445460000000000F058F90544761CD9
:1059A000307800287FF4ECAD19B02846BDE8F08FC0
:1059B000620700D4062709F1070222F0070CFCE871
:1059C0000223E14603F000485FEA080C02D00FF220
:1059D000702C0DE05FEA045C02D50FF2682C07E042
:1059E0005FEAC47C02D00FF2602C01E0AFF2700CD1
:1059F0004FF0FF3823F00043CDF850C065280CD09D
:105A000006DC452809D046281DD047283DD13DE079
:105A1000662818D067287ED138E00021112F01DBDD
:105A2000112000E0781CCDE9000106A90EA8FFF7BF
:105A3000EDFCDDE90F010E9A03910021009207F1C0
:105A4000010A04914DE04FF000400097CDE90110AC
:105A500006A90EA8FFF7DAFCDDE90F0203920E9B00
:105A600011990022DDF80CA00093049211B9791C61
:105A700000EB010AB7EB0A0004D4C0F1FF3007F1D4
:105A8000010A0490AAEB0700019044E0012F00DA1C
:105A900001270021112F01DD112000E03846CDE95A
:105AA000000106A90EA8FFF7B1FCDDE90F010E9A6F
:105AB0000391002104910092BA4621070CD4039966
:105AC000514500DA8A46BAF1010F05DD009AAAF1C4
:105AD0000101515C302908D0B84202DA10F1040FFC
