:020000040800F2
:1000000070370020E10100085F230008CF0D0008D1
:100010005B2300088B090008872B00080000000004
:10002000000000000000000000000000490100087E
:10003000AD090008000000008D01000849260008F5
:10004000FB010008FB010008FB010008FB010008A0
:10005000FB010008FB010008FB010008FB01000890
:10006000FB010008FB010008FB010008FB01000880
:10007000FB010008FB010008FB010008FB01000870
:10008000FB010008FB010008FB010008FB01000860
:10009000FB010008FB010008FB010008B109000892
:1000A000FB010008FB010008FB010008FB01000840
:1000B000FB010008B9260008FB010008FB0100084D
:1000C000FB010008FB010008FB010008FB01000820
:1000D000FB0100084528000849280008DD28000821
:1000E000FB010008FB010008FB010008FB01000800
:1000F000FB010008FB010008FB010008FB010008F0
:10010000FB010008FB010008FB010008FB010008DF
:10011000FB010008FB010008FB010008FB010008CF
:10012000FB010008FB010008FB010008FB010008BF
:10013000DFF80CD000F05EFB00480047595600087D
:100140007037002070470000224B19680868B0E83B
:10015000F00F80F30988BFF36F8F4FF0000080F33A
:1001600011884EF00D0E7047000000000648006830
:10017000006880F3088862B661B6BFF34F8FBFF3A3
:100180006F8F00DF00BF00BF08ED00E0EFF30980D4
:10019000BFF36F8F0F4B1A6820E9F00F106008B59E
:1001A0004FF0BF0080F31188BFF34F8FBFF36F8F05
:1001B00006F084FB4FF0000080F31188BDE8084092
:1001C00019680868B0E8F00F80F30988BFF36F8FF3
:1001D000704700BF40000020EFF30580704700002B
:1001E0000648804706480047FEE7FEE7FEE7FEE7D1
:1001F000FEE7FEE7FEE7FEE7FEE7FEE7592600081A
:100200003101000840EA01039B0703D009E008C957
:10021000121F08C0042AFAD203E011F8013B00F8CB
:10022000013B521EF9D27047D2B201E000F8012B17
:10023000491EFBD270470022F6E710B513460A4666
:1002400004461946FFF7F0FF204610BD30B50546BD
:100250002A460B4612F8010B13F8014B08B1A042D5
:10026000F8D01CB1002802D06D1CF1E7284630BD43
:1002700010B5044604E00B7800F8013B03B1491CBB
:10028000521EF8D2204610BD421C10F8011B002956
:10029000FBD1801A704710B5044600E0401C03787B
:1002A000002BFBD100E0401C521E04D311F8013B8F
:1002B0000370002BF7D100210170204610BD30B52E
:1002C00005460020034600E05B1C934205D2EC5C2F
:1002D000C85C201A01D1002CF6D130BD30B480EAC0
:1002E000010202F0004530F0004221F0004013D03E
:1002F00090B1C30DD40DC2F31601C0F31600E41A79
:1003000041F4000140F400027D34914201D3641CA9
:1003100000E04900002C02DA30BC002070474FF4A6
:1003200000000023914201D3891A034340084FEA99
:100330004101F7D151B1914202D14FF0004105E0A6
:1003400002D24FF0010101E06FF0010103EBC45054
:10035000284430BC00F05FB896230022114600F01C
:1003600063B800F0004230F000400AD0C10D01F542
:100370006071C0F3160042EA0151C2084007114300
:10038000704700200146704730B50B4601460020FB
:100390002022012409E021FA02F59D4205D303FA47
:1003A00002F5491B04FA02F52844151EA2F10102C8
:1003B000F1DC30BD2DE9F05F0546002092469B46FA
:1003C00088460646814640241BE02846414647466B
:1003D000224600F030FA53465A46C01A914110D3D3
:1003E00011461846224600F017FA2D1A67EB01084D
:1003F0004F4622460120002100F00EFA17EB0009BB
:100400004E41201EA4F10104DFDC484631462A4655
:100410004346BDE8F09F0029A8BF7047401C490033
:1004200008BF20F00100704710B4B0FA80FC00FA59
:100430000CF050EA010404BF10BC704749B1CCF184
:10044000200421FA04F411FA0CF118BF0121214310
:100450000843A3EB0C01CB1D4FEA00614FEA1020CB
:1004600042BF002010BC704700EBC350104400296D
:10047000A4BF10BC7047401C490008BF20F0010019
:1004800010BC70472DE9FE4F804681EA0300C00F83
:100490000C46009021F0004123F00045B8EB02002B
:1004A000A94105D24046214690461C460B460246CD
:1004B00023F00040104347D0270DC7F30A00C3F3D1
:1004C0000A510290401A019040286BDAC3F31300DE
:1004D00040F4801B0098924620B10023D2EB030A1F
:1004E00063EB0B0B01985946C0F14002504600F0F7
:1004F00093F906460D4650465946019A00F0ABF96D
:1005000010EB08006141002487EA115284EAE77386
:100510001A4340D0009A62B3019A012A4FEA075267
:1005200015DC001B61EB02014FF0004202EA0752AA
:10053000CDE90042001C41F5801132462B4600F007
:10054000ABF903B0BDE8F08F40462146F9E7001B48
:1005500061EB0201001C41F5801300185B4120187B
:10056000A2F5001747EB030140EAD570B6196D41BB
:1005700011E06D084FEA360645EAC0754FEA0752AA
:10058000001B61EB0201001C41F5801149084FEA94
:1005900030000019514132462B4603B0BDE8F04F00
:1005A00000F06BB90098012240000023D0EB02025A
:1005B00063EBE073009821464FEAE074B8EB00006B
:1005C00061EB0401E9E783F000435BE781F0004160
:1005D00058E72DE9FE4F81EA030404F0004421F0BE
:1005E000004100944FF0000B23F0004350EA010457
:1005F0005ED052EA03045BD0C3F30A54C1F30A5538
:100600002C44A4F2F3340194A0FB0254C1F313016F
:1006100041F48011C3F3130343F4801301FB02443C
:1006200000FB034E840A970A44EA815447EA835741
:10063000A4FB076802958D0A05FB07854FEA932CFA
:1006400004FB0C542705029D4FEA065847EA16376B
:10065000B5EB08056EEB070C870E920E47EA811783
:1006600042EA8312A7FB0201B6EB0B0164EB000424
:100670002B0D43EA0C335E1844EB1C50DA4651460E
:10068000E7FB0201C5F313044FEA0B3343EA1453AB
:100690004FEA0432019C43EA0603A4F10C040294DD
:1006A000009CCDE900B400F0F7F803B0BDE8F08F8E
:1006B00000200146F9E72DE9F04D81EA030404F03A
:1006C000004B21F0004514464FF0000A23F0004192
:1006D00050EA050220D054EA01021DD0C5F30A57A2
:1006E0000246C5F31303C1F31300C1F30A5640F4E5
:1006F000801543F48013A7EB0608101BD64608F2BA
:10070000FD3873EB050002D308F1010801E09218EF
:100710005B41B8F1000F03DA00200146BDE8F08D1F
:1007200000204FF48011064684460EE0171B73EB41
:10073000050705D3121B63EB050306434CEA010CC6
:1007400049084FEA300092185B4150EA0107EDD1A9
:1007500052EA030012D082EA040083EA050108434A
:1007600005D0101BAB4106D20122002306E0002277
:100770004FF0004302E06FF0010253101AEB060045
:100780004CEB085110EB0A0041EB0B01BDE8F04DBA
:1007900000F073B8C1F30A52C1F3130140F2FF3302
:1007A00041F480119A4202DA00200146704740F27B
:1007B00033439A42A2F2334202DC524200F03BB889
:1007C00000F02AB830B5041E71F1000404DB4FF0CC
:1007D0000044404264EB0101141E73F1000405DB88
:1007E0001C464FF00043524263EB0403994208BF9A
:1007F000904230BD064C074D06E0E06840F0010332
:1008000094E8070098471034AC42F6D3FFF794FC05
:100810004820010868200108202A04DB203A00FA59
:1008200002F1002070479140C2F1200320FA03F347
:10083000194390407047202A04DB203A21FA02F045
:100840000021704721FA02F3D040C2F1200291400A
:10085000084319467047202A06DBCB17203A41FA95
:1008600002F043EAE07306E041FA02F3D040C2F13D
:100870002002914008431946704710B5141E73F1C9
:10088000000408DA401C41F1000192185B411A4350
:1008900001D120F0010010BD2DE9F04D92469B469C
:1008A00011B1B1FA81F202E0B0FA80F22032904642
:1008B000FFF7B2FF04460F4640EA0A0041EA0B0187
:1008C00053465A46084313D0114653EA010019D043
:1008D000C8F140025046FFF7AEFF05460E465046AF
:1008E00059464246FFF798FF084305D0012004E02F
:1008F00020463946BDE8F08D0020054346EAE07603
:100900002C4337430A986305E40AA0EB0800002251
:10091000FD0A44EA47540A3002D500200146E9E7BF
:10092000010510196941DDE9084500196941BDE873
:10093000F04DA2E770B58C1810F8015B15F00703B5
:1009400001D110F8013B2A1106D110F8012B03E068
:1009500010F8016B01F8016B5B1EF9D12B0705D470
:100960000023521E0DD401F8013BFAE710F8013BB9
:10097000CB1A921C03E013F8015B01F8015B521ED5
:10098000F9D5A142D8D3002070BD00BFFEE700001A
:1009900010B50021044A11605160472140F2E73050
:1009A00001F0A4FE10BD0000B80000207047000058
:1009B00008B5202000F048F800B908BD164917A076
:1009C00002F038F90A2004F011FE18480068E8B96E
:1009D00017480078042806D1002015490870042023
:1009E0001449087008E0124800781249087010484D
:1009F0000078401C0E49087000BF0C4800680028B1
:100A0000FBD169460C48006805F098FE202000F0F4
:100A100015F800BFD1E70000801E01082573284BA0
:100A200045593020446F776E290D0A001401224287
:100A30002800002029000020200000200149086033
:100A40007047000014040140014600200022074BBB
:100A50001B6803EA0102054B14331B680B4013B1FA
:100A60000AB1012000E000207047000000040140AE
:100A7000002123498279002A3AD00A461268036885
:100A80009A430B461A600A1D126803689A430B1DAD
:100A90001A60027911440A6803681A430A60184A06
:100AA0000832126803689A43154B08331A601A1DFE
:100AB000126803689A43124B0C331A604279102A69
:100AC0000ED11A1F126803681A430D4B08331A60BF
:100AD0001A1D126803681A43094B0C331A600DE0A3
:100AE0000749427911440A6803681A430A6005E01D
:100AF000027911440A6803689A430A60704700004B
:100B00000004014030B50346002400200025156094
:100B100022E000E05B1C1D7815B11D78202DF9D175
:100B200000E05B1C1D7815B11D78202DF9D01D78D3
:100B30008DB1641C8C420FD1184603E015686D1C02
:100B400015605B1C1D7815B11D78202DF6D1156838
:100B500005B9002002E001E08C42DAD300BF30BDCD
:100B60002DE9F0470446884691460126207810B9C1
:100B70000020BDE8F0872E48006898BB2D482C491E
:100B800008602AE02A480068006807683846FFF7CE
:100B90007BFB0546605D202801D0605DC0B92A4618
:100BA00039462046FFF78BFB90B921480068006862
:100BB00090F90C0000280ADB204604F0F3FF1C49E2
:100BC0000968096891F90C10884200D0002608E0F5
:100BD00017480068406816490860154800680028F2
:100BE000D0D100BF1248006848B146B94A46124900
:100BF0004046FFF73DFB00200D49086016E00C4819
:100C0000006868B10A48006800682246494683685F
:100C10004046984706464EB900200549086005E061
:100C20004A4606494046FFF723FB00263046A0E728
:100C3000D0000020C4000020941E0108EC1E010812
:100C400070B505460026082005F046FB044664B151
:100C500005F054FC25600020606005480068446091
:100C60000348046005F05CFC0126304670BD0000BE
:100C7000CC00002030B500228B071C0F0F2303FA95
:100C800004F20B4B8C1053F824309343084C8D1016
:100C900044F8253023468C1053F824308C07240F59
:100CA00000FA04F42343024C8D1044F8253030BD83
:100CB000080001402DE9F0410246002500260020F1
:100CC00000230024002791F803C00CF00F0591F8D1
:100CD00003C00CF0100CBCF1000F03D091F802C05F
:100CE0004CEA050591F800C0BCF1000F31D0146842
:100CF00000202BE04FF0010C0CFA00F3B1F800C01B
:100D00000CEA03069E4220D183004FF00F0C0CFA30
:100D100003F7BC4305FA03FC4CEA040491F803C052
:100D2000BCF1280F06D14FF0010C0CFA00FCC2F800
:100D300014C00AE091F803C0BCF1480F05D14FF090
:100D4000010C0CFA00FCC2F810C0401C0828D1D3DA
:100D50001460B1F800C0BCF1FF0F34DD546800200E
:100D60002EE000F1080C4FF0010808FA0CF3B1F87E
:100D700000C00CEA03069E4221D183004FF00F0C05
:100D80000CFA03F7BC4305FA03FC4CEA040491F89F
:100D900003C0BCF1280F05D100F1080C08FA0CF8CB
:100DA000C2F8148091F803C0BCF1480F07D100F1DC
:100DB000080C4FF0010808FA0CF8C2F81080401C2B
:100DC0000828CED35460BDE8F0810161704710B5AA
:100DD000FFF7B8F910BD000070B5044600250021EA
:100DE000084600F0B1FC01F0B3FA00BF1BE001209F
:100DF0000F49086000200F49C1F8A4010E480460A3
:100E000000200B49091F08600120086020020A49E0
:100E1000086000200649091F086001200860044995
:100E2000091D08606D1CB5F5963FE0D370BD00004C
:100E3000A0012242000022420C0C01402DE9FF4F8C
:100E400085B081468A460020049003900798A0EB65
:100E500009050898A0EB0A06CDF80890CDF804A083
:100E6000002D01DD012705E00DB9002702E04FF05C
:100E7000FF376D42002E02DD4FF0010806E016B983
:100E80004FF0000802E04FF0FF387642B54201DD36
:100E90002C4600E034464FF0000B21E0019A91B25D
:100EA000029A90B200F022F8049828440490039823
:100EB000304403900498A04205DD0498001B049080
:100EC0000298384402900398A04205DD0398001B65
:100ED00003900198404401900BF101001FFA80FB40
:100EE000601C8345DADD09B0BDE8F08F70B50446BB
:100EF0000D462946204600F027FC01F029FA012082
:100F00001049086000201049C1F8A4010F4800886A
:100F10000F49086000200B49091F086001200A4999
:100F2000C1F89C01094800880002094908600020B6
:100F30000449091F0860012008600249091D086072
:100F400070BD0000A001224200002242B40800202F
:100F50000C0C01402DE9F05F04460F46904699467F
:100F6000DDF828A04FF0000BA8EB0400401C1FFA8E
:100F700080FB3D462BE0002625E0A11988B22946DA
:100F800000F0E2FB01F0E4F90120134908600020C1
:100F90001249C1F8A4011248C0F800A000200E496F
:100FA000091F0860012008604FEA0A200C49086008
:100FB00000200949091F0860012008600649091D31
:100FC0000860701C86B25E45D7DB681C85B24D4553
:100FD000D1DDBDE8F09F0000A001224200002242C6
:100FE0000C0C014008B50121192001F01BFA4FF447
:100FF000FA60ADF8000010208DF8030003208DF892
:10100000020069460A48FFF755FE4FF4FA610848A6
:10101000FFF7DBFE4FF47F40ADF80000694605485E
:10102000FFF748FE4FF47F410248FFF7CEFE08BDB0
:1010300000100140000C014010B5FFF7D3FF012064
:10104000FE49086000F068FB112001F067F9782084
:1010500004F0CCFA362001F061F90120F849C1F81A
:10106000A0010020F5490C310860F6490860F349F9
:10107000091D086001200860F149C1F8A4013A2067
:1010800001F04CF90120ED49083108600020091DEC
:1010900008604FF4A060EB4908600020E749091D93
:1010A000086001200860E649C1F8A401B22001F0FF
:1010B00035F90120E149083108600020091D086068
:1010C0004FF44060DF4908600020DC49091D0860DA
:1010D00001200860D9490C310860091F0860002010
:1010E000091D08604FF44060D64908600020D349CC
:1010F000091D086001200860D0490C310860091FF3
:1011000008600020091D0860CE490860CB49091D10
:10111000086001200860C9490C310860091F086097
:101120000020091D08604FF44C50C649086000209B
:10113000C249091D086001200860C0490C310860DF
:10114000091F08600020091D08604FF44C50BD497C
:1011500008600020B949091D086001200860B849ED
:10116000C1F8A401B72001F0D9F80120B349083132
:1011700008600020091D08604FF45450B149086010
:101180000020AE49091D086001200860AC49C1F883
:10119000A401BB2001F0C2F80120A8490831086071
:1011A0000020091D08604FF46060A6490860002017
:1011B000A249091D086001200860A149C1F8A401E5
:1011C000C02001F0ABF801209C49083108600020E4
:1011D000091D08604FF430509A4908600020974973
:1011E000091D0860012008609549C1F8A401C220CA
:1011F00001F094F801209149083108600020091D90
:1012000008604FF480708F49086000208B49091DE9
:101210000860012008608A49C1F8A401C32001F0D8
:101220007DF801208549083108600020091D08600B
:101230004FF490508349086000208049091D0860E0
:10124000012008607E49C1F8A401C42001F066F8BD
:1012500001207A49083108600020091D08604FF418
:1012600000507849086000207449091D0860012079
:1012700008607349C1F8A401C62001F04FF80120AD
:101280006E49083108600020091D08604FF4706045
:101290006C49086000206949091D08600120086048
:1012A0006749C1F8A401D02001F038F80120634952
:1012B000083108600020091D08604FF4244061498E
:1012C000086000205D49091D0860012008605B4935
:1012D0000C310860091F08600020091D08604FF4E8
:1012E00021405849086000205449091D0860012028
:1012F00008605349C1F8A401E02001F00FF8012073
:101300004E49083108600020091D08604FF4504024
:101310004C49086000204949091D08600120086007
:1013200046490C310860091F08600020091D08604B
:10133000444908604149091D0860012008603F498F
:101340000C310860091F08600020091D08604FF477
:10135000A0603C49086000203849091D0860012050
:10136000086036490C310860091F086000203449C4
:10137000C1F8A4014FF450603249086000202F49A1
:10138000091D086001202E49C1F89C012B490C3130
:101390000860091F08600020091D08604FF4706094
:1013A0002849086000202549091D086001200860BF
:1013B00022490C310860091F08600020091D0860DF
:1013C0004FF42C501F49086000201C49091D08607B
:1013D0000120086019490C310860091F08600020CD
:1013E000091D08604FF46C5016490860002013492D
:1013F000091D08600120086010490C310860091FB0
:1014000008600020091D08604FF488400D490860FD
:1014100000200A49091D08600120086007490C31B5
:101420000860091F08600020091D08604FF49440FF
:101430000449086000200149091D05E09801224285
:10144000000022420C0C0140086001200860AF49F6
:101450000860091F08600020091D08604FF4C05093
:10146000AB4908600020A9490839086001200860DC
:10147000A6490860091F08600020091D08604FF494
:101480007060A34908600020A04908390860012065
:1014900008609E490860091F08600020091D086057
:1014A0004FF430609A490860002098490839086074
:1014B0000120086095490860091F08600020091D87
:1014C00008604FF4F8509249086000208F490839AD
:1014D0000860012008608D490860091F086000202D
:1014E000091D08604FF408508949086000208749A9
:1014F00008390860012008608649C1F8A401E1208C
:1015000000F00CFF01208149091F08600020091D1F
:1015100008604FF450407E49086000207B4908393C
:1015200008600120086079490860091F08600020F0
:10153000091D08607649086074490839086001206F
:10154000086072490860091F08600020091D0860D2
:101550004FF4A0606E49086000206C4908390860AB
:101560000120086069490860091F08600020091D02
:1015700008604FF4506066490860002063490839EC
:1015800008600120086061490860091F08600020A8
:10159000091D08604FF480505D49086000205B49D8
:1015A000083908600120086058490860091F086070
:1015B0000020091D08604FF42C5055490860002098
:1015C0005249083908600120086050490860091F25
:1015D00008600020091D08604FF474504C490860F1
:1015E00000204A490839086001200860474908601E
:1015F000091F08600020091D08604FF4A8404449F5
:1016000008600020414908390860012008603F490E
:101610000860091F08600020091D08604FF4A04001
:101620003B490860002039490839086001200860FA
:1016300036490860091F08600020091D08604FF442
:101640003C503349086000203049083908600120C7
:1016500008602E490860091F08600020091D086005
:101660004FF4F8502A49086000202A49C1F89C012B
:1016700001202649083908602649C1F8A4012349F8
:10168000091F08600020091D08604FF4F850204928
:10169000086000201D4908390860012008601B49C6
:1016A0000860091F08600020091D08604FF4F85009
:1016B00017490860002015490839086001200860B2
:1016C00012490860091F08600020091D08604FF4D6
:1016D0000C500F49086000200C49083908600120AF
:1016E00008600A490860292000F018FE2C2000F04C
:1016F00015FE142003F07AFF4FF6FF70FFF76CFB26
:1017000001200449C1F8A80110BD0000A401224233
:101710000C0C01400000224210B50120084908606D
:1017200003F064FF00200749C1F89001142003F082
:101730005DFF012002490860142003F057FF10BD2F
:10174000900122420000224210B504460B462A2096
:1017500000F0E4FD01202649086000202549C1F879
:10176000A401201200022449086000202049091F1A
:101770000860012008601E49091D0860091F0860F3
:101780000020091D086020021B490860002018493C
:10179000091F0860012008601649C1F8A4012B2028
:1017A00000F0BCFD01201249086000201149C1F879
:1017B000A401181200021049086000200C49091FFA
:1017C0000860012008600A49091D0860091F0860B7
:1017D0000020091D0860180207490860002004491C
:1017E000091F0860012008600249C1F8A40110BD6A
:1017F000A0012242000022420C0C01402DE9F84FCA
:1018000081468A4617461C46CB46694800880090A8
:10181000B9F1E80F02DCBAF59C7F01DDBDE8F88F75
:10182000A7F12000C7B20A9800287DD1002583E0E7
:101830000C2C2AD107EB47005E4901EB800010F821
:101840000580002616E008F0010018B158490098FC
:10185000088003E0584800885549088051464846AA
:10186000FFF744FB4FEA680809F101001FFA80F90D
:10187000701CC6B204EBD471B6EB610FE3DBD94642
:101880000AF101001FFA80FA54E0102C28D14B48CD
:1018900000EB071010F80580002616E008F00100A4
:1018A00018B143490098088003E043480088404944
:1018B000088051464846FFF719FB4FEA680809F1CE
:1018C00001001FFA80F9701CC6B204EBD471B6EBAC
:1018D000610FE3DBD9460AF101001FFA80FA29E023
:1018E000374800EBC71010F80580002616E008F016
:1018F000010018B12E490098088003E02E480088A6
:101900002B49088051464846FFF7F0FA4FEA68082D
:1019100009F101001FFA80F9701CC6B204EBD47102
:10192000B6EB610FE3DB00E00AE0D9460AF1010003
:101930001FFA80FA681CC5B2A542FFF679AF32E003
:1019400000252EE00C2C07D107EB4700194901EBCD
:10195000800010F805800CE0102C05D1174800EB32
:10196000071010F8058004E0154800EBC71010F8C8
:10197000058000260EE008F0010038B10AEB0502F0
:1019800091B209EB060290B2FFF7B0FA4FEA68088D
:10199000701CC6B204EBD471B6EB610FEBDB681CB4
:1019A000C5B2A542CEDB02490098088000BF35E7EA
:1019B000B408002014750008B608002088790008D3
:1019C000787F00082DE9FF4F81B006468A460E9DBC
:1019D000B346CDF800A00398002873D104981028CE
:1019E00073D0182870D169E0002460E004EB041083
:1019F00000EB8000FD49085C2978884255D104EB52
:101A0000041000EB8000F949084440786978884266
:101A10004BD104EB041000EB8000F44908448078BB
:101A2000A978884241D100273DE004EB041000EB87
:101A30008000EE490844001D10F807904FF00008A0
:101A40002CE009F08000802807D1E9490F98088030
:101A500051463046FFF74AFA06E0E54910980880FB
:101A600051463046FFF742FA4FF6FF7000EA490947
:101A7000701C86B2A6EB0B0018280BD15E460AF14B
:101A800001001FFA80FA0098AAEB00001B2801D180
:101A9000DDF800A008F1010000F0FF08B8F1080F20
:101AA000CFDB781CC7B2512FBFDB601CC4B20C2C3B
:101AB0009CDBED1C06F1180086B2B346287800289E
:101AC00092D16EE06EE000E06AE065E000245CE048
:101AD00004EB8400C74911F830002978884252D1BC
:101AE00004EB8400C34901EBC00040786978884268
:101AF00049D104EB8400BF4901EBC0008078A9788C
:101B0000884240D100273CE004EB8400B94901EB56
:101B1000C000001D10F807904FF000082CE009F0FD
:101B20008000802807D1B2490F980880514630467E
:101B3000FFF7DCF906E0AE491098088051463046C0
:101B4000FFF7D4F94FF6FF7000EA4909701C86B21E
:101B5000A6EB0B0010280BD15E460AF101001FFA1C
:101B600080FA0098AAEB0000122801D1DDF800A04D
:101B700008F1010000F0FF08B8F1080FCFDB781C76
:101B8000C7B2242FC0DB601CC4B2312CA0DBED1C1B
:101B900006F1100086B2B3462878002896D100E0FE
:101BA00000BF72E10398022877D10498102877D0FB
:101BB000182874D16DE0002464E004EB440000EBCD
:101BC00004108D4911F820002978884258D104EB7F
:101BD000440000EB0410884901EB800040786978EC
:101BE00088424DD104EB440000EB0410824901EB24
:101BF00080008078A978884242D100273EE004EB3B
:101C0000440000EB04107C4901EB8000001D10F83B
:101C100007904FF000082CE009F08000802807D1E1
:101C200073490F98088051463046FFF75FF906E088
:101C30006F491098088051463046FFF757F94FF624
:101C4000FF7000EA4909701C86B2A6EB0B00182849
:101C50000BD15E460AF101001FFA80FA0098AAEB48
:101C60000000182801D1DDF800A008F1010000F003
:101C7000FF08B8F1080FCFDB781CC7B2482FBEDBD6
:101C8000601CC4B2062C98DBED1C06F1180086B26D
:101C9000B346287800288ED16EE06EE000E06AE05E
:101CA00065E000245CE004EBC400544911F8200016
:101CB0002978884252D104EBC400504901EB8000DE
:101CC00040786978884249D104EBC4004B4901EB64
:101CD00080008078A978884240D100273CE004EB5E
:101CE000C400464901EB8000001D10F807904FF03A
:101CF00000082CE009F08000802807D13C490F98AB
:101D0000088051463046FFF7F1F806E03849109850
:101D1000088051463046FFF7E9F84FF6FF7000EAB9
:101D20004909701C86B2A6EB0B0010280BD15E4649
:101D30000AF101001FFA80FA0098AAEB00001028AF
:101D400001D1DDF800A008F1010000F0FF08B8F1B2
:101D5000080FCFDB781CC7B2202FC0DB601CC4B2D9
:101D6000242CA0DBED1C06F1100086B2B3462878C7
:101D7000002896D100E000BF87E0039801287DD1BC
:101D8000049810287AD17CE0002471E0C4EBC400F0
:101D900000EB04101A4911F810002978884265D127
:101DA000C4EBC40000EB0410154901EB400040787F
:101DB000697888425AD1C4EBC40000EB0410104982
:101DC00001EB40008078A97888424FD100274BE092
:101DD000C4EBC40000EB0410094901EB4000001DF6
:101DE00010F807904FF0000839E00000E8BD000847
:101DF000B40800200C010020F8AE0008C0B00008B4
:101E0000E4C1000809F08000802807D120490F981C
:101E1000088051463046FFF769F806E01C491098E3
:101E2000088051463046FFF761F84FF6FF7000EA30
:101E30004909701C86B2A6EB0B0010280BD15E4638
:101E40000AF101001FFA80FA0098AAEB0000152899
:101E500001D1DDF800A008F1010000F0FF08B8F1A1
:101E6000080FCFDB781CC7B22A2FB1DB601CC4B2CD
:101E7000122C8BDBED1C06F1100000E005E086B2B1
:101E8000B346287800287FF47FAF05B0BDE8F08F17
:101E9000B40800202DE9FF4F81B004460D461646D8
:101EA000A34600955AE00498182857D100274EE021
:101EB00007EB870000EB47102B4911F81000317831
:101EC000884242D14FF000083CE007EB870000EB6E
:101ED0004710254901EB4000801C10F808A04FF086
:101EE000000928E00AF08000802807D11F490E98D9
:101EF000088029462046FEF7F9FF06E01B490F98A7
:101F0000088029462046FEF7F1FF4FF6FF7000EAF1
:101F10004A0A601C84B2A4EB0B00182807D15C4667
:101F2000681C85B20098281A182800D1009D09F174
:101F3000010000F0FF09B9F1080FD3DB08F101003F
:101F400000F0FF08B8F1480FBFDB781CC7B21D2FA7
:101F5000AEDB761C04F1100084B2A3463078002872
:101F6000A1D105B0BDE8F08FD0B50008B4080020BD
:101F70002DE9FF4F81B005460F461646AB46009748
:101F8000DEE0049818286AD1002460E004EB041015
:101F900000EB80006E49085C3178884255D104EB33
:101FA000041000EB80006A49084440787178884248
:101FB0004BD104EB041000EB8000654908448078A5
:101FC000B178884241D14FF000083BE004EB0410A7
:101FD00000EB80005E490844001D10F808A04FF097
:101FE000000928E00AF08000802807D159490E989E
:101FF000088039462846FEF779FF06E055490F98D4
:10200000088039462846FEF771FF4FF6FF7000EA58
:102010004A0A681C85B2A5EB0B00182807D15D465B
:10202000781C87B20098381A1B2800D1009F09F14C
:10203000010000F0FF09B9F1080FD3DB08F101003E
:1020400000F0FF08B8F1510FC0DB601CC4B20C2CCB
:102050009CDBF61C05F1180085B2AB4670E00498D5
:1020600010286DD1002464E0C4EBC40000EB041020
:10207000394911F810003178884258D1C4EBC400B6
:1020800000EB0410344901EB40004078717888423D
:102090004DD1C4EBC40000EB04102F4901EB40000C
:1020A0008078B178884242D14FF000083CE0C4EB20
:1020B000C40000EB0410284901EB4000001D10F89B
:1020C00008A04FF0000928E00AF08000802807D11E
:1020D00020490E98088039462846FEF707FF06E09B
:1020E0001C490F98088039462846FEF7FFFE4FF638
:1020F000FF7000EA4A0A681C85B2A5EB0B001028A5
:1021000007D15D46781C87B20098381A152800D18F
:10211000009F09F1010000F0FF09B9F1080FD3DBBE
:1021200008F1010000F0FF08B8F12A0FBFDB601CC6
:10213000C4B2122C98DBF61C05F1100085B2AB4638
:10214000307800287FF41DAF05B0BDE8F08F0000A7
:10215000E8BD0008B4080020E4C100082DE9F84FEC
:1021600004460F461546A346009765E000265CE04E
:1021700006EBC600334911F820002978884252D175
:1021800006EBC6002F4901EB800040786978884251
:1021900049D106EBC6002B4901EB80008078A97875
:1021A000884240D14FF000083AE006EBC6002549CE
:1021B00001EB8000001D10F808A04FF0000928E096
:1021C0000AF08000802807D11F490A980880394604
:1021D0002046FEF78BFE06E01B490B980880394627
:1021E0002046FEF783FE4FF6FF7000EA4A0A601CA5
:1021F00084B2A4EB0B00102807D15C46781C87B290
:102200000098381A102800D1009F09F1010000F051
:10221000FF09B9F1080FD3DB08F1010000F0FF0856
:10222000B8F1200FC1DB701CC6B20F2EA0DBED1C75
:1022300004F1100084B2A3462878002896D1BDE8A6
:10224000F88F0000C0B00008B40800202DE9F05F4E
:102250008046894616469A46DDF828B000270024B5
:102260001FE000251AE004FB0650012101EB4000AD
:102270001BF800704FF6FF7000EA072704FB0650BA
:102280001BF8100007430948078009EB040291B2CC
:1022900008EB050290B2FEF729FE6D1CB542E2DBA9
:1022A000641C5445DDDBBDE8F09F0000B40800204D
:1022B000F8B505460E4617461C4629E020780D283D
:1022C00001D1641C24E020780A2805D14B2506F1B1
:1022D000100086B2641C1BE0E82D03DD4B2506F1DF
:1022E000100086B2B6F59C7F00DDF8BD002000909E
:1022F00022783B4631462846FFF780FA0C2F02D160
:10230000A81D85B202E005F1080085B2641C00BF7B
:1023100020780028D2D100BFE7E700000021094A59
:102320001160094AC2F8A4110102084A1160002193
:10233000044A121F116001211160024A121D11602E
:1023400070470000A0012242000022420C0C014014
:1023500000B52C20FFF7E2FF00BD00BFFEE770478D
:1023600070B5002100230F22C47804B3154C2468F3
:1023700004F4E064C4F5E064210AC1F10403CA4036
:10238000447804FA03F184781440214309010E4C87
:102390000678A155047804F01F050124AC400578A7
:1023A0006D11AD0005F1E025C5F8004109E00478A4
:1023B00004F01F050124AC40044D0678761145F861
:1023C000264070BD0CED00E000E400E080E100E09C
:1023D00002490143024A1160704700000000FA05FB
:1023E0000CED00E029B1064AD2690243044BDA61E0
:1023F00004E0034AD2698243014BDA61704700006E
:102400000010024029B1064A12690243044B1A61C6
:1024100004E0034A12698243014B1A6170470000CD
:102420000010024029B1064A92690243044B9A61A6
:1024300004E0034A92698243014B9A6170470000AD
:102440000010024029B1064AD2680243044BDA6008
:1024500004E0034AD2688243014BDA60704700000F
:102460000010024030B500210022002400232D4D31
:102470006D6805F00C0121B1042905D0082923D18C
:1024800005E0294D056022E0274D05601FE0254D40
:102490006D6805F47012234D6D6805F480340225D3
:1024A00005EB92421CB9214D554305600BE01D4DD3
:1024B0006D6805F400351DB11C4D5543056002E003
:1024C000194D5543056002E0174D056000BF00BF80
:1024D000144D6D6805F0F0010909154D6B5C056838
:1024E000DD4045600F4D6D6805F4E061090A104D4F
:1024F0006B5C4568DD4085600A4D6D6805F4605190
:10250000C90A0B4D6B5C4568DD40C560054D6D68C3
:1025100005F44041890B074D6B5CC568B5FBF3F5CD
:10252000056130BD0010024000127A0000093D0034
:10253000000000201000002010B500F001F810BDD0
:102540000CB50020019000903348006840F48030C2
:102550003149086000BF3048006800F40030009046
:102560000198401C0190009818B90198B0F5A06F2F
:10257000F1D12948006800F4003010B1012000902A
:1025800001E0002000900098012843D12348006812
:1025900040F01000214908600846006820F0030060
:1025A00008600846006840F0020008601A48406869
:1025B000194948600846406848600846406840F449
:1025C000806048600846406820F47C1048600846F7
:1025D000406840F4E81048600846006840F08070A9
:1025E000086000BF0C48006800F000700028F9D0B7
:1025F0000948406820F003000749486008464068E1
:1026000040F00200486000BF0348406800F00C0042
:102610000828F9D10CBD0000001002400020024043
:10262000042808D14FF0E021096941F004014FF07E
:10263000E022116107E04FF0E021096921F0040177
:102640004FF0E0221161704710B504F0E9FB01285A
:1026500001D004F0A5F910BD10B51348006840F092
:1026600001001149086008464068104908400E49B9
:102670004860084600680E4908400B490860084653
:10268000006820F4802008600846406820F4FE00BE
:1026900048604FF41F008860FFF74EFF4FF0006066
:1026A0000449086010BD0000001002400000FFF85F
:1026B000FFFFF6FE08ED00E010B50121094800F02B
:1026C00054F8012808D1084802684068521C40F1BB
:1026D000000005490A6048600121024800F036F810
:1026E00010BD000000040040B80000207FB5054682
:1026F0000C4601210220FFF775FEADF80850ADF839
:1027000004400020ADF80A00ADF8060001A90E480B
:1027100000F046F8012211460B4800F037F81D2062
:102720008DF8000001208DF8010000208DF80200D6
:1027300001208DF803006846FFF712FE01210248D0
:1027400000F007F87FBD000000040040CA43028289
:10275000704721B1028842F00102028004E0028841
:102760004FF6FE731A400280704730B502460020D3
:1027700000230024158A05EA0103958905EA01046E
:1027800013B10CB1012000E0002030BD1AB18389E3
:102790000B43838102E083898B4383817047000070
:1027A000002202881D4B98420ED01D4B98420BD040
:1027B000B0F1804F08D01B4B984205D01A4B98427D
:1027C00002D01A4B984204D14FF68F731A404B88AF
:1027D0001A43174B984207D0164B984204D04FF635
:1027E000FF431A40CB881A4302808B8883850B886D
:1027F00003850A4B98420BD0094B984208D00E4BE8
:10280000984205D00D4B984202D00D4B984201D111
:102810000B7A03860123838270470000002C01405D
:10282000003401400004004000080040000C00405B
:1028300000100040001400400040014000440140EE
:10284000004801407047000038B540F225511F484C
:1028500000F0D5F8002836D01C4800F08BF9C4B23F
:102860000D2C01D00A2C09D12146184800F087F917
:1028700069461748006803F061FF38BD082C11D184
:102880002146124800F07BF91248006848B111480F
:102890000068401E0F49086000200F490D4A126869
:1028A0008854EAE70B4800687F280CD22146074885
:1028B00000F065F90848074909684454054800686C
:1028C000401C0449086000BFD7E7000000440040F6
:1028D0001C00002014000020BC08002010B540F2AD
:1028E00025510B4800F08BF880B1094800F042F9FF
:1028F000C4B2084800687F2808D20748054909681B
:10290000445404480068401C0249086010BD00009F
:1029100000480040080100207032002001F40072DD
:10292000B2F5007F00D100BFCA430280704721B1D9
:10293000828942F40052828104E082894DF6FF735D
:102940001A4082817047000010B504462048844236
:1029500009D101218803FFF775FD00214FF4804064
:10296000FFF770FD32E01B48844209D10121480481
:10297000FFF748FD00214FF40030FFF743FD25E04D
:102980001548844209D101218804FFF73BFD00214D
:102990004FF48020FFF736FD18E01048844209D13B
:1029A0000121C804FFF72EFD00214FF40020FFF79E
:1029B00029FD0BE00A48844208D101210805FFF7F0
:1029C00021FD00214FF48010FFF71CFD10BD000019
:1029D000003801400044004000480040004C0040E6
:1029E0000050004002460020B1F5007F00D100BF3A
:1029F00013880B400BB1012000E00020704770B538
:102A00000246002400230025002040F66A16B14249
:102A100000D100BFC1F3421501F01F03012606FAE1
:102A200003F3012D02D19689334006E0022D02D135
:102A3000168A334001E0968A33400C12012606FACA
:102A400004F41688344013B10CB1012000E00020DA
:102A500070BDF0B50346002400260025002040F696
:102A60006A17B94200D100BF1846C1F3421401F001
:102A70001F06012707FA06F5012C01D10C3004E0EE
:102A8000022C01D1103000E014301AB107682F4336
:102A9000076002E00768AF430760F0BD2DE9F0472B
:102AA00086B005460E460024A24600BFA146002778
:102AB000B08900B100BF2F462C8A4CF6FF7004404D
:102AC000F08804432C82AC894EF6F3100440B088A1
:102AD00031890843718908430443AC81AC8A4FF6BD
:102AE000FF400440B0890443AC8201A8FFF7BAFC60
:102AF0001F48874202D1DDF810A001E0DDF80CA0EC
:102B0000A88900F4004040B10AEBCA0000EB0A10AB
:102B100031684900B0FBF1F807E00AEBCA0000EBAE
:102B20000A1031688900B0FBF1F86420B8FBF0F0BE
:102B300004012009642101FB1089A88900F40040E8
:102B400040B1322000EBC900B0FBF1F000F007000B
:102B5000044308E0322000EB09106421B0FBF1F0DF
:102B600000F00F0004432C8106B0BDE8F0870000A0
:102B70000038014001468888C0F308007047C1F35F
:102B800008028280704700BFFEE7000010B50024F5
:102B900006E0054901EB0410FEF752F8601CC4B2D0
:102BA000032CF6D310BD0000D8000020FFF7EEFF85
:102BB00027E04EF66021012003F008FC0446012CBA
:102BC0001FD110A000F036F864211648FDF733FB42
:102BD00000BF642213491448FDF7C2FF054611489F
:102BE000FDF752FB064632460E49104801F0ACFF95
:102BF000002DEED120210C48FDF71DFB00200C49D3
:102C00000860D6E7434C4920436F6D6D616E6420C8
:102C100052656365697665205B43525D5B4C465D3A
:102C20000D0A0000DC080020BC0800200044004021
:102C3000140000200FB410B5C2B04FF4807102A888
:102C4000FDF7F9FA45A80190F92102A8019B449AE1
:102C500001F0F2FF002001900748007840B102A87F
:102C6000FDF712FB0446224602A9044801F06CFF5E
:102C700042B010BC5DF814FBC000002000440040CE
:102C80002DE9F05F05460E46174698464FF00009BD
:102C90004FF0640A80211D48FDF7CDFA00201C4941
:102CA00008602846FDF7F0FA83465A462946194837
:102CB00001F04AFF2A46184918A0FFF7BBFF24E09D
:102CC00009FB0AF0404506D3134918A0FFF7B2FFED
:102CD0000020BDE8F09F002410E004EB840006EB28
:102CE00080010A48FDF7B2FA30B1621C0A4915A00A
:102CF000FFF7A0FF601CECE7601CC4B2BC42ECDB39
:102D0000504602F073FC09F10109D9E77032002046
:102D100008010020004800409872000825732853DD
:102D2000656E642D3E25730D0A000000257328652D
:102D30007865637574652074696D656F7574212994
:102D40000D0A000025732872657475726E3A20258D
:102D500064290D0A000000001CB54FF6FF70FEF755
:102D60003BF836481E231A46052100900846FFF717
:102D70006DFA4FF6FF7040F21941182330A2CDE9E9
:102D8000001006212820FFF7F3F8002030490880C2
:102D90002723EF221946FEF751F840F29E5040F2E9
:102DA0003F134522282100900020FEF7D3F840F27F
:102DB0009E505A2345223C2100900020FEF7CAF87D
:102DC00040F29E504FF6FF71102322A2CDE9001071
:102DD00041210320FFF7CCF840F29E504FF6FF71DF
:102DE000102320A2CDE9001073210320FFF7C0F8C3
:102DF00040F29E504FF6FF7110231EA2CDE9001045
:102E0000A5210320FFF7B4F840F29E504FF6FF7162
:102E100010231CA2CDE90010D7210320FFF7A8F84A
:102E200040F29E504FF6FF7110231AA2CDE9001018
:102E300040F209110320FFF79BF81CBD58C9000898
:102E4000E4B8ADE7A7BBE789A9E88194E7BD9100A5
:102E5000B4080020E8AEBEE5A487E4BFA1E681AFD8
:102E600000000000E7BD91E7BB9CE58F82E695B0CE
:102E700000000000E9A9BBE7BD91E6B58BE8AF957E
:102E800000000000E7BD91E7BB9CE697B6E5BBB646
:102E900000000000E8939DE78999E6A8A1E5BC8FB2
:102EA000000000002DE9F0438BB081460D4628223A
:102EB0001D4901A8FDF7A6F9052629464846FDF754
:102EC000BAF923E0701EC6B24FF4FA63022201A9D8
:102ED00016A0FFF7D5FEC7B2012F13D116A11848CF
:102EE000FDF7B4F9C41D13A12046FDF7AFF98046E4
:102EF000A8EB040221464846FDF7CDF901200BB0AE
:102F0000BDE8F0834FF4FA7002F070FB002ED9DCBC
:102F10002A460CA14846FDF7ABF90C490CA0FFF777
:102F200089FE0020EBE70000C473000841542B4EDB
:102F3000434349440D0A00002B4E434349443A00A1
:102F4000703200204552524F52000000B473000806
:102F5000257328457865204661696C656421290DD3
:102F60000A0000002DE9F0438BB081460D4628226F
:102F70001D4901A8FDF746F9052629464846FDF7F3
:102F80005AF923E0701EC6B24FF4FA63022201A977
:102F900016A0FFF775FEC7B2012F13D116A117486F
:102FA000FDF754F9841C14A12046FDF74FF9804623
:102FB000A8EB040221464846FDF76DF901200BB04D
:102FC000BDE8F0834FF4FA7002F010FB002ED9DC5C
:102FD0002A460BA14846FDF74BF90B490BA0FFF71A
:102FE00029FE0020EBE700003474000841542B4315
:102FF00047534E3D310D0A000D0A0000703200208B
:103000004552524F52000000247400082573284591
:103010007865204661696C656421290D0A0000000D
:103020002DE9F0438BB081460D4628221D4901A8A9
:10303000FDF7E8F8052629464846FDF7FCF823E0A9
:10304000701EC6B24FF4FA63022201A916A0FFF760
:1030500017FEC7B2012F13D116A11748FDF7F6F8D6
:10306000841C14A12046FDF7F1F88046A8EB040269
:1030700021464846FDF70FF901200BB0BDE8F0836B
:103080004FF4FA7002F0B2FA002ED9DC2A460BA1F6
:103090004846FDF7EDF80B490BA0FFF7CBFD0020EC
:1030A000EBE70000FC73000841542B43494D490DE8
:1030B0000A0000000D0A0000703200204552524FF5
:1030C00052000000EC7300082573284578652046FF
:1030D00061696C656421290D0A0000002DE9F04347
:1030E0008BB081460D4628221D4901A8FDF78AF8BC
:1030F000052629464846FDF79EF823E0701EC6B215
:103100004FF4FA63022201A916A0FFF7B9FDC7B276
:10311000012F13D116A11748FDF798F8841C14A1AC
:103120002046FDF793F88046A8EB04022146484666
:10313000FDF7B1F801200BB0BDE8F0834FF4FA7051
:1031400002F054FA002ED9DC2A460BA14846FDF7BE
:103150008FF80B490BA0FFF76DFD0020EBE7000097
:103160004C73000841542B43474D4D0D0A0000009D
:103170000D0A0000703200204552524F52000000EC
:1031800034730008257328457865204661696C65AD
:103190006421290D0A0000002DE9F0438BB081461F
:1031A0000D4628221D4901A8FDF72CF805262946C1
:1031B0004846FDF740F823E0701EC6B24FF4FA63AC
:1031C000022201A916A0FFF75BFDC7B2012F13D1A0
:1031D00015A11648FDF73AF8841C13A12046FDF707
:1031E00035F88046A8EB040221464846FDF753F81F
:1031F00001200BB0BDE8F0834FF4FA7002F0F6F94D
:10320000002ED9DC2A460AA14846FDF731F80A49C2
:103210000AA0FFF70FFD0020EBE700008C73000809
:1032200041542B434D5645520D0A00007032002088
:103230004552524F52000000747300082573284510
:103240007865204661696C656421290D0A000000DB
:103250002DE9F0418AB028222B496846FCF7D2FFBD
:103260000526002548E0701EC6B24FF4FA6302221C
:10327000694626A0FFF704FDC7B2012F38D126A169
:103280002748FCF7E3FF044674B3E41D4FF0000841
:103290001CE02078202801D1641C17E020782D281C
:1032A00003D14FF00108641C10E0207830280BDBBC
:1032B0002078392808DC207805EB850100EB4100F7
:1032C000A0F13005641C00E001E000BFE1E700BFB1
:1032D000B8F1000F02D04FF0FF3000E0012045436D
:1032E00028460AB0BDE8F0810E490FA0FFF7A2FC06
:1032F0004FF4FA7002F07AF9002EB4DC094910A0FC
:10330000FFF798FC0020ECE7A874000841542B4E0E
:1033100042414E443F0D0A002B4E42414E443A007A
:10332000703200209474000825732842414E4420D6
:103330004E6F7420466F756E6421290D0A000000DF
:10334000257328457865204661696C656421290DDF
:103350000A0000002DE9F0438BB081460D4628227B
:103360001D4901A8FCF74EFF052629464846FCF7F3
:1033700062FF23E0701EC6B24FF4FA63022201A975
:1033800016A0FFF77DFCC7B2012F13D116A1174875
:10339000FCF75CFF441C14A12046FCF757FF804655
:1033A000A8EB040221464846FCF775FF01200BB04C
:1033B000BDE8F0834FF4FA7002F018F9002ED9DC62
:1033C0002A460BA14846FCF753FF0B490BA0FFF719
:1033D00031FC0020EBE700006C74000841542B43E3
:1033E0004F50533F0D0A00002200000070320020B1
:1033F0004552524F520000005C7400082573284566
:103400007865204661696C656421290D0A00000019
:103410002DE9F04F8DB083460F46904628228D4906
:1034200003A8FCF7EFFE4FF0050900200090019083
:10343000029041465846FCF7FEFE41463846FCF7EE
:10344000FAFEF2E0A9F1010000F0FF094FF4FA637F
:10345000022203A980A0FFF713FC00F0FF0ABAF1D3
:10346000010F73D17FA18048FCF7F0FE441C7DA1C1
:103470002046FCF7EBFE441C7AA12046FCF7E6FE52
:10348000441C78A12046FCF7E1FE0646032277A102
:103490002046FCF714FF28B90A2275A16846FCF7FC
:1034A000E7FE59E0032274A12046FCF708FF28B983
:1034B0000A2272A16846FCF7DBFE4DE0032270A1F0
:1034C0002046FCF7FCFE28B90A226EA16846FCF7EC
:1034D000CFFE41E003226CA12046FCF7F0FE28B9A4
:1034E0000A226AA16846FCF7C3FE35E0032268A100
:1034F0002046FCF7E4FE28B90A2266A16846FCF7DC
:10350000B7FE29E0032264A12046FCF7D8FE28B9C3
:103510000A2262A16846FCF7ABFE1DE0032261A10E
:103520002046FCF7CCFE28B90A225FA16846FCF7CA
:103530009FFE11E003225EA12046FCF7C0FE30B9D9
:103540000A225CA16846FCF793FE05E069E00722C9
:1035500058A16846FCF78CFEE41C002505E02078A5
:1035600000EB4500A0F13005641CB442F7D36B4674
:103570002A4652A1384601F04BFB3AA12046FCF7FF
:1035800065FE441C4FA12046FCF760FE0646032260
:1035900036A12046FCF793FE28B90A223BA16846D3
:1035A000FCF766FE28E0032233A12046FCF787FEE5
:1035B00028B90A2239A16846FCF75AFE1CE003220A
:1035C0002FA12046FCF77BFE28B90A223EA16846BF
:1035D000FCF74EFE10E0032235A12046FCF76FFEFB
:1035E00028B90A2233A16846FCF742FE04E007220C
:1035F00030A16846FCF73CFE0025E41C05E020787D
:1036000000EB4500A0F13005641CB442F7D36B46D3
:103610002A462AA1584601F0FBFA01200DB0BDE868
:10362000F08F4FF4FA7001F0E1FFB9F1000F3FF7AE
:1036300009AF424627A13846FCF71AFE424625A1AB
:103640005846FCF715FE254925A0FFF7F3FA0020A0
:10365000E4E70000EC74000841542B4350534D53F1
:103660003F0D0A002C000000703200203030300086
:1036700031306D696E00000030303100316800007B
:1036800030313000313068003031310032730000A9
:10369000313030003330730031303100316D696EBC
:1036A000000000003131300033323068000000008B
:1036B00031313100496E76616C6964002564202ADD
:1036C000202573000D0A000064656369686F7572D8
:1036D000730000004552524F52000000D0740008A1
:1036E000257328457865204661696C656421290D3C
:1036F0000A000000034801780348007800F09AFFB0
:1037000000BFFEE729000020280000201CB502F0C1
:10371000F5FE1948012100234A02CDE9001017A146
:10372000194803F04DFB02F0FBFE24E04EF6602149
:10373000012002F04BFE0446012C1CD1134914A0B9
:10374000FFF778FA0C48006838B10B48006802F0BF
:103750007DFF0E4915A0FFF76DFA02F0CFFE064877
:10376000012100234A02CDE9001004A1064803F01C
:1037700027FB02F0D5FED9E7240000206C63645FCC
:103780007461736B00000000F536000801720008D8
:1037900025732852656376206B6579646F776E2098
:1037A0006576656E74290D0A0000000025732844B3
:1037B000656C657465204C6364207461736B290DBE
:1037C0000A000000F0B595B0282225490BA8FCF7A7
:1037D00019FD28222249283101A8FCF713FD0027F2
:1037E00041F2883301220BA91EA0FFF749FA0646D1
:1037F000012E2ED11E48046840681EE041F2883335
:10380000022201A91BA0FFF73BFA0646022E00D1B7
:1038100014E007EB4700C0EBC7101949B1EB800F6C
:1038200006D2184918A0FFF705FA012015B0F0BD1F
:103830004FF4FA7001F0DAFE7F1CDFE700BF0C489E
:10384000056840682A1B0F4915A0FFF7F3F9281BEC
:10385000ECE70C4918A0FFF7EDF90020E6E70000BF
:103860004872000841542B4E52420D0A00000000DD
:10387000B800002041542B43474154543F0D0A00E7
:1038800020BF020028720008257328417474616308
:10389000682074696D656F757421290D0A00000038
:1038A00025732872657475726E3A20256C64206DDC
:1038B00073290D0A000000002573285761697420E0
:1038C000626F6F7420696E666F726D6174696F6E7E
:1038D0002074696D656F757421290D0A0000000060
:1038E000F0B58BB02822234901A8FCF78BFC0527F3
:1038F000002636E0781EC7B24FF4FA63022201A90F
:103900001DA0FFF7BDF90546012D26D11DA11F48B9
:10391000FCF79CFC044616E0641D2078202801D1A9
:10392000641C10E0207830280BDB2078392808DC74
:10393000207806EB860100EB41003038C6B2641CEB
:1039400000E001E000BFE7E700BF3246104911A0E8
:10395000FFF770F930460BB0F0BD4FF4FA7001F08C
:1039600045FE002FC6DC0A490FA0FFF763F90020CF
:10397000F1E70000CC72000841542B4353513F0D36
:103980000A0000002B4353513A000000703200201F
:10399000AC72000825732872657475726E3A202522
:1039A00064290D0A000000002573284661696C65D2
:1039B0006421290D0A0000002DE9F04792B08246EB
:1039C00020210AA8FCF737FC4FF005082822A1495E
:1039D0006846FCF717FC00262BE1A8F1010000F077
:1039E000FF084FF4FA63022269469BA0FFF748F9EB
:1039F0000746012F70D19CA19D48FCF727FC044687
:103A0000002C2FD0E41D00261CE02078202801D1B6
:103A1000641C17E020782D2802D10126641C11E0D7
:103A2000207830280CDB2078392809DC20780A99A6
:103A300001EB810100EB410030380A90641C00E08A
:103A400001E000BFE1E700BF0A9816B14FF0FF3177
:103A500000E0012148430A90864987A00A9AFFF7AF
:103A6000E9F803E0834989A0FFF7E4F88DA18048D5
:103A7000FCF7ECFB044684B3641D00261CE02078B0
:103A8000202801D1641C17E020782D2802D10126BE
:103A9000641C11E0207830280CDB2078392809DC00
:103AA00020780B9901EB810100EB410030380B903D
:103AB000641C00E001E000BFE1E700BF0B9816B115
:103AC0004FF0FF3100E0012148430B90694977A096
:103AD0000B9AFFF7AFF805E0A7E0FFE7654977A08D
:103AE000FFF7A8F87BA16248FCF7B0FB04467CB363
:103AF000241D00261CE02078202801D1641C17E03A
:103B000020782D2802D10126641C11E0207830286D
:103B10000CDB2078392809DC20780C9901EB810135
:103B200000EB410030380C90641C00E001E000BF65
:103B3000E1E700BF0C9816B14FF0FF3100E0012122
:103B400048430C904B4965A00C9AFFF773F804E0CA
:103B5000FFE7484965A0FFF76DF86AA14448FCF704
:103B600075FB04467CB3241D00261CE02078202829
:103B700001D1641C17E020782D2802D10126641C95
:103B800011E0207830280CDB2078392809DC2078F7
:103B90000D9901EB810100EB410030380D90641C60
:103BA00000E001E000BFE1E700BF0D9816B14FF063
:103BB000FF3100E0012148430D902E4953A00D9A9A
:103BC000FFF738F804E0FFE72A4954A0FFF732F87E
:103BD00058A12748FCF73AFB00F1080585B142A13E
:103BE0002846FCF733FB8146A9EB050229460EA8BF
:103BF000FCF708FB0EAA1F4951A0FFF71BF80CE0C9
:103C000054A001680E918188ADF83C1080798DF840
:103C10003E00184951A0FFF70DF820220AA950468E
:103C2000FCF7F0FA12B0BDE8F087124951A0FFF797
:103C300001F8B8F1000F3FF7D0AE102252A10EA844
:103C4000FCF716FB20220AA95046FCF7DBFA00BF5E
:103C5000E8E700000C73000841542B4E55455354BF
:103C60004154530D0A00000045415246434E3A006C
:103C700070320020F47200082573284541524643F3
:103C80004E3A20256C64290D0A0000002573284552
:103C9000415246434E204E6F7420466F756E64212C
:103CA000290D0A00525352513A0000002573285240
:103CB0005352513A20256C64290D0A00257328526D
:103CC000535251204E6F7420466F756E6421290D3A
:103CD0000A000000534E523A00000000257328539A
:103CE0004E523A20256C64290D0A00002573285392
:103CF0004E52204E6F7420466F756E6421290D0A56
:103D00000000000045434C3A0000000025732845A0
:103D1000434C3A20256C64290D0A00002573284580
:103D2000434C204E6F7420466F756E6421290D0A36
:103D30000000000043656C6C2049443A000000001C
:103D400025732843454C4C49443A202573290D0AD4
:103D500000000000496E76616C6964002573284399
:103D6000454C4C4944204E6F7420466F756E64215B
:103D7000290D0A00257328415420525350204552E2
:103D8000524F5221290D0A004552524F5200000055
:103D900010B5044624B1012C05D0022C07D104E053
:103DA00000F008F804E000F0BBFA00F0B3F800BF40
:103DB00000BF10BD1CB500203B4908804FF6FF70C6
:103DC0000021102339A2CDE9001032214B20FEF74B
:103DD000C5F900203449088080213848FFF77EF972
:103DE000364B102232219B20FEF762FA4FF6FF700D
:103DF0000021102332A2CDE900104B210846FEF726
:103E0000ADF900202849088080212C48FFF7C4F92B
:103E10002A4B10224B219B20FEF74AFA2CA310229A
:103E200078214B20FEF744FA80212448FFF73AF826
:103E3000224B10228C214B20FEF73AFA26A31022A7
:103E4000A5214B20FEF734FA80211C48FFF78AF8A1
:103E50001A4B1022B9214B20FEF72AFA20A3102278
:103E6000D2214B20FEF724FA80211448FFF7D8F81E
:103E7000124B1022E6214B20FEF71AFA4FF6FF7084
:103E80000021102318A2CDE90010FF214B20FEF7DE
:103E900065F900200449088017A3102240F213118D
:103EA0004B20FEF705FA1CBDB4080020E6A8A1E7E8
:103EB000BB84E59E8BE58FB7EFBC9A00F032002003
:103EC000E6A8A1E7BB84E78988E69CACEFBC9A0032
:103ED00049434349443A0000494D45493A000000EE
:103EE000494D53493A000000E8BDAFE4BBB6E7894D
:103EF00088E69CACEFBC9A004E422D496F5420548A
:103F00006573745465726D696E616C205630303122
:103F1000000000000EB500250026A946AA46AB46C3
:103F20004FF6FF7040F29E51D3A21823CDE9002135
:103F30000290002237216920FDF744FD4FF6FF7003
:103F40004FF607411823D0A2CDE9001055215F207C
:103F5000FDF7A0FF4FF6FF700021CDA21023CDE9A1
:103F600000210290022282215020FDF72BFD00202B
:103F7000CB490880CBA3102282219620FEF798F926
:103F80004FF6FF700021C8A21023CDE90021029056
:103F900002229B215020FDF715FD0020C04908801A
:103FA000C0A310229B219620FEF782F94FF6FF70E6
:103FB0000021C1A21023CDE9002102900222B421E8
:103FC0005020FDF7FFFC0020B5490880B5A3102262
:103FD000B4219620FEF76CF94FF6FF700021B9A2CC
:103FE0001023CDE9002102900222CD215020FDF7BF
:103FF000E9FC0020AA490880AAA31022CD2196201E
:10400000FEF756F94FF6FF700021B2A21023CDE95A
:10401000002102900222E6215020FDF7D3FC00206F
:104020009F4908809FA31022E6219620FEF740F9C1
:104030004FF6FF700021ABA21023CDE900210290C2
:104040000222FF215020FDF7BDFC0020944908808A
:1040500094A31022FF219620FEF72AF90AE1FFF728
:10406000B1FB0446322001F0C1FA012C1ED96D1CAF
:104070002046FCF771F99F490190FCF72FF9029057
:10408000FCF76FF907463A460B469BA19C4800F0A7
:10409000BFFD4FF6FF704FF607411823984ACDE950
:1040A000001055215F20FDF7F5FE1CE0012C0ED11C
:1040B0004FF6FF704FF47841182392A2CDE900101B
:1040C0005A215F20FDF7E6FE6D1C761C0BE04FF6D3
:1040D000FF704FF4784118238CA2CDE900105A21CB
:1040E0005F20FDF7D7FE00206D4908802A4689A190
:1040F000834800F08DFD4FF6FF709623EF2282215A
:104100000090A520FCF726FF7D4B10228221A520E0
:10411000FEF7CEF832467FA1794800F079FD4FF6E0
:10412000FF709623EF229B210090A520FCF712FF41
:10413000734B10229B21A520FEF7BAF81DB3284629
:10414000FCF70AF90190A81BFCF706F90090019909
:10415000FCF7C4F80290FCF704F907463A460B4610
:104160006DA1674800F054FD4FF6FF709623EF22D3
:10417000B4210090A520FCF7EDFE614B1022B42184
:10418000A520FEF795F8012C27D9A81B401E0AFB95
:104190000040A91BB0FBF1FA5046FCF7DDF8804661
:1041A0005449FCF79BF80746FCF7DBF802460B4640
:1041B000CDE9000150A1524800F02AFD4FF6FF70F2
:1041C0009623EF22CD210090A520FCF7C3FE4C4B97
:1041D0001022CD21A520FEF76BF84C4502D9012C09
:1041E00000D9A1464846FCF7B7F842490190FCF7D0
:1041F00075F80290FCF7B5F807463A460B463EA123
:104200003F4800F005FD4FF6FF709623EF22E621B0
:104210000090A520FCF79EFE394B1022E621A52038
:10422000FEF746F85C4502D3BBF1000F02D1012C2A
:1042300000D9A3464846FCF78FF82E490190FCF7B9
:104240004DF80290FCF78DF807463A460B462AA136
:104250002B4800F0DDFC4FF6FF709623EF22FF2184
:104260000090A520FCF776FE254B1022FF21A5200B
:10427000FEF71EF8F3E60000E9A9BBE7BD91E6975B
:10428000B6E997B4000000002D2D2D2E2D2D2D0008
:10429000E6B58BE8AF95E6ACA1E695B0000000006E
:1042A000B40800203A000000E5A4B1E8B4A5E6ACEB
:1042B000A1E695B000000000E68890E58A9FE78EB1
:1042C00087000000E5B9B3E59D87E697B6E995BF9D
:1042D00000000000E69C80E5A4A7E697B6E995BF3C
:1042E00000000000E69C80E79FADE697B6E995BF29
:1042F0000000000000007A442530372E336673003A
:10430000F032002074696D656F757400626F6F74B0
:104310006572720025640000252E32662525000096
:10432000A0B00024202110A8FBF785FF202108A8B9
:10433000FBF781FF00208349088083A310223221EC
:104340004B20FDF7B5FF83A310224B210846FDF754
:10435000AFFF83A3102264214B20FDF7A9FF83A3A5
:1043600010227D214B20FDF7A3FF83A3102296216D
:104370004B20FDF79DFF83A31022AF214B20FDF7BB
:1043800097FF83A31022C8214B20FDF791FF83A341
:104390001022E1214B20FDF78BFF83A31022FA218D
:1043A0004B20FDF785FF83A3102240F213114B2011
:1043B000FDF77EFFC5E0FFF793FA0446224680A191
:1043C000804800F025FC4FF6FF704623EF22322193
:1043D00000909B20FCF7BEFD7A4B102232219B20DF
:1043E000FDF766FF6846FFF7E7FA2022694618A83E
:1043F000FBF708FF72A173481A9A00F009FC4FF608
:10440000FF705F23EF224B2100909B20FCF7A2FD61
:104410006C4B10224B219B20FDF74AFF68A1694895
:10442000199A00F0F5FB4FF6FF707823EF22642114
:1044300000909B20FCF78EFD624B102264219B2094
:10444000FDF736FF5EA15F48189A00F0E1FB4FF6DA
:10445000FF709623EF227D2100909B20FCF77AFDD0
:10446000584B10227D219B20FDF722FF54A1554877
:104470001B9A00F0CDFB4FF6FF70AA23EF22962186
:1044800000909B20FCF766FD4E4B102296219B204E
:10449000FDF70EFF4FF6FF7040F22713EF2240F2B8
:1044A000131100909B20FCF755FD1CAB102240F22D
:1044B00013119B20FDF7FCFE80214248FEF74AFFC6
:1044C0004FF6FF70C323EF22AF2100909B20FCF733
:1044D00041FD3C4B1022AF219B20FDF7E9FEFEF78A
:1044E000B7FE05462A4636A1364800F091FB354B0B
:1044F0001022C8219B20FDF7DBFE202210A908A86E
:10450000FEF786FF4FF6FF70F523EF22E1210090C2
:104510009B20FCF71FFD08AB1022E1219B20FDF73B
:10452000C7FE4FF6FF704FF48773EF22FA21009019
:104530009B20FCF70FFD10AB1022FA219B20FDF70A
:10454000B7FE38E7B4080020435351202020203A1A
:1045500000000000534E52202020203A00000000AE
:10456000525352512020203A00000000454152464B
:10457000434E203A0000000045434C202020203AC2
:1045800000000000504C4D4E2020203A000000005A
:1045900042414E442020203A000000005433333280
:1045A0003420203A00000000543334313220203AC5
:1045B0000000000043454C4C4944203A00000000F4
:1045C00025640000F03200201CB5044601F096FF7F
:1045D0000D48012100230A02CDE900100BA10E486D
:1045E00002F0EEFB0D48012100230A02CDE9001084
:1045F0000BA10E4802F0E4FB0D48006802F026F81B
:1046000001F08EFF1CBD00001C000020636C695F80
:104610007461736B00000000AD2B000820000020C7
:104620006D353331305F7461736B00000D370008F6
:10463000180000207CB504460D464FF6FF7040F28E
:104640003F13EF22282100904620FCF783FC40F224
:104650009E50009005EBC50000EB05105F2202EBB9
:10466000400305EBC50000EB0510372202EB4001CB
:1046700045220020FCF76EFC052D68D2DFE805F02E
:1046800003172B3F530040F29E504FF6FF71CDE9C8
:10469000001005EBC50000EB05103C2202EB4000CA
:1046A000411D10236DA20320FDF762FC4FE040F294
:1046B0009E504FF6FF71CDE9001005EBC50000EBF1
:1046C00005103C2202EB4000411D102367A203208D
:1046D000FDF74EFC3BE040F29E504FF6FF71CDE9F6
:1046E000001005EBC50000EB05103C2202EB40007A
:1046F000411D102361A20320FDF73AFC27E040F2A0
:104700009E504FF6FF71CDE9001005EBC50000EBA0
:1047100005103C2202EB4000411D10235BA2032048
:10472000FDF726FC13E040F29E504FF6FF71CDE9F5
:10473000001005EBC50000EB05103C2202EB400029
:10474000411D102355A20320FDF712FC00BF00BF3E
:1047500044F29830009004EBC40000EB04105F2298
:1047600002EB400304EBC40000EB0410372202EB21
:10477000400145220020FCF7EDFB052C68D2DFE864
:1047800004F003172B3F530044F298304FF6FF71AB
:10479000CDE9001004EBC40000EB04103C2202EB56
:1047A0004000411D10232DA20320FDF7E1FB4FE047
:1047B00044F298304FF6FF71CDE9001004EBC400CD
:1047C00000EB04103C2202EB4000411D102327A205
:1047D0000320FDF7CDFB3BE044F298304FF6FF712C
:1047E000CDE9001004EBC40000EB04103C2202EB06
:1047F0004000411D102321A20320FDF7B9FB27E053
:1048000044F298304FF6FF71CDE9001004EBC4007C
:1048100000EB04103C2202EB4000411D10231BA2C0
:104820000320FDF7A5FB13E044F298304FF6FF712B
:10483000CDE9001004EBC40000EB04103C2202EBB5
:104840004000411D102315A20320FDF791FB00BF7E
:1048500000BF2046FFF79CFA7CBD0000E8AEBEE535
:10486000A487E4BFA1E681AF00000000E7BD91E7A7
:10487000BB9CE58F82E695B000000000E9A9BBE78C
:10488000BD91E58F82E695B000000000E7BD91E79D
:10489000BB9CE697B6E5BBB600000000E8939DE739
:1048A0008999E6A8A1E5BC8F000000001CB51A4854
:1048B00064231A46322100904620FDF7C7FC4FF6CC
:1048C000FF7040F21941182314A2CDE90010AA216B
:1048D0003C20FDF74DFB40F21940144908804FF68B
:1048E000FF7040F21941182311A2CDE90010D22126
:1048F0000F20FDF7CFFA4FF6FF7040F21941182351
:104900000DA2CDE90010D2216E20FDF731FB4FF44E
:104910007A7000F06BFE1CBD60D00008E4B8ADE713
:10492000A7BBE789A9E88194E7BD9100B4080020FE
:104930004E422D494F540000E7BD91E7BB9CE6B5C0
:104940008BE8AF95E4BBAA0030B587B004460D46AE
:10495000774884424AD1FDF7F7FF01210420FDF793
:1049600061FD01218803FDF75DFD6015ADF81800BC
:1049700018208DF81B0003208DF81A0006A96D4839
:10498000FCF798F92015ADF8180004208DF81B00ED
:1049900006A96848FCF78EF902950020ADF80C00D6
:1049A000ADF80E00ADF81000ADF814000C20ADF815
:1049B000120002A92046FEF771F801212046FDF7FA
:1049C000B6FF25208DF8040003208DF805008DF832
:1049D000060001208DF8070001A8FDF7C1FC0122A7
:1049E00040F225512046FEF734F89FE052488442B9
:1049F0004AD1FDF7A9FF01210420FDF713FD012194
:104A00004804FDF7EFFC0420ADF8180018208DF8DD
:104A10001B0003208DF81A0006A94648FCF74AF946
:104A20000820ADF8180004208DF81B0006A94148A5
:104A3000FCF740F902950020ADF80C00ADF80E002F
:104A4000ADF81000ADF814000C20ADF8120002A96A
:104A50002046FEF723F801212046FDF768FF2620B7
:104A60008DF8040003208DF805008DF80600012064
:104A70008DF8070001A8FDF773FC012240F22551D3
:104A80002046FDF7E6FF51E02C4884424AD1FDF76D
:104A90005BFF01210820FDF7C5FC01218804FDF71B
:104AA000A1FC2015ADF8180018208DF81B0003207C
:104AB0008DF81A0006A92248FCF7FCF8E014ADF8BE
:104AC000180004208DF81B0006A91D48FCF7F2F819
:104AD00002950020ADF80C00ADF80E00ADF8100006
:104AE000ADF814000C20ADF8120002A92046FDF725
:104AF000D5FF01212046FDF71AFF27208DF804007D
:104B000003208DF805008DF8060001208DF80700C0
:104B100001A8FDF725FC012240F225512046FDF7B2
:104B200098FF03E00748844200D000BF07B030BDC3
:104B300000380140000801400044004000480040A7
:104B4000000C0140004C00402DE9F04107460D46A5
:104B50001646002401F0D2FC00BF0FE04021384689
:104B6000FDF7DCFE295D3846FEF709F800BF40215D
:104B70003846FDF737FF0028F9D0641CB442EDD366
:104B800001F0CEFCBDE8F0812DE9F04102460020A5
:104B900003460446002510782D2802D010782B28D3
:104BA00004D110782D2801D10125521C1EE0107867
:104BB00030281ADB1078392817DC0A214FF0000C56
:104BC0001E46A6FB010804FB018103FB0C171178AC
:104BD00066468446384637461CEB01067841B6F1F6
:104BE000300360F10004521C00E000E0DFE700BF8A
:104BF00015B14FF0FF3000E00120C117A0FB0367A3
:104C000001FB037100FB04113046BDE8F081000098
:104C10000FB4084B10B504A902AA039800F0E0F8FD
:104C2000044602A9002000F07DFC204610BC5DF87F
:104C300014FB0000255500087CB5491E1C4615468E
:104C4000CDE90001044B6A462146284600F0C8F829
:104C5000009A002111707CBD0F55000802E008C8C1
:104C6000121F08C1002AFAD170477047002001E0E6
:104C700001C1121F002AFBD1704700002DE9FF5F20
:104C8000DDE90220010DDDF838B0024318D044F60A
:104C90001050A1F2FF3141430D140F98012820D08C
:104CA000A5EB0B00401C5FEA000A4FF00004474EE2
:104CB000DFF81C91A046504616D5CAF1000728E03F
:104CC0000F98012443A2012808D0002100980F9BCF
:104CD000C0E90021C0E90243BDE8FF9F6FEA0B0174
:104CE000F4E7CBF10000DEE7074612E0F80707D053
:104CF0002246334640464946FBF76BFC80468946D0
:104D00002246334610461946FBF763FC04460E461E
:104D10007F10002FEAD1DDE90201BAF1000F42460F
:104D20004B4602DAFBF755FC01E0FBF7C4FC0446F6
:104D30000E460022284BFBF745FD03D84FF0FF300D
:104D4000014607E00022254B20463146FBF79AFB3F
:104D5000FBF720FD102409E0002C0ADB0A220023C7
:104D6000FBF728FB019B30321A55641E50EA010202
:104D7000F2D1641C019AC4F1110314440F9A012A60
:104D800003D0012208430DD10AE0084304D00020DB
:104D90004FF0110B0F9080E7A3EB0B056D1E0DE09C
:104DA0005B4504DD4FF0000205F1010504E003DA84
:104DB0004FF00002A5F10105002AECD000980F99F0
:104DC000C0E90231C0E9004586E700000000244048
:104DD0000000F03F300000000000F0430000E03F22
:104DE0002DE9FF4F95B09B468946064600250FE208
:104DF000252877D100242746F84A0121059400E0B0
:104E0000044316F8013F203B01FA03F01042F7D1AA
:104E100030782A2811D06FF02F033078A0F13002BB
:104E2000092A16D8059A44F0020402EB820203EB29
:104E300042021044761C0590EFE759F8042B0592C6
:104E4000002A03DA504244F40054059044F002046E
:104E5000761C30782E2816D116F8010F44F0040481
:104E60002A280DD06FF02F023078A0F13003092BE3
:104E700009D807EB870302EB4303C718761CF3E757
:104E800059F8047B761C30786C280FD006DC4C284F
:104E900017D068280DD06A2814D104E0742810D0E7
:104EA0007A280FD10DE044F400140AE044F4801491
:104EB00001E044F440147278824202D104F5801477
:104EC000761C761C307866280BD013DC582877D0F7
:104ED00009DC002875D04528F6D04628F4D04728AC
:104EE0001AD19DE118E0632835D0642879D065286F
:104EF00012D195E1702873D008DC6728F1D06928B9
:104F00006FD06E280DD06F2806D1B5E073282CD055
:104F1000752875D0782874D05A46179990476D1C1B
:104F200075E1C4F30250022809D003280DD0D9F846
:104F3000001004280DD00D6009F1040967E1D9F8CB
:104F40000010EA17C1E90052F6E7D9F800100D8009
:104F5000F2E70D70F0E719F8041B8DF8001000203F
:104F60008DF80100EA46012003E059F804AB4FF048
:104F7000FF3061074FF0000102D40DE008F101019C
:104F80008846B9420FDA8045F8DB1AF80810002984
:104F9000F4D108E008F1010188468142FADB1AF8F1
:104FA00008100029F6D105985B46A0EB08072146BA
:104FB0003846179A00F094FA284400EB080507E0F9
:104FC0004DE029E10DE01AF8010B5A461799904778
:104FD000B8F10108F7D25B4621463846179A13E12B
:104FE00042E00A220092C4F302524FF0000A022A61
:104FF00008D059F804CB032A4FEAEC710AD00DE02F
:1050000029E02AE009F1070121F00702F2E802C1D4
:10501000914609E00FFA8CFC4FEAEC71042A03D1A7
:105020004FFA8CFC4FEAEC71002907DA0A4600219E
:10503000DCF1000C61EB02012D2202E0220504D517
:105040002B228DF80420012203E0E20701D0202268
:10505000F7E7904659E00A2102E010220DE0102106
:105060004FF0000A00910BE010224FF0000A44F0CC
:1050700004040827009203E008224FF0000A00927F
:10508000C4F30252022A05D059F804CB0021032AA6
:1050900008D009E009F1070121F00702F2E802C196
:1050A000914605E01FFA8CFC042A01D10CF0FF0C9C
:1050B0004FF00008220728D5702806D0009B83F007
:1050C000100353EA0A0305D00EE040228DF80420B5
:1050D000012208E05CEA010206D030228DF80420AB
:1050E0008DF8050002229046009B83F0080353EAE6
:1050F0000A030AD15CEA010201D1620705D5302218
:105100008DF804204FF001087F1E582804D034A0E9
:1051100003900EA802900DE036A0F9E753466046D2
:10512000009AFBF747F984460398825C0298401E78
:10513000029002705CEA0100F0D1029806A9081AF8
:1051400000F1200A600702D524F4803400E0012732
:10515000574502DDA7EB0A0000E0002000EB0A0142
:10516000009005984144401A0590E00306D45B4640
:105170002146179A059800F0B3F90544002706E088
:1051800001A85A46C05D179990476D1C7F1C474582
:10519000F6DBE0030CD55B462146179A059800F034
:1051A0009FF9054404E030205A46179990476D1C3A
:1051B0000099481E00900029F5DC08E00298029949
:1051C0005A460078491C0291179990476D1CBAF114
:1051D0000001AAF1010AF1DC65E1000009280100E3
:1051E000303132333435363738396162636465665D
:1051F000000000003031323334353637383941421F
:10520000434445460000000000F058F90544761C70
:10521000307800287FF4ECAD19B02846BDE8F08F57
:10522000620700D4062709F1070222F0070CFCE808
:105230000223E14603F000485FEA080C02D00FF2B7
:10524000702C0DE05FEA045C02D50FF2682C07E0D9
:105250005FEAC47C02D00FF2602C01E0AFF2700C68
:105260004FF0FF3823F00043CDF850C065280CD034
:1052700006DC452809D046281DD047283DD13DE011
:10528000662818D067287ED138E00021112F01DB75
:10529000112000E0781CCDE9000106A90EA8FFF757
:1052A000EDFCDDE90F010E9A03910021009207F158
:1052B000010A04914DE04FF000400097CDE9011044
:1052C00006A90EA8FFF7DAFCDDE90F0203920E9B98
:1052D00011990022DDF80CA00093049211B9791CF9
:1052E00000EB010AB7EB0A0004D4C0F1FF3007F16C
:1052F000010A0490AAEB0700019044E0012F00DAB4
:1053000001270021112F01DD112000E03846CDE9F1
:10531000000106A90EA8FFF7B1FCDDE90F010E9A06
:105320000391002104910092BA4621070CD40399FD
:10533000514500DA8A46BAF1010F05DD009AAAF15B
:105340000101515C302908D0B84202DA10F1040F93
:1053500006DA0121CDE9011015E0AAF10101E9E722
:10536000002805DC049901440491AAEB000102E045
:10537000411C514500DD8A460499401A401C0190A9
:105380004FF000400290200704D40198504501DB03
:10539000CDF8048000208DF84F0002980DF14F07E2
:1053A000B0F1004F25D02B200E9002984FF002084C
:1053B00000280CDA404202902D200E9007E00A21CE
:1053C0000298FAF7E1FF3031029007F8011DB8F1B9
:1053D0000001A8F10108F2DC02980028EFD1791E43
:1053E0000E980870307800F0200040F0450007F873
:1053F000020D12A8C01B00F107081498007800B134
:10540000012000EB0A01019801EBE071059841448D
:10541000401A401E0590E00306D45B462146179AC9
:10542000059800F05DF805441498007818B15A46C4
:10543000179990476D1CE00324D55B462146179AC7
:10544000059800F04DF805441CE00498002807DB9F
:10545000DDE90301884203DD0098405C179901E013
:10546000179930205A469047049805F10105401CD1
:1054700004900198401E019004D12E205A4617999D
:1054800090476D1CBAF10001AAF1010ADDDC05E0CC
:1054900017F8010B5A46179990476D1CB8F1000197
:1054A000A8F10108F4DC5B462146179A0598ABE6A3
:1054B0002D0000002B000000200000002DE9F0412D
:1054C000044600251E461746880404D405E03946E4
:1054D0002020B0476D1C641EF9D52846BDE8F08138
:1054E0002DE9F041044600251E469046C80301D52B
:1054F000302700E02027880404D505E041463846DF
:10550000B0476D1C641EF9D52846BDE8F0814A6895
:10551000002A06D00A68531C0B6010704868401EB1
:10552000486070470A68531C0B6010707047000099
:105530001FB501211020FCF775FF2020ADF80C00ED
:1055400048208DF80F0003A91348FBF7B3FB012196
:105550000846FCF767FF05210220FBF78BFB2020A4
:10556000019000208DF808000C208DF80900012022
:105570008DF80A0001A8FBF77BFA17208DF80000D0
:1055800002208DF801008DF8020001208DF8030043
:105590006846FCF7E5FE1FBD0010014010B5042071
:1055A000FDF73EF80E4800680E49B0FBF1F00E49D9
:1055B00008700B4800680B49B0FBF1F44FF47A70A7
:1055C00044434FF0E020006940F002004FF0E0213A
:1055D000086108464461006940F00100086110BD9F
:1055E0002C00002040420F00B400002010B50446FB
:1055F00001F016FC012803D0204601F00DF805E06B
:105600004FF47A7104FB01F000F002F810BD0000C5
:1056100070B5034600224FF0E02675690D4E3678CE
:1056200003FB06F44FF0E026B16910E04FF0E026EE
:10563000B06988420BD0884202D20E1A324402E08E
:105640002E1A0E4432440146A24200D300E0EDE798
:1056500000BF70BDB40000201CB5FFF79FFF4FF4E2
:10566000A060FCF7B5FEFFF763FF4FF4E13112488D
:10567000FFF76AF94FF4E1311048FFF765F94FF48D
:10568000E1310F48FFF760F90E490FA0FDF7D2FA9C
:10569000FBF7D2FCFFF70AF9FDF75EFB0F4801218B
:1056A00000230A02CDE900100DA1104801F088FB8B
:1056B00001F0C2F800201CBD00440040004800403A
:1056C00000380140FC7100082573285541525420D0
:1056D000496E6974204F4B21290D0A0018000020E3
:1056E00073746172745F7461736B0000C945000864
:1056F0002DE9F04105460E461C4807681C48006825
:10570000001D00F09DFE50B91948006890F82C105B
:105710000120884017490968814316480160681CC8
:1057200038B936B112480168091D134800F0DAFE95
:105730001AE07C190E4800684460BC4207D20C484D
:105740000168091D0D48006800F0B2FE0CE0084831
:105750000168091D0A48006800F0AAFE09480068AF
:10576000844201D207480460BDE8F0815400002063
:105770004000002058000020340A0020480000208B
:10578000440000207000002010B5044600F0B6FE72
:1057900024480068401C234908602348006840B939
:1057A000214804600846006801280DD100F016FB6E
:1057B0000AE01E48006838B91B480068C06AE16A00
:1057C000884201D81848046019480068401C1849EC
:1057D000086008460068606494F82C100120884036
:1057E00014490968084313490860E16A01EB810123
:1057F000114A02EB8100211D00F074FE00F090FEC2
:105800000A48006868B108480068C06AE16A8842CE
:1058100007D24FF0805009490860BFF34F8FBFF3A4
:105820006F8F10BD50000020400000205C00002061
:105830006C000020580000208009002004ED00E0EA
:1058400010B500F05BFE10480068D0B90F4800F0BA
:105850001FFE0F4800F01CFE0C480E4908600C4863
:105860000D49086000221021052001F0B3F8064917
:1058700008600846006820B108A10348006800F0ED
:105880008FFE00F04DFE10BD8C000020480A002065
:105890005C0A00208400002088000020546D7251B2
:1058A0000000000010B516E000F028FE0C48C068AB
:1058B000C468201D00F0C4FD0A480068401E094964
:1058C000086009480068401E0749086000F028FE8B
:1058D000204600F0A5F8044800680028E4D110BD77
:1058E000200A0020500000204C00002070B5044623
:1058F0000D46206C70B1216CE0680844E06061687E
:10590000E068884201D32068E0602846226CE168A4
:10591000FAF778FC70BD2DE9F04104460F461546B4
:105920004FF00008A66B206C40B9206860BB60682F
:1059300001F01AFB80460020606025E07DB9394601
:10594000226CA068FAF75EFC216CA0680844A06095
:10595000D4E90110884217D32068A06014E03946CA
:10596000226CE068FAF74EFC216CE068401AE060B7
:105970002168E068884203D2216C6068401AE060C8
:10598000022D01D106B1761E701CA0634046BDE811
:10599000F0810000F8B506460C4615466A4601211E
:1059A0002846FBF7AFF807460098012804D02246A6
:1059B00012A13046FAF75CFC3846FFF7E5F8002301
:1059C00058405940084302D1124908700FE0384648
:1059D000FFF7DAF801235840084303D101200D49AD
:1059E000087004E0224605A13046FAF741FC062281
:1059F00009A13046FAF74FFC0020F8BD0D0A4C65AE
:105A000076656C206E6F7420737570706F72742180
:105A10000D0A0000C00000200D0A4F4B0D0A0000C7
:105A200010B50446206B00F08BFD204600F088FD89
:105A300010BD00002DE9F04104460F46904640207D
:105A400000F04AFC054600F08BFF0646324628A1CE
:105A50002846FFF7DDF82846FAF716FC06463246D8
:105A600029462046FAF717FC2748006800F0FCFC9E
:105A70000646324625A12846FFF7CAF82846FAF717
:105A800003FC0646324629462046FAF704FC27481E
:105A9000006800F0E9FC0646324625A12846FFF7DB
:105AA000B7F82846FAF7F0FB064632462946204664
:105AB000FAF7F1FB2648006800F0D6FC06463246AD
:105AC00024A12846FFF7A4F82846FAF7DDFB06468E
:105AD000324629462046FAF7DEFB062225A120465B
