:020000040800F2
:10000000E0630020DD0100087F290008AF1400082C
:100010007B290008010D000897330008000000004C
:100020000000000000000000000000004501000882
:10003000410D00080000000089010008DD2C0008C7
:10004000F7010008F7010008F7010008F7010008B0
:10005000F7010008F7010008F7010008F7010008A0
:100060005D0E0008010F0008950F0008F701000859
:10007000F7010008F7010008F7010008F701000880
:10008000F7010008F7010008F7010008F701000870
:10009000F7010008F7010008F7010008F701000860
:1000A000F7010008F7010008F7010008F701000850
:1000B000F70100084D2D0008F7010008F7010008BE
:1000C000F7010008F7010008F7010008F701000830
:1000D000F7010008D92E0008A52F000839300008C4
:1000E000450D0008F7010008F7010008F7010008B6
:1000F000F7010008F7010008F7010008F701000800
:10010000F7010008F7010008F7010008F7010008EF
:10011000F7010008F7010008F7010008F7010008DF
:10012000F7010008F7010008F7010008F7010008CF
:10013000DFF80CD000F06CFC004800473D8F000851
:10014000E0630020224B19680868B0E8F00F80F3E4
:100150000988BFF36F8F4FF0000080F311884EF0D5
:100160000D0E70470000000006480068006880F32C
:10017000088862B661B6BFF34F8FBFF36F8F00DFA1
:1001800000BF00BF08ED00E0EFF30980BFF36F8F01
:100190000F4B1A6820E9F00F106008B54FF0BF0050
:1001A00080F31188BFF34F8FBFF36F8F0AF042F9CE
:1001B0004FF0000080F31188BDE808401968086816
:1001C000B0E8F00F80F30988BFF36F8F704700BF6E
:1001D0004C000020EFF30580704700000648804780
:1001E00006480047FEE7FEE7FEE7FEE7FEE7FEE71C
:1001F000FEE7FEE7FEE7FEE7ED2C00083101000810
:1002000040EA01039B0703D009E008C9121F08C098
:10021000042AFAD203E011F8013B00F8013B521E18
:10022000F9D27047D2B201E000F8012B491EFBD28F
:1002300070470022F6E710B513460A4604461946F1
:10024000FFF7F0FF204610BD421E12F8013F002BC1
:10025000FBD111F8013B02F8013B002BF9D17047AB
:1002600030B505462A460B4612F8010B13F8014B30
:1002700008B1A042F8D01CB1002802D06D1CF1E7F3
:10028000284630BD10B5044604E00B7800F8013B69
:1002900003B1491C521EF8D2204610BD421C10F872
:1002A000011B0029FBD1801A704710B5002200E025
:1002B000521C835C8C5CA34201D1002BF8D1D8B2D4
:1002C000E1B2401A10BD10B5044600E0401C0378AE
:1002D000002BFBD100E0401C521E04D311F8013B5F
:1002E0000370002BF7D100210170204610BD30B5FE
:1002F00005460020034600E05B1C934205D2EC5CFF
:10030000C85C201A01D1002CF6D130BD80EA010270
:1003100010B502F00043400022D04A001FD0010E69
:1003200001EB1261C0F35600C2F3560240F4000024
:1003300042F40002A0FB022000047F39140400D024
:10034000401C50EA124001D44000491EC2B20C06C3
:1003500004EBD010401C4008802A02D003E00020AB
:1003600010BD20F00100002900DA0020184310BD64
:1003700030B480EA010202F0004530F0004221F082
:10038000004013D090B1C30DD40DC2F31601C0F3D9
:100390001600E41A41F4000140F400027D34914259
:1003A00001D3641C00E04900002C02DA30BC0020BC
:1003B00070474FF400000023914201D3891A034390
:1003C00040084FEA4101F7D151B1914202D14FF0BB
:1003D000004105E002D24FF0010101E06FF00101A0
:1003E00003EBC450284430BC00F0DEB92DE9FE4FC9
:1003F000804681EA0300C00F0C46009021F00041C6
:1004000023F00045B8EB0200A94105D24046214641
:1004100090461C460B46024623F00040104347D04E
:10042000270DC7F30A00C3F30A510290401A019046
:1004300040286BDAC3F3130040F4801B0098924607
:1004400020B10023D2EB030A63EB0B0B0198594652
:10045000C0F14002504600F076F906460D4650467F
:100460005946019A00F08EF910EB08006141002412
:1004700087EA115284EAE7731A4340D0009A62B3C4
:10048000019A012A4FEA075215DC001B61EB0201B9
:100490004FF0004202EA0752CDE90042001C41F54C
:1004A000801132462B4600F0C5F903B0BDE8F08F4D
:1004B00040462146F9E7001B61EB0201001C41F5B3
:1004C000801300185B412018A2F5001747EB0301C9
:1004D00040EAD570B6196D4111E06D084FEA360655
:1004E00045EAC0754FEA0752001B61EB0201001C90
:1004F00041F5801149084FEA300000195141324658
:100500002B4603B0BDE8F04F00F085B900980122FA
:1005100040000023D0EB020263EBE0730098214619
:100520004FEAE074B8EB000061EB0401E9E783F007
:1005300000435BE781F0004158E72DE9FE4F81EA77
:10054000030404F0004421F0004100944FF0000B3C
:1005500023F0004350EA01045ED052EA03045BD06A
:10056000C3F30A54C1F30A552C44A4F2F3340194A2
:10057000A0FB0254C1F3130141F48011C3F3130330
:1005800043F4801301FB024400FB034E840A970AE4
:1005900044EA815447EA8357A4FB076802958D0A11
:1005A00005FB07854FEA932C04FB0C542705029D9D
:1005B0004FEA065847EA1637B5EB08056EEB070C0D
:1005C000870E920E47EA811742EA8312A7FB0201C7
:1005D000B6EB0B0164EB00042B0D43EA0C335E1801
:1005E00044EB1C50DA465146E7FB0201C5F3130405
:1005F0004FEA0B3343EA14534FEA0432019C43EAB7
:100600000603A4F10C040294009CCDE900B400F0B0
:1006100011F903B0BDE8F08F00200146F9E79623F9
:100620000022114600F0C9B8C1F30A5210B5C1F357
:10063000130140F2FF3341F480119A4201DA0020A5
:1006400010BD40F233439A42A2F2334203DC5242DD
:1006500000F088F810BD904010BD00F0004230F06E
:1006600000400AD0C10D01F56071C0F3160042EAE6
:100670000151C208400711437047002001467047EE
:1006800001F0004330B421F0004150EA010206D0ED
:100690000A0DA2F56072C1F31301002A02DC30BC1E
:1006A00000207047440F44EAC104C100E01830BC88
:1006B00000EBC25000F078B830B50B460146002080
:1006C0002022012409E021FA02F59D4205D303FA14
:1006D00002F5491B04FA02F52844151EA2F1010295
:1006E000F1DC30BD2DE9F05F0546002092469B46C7
:1006F00088460646814640241BE028464146474638
:10070000224600F02FF853465A46C01A914110D3A2
:1007100011461846224600F016F82D1A67EB01081C
:100720004F4622460120002100F00DF817EB00098A
:100730004E41201EA4F10104DFDC484631462A4622
:100740004346BDE8F09F202A04DB203A00FA02F17C
:10075000002070479140C2F1200320FA03F31943AF
:1007600090407047202A04DB203A21FA02F0002151
:10077000704721FA02F3D040C2F1200291400843B1
:1007800019467047202A06DBCB17203A41FA02F0BF
:1007900043EAE07306E041FA02F3D040C2F12002DE
:1007A00091400843194670470029A8BF7047401C74
:1007B000490008BF20F00100704710B4B0FA80FC77
:1007C00000FA0CF050EA010404BF10BC704749B1B4
:1007D000CCF1200421FA04F411FA0CF118BF012124
:1007E00021430843A3EB0C01CB1D4FEA00614FEA04
:1007F000102042BF002010BC704700EBC3501044D3
:100800000029A4BF10BC7047401C490008BF20F05D
:10081000010010BC704710B5141E73F1000408DA13
:10082000401C41F1000192185B411A4301D120F0B4
:10083000010010BD2DE9F04D92469B4611B1B1FA71
:1008400081F202E0B0FA80F220329046FFF77BFF9F
:1008500004460F4640EA0A0041EA0B0153465A4655
:10086000084313D0114653EA010019D0C8F14002E1
:100870005046FFF777FF05460E465046594642461A
:10088000FFF761FF084305D0012004E02046394608
:10089000BDE8F08D0020054346EAE0762C4337435F
:1008A0000A986305E40AA0EB08000022FD0A44EA66
:1008B00047540A3002D500200146E9E70105101926
:1008C0006941DDE9084500196941BDE8F04DA2E73D
:1008D0002DE9F04D81EA030404F0004B21F00045BE
:1008E00014464FF0000A23F0004150EA050220D0E0
:1008F00054EA01021DD0C5F30A570246C5F313039B
:10090000C1F31300C1F30A5640F4801543F4801379
:10091000A7EB0608101BD64608F2FD3873EB05005E
:1009200002D308F1010801E092185B41B8F1000F11
:1009300003DA00200146BDE8F08D00204FF480115D
:10094000064684460EE0171B73EB050705D3121B02
:1009500063EB050306434CEA010C49084FEA3000FB
:1009600092185B4150EA0107EDD152EA030012D020
:1009700082EA040083EA0501084305D0101BAB415D
:1009800006D20122002306E000224FF0004302E0DD
:100990006FF0010253101AEB06004CEB085110EBFC
:1009A0000A0041EB0B01BDE8F04DFFF734BFC1F386
:1009B0000A52C1F3130140F2FF3341F480119A420D
:1009C00002DA00200146704740F233439A42A2F215
:1009D000334202DC5242FFF7C5BEFFF7B4BE00004F
:1009E00030B5041E71F1000404DB4FF000444042B6
:1009F00064EB0101141E73F1000405DB1C464FF08B
:100A00000043524263EB0403994208BF904230BD59
:100A1000064C074D06E0E06840F0010394E807004B
:100A200098471034AC42F6D3FFF786FB3CF501083B
:100A30005CF5010870B58C1810F8015B15F0070320
:100A400001D110F8013B2A1106D110F8012B03E067
:100A500010F8016B01F8016B5B1EF9D12B0705D46F
:100A60000023521E0DD401F8013BFAE710F8013BB8
:100A7000CB1A921C03E013F8015B01F8015B521ED4
:100A8000F9D5A142D8D3002070BD21B1826842F0CF
:100A90000102826003E0826822F0010282607047F6
:100AA00010B504461248844208D10121401501F0D6
:100AB000E5FF0021601501F0E1FF17E00D488442D9
:100AC00008D10121001501F0D9FF0021201501F006
:100AD000D5FF0BE00848844208D10121C80301F08A
:100AE000CDFF00214FF4004001F0C8FF10BD000011
:100AF0000024014000280140003C01400146002044
:100B00008A6802F004020AB1012000E00020704768
:100B10000146C86C80B270470246002013680B4043
:100B20000BB1012000E000207047014600208A68D8
:100B300002F008020AB1012000E000207047000026
:100B400030B502460020002350680F4C20400D793C
:100B50000C6844EA05242043506090680B4C204008
:100B6000D1E902542C434D7944EA45042043906076
:100B7000D06A20F470000C7C641EE4B2234340EA87
:100B80000350D06230BD0000FFFEF0FFFDF7F1FF23
:100B9000F0B504460D4600200021092D11DDE06866
:100BA000A5F10A0606EB4607072606FA07F1884371
:100BB000A5F10A0606EB460603FA06F10843E060D3
:100BC0000CE0206905EB4507072606FA07F1884384
:100BD00005EB450603FA06F108432061072A0FDA00
:100BE000606B561E06EB86071F2606FA07F1884340
:100BF000561E06EB860605FA06F10843606322E0FE
:100C00000D2A0FDA206BD61F06EB86071F2606FA81
:100C100007F18843D61F06EB860605FA06F108435E
:100C2000206310E0E06AA2F10D0606EB86071F269E
:100C300006FA07F18843A2F10D0606EB860605FACF
:100C400006F10843E062F0BD816841F0080181606F
:100C5000704721B1826842F4A002826003E082689A
:100C600022F4A00282607047816841F00401816033
:100C70007047000000B587B001214FF4017001F00A
:100C8000EDFE4FF4004001F0BDFE0220ADF804007F
:100C900000208DF8070001A9174800F001FB174854
:100CA000FFF7FEFE002002908DF80C008DF80D007D
:100CB0004FF4602004900020059001208DF818006A
:100CC00002A90E48FFF73CFF01210C48FFF7DDFEAB
:100CD0000A48FFF7B9FF00BF0848FFF726FF0028C2
:100CE000FAD10648FFF7C0FF00BF0448FFF706FF30
:100CF0000028FAD107B000BD0008014000240140DF
:100D000000BFFEE710B50021044A11605160472181
:100D100040F2E73002F034F810BD0000C8000020B7
:100D200029B1064A52680243044B5A6004E0034A60
:100D300052688243014B5A6070470000002004E073
:100D40007047000008B54FF4805000F073F9002898
:100D500026D0294929A003F085FB0A2008F04AF88B
:100D60002E480068C0B92E484078022808DA2C487E
:100D70000078022804DA2A480078401C28490870C4
:100D80000320274948711C4926A003F06BFB6946E4
:100D90002948006809F08EFA4FF4805000F044F9B9
:100DA0004FF4006000F046F9002824D0124923A037
:100DB00003F058FB0A2008F01DF81848001F0068CF
:100DC000A8B91748007918B901201549087102E03F
:100DD000002013490871042011494871064911A0E7
:100DE00003F040FB69461448006809F063FA4FF4C9
:100DF000006000F019F908BDEFEF01082573284BDA
:100E000045595F5249474854205072657373656471
:100E100020446F776E290D0A000000003001224245
:100E20003000002025732873656E645461736B4D28
:100E30007367290D0A000000200000202573284B4D
:100E400045595F454E544552205072657373656431
:100E500020446F776E290D0A0000000008B50420B9
:100E600000F0E8F800B908BD154916A003F0FAFA39
:100E70000A2007F0BFFF1A480068D8B9194840781F
:100E8000012806DB17484078012807D1154800786B
:100E900020B914484078401C12494870012011497B
:100EA0004871074910A003F0DDFA6946134800684D
:100EB00009F000FA042000F0B7F800BFD3E7000003
:100EC000BCEF01082573284B45595F444F574E200E
:100ED0005072657373656420446F776E290D0A0044
:100EE000088122423000002025732873656E645407
:100EF00061736B4D7367290D0A000000200000200C
:100F000008B5082000F096F800B908BD0A2007F0DF
:100F100071FF10480068C0B90F4910A003F0A2FA91
:100F200015484078002804DD13484078401E1249D7
:100F30004870002010494871074910A003F092FA48
:100F400069461348006809F0B5F9082000F06CF80C
:100F500000BFDAE70C812142CDEF01082573284B51
:100F600045595F5550205072657373656420446F16
:100F7000776E290D0A0000003000002025732873C9
:100F8000656E645461736B4D7367290D0A00000030
:100F90002000002008B5102000F04CF800B908BD72
:100FA000114912A003F05EFA0A2007F023FF164849
:100FB0000068A0B915480078002804DD13480078BF
:100FC000401E12490870022010494871064910A0BD
:100FD00003F048FA69461348006809F06BF91020DD
:100FE00000F022F800BFDAE7DEEF01082573284B96
:100FF00045595F4C454654205072657373656420B3
:10100000446F776E290D0A001081214230000020C4
:1010100025732873656E645461736B4D7367290D76
:101020000A0000002000002001490860704700000D
:1010300014040140014600200022074B1B6803EA0C
:101040000102054B14331B680B4013B10AB1012098
:1010500000E0002070470000000401400021234907
:101060008279002A3AD00A46126803689A430B46EE
:101070001A600A1D126803689A430B1D1A600279F0
:1010800011440A6803681A430A60184A0832126851
:1010900003689A43154B08331A601A1D12680368D7
:1010A0009A43124B0C331A604279102A0ED11A1F40
:1010B000126803681A430D4B08331A601A1D126830
:1010C00003681A43094B0C331A600DE00749427953
:1010D00011440A6803681A430A6005E00279114462
:1010E0000A6803689A430A607047000000040140E0
:1010F00030B50346002400200025156022E000E002
:101100005B1C1D7815B11D78202DF9D100E05B1C0A
:101110001D7815B11D78202DF9D01D788DB1641C76
:101120008C420FD1184603E015686D1C15605B1CDE
:101130001D7815B11D78202DF6D1156805B9002050
:1011400002E001E08C42DAD300BF30BD2DE9F04768
:101150000446884691460126207810B90020BDE853
:10116000F0872E48006898BB2D482C4908602AE07B
:101170002A480068006807683846FFF78FF8054678
:10118000605D202801D0605DC0B92A4639462046FE
:10119000FFF7ADF890B921480068006890F90C009D
:1011A00000280ADB204608F05BFA1C490968096838
:1011B00091F90C10884200D0002608E0174800681A
:1011C000406816490860154800680028D0D100BF63
:1011D0001248006848B146B94A4612494046FFF7EE
:1011E00051F800200D49086016E00C48006868B10D
:1011F0000A48006800682246494683684046984786
:1012000006464EB900200549086005E04A460649F1
:101210004046FFF737F800263046A0E7E000002000
:10122000D400002054F20108ACF2010870B5054664
:101230000026082008F00CFE044664B108F01AFFEE
:101240002560002060600548006844600348046031
:1012500008F022FF0126304670BD0000DC000020AF
:1012600030B500228B071C0F0F2303FA04F20B4B3F
:101270008C1053F824309343084C8D1044F82530DB
:1012800023468C1053F824308C07240F00FA04F402
:101290002343024C8D1044F8253030BD0800014036
:1012A0002DE9F041024600250026002000230024FD
:1012B000002791F803C00CF00F0591F803C00CF063
:1012C000100CBCF1000F03D091F802C04CEA0505E8
:1012D00091F800C0BCF1000F31D0146800202BE061
:1012E0004FF0010C0CFA00F3B1F800C00CEA030651
:1012F0009E4220D183004FF00F0C0CFA03F7BC4341
:1013000005FA03FC4CEA040491F803C0BCF1280F71
:1013100006D14FF0010C0CFA00FCC2F814C00AE030
:1013200091F803C0BCF1480F05D14FF0010C0CFA45
:1013300000FCC2F810C0401C0828D1D31460B1F8DA
:1013400000C0BCF1FF0F34DD546800202EE000F136
:10135000080C4FF0010808FA0CF3B1F800C00CEAD1
:1013600003069E4221D183004FF00F0C0CFA03F7C5
:10137000BC4305FA03FC4CEA040491F803C0BCF139
:10138000280F05D100F1080C08FA0CF8C2F81480F7
:1013900091F803C0BCF1480F07D100F1080C4FF0E1
:1013A000010808FA0CF8C2F81080401C0828CED3B7
:1013B0005460BDE8F0810000F0B50A460023002427
:1013C0000021002500F00046B6F1004F02D11D4E6D
:1013D000F16901E01B4E7168C0F3034583B200F46C
:1013E0004016B6F5401F08D121F07061154E7668A1
:1013F00026F07066134F7E6012E000F48016B6F59A
:10140000801F06D1032606FA05F4A14341F070615E
:1014100006E0460D360103FA06F6B14341F070616D
:1014200022B1460D360103FA06F6314300F00046BC
:10143000B6F1004F02D1034EF16101E0014E71603F
:10144000F0BD0000000001400161704710B5044686
:101450000723012221460948FFF79AFB012107488B
:10146000FFF7F7FB00BF02210448FFF755FB0028F8
:10147000F9D00248FFF74CFB10BD000000240140EA
:101480002DE9F04107460C460025002608E03846C5
:10149000FFF7DCFF0544052007F0ACFC701CC6B26A
:1014A000A642F4DBB5FBF4F080B2BDE8F08100BFEA
:1014B000FEE7000038B5012001F082FB00BF61208B
:1014C00001F060FB0028FAD045F2555000F04CF8CE
:1014D000062000F03DF840F20E3000F03FF800F03A
:1014E0002FF800F025F80C4801231A4640F6B831D1
:1014F00000900AA009F0F0FB0C49086009F05CFAC2
:101500000446002003462246012100900748006857
:1015100009F018FC38BD00004115000857617463DC
:1015200068446F6754696D65720000002C000020EC
:101530004CF6CC4001490860704700000030004084
:101540004AF6AA20014908607047000000300040B8
:101550000149486070470000003000400149886040
:1015600070470000003000400149086070470000EB
:101570000030004070B5044600250021084600F008
:1015800077FC01F0F5F900BF1DE00120104908606B
:1015900000201049C1F8BC0120120F49C86000208A
:1015A0000B49091F08600120086044F317000A492D
:1015B000C86000200649091F08600120086004492E
:1015C000091D08606D1CB5F5963FDED370BD0000A7
:1015D000B881214200802142001001402DE9FF4FD7
:1015E00085B081468A460020049003900798A0EBBE
:1015F00009050898A0EB0A06CDF80890CDF804A0DC
:10160000002D01DD012705E00DB9002702E04FF0B4
:10161000FF376D42002E02DD4FF0010806E016B9DB
:101620004FF0000802E04FF0FF387642B54201DD8E
:101630002C4600E034464FF0000B21E0019A91B2B5
:10164000029A90B200F022F804982844049003987B
:10165000304403900498A04205DD0498001B0490D8
:101660000298384402900398A04205DD0398001BBD
:1016700003900198404401900BF101001FFA80FB98
:10168000601C8345DADD09B0BDE8F08F70B5044613
:101690000D462946204600F0EBFB01F069F90120D8
:1016A0001049086000201049C1F8BC010F480088AB
:1016B00000120F49C86000200A49091F0860012074
:1016C0000949C1F8B401094800880949C8600020E7
:1016D0000449091F0860012008600249091D0860CB
:1016E00070BD0000B8812142008021421209002013
:1016F000001001402DE9F04104460D4616461F46F4
:101700002B46324629462046FFF768FF3B462246D5
:1017100029462046FFF762FF3B46324639462046BF
:10172000FFF75CFF3B46324629463046FFF756FF3F
:10173000BDE8F0812DE9F05F04460F4690469946DA
:10174000DDF828A04FF0000BA8EB0400401C1FFAA6
:1017500080FB3D462CE0002626E0A11988B22946F0
:1017600000F086FB01F004F9012013490860002015
:101770001249C1F8BC014FEA2A201149C860002073
:101780000D49091F0860012008604AF317000C4941
:10179000C86000200849091F086001200860064948
:1017A000091D0860701C86B25E45D6DB681C85B2D8
:1017B0004D45D0DDBDE8F09FB88121420080214237
:1017C0000010014008B50121192001F047F94FF23E
:1017D0000100ADF8000010208DF8030003208DF803
:1017E000020069460948FFF75BFD4FF20101074817
:1017F000FFF72AFEFF20ADF8000069460448FFF716
:101800004FFDFF210248FFF71FFE08BD000C0140FD
:101810000010014010B5FFF7D5FF0120FE49086018
:1018200000F010FB112001F08DF8782007F0E2FAAB
:10183000362001F087F84FF48040F84908604000F6
:10184000091D08600020F649C8604814F349091DC5
:101850000860091F0860800008603A2001F072F8F3
:101860004FF48040ED4908604000091D08600520E4
:10187000EB49C8604814E949091D0860091F086060
:1018800080000860B22001F05DF84FF48040E34929
:1018900008604000091D08600C20E149C860481438
:1018A000DE49091D0860091F0860800008604010BB
:1018B00008604000091D08600C20D949C860481420
:1018C000D649091D0860091F0860800008604010A3
:1018D00008604000091D08600020D149C860481414
:1018E000CE49091D0860091F08608000086040108B
:1018F00008604000091D08603320C949C8604814C9
:10190000C649091D0860091F086080000860401072
:1019100008604000091D08603320C149C8604814B0
:10192000BE49091D0860091F086080000860B720D3
:1019300001F008F84FF48040B84908604000091DE4
:1019400008603520B649C8604814B449091D0860CC
:10195000091F086080000860BB2000F0F3FF4FF40F
:101960008040AE4908604000091D08600E20AC4967
:10197000C8604814A949091D0860091F0860800053
:101980000860C02000F0DEFF4FF48040A3490860EB
:101990004000091D08602C20A149C86048149F49D7
:1019A000091D0860091F086080000860C22000F05F
:1019B000C9FF4FF48040994908604000091D086044
:1019C00001209749C86040039449091D0860091F18
:1019D000086080000860C32000F0B4FF4FF480402E
:1019E0008E4908604000091D086012208C49C860BB
:1019F00048148A49091D0860091F086080000860B2
:101A0000C42000F09FFF4FF48040844908604000EC
:101A1000091D086020208249C86000027F49091D15
:101A20000860091F086080000860C62000F08AFF77
:101A30004FF48040794908604000091D08600F207C
:101A40007749C86048147549091D0860091F086076
:101A500080000860D02000F075FF4FF480406F498F
:101A600008604000091D0860A4206D49C860481442
:101A70006A49091D0860091F08608000086040105D
:101A800008604000091D0860A1206549C86048142D
:101A90006249091D0860091F086080000860E02095
:101AA00000F050FF4FF480405C4908604000091D81
:101AB0000860D0205A49C86048145849091D086078
:101AC000091F086080000860401008604000091D80
:101AD000086000205249C86048145049091D086038
:101AE000091F086080000860401008604000091D60
:101AF000086005204A49C86048144849091D086023
:101B0000091F086080000860401008604000091D3F
:101B100008600D204249C86048144049091D08600A
:101B2000091F086080000860401008604000091D1F
:101B300008600F203A49C86048143849091D0860F8
:101B4000091F086080000860401008604000091DFF
:101B500008602B203249C86048143049091D0860CC
:101B6000091F086080000860401008604000091DDF
:101B700008603B202A49C86048142849091D0860AC
:101B8000091F086080000860401008604000091DBF
:101B9000086044202249C86048142049091D086093
:101BA000091F086080000860401008604000091D9F
:101BB00008604A201A49C86048141849091D08607D
:101BC000091F086080000860401008604000091D7F
:101BD000086018201249C86048141049091D08609F
:101BE000091F086080000860401008604000091D5F
:101BF00008600F200A49C86048140849091D086098
:101C0000091F086080000860401008604000091D3E
:101C100008600B20024905E0B0812142100C014010
:101C200000100140C860481484490860091F08601A
:101C300080000860401008604000091D08601F20F7
:101C40007F49C86048147D490860091F086080000A
:101C50000860401008604000091D08602220784993
:101C6000C860481475490860091F08608000086052
:101C7000E12000F067FE4FF480407049091F0860C2
:101C80004000091D0860D0206D49C86048146B49A8
:101C90000860091F0860800008604010086040006C
:101CA000091D086000206649C8604814634908603F
:101CB000091F086080000860401008604000091D8E
:101CC000086005205E49C86048145C490860091F27
:101CD000086080000860401008604000091D08602E
:101CE0000D205749C860481454490860091F08600E
:101CF00080000860401008604000091D0860102046
:101D00004F49C86040024D490860091F08608000C3
:101D10000860401008604000091D08602B204849F9
:101D2000C860481445490860091F086080000860C1
:101D3000401008604000091D08603D204049C8600F
:101D400048143E490860091F086080000860401080
:101D500008604000091D086054203949C8604814D3
:101D600036490860091F086080000860401008605C
:101D70004000091D086050203149C86048142F49AF
:101D80000860091F0860800008604010086040007B
:101D9000091D08602F202A49C86048142749086097
:101DA000091F086080000860401008604000091D9D
:101DB00008601F202249C860481420490860091F94
:101DC000086080000860401008604000091D08603D
:101DD0001F201B49C860481418490860091F086083
:101DE00080000860401008604000091D08601F2046
:101DF0001349C860481411490860091F0860800031
:101E00000860401008604000091D086023200C494C
:101E1000C860481409490860091F0860800008600C
:101E2000292000F08FFD2C2000F08CFD142006F0FE
:101E3000E1FF4FF6FF70FFF79DFB10BD140C014052
:101E40000010014010B501200849086006F0D2FFDB
:101E500001200649091D0860142006F0CBFF01206F
:101E600002490860142006F0C5FF10BD100C0140A7
:101E700010B503460C462A2000F064FD4FF4804064
:101E8000234908604000091D086018122149C860F4
:101E900048141F49091D0860091F08608000086078
:101EA000401008604000091D086043F317001949FD
:101EB000C86048141649091D0860091F08608000A1
:101EC00008602B2000F03EFD4FF480401049086070
:101ED0004000091D086020120E49C86048140C49D2
:101EE000091D0860091F0860800008604010086034
:101EF0004000091D086044F317000649C8604814F3
:101F00000349091D0860091F08608000086010BDB2
:101F1000100C0140001001402DE9F84F81468A461F
:101F200017461C46CB46694800880090B9F1E80F77
:101F300002DCBAF59C7F01DDBDE8F88FA7F1200037
:101F4000C7B20A9800287DD1002583E00C2C2AD145
:101F500007EB47005E4901EB800010F80580002682
:101F600016E008F0010018B158490098088003E015
:101F7000584800885549088051464846FFF786FB77
:101F80004FEA680809F101001FFA80F9701CC6B217
:101F900004EBD471B6EB610FE3DBD9460AF1010023
:101FA0001FFA80FA54E0102C28D14B4800EB0710A0
:101FB00010F80580002616E008F0010018B143492A
:101FC0000098088003E04348008840490880514653
:101FD0004846FFF75BFB4FEA680809F101001FFA6A
:101FE00080F9701CC6B204EBD471B6EB610FE3DB71
:101FF000D9460AF101001FFA80FA29E0374800EBC0
:10200000C71010F80580002616E008F0010018B18E
:102010002E490098088003E02E4800882B4908804C
:1020200051464846FFF732FB4FEA680809F10100C4
:102030001FFA80F9701CC6B204EBD471B6EB610FC5
:10204000E3DB00E00AE0D9460AF101001FFA80FA5A
:10205000681CC5B2A542FFF679AF32E000252EE03C
:102060000C2C07D107EB4700194901EB800010F851
:1020700005800CE0102C05D1174800EB071010F874
:10208000058004E0154800EBC71010F80580002615
:102090000EE008F0010038B10AEB050291B209EB3D
:1020A000060290B2FFF7F2FA4FEA6808701CC6B257
:1020B00004EBD471B6EB610FEBDB681CC5B2A54233
:1020C000CEDB02490098088000BF35E712090020E6
:1020D00098B10008140900200CB60008FCBB0008E9
:1020E0002DE9FF4F81B006468A460E9DB346CDF8D6
:1020F00000A00398002873D10498102873D01828E2
:1021000070D169E0002460E004EB041000EB800073
:10211000FD49085C2978884255D104EB041000EB96
:102120008000F94908444078697888424BD104EB33
:10213000041000EB8000F44908448078A9788842B4
:1021400041D100273DE004EB041000EB8000EE4994
:102150000844001D10F807904FF000082CE009F02B
:102160008000802807D1E9490F9808805146304601
:10217000FFF78CFA06E0E549109808805146304692
:10218000FFF784FA4FF6FF7000EA4909701C86B227
:10219000A6EB0B0018280BD15E460AF101001FFACE
:1021A00080FA0098AAEB00001B2801D1DDF800A0FE
:1021B00008F1010000F0FF08B8F1080FCFDB781C30
:1021C000C7B2512FBFDB601CC4B20D2C9CDBED1CD1
:1021D00006F1180086B2B3462878002892D16EE046
:1021E0006EE000E06AE065E000245CE004EB84005F
:1021F000C74911F830002978884252D104EB840095
:10220000C34901EBC00040786978884249D104EBAA
:102210008400BF4901EBC0008078A978884240D192
:1022200000273CE004EB8400B94901EBC000001D2D
:1022300010F807904FF000082CE009F0800080288B
:1022400007D1B2490F98088051463046FFF71EFA71
:1022500006E0AE491098088051463046FFF716FA5E
:102260004FF6FF7000EA4909701C86B2A6EB0B001E
:1022700010280BD15E460AF101001FFA80FA00987F
:10228000AAEB0000122801D1DDF800A008F101003E
:1022900000F0FF08B8F1080FCFDB781CC7B2242F7D
:1022A000C0DB601CC4B2312CA0DBED1C06F11000B9
:1022B00086B2B3462878002896D100E000BF72E1CC
:1022C0000398022877D10498102877D0182874D161
:1022D0006DE0002464E004EB440000EB04108D4941
:1022E00011F820002978884258D104EB440000EB13
:1022F0000410884901EB80004078697888424DD10C
:1023000004EB440000EB0410824901EB800080786C
:10231000A978884242D100273EE004EB440000EB5C
:1023200004107C4901EB8000001D10F807904FF06D
:1023300000082CE009F08000802807D173490F982D
:10234000088051463046FFF7A1F906E06F49109822
:10235000088051463046FFF799F94FF6FF7000EAC2
:102360004909701C86B2A6EB0B0018280BD15E46FB
:102370000AF101001FFA80FA0098AAEB0000182861
:1023800001D1DDF800A008F1010000F0FF08B8F16C
:10239000080FCFDB781CC7B2482FBEDB601CC4B26D
:1023A000062C98DBED1C06F1180086B2B34628789F
:1023B00000288ED16EE06EE000E06AE065E0002467
:1023C0005CE004EBC400544911F8200029788842ED
:1023D00052D104EBC400504901EB80004078697889
:1023E000884249D104EBC4004B4901EB800080785E
:1023F000A978884240D100273CE004EBC40046495C
:1024000001EB8000001D10F807904FF000082CE051
:1024100009F08000802807D13C490F980880514678
:102420003046FFF733F906E03849109808805146E6
:102430003046FFF72BF94FF6FF7000EA4909701C90
:1024400086B2A6EB0B0010280BD15E460AF1010004
:102450001FFA80FA0098AAEB0000102801D1DDF8DD
:1024600000A008F1010000F0FF08B8F1080FCFDB71
:10247000781CC7B2202FC0DB601CC4B26E2CA0DB5E
:10248000ED1C06F1100086B2B3462878002896D1DC
:1024900000E000BF87E0039801287DD10498102850
:1024A0007AD17CE0002471E0C4EBC40000EB04109E
:1024B0001A4911F810002978884265D1C4EBC4008C
:1024C00000EB0410154901EB400040786978884220
:1024D0005AD1C4EBC40000EB0410104901EB4000DA
:1024E0008078A97888424FD100274BE0C4EBC40024
:1024F00000EB0410094901EB4000001D10F80790A3
:102500004FF0000839E000003402010812090020F1
:102510006A0100207CEB000844ED000885060108F4
:1025200009F08000802807D120490F980880514683
:102530003046FFF7ABF806E01C491098088051467A
:102540003046FFF7A3F84FF6FF7000EA4909701C08
:1025500086B2A6EB0B0010280BD15E460AF10100F3
:102560001FFA80FA0098AAEB0000152801D1DDF8C7
:1025700000A008F1010000F0FF08B8F1080FCFDB60
:10258000781CC7B22A2FB1DB601CC4B2152C8BDBC0
:10259000ED1C06F1100000E005E086B2B346287895
:1025A00000287FF47FAF05B0BDE8F08F120900204E
:1025B0002DE9FF4F81B004460D461646A34600950F
:1025C0005AE00498182857D100274EE007EBC700BF
:1025D00000EB07102B4911F810003178884242D1E6
:1025E0004FF000083CE007EBC70000EB071025495F
:1025F00001EB4000801C10F808A04FF0000928E013
:102600000AF08000802807D11F490E9808802946CB
:102610002046FFF73BF806E01B490F980880294643
:102620002046FFF733F84FF6FF7000EA4A0A601CB5
:1026300084B2A4EB0B00102807D15C46681C85B25D
:102640000098281A182800D1009D09F1010000F017
:10265000FF09B9F1080FD3DB08F1010000F0FF0812
:10266000B8F1300FBFDB781CC7B21F2FAEDB761C72
:1026700004F1100084B2A34630780028A1D105B03F
:10268000BDE8F08FBCFC0008120900202DE9FF4FC7
:1026900081B005460F461646AB460097DEE004982B
:1026A00018286AD1002460E004EB041000EB8000DD
:1026B0006E49085C3178884255D104EB041000EB78
:1026C00080006A4908444078717888424BD104EB15
:1026D000041000EB8000654908448078B178884296
:1026E00041D14FF000083BE004EB041000EB800008
:1026F0005E490844001D10F808A04FF0000928E0CA
:102700000AF08000802807D159490E980880394680
:102710002846FEF7BBFF06E055490F98088039466A
:102720002846FEF7B3FF4FF6FF7000EA4A0A681C1E
:1027300085B2A5EB0B00182807D15D46781C87B23F
:102740000098381A1B2800D1009F09F1010000F001
:10275000FF09B9F1080FD3DB08F1010000F0FF0811
:10276000B8F1510FC0DB601CC4B20C2C9CDBF61C12
:1027700005F1180085B2AB4670E0049810286DD1C1
:10278000002464E0C4EBC40000EB0410394911F8E4
:1027900010003178884258D1C4EBC40000EB04101B
:1027A000344901EB40004078717888424DD1C4EB48
:1027B000C40000EB04102F4901EB40008078B17891
:1027C000884242D14FF000083CE0C4EBC40000EB6B
:1027D0000410284901EB4000001D10F808A04FF03C
:1027E000000928E00AF08000802807D120490E98CF
:1027F000088039462846FEF749FF06E01C490F9835
:10280000088039462846FEF741FF4FF6FF7000EA80
:102810004A0A681C85B2A5EB0B00102807D15D465B
:10282000781C87B20098381A152800D1009F09F14A
:10283000010000F0FF09B9F1080FD3DB08F1010036
:1028400000F0FF08B8F12A0FBFDB601CC4B2122CE5
:1028500098DBF61C05F1100085B2AB4630780028F5
:102860007FF41DAF05B0BDE8F08F00003402010811
:1028700012090020850601082DE9F05F804689468F
:1028800016469A46DDF828B0002700241FE00025F0
:102890001AE004FB0650012101EB40001BF8007018
:1028A0004FF6FF7000EA072704FB06501BF81000E4
:1028B00007430948078009EB040291B208EB0502BF
:1028C00090B2FEF7E3FE6D1CB542E2DB641C54459A
:1028D000DDDBBDE8F09F000012090020F8B50546D9
:1028E0000E4617461C4627E020780D2801D1641CAF
:1028F00022E020780A2803D1A81D85B2641C1BE0C1
:10290000E82D03DD552506F1100086B2B6F59C7F53
:1029100000DDF8BD0020009022783B463146284675
:10292000FFF7FAFA0C2F02D1A81D85B202E005F1DB
:10293000080085B2641C00BF20780028D4D100BFF5
:10294000E7E700004FF48041074A11604900116039
:1029500040F31701054AD1605114034A1160121F58
:102960001160890011607047140C01400010014093
:1029700000B52C20FFF7E6FF00BD00BFFEE7704763
:1029800070B5002100230F22C47804B3154C2468CD
:1029900004F4E064C4F5E064210AC1F10403CA4010
:1029A000447804FA03F184781440214309010E4C61
:1029B0000678A155047804F01F050124AC40057881
:1029C0006D11AD0005F1E025C5F8004109E004787E
:1029D00004F01F050124AC40044D0678761145F83B
:1029E000264070BD0CED00E000E400E080E100E076
:1029F00002490143024A1160704700000000FA05D5
:102A00000CED00E001460020034A506820F44040ED
:102A100008435060704700000010024029B1064A88
:102A2000D2690243044BDA6104E0034AD26982436B
:102A3000014BDA61704700000010024029B1064ADC
:102A400012690243044B1A6104E0034A126982438B
:102A5000014B1A61704700000010024029B1064A7C
:102A600092690243044B9A6104E0034A92698243EB
:102A7000014B9A61704700000010024029B1064ADC
:102A8000D2680243044BDA6004E0034AD26882430E
:102A9000014BDA6070470000001002400348406AB2
:102AA00040F0807001494862704700000010024009
:102AB00030B500210022002400232D4D6D6805F063
:102AC0000C0121B1042905D0082923D105E0294DA5
:102AD000056022E0274D05601FE0254D6D6805F477
:102AE0007012234D6D6805F48034022505EB924287
:102AF0001CB9214D554305600BE01D4D6D6805F473
:102B000000351DB11C4D5543056002E0194D55437C
:102B1000056002E0174D056000BF00BF144D6D68F1
:102B200005F0F0010909154D6B5C0568DD40456055
:102B30000F4D6D6805F4E061090A104D6B5C456846
:102B4000DD4085600A4D6D6805F46051C90A0B4D82
:102B50006B5C4568DD40C560054D6D6805F440411E
:102B6000890B074D6B5CC568B5FBF3F5056130BD9E
:102B70000010024000127A0000093D000000002011
:102B80001000002010B501460022002300204A1149
:102B9000012A02D1094C236806E0022A02D1074C1F
:102BA000236A01E0054C636A01F01F02012494408E
:102BB0001C400CB1012000E0002010BD00100240BC
:102BC00001490860704700008004424210B500F0DF
:102BD00001F810BD0CB5002001900090334800684A
:102BE00040F480303149086000BF3048006800F48C
:102BF000003000900198401C0190009818B901988D
:102C0000B0F5A06FF1D12948006800F4003010B190
:102C10000120009001E0002000900098012843D19D
:102C20002348006840F01000214908600846006809
:102C300020F0030008600846006840F002000860C9
:102C40001A48406819494860084640684860084684
:102C5000406840F4806048600846406820F47C107A
:102C600048600846406840F4E8104860084600683C
:102C700040F08070086000BF0C48006800F00070F1
:102C80000028F9D00948406820F00300074948604F
:102C90000846406840F00200486000BF03484068B2
:102CA00000F00C000828F9D10CBD00000010024013
:102CB00000200240042808D14FF0E021096941F0CA
:102CC00004014FF0E022116107E04FF0E0210969B3
:102CD00021F004014FF0E0221161704710B507F0B8
:102CE0005BFE012801D007F017FC10BD10B513489A
:102CF000006840F00100114908600846406810492A
:102D000008400E494860084600680E4908400B49D3
:102D100008600846006820F4802008600846406883
:102D200020F4FE0048604FF41F008860FFF74EFF5C
:102D30004FF000600449086010BD00000010024020
:102D40000000FFF8FFFFF6FE08ED00E010B50121DE
:102D5000094800F054F8012808D108480268406882
:102D6000521C40F1000005490A60486001210248F8
:102D700000F036F810BD000000040040C80000203C
:102D80007FB505460C4601210220FFF747FEADF84E
:102D90000850ADF804400020ADF80A00ADF8060078
:102DA00001A90E4800F046F8012211460B4800F038
:102DB00037F81D208DF8000001208DF8010000205B
:102DC0008DF8020001208DF803006846FFF7D8FD5A
:102DD0000121024800F007F87FBD00000004004018
:102DE000CA430282704721B1028842F00102028088
:102DF00004E002884FF6FE731A400280704730B537
:102E00000246002000230024158A05EA0103958963
:102E100005EA010413B10CB1012000E0002030BD2F
:102E20001AB183890B43838102E083898B438381B9
:102E300070470000002202881D4B98420ED01D4BA7
:102E400098420BD0B0F1804F08D01B4B984205D070
:102E50001A4B984202D01A4B984204D14FF68F7306
:102E60001A404B881A43174B984207D0164B98428A
:102E700004D04FF6FF431A40CB881A4302808B8858
:102E800083850B8803850A4B98420BD0094B9842E7
:102E900008D00E4B984205D00D4B984202D00D4BF6
:102EA000984201D10B7A0386012383827047000088
:102EB000002C0140003401400004004000080040A4
:102EC000000C004000100040001400400040014091
:102ED000004401400048014038B540F225512748E0
:102EE00000F095F9002847D0244800F04BFAC4B20E
:102EF0002348007870B14021224800F017F921469C
:102F0000204800F044FA00BF40211E4800F072F94A
:102F10000028F9D01C480068B0F5FF7F09D81B488D
:102F200019490968445418480068401C164908604B
:102F30000FE04FF400711548FDF77BF900201249AE
:102F400008601248096844540F480068401C0E4944
:102F500008600FA10D48FDF783F968B10F480078AC
:102F60000E49497801EB41010844052804D169461E
:102F70000B48006807F09EF938BD0000003801409A
:102F8000C200002000440040180900209C5D002081
:102F90003C2F526571756573743E0000300000204F
:102FA0002800002038B540F225511F4800F02FF9C5
:102FB000002836D01C4800F0E5F9C4B20D2C01D031
:102FC0000A2C09D12146184800F0E1F96946174852
:102FD000006807F06FF938BD082C11D1214612485E
:102FE00000F0D5F91248006848B111480068401E49
:102FF0000F49086000200F490D4A12688854EAE71B
:103000000B4800687F280CD22146074800F0BFF922
:10301000084807490968445405480068401C0449A9
:10302000086000BFD7E70000004400401C000020FB
:10303000140000202409002038B540F225512A4808
:1030400000F0E5F800284DD0274800F09BF9C4B205
:103050002648007870B14021254800F067F82146E5
:10306000234800F094F900BF4021214800F0C2F845
:103070000028F9D004B938BD1E480068B0F5FF7FBC
:1030800009D81D481B49096844541A480068401C67
:103090001849086002E019A001F0E4F9204800781E
:1030A00000B3204800781F49497801EB41010844EA
:1030B000052817D107F086FC0546002003462A465E
:1030C000062100901848006807F03CFE07F07AFCE3
:1030D0000546002003462A46072100901248006852
:1030E00007F030FE00BFC6E700480040C1000020E6
:1030F00000440040580100201C5B00205541525400
:10310000335F527842756666657228554152545F46
:103110004D35333130292069732066756C6C210080
:103120001C090020300000202009002001F400725A
:10313000B2F5007F00D100BFCA430280704721B1C1
:10314000828942F40052828104E082894DF6FF7345
:103150001A4082817047000010B50446204884421E
:1031600009D101218803FFF789FC00214FF4804039
:10317000FFF784FC32E01B48844209D10121480456
:10318000FFF75CFC00214FF40030FFF757FC25E00F
:103190001548844209D101218804FFF74FFC002122
:1031A0004FF48020FFF74AFC18E01048844209D110
:1031B0000121C804FFF742FC00214FF40020FFF773
:1031C0003DFC0BE00A48844208D101210805FFF7C5
:1031D00035FC00214FF48010FFF730FC10BD0000DB
:1031E000003801400044004000480040004C0040CE
:1031F0000050004002460020B1F5007F00D100BF22
:1032000013880B400BB1012000E00020704770B51F
:103210000246002400230025002040F66A16B14231
:1032200000D100BFC1F3421501F01F03012606FAC9
:1032300003F3012D02D19689334006E0022D02D11D
:10324000168A334001E0968A33400C12012606FAB2
:1032500004F41688344013B10CB1012000E00020C2
:1032600070BDF0B50346002400260025002040F67E
:103270006A17B94200D100BF1846C1F3421401F0E9
:103280001F06012707FA06F5012C01D10C3004E0D6
:10329000022C01D1103000E014301AB107682F431E
:1032A000076002E00768AF430760F0BD2DE9F04713
:1032B00086B005460E460024A24600BFA146002760
:1032C000B08900B100BF2F462C8A4CF6FF70044035
:1032D000F08804432C82AC894EF6F3100440B08889
:1032E00031890843718908430443AC81AC8A4FF6A5
:1032F000FF400440B0890443AC8201A8FFF7D8FB2B
:103300001F48874202D1DDF810A001E0DDF80CA0D3
:10331000A88900F4004040B10AEBCA0000EB0A1093
:1033200031684900B0FBF1F807E00AEBCA0000EB96
:103330000A1031688900B0FBF1F86420B8FBF0F0A6
:1033400004012009642101FB1089A88900F40040D0
:1033500040B1322000EBC900B0FBF1F000F00700F3
:10336000044308E0322000EB09106421B0FBF1F0C7
:1033700000F00F0004432C8106B0BDE8F087000088
:103380000038014001468888C0F308007047C1F347
:1033900008028280704700BFFEE7000030B589B0A8
:1033A000202101A8FCF745FF3A493BA001F05AF85B
:1033B0003BA13E48FCF754FF00F109043CA13B4807
:1033C000FCF74EFF05462A1B214601A8FCF718FF13
:1033D0003AA101A8FCF769FF10B900F0B7F94EE077
:1033E00039A101A8FCF761FF10B900F0D9FA46E055
:1033F00038A101A8FCF759FF10B900F059F93EE0D7
:1034000037A101A8FCF751FF10B900F07BFA36E0B4
:1034100036A101A8FCF749FF38B9012036490870E8
:103420001C4936A001F01EF829E039A101A8FCF7DB
:103430003CFF38B9002030490870164938A001F027
:1034400011F81CE03BA101A803F03AFFB8B13BA181
:1034500001A803F00DFF90B10E493AA001F002F867
:1034600034A11248FCF7FCFE041D34A10F48FCF700
:10347000F7FE05462A1B2146384804F097FE4FF414
:1034800000710A48FCF7D5FE00203549086009B0F4
:1034900030BD00003AF2010825732E2E2E0D0A00D1
:1034A0003C526571756573743E0000009C5D0020A0
:1034B0003C2F526571756573743E000064657669D2
:1034C0006365496E666F0000726164696F496E667C
:1034D0006F00000061747461636854696D65000079
:1034E00070696E6744656C6179000000626C6541CB
:1034F00074456E61626C65001C09002025732862AA
:103500006C654174456E61626C65290D0A000000AE
:10351000626C65417444697361626C65000000000F
:10352000257328626C65417444697361626C652916
:103530000D0A00003C41543E000000003C2F415465
:103540003E000000257328526563762041542043D5
:103550006F6D6D616E64290D0A0000000048004027
:103560001809002030B58BB02822104901A8FCF7BB
:1035700047FE05250E490FA000F074FF0DE041F253
:103580008833012201A90DA000F0FEFF0446012CA2
:1035900001D10BB030BD681EC5B2002DEFDC04496F
:1035A00008A000F05FFF0020F3E700003CF00108F6
:1035B0001BF0010825732E2E2E0D0A002B2B2B61DC
:1035C00000000000257328457865637574652066E2
:1035D00061696C21290D0A0008B50D490DA000F0A4
:1035E00041FF0E48022300224FF4FA7100900CA014
:1035F00007F072FB0E490860FFF7B4FF00F01AF8FD
:1036000000F0A4FB00F042FB00F0D0FA08BD00007F
:10361000C4F1010825732E2E2E0D0A003555000821
:10362000626C65417445786554696D65720000008F
:103630002009002030B58BB02822104901A8FCF7E2
:10364000DFFD05250E490FA000F00CFF0DE041F253
:103650008833012201A90DA000F096FF0446012C39
:1036600001D10BB030BD681EC5B2002DEFDC04499E
:103670000AA000F0F7FE0020F3E700007CF001084C
:1036800064F0010825732E2E2E0D0A0041542B4D97
:1036900041585055543D4F46460D0A002573284564
:1036A000786563757465206661696C21290D0A006F
:1036B00010B5A0B080216846FCF7BBFD11A168469B
:1036C000FCF7C2FD124913A000F0CCFE01F06EFF22
:1036D0000446224611A1184804F0CCFD164968465C
:1036E000FCF7B2FD15A16846FCF7AEFD6846FCF795
:1036F000D5FD044622466946134804F057FD20B024
:1037000010BD00003C526573706F6E73653E000023
:1037100007F2010825732E2E2E0D0A003C617474E9
:1037200061636854696D653E25643C2F6174746102
:10373000636854696D653E009C5F00203C2F5265B4
:1037400073706F6E73653E000038014010B5ADF5C3
:10375000007D4FF400716846FCF76BFD39493AA0D3
:1037600000F080FE3AA16846FCF76EFD40213B4820
:1037700001F06AFA3AA16846FCF766FD37496846E7
:10378000FCF762FD39A16846FCF75EFD4021334835
:1037900001F0D2FA38A16846FCF756FD2F49684679
:1037A000FCF752FD38A16846FCF74EFD40212B483E
:1037B00001F0EEF838A16846FCF746FD2749684657
:1037C000FCF742FD36A16846FCF73EFD4021234848
:1037D00001F0C4F935A16846FCF736FD1F4968467B
:1037E000FCF732FD33A16846FCF72EFD40211B4853
:1037F00001F040F931A16846FCF726FD17496846FB
:10380000FCF722FD2FA16846FCF71EFD2FA168469C
:10381000FCF71AFD30A16846FCF716FD32A1684698
:10382000FCF712FD33A16846FCF70EFD6846FCF775
:1038300035FD044622466946314804F0B7FC0DF5D3
:10384000007D10BDD4F1010825732E2E2E0D0A0027
:103850003C526573706F6E73653E00009C5F002084
:103860003C6D6F64756C653E000000003C2F6D6F11
:1038700064756C653E0000003C6D6F64756C655F3F
:103880007665723E000000003C2F6D6F64756C65BC
:103890005F7665723E0000003C69636369643E00C8
:1038A0003C2F69636369643E000000003C696D73EE
:1038B000693E00003C2F696D73693E003C696D658F
:1038C000693E00003C2F696D65693E003C66697287
:1038D0006D776172653E00004E425F5465726D699E
:1038E0006E616C5F563031003C2F6669726D776196
:1038F00072653E003C2F526573706F6E73653E00BB
:103900000038014010B5A0B080216846FCF791FC5A
:10391000114912A000F0A6FD12A16846FCF794FC24
:1039200001F012FB0446224611A1184804F0A2FC43
:1039300016496846FCF788FC15A16846FCF784FC2C
:103940006846FCF7ABFC044622466946134804F07F
:103950002DFC20B010BD000021F2010825732E2E91
:103960002E0D0A003C526573706F6E73653E000049
:103970003C70696E6744656C61793E25643C2F70CC
:10398000696E6744656C61793E0000009C5F0020B1
:103990003C2F526573706F6E73653E0000380140B6
:1039A00010B5ADF5287D4FF4007128A8FCF741FC57
:1039B000202120A8FCF73DFC202118A8FCF739FCA9
:1039C000202110A8FCF735FC202108A8FCF731FCC9
:1039D000404941A000F046FD41A128A8FCF734FC75
:1039E00001F072FE0446224640A1444804F042FC25
:1039F000424928A8FCF728FC684601F0CDFE2022A9
:103A0000694608A8FCF7FCFB3DA13C480A9A04F073
:103A100031FC3A4928A8FCF717FC3DA13748099A20
:103A200004F028FC354928A8FCF70EFC3CA13348DB
:103A3000089A04F01FFC314928A8FCF705FC3DA1B9
:103A40002E480B9A04F016FC2C4928A8FCF7FCFB26
:103A50000CAA3CA1294804F00DFC284928A8FCF731
:103A6000F3FB01F0E3F9044622463BA1234804F0AE
:103A700001FC224928A8FCF7E7FB202218A920A86E
:103A800001F05EFB18AB20AA37A11C4804F0F2FB42
:103A90001A4928A8FCF7D8FB202110A801F0E6FA63
:103AA00010AA3AA1154804F0E5FB144928A8FCF730
:103AB000CBFB3AA128A8FCF7C7FB28A8FCF7EEFB34
:103AC0000446224628A9384804F070FB0DF5287DED
:103AD00010BD0000EEF1010825732E2E2E0D0A00F8
:103AE0003C526573706F6E73653E00003C6373718A
:103AF0003E25643C2F6373713E0000009C5F0020F4
:103B00003C736E723E25643C2F736E723E00000063
:103B10003C727372713E25643C2F727372713E0069
:103B20003C65617266636E3E25643C2F656172661A
:103B3000636E3E003C65636C3E25643C2F65636CA0
:103B40003E0000003C63656C6C69643E25733C2F4D
:103B500063656C6C69643E003C62616E643E256422
:103B60003C2F62616E643E003C74333332343E2538
:103B7000733C2F74333332343E3C74333431323E31
:103B800025733C2F74333431323E00003C706C6D31
:103B90006E3E25733C2F706C6D6E3E003C2F52655F
:103BA00073706F6E73653E000038014070B58AB067
:103BB000282220496846FCF723FB05260A251E49D2
:103BC0001EA000F04FFC2DE041F28833012269462F
:103BD0001CA000F0D9FC0446012C21D11BE01BA144
:103BE0001C48FCF73DFB40B14FF400711948FCF74D
:103BF00020FB0020184908600FE0681EC5B235B9E7
:103C00000D4916A000F02EFC02200AB070BD4FF442
:103C10007A7005F0EFF8002DE1DC00BF0120F4E739
:103C2000701EC6B2002ECFDC034913A000F01AFCB0
:103C30000020EAE784F1010870F1010825732E2EB7
:103C40002E0D0A0041542B5A0D0A00005553522DD7
:103C5000424C45009C5D0020180900202573285720
:103C6000616974426F6F744D73672074696D656F1D
:103C70007574290D0A000000257328457865637561
:103C80007465206661696C21290D0A0070B5A2B0C7
:103C900028221F4918A8FCF7B3FA0525402108A8D7
:103CA000FCF7C7FA20216846FCF7C3FA19491AA0A5
:103CB00000F0D8FB2021684600F0DCFE18A108A81F
:103CC000FCF7C2FA6846FCF7E9FA69460844861E22
:103CD000314608A8FCF7B8FA16A108A8FCF7B4FA10
:103CE0000DE041F28833012218A908A800F04CFC2D
:103CF0000446012C01D122B070BD681EC5B2002D52
:103D0000EFDC04490CA000F0ADFB0020F3E700005D
:103D100000F10108ECF0010825732E2E2E0D0A008B
:103D200041542B4E414D453D44353331302D415F9B
:103D3000000000000D0A00002573284578656375B2
:103D40007465206661696C21290D0A0030B58BB05D
:103D50002822104901A8FCF753FA05250E490FA0A7
:103D600000F080FB0DE041F28833012201A90DA093
:103D700000F00AFC0446012C01D10BB030BD681ED6
:103D8000C5B2002DEFDC04490AA000F06BFB002057
:103D9000F3E70000C4F00108A4F0010825732E2EFB
:103DA0002E0D0A0041542B55415254544D3D313093
:103DB000300D0A00257328457865637574652066A3
:103DC00061696C21290D0A000EB54FF6FF700021C4
:103DD00005A21023CDE90021029002229621502055
:103DE000FEF77EF900BFFEE7E58A9FE883BDE5BCEC
:103DF00080E58F91E4B8AD00FFF7EEFB0DE04EF6E5
:103E00006021012006F09EF804462246034904A0E2
:103E100000F028FB0CB1FFF7C1FAF0E705AE00088F
:103E20002573286E6F7469667956616C75653A20E2
:103E30002564290D0A00000010B5002406E005499C
:103E400001EB0410FDF7F2F9601CC4B2072CF6D3A5
:103E500010BD0000E8000020184919A000F002FB86
:103E6000FFF7EAFF29E04EF66021012006F06AF82C
:103E70000446012C21D12246104913A000F0F2FA89
:103E800064211748FCF7D5F900BF6422144915488E
:103E9000FDF75CF905461248FCF700FA0646324683
:103EA0000F49114804F082F9002DEED164210D482C
:103EB000FCF7BFF900200D490860D4E7CAAD00083F
:103EC00025732E2E2E0D0A002573284E6F746966F9
:103ED0007956616C75653A202564290D0A00000049
:103EE000880900202409002000440040140000201C
:103EF0002DE9F04F93B083464FF0000900240025D0
:103F00000027002012901190804610900F900E9084
:103F1000002682460D900C900B9040F29E5040F28D
:103F20003F134F22282100900020FDF703FC40F2B0
:103F30009E500021FEA21023CDE900210290022212
:103F400032210520FEF7CCF840F29E500021FCA261
:103F50001023CDE90021029002226E210520FEF7F8
:103F6000BFF840F29E500021F9A21023CDE90021B4
:103F700002900222BE210520FEF7B2F840F29E50C8
:103F80000021F7A21023CDE90021029002224FF474
:103F900087710520FEF7A4F844F29830F4490880B0
:103FA0004F23EF2219460020FDF718FB9F23EF2235
:103FB00019460020FDF712FBEF231A461946002090
:103FC000FDF70CFB40F23F13502228211046FDF76D
:103FD00005FB41F60510E64908804323EC22312118
:103FE0007D20FDF787FB4FF6FF700021E1A2102333
:103FF000CDE900210290022256215520FEF770F8EB
:104000004FF6FF700021DFA21023CDE900210290BE
:1040100002226D215520FEF763F84FF6FF70002154
:10402000DCA21023CDE90021029002228421552038
:10403000FEF756F84FF6FF700021CEA21023CDE90F
:10404000002102900222A6215520FEF749F84FF6E2
:10405000FF700021D3A21023CDE90021029002229B
:10406000BD215520FEF73CF84FF6FF700021C5A298
:104070001023CDE9002102900222D4215520FEF721
:104080002FF84FF6FF700021BAA21023CDE90021CE
:1040900002900222F6215520FEF722F84FF6FF701B
:1040A0000021B8A21023CDE900210290022240F2A3
:1040B0000D115520FEF714F84FF6FF700021BDA238
:1040C0001023CDE90021029002224FF49271552075
:1040D000FEF706F840F29E5042237F2232210090E4
:1040E0007E20FDF727FBB3E109F101095B464A4653
:1040F000B4A1B64804F0BEF800209D4908804FF6F0
:10410000FF70B3490880B14B102232215520FEF7D1
:10411000E5FB01F04BFA0446322004F06BFE012C63
:1041200010D9E91B129800FB0141E81B401CB1FBB0
:10413000F0F01290E81B02D01198844200D911943B
:104140006D1C01E06D1C7F1C0020894908804FF622
:10415000FF709F4908801298FCF761FA9D4906900C
:10416000FCF706F90790FCF778FA02460B46CDE912
:10417000080199A1954804F07DF8944B102256212E
:104180009620FEF7ABFB1198FCF749FA914906908F
:10419000FCF7EEF80790FCF760FA02460B46CDE913
:1041A00008018DA1894804F065F8884B10226D2123
:1041B0009620FEF793FB2846FCF731FA0590E81BA2
:1041C000FCF72DFA04900599FCF7D2F88449069083
:1041D000FCF79CF80790FCF740FA02460B46CDE945
:1041E000080180A1794804F045F8784B1022842119
:1041F0009620FEF773FB01F067FA0446CCB11F2C42
:1042000017D80F9800FB084108F10100B1FBF0F04E
:104210000F90B8F1000F02D00E98844200D20E9495
:10422000B8F1000F02D01098844200D9109408F120
:1042300001086FA165480F9A04F01CF8634B102227
:10424000A6219620FEF74AFB69A160480E9A04F069
:1042500011F85E4B1022BD219620FEF73FFB64A1B2
:104260005A48109A04F006F8584B1022D421962090
:10427000FEF734FB00F068FE0446B4B1A6EB0A0179
:104280000D9800FB0141A6EB0A00401CB1FBF0F0C9
:104290000D9016B10C98844200D90C9416B10B986D
:1042A000844200D20B94761C02E0761C0AF1010ACB
:1042B00051A146480D9A03F0DDFF444B1022F62130
:1042C0009620FEF70BFB4CA140480C9A03F0D2FF5E
:1042D0003E4B102240F20D119620FEF7FFFA3046B9
:1042E000FCF79DF905905046FCF799F90490059963
:1042F000FCF73EF83A490690FCF708F80790FCF7FF
:10430000ACF902460B46CDE9080136A12F4803F06F
:10431000B1FF2E4B10224FF492719620FEF7DEFA79
:104320005846FCF77CF901904846FCF778F967E0BD
:10433000E6B58BE8AF95E8BF9BE5BAA600000000A4
:10434000E9A9BBE7BD91E697B6E997B40000000084
:10435000E4BFA1E58FB7E8B4A8E9878F00000000AB
:10436000E7BD91E7BB9CE5BBB6E697B60000000051
:1043700012090020E5B9B3E59D87E580BCEFBC9A42
:1043800000000000E69C80E5A4A7E580BCEFBC9A95
:1043900000000000E68890E58A9FE78E87EFBC9AD0
:1043A00000000000E69C80E5B08FE580BCEFBC9A81
:1043B00000000000E4B8A2E58C85E78E87EFBC9A88
:1043C0000000000025642F25640000001C5D002013
:1043D0001409002000007A44252D352E3166730023
:1043E0000000C842252D352E31662525000000002D
:1043F000252D326400000000252D35646D7300000A
:1044000000900199FBF7B4FF14490290FBF77EFF7F
:104410000390FCF722F9CDE9040104F021FD00220C
:104420000F4BCDE90601FBF7E1FFCDE90801FCF7F1
:10443000FBF880B20A9040F29E5042230090322155
:104440007E200A9AFDF776F94FF4FA6004F0D2FC68
:10445000D945FFF449AE13B0BDE8F08F0000DC424F
:1044600000805F400FB410B5C2B04FF4807102A855
:10447000FBF7DFFE45A80190F92102A8019B449AB1
:1044800003F00CFF002001900748007840B102A81B
:10449000FBF704FF0446224602A9044803F086FE07
:1044A00042B010BC5DF814FBD00000200044004076
:1044B0002DE9F05F05460E46174698464FF0000975
:1044C0004FF0640A4FF400711D48FBF7B2FE002064
:1044D0001C4908602846FBF7E1FE83465A462946F8
:1044E000194803F063FE2A46184919A0FFF7BAFFDE
:1044F00024E0002411E004EB840006EB8001104866
:10450000FBF7AEFE38B1621C104914A0FFF7AAFFFA
:10451000601CBDE8F09F601CC4B2BC42EBDB09FB31
:104520000AF0404505D3094911A0FFF79BFF002081
:10453000EFE7504604F05EFC09F10109D9E70000FD
:104540001C5B00205801002000480040A0AE00087D
:1045500025732853656E642D3E25730025732872DC
:10456000657475726E3A202564290D0A00000000FA
:10457000257328657865637574652074696D656F4A
:10458000757421290D0A00002DE9F05F05460E46DD
:10459000174698464FF000094FF0640A4FF4007137
:1045A0001D48FBF746FE00201C4908602846FBF723
:1045B00075FE83465A462946194803F0F7FD2A46F8
:1045C000184919A0FFF74EFF24E0002411E004EB86
:1045D000840006EB80011048FBF742FE38B1621CF4
:1045E000104914A0FFF73EFF601CBDE8F09F601C5F
:1045F000C4B2BC42EBDB09FB0AF0404505D30949D4
:1046000011A0FFF72FFF0020EFE7504604F0F2FB68
:1046100009F10109D9E700009C5D0020180900207C
:104620000038014004F0010825732853656E642D9D
:104630003E25730025732872657475726E3A2025C5
:1046400064290D0A000000002573286578656375EC
:1046500074652074696D656F757421290D0A0000F9
:10466000FEB505460E469D499DA0FFF7FBFE06EBF5
:1046700046002844C4B24FF6FF70FCF77BFF9A480F
:104680001E231A46052100900846FEF7F5F84FF65E
:10469000FF7040F2194195A21823CDE90021029044
:1046A000002206212320FDF71BFD944814231A46FF
:1046B0000A210090A520FEF7DFF80020904908802D
:1046C0002723EF221946FCF789FF8E4832231A462A
:1046D0003C2100900F20FEF7CFF86CB940F29E50BD
:1046E000002189A21023CDE90021029002226E212F
:1046F0000820FDF7F5FC0CE04FF6FF70002182A2C8
:104700001023CDE90021029002226E210820FDF73E
:10471000E7FC814832231A463C2100905F20FEF7D7
:10472000ABF8012C0DD140F29E5000217BA210234A
:10473000CDE90021029002226E215820FDF7D0FC25
:104740000CE04FF6FF70002174A21023CDE9002188
:10475000029002226E215820FDF7C2FC73483223DA
:104760001A463C210090AF20FEF786F8022C0DD1AE
:1047700040F29E5000216EA21023CDE9002102904C
:1047800002226E21A820FDF7ABFC0CE04FF6FF7073
:10479000002167A21023CDE90021029002226E21A0
:1047A000A820FDF79DFC664832231A46962100900A
:1047B0000F20FEF761F8032C0DD140F29E5000212E
:1047C00060A21023CDE9002102900222C821082016
:1047D000FDF786FC0CE04FF6FF70002159A2102374
:1047E000CDE9002102900222C8210820FDF778FCC3
:1047F000584832231A46962100905F20FEF73CF875
:10480000042C0DD140F29E50002153A21023CDE97B
:10481000002102900222C8215820FDF761FC0CE023
:104820004FF6FF7000214CA21023CDE90021029029
:104830000222C8215820FDF753FC4B4832231A4668
:1048400096210090AF20FEF717F8052C0DD140F20D
:104850009E50002145A21023CDE9002102900222A2
:10486000C821A820FDF73CFC0CE04FF6FF700021AA
:104870003EA21023CDE9002102900222C821A820E7
:10488000FDF72EFC3D4832231A46F02100900F2000
:10489000FDF7F2FF062C0ED140F29E50002138A207
:1048A0001023CDE90021029002224FF491710820DB
:1048B000FDF716FC0DE04FF6FF70002130A210232B
:1048C000CDE90021029002224FF491710820FDF7FA
:1048D00007FC3C2001F084F9FEBD0000ACEF0108AC
:1048E00025732E2E2E000000A3110108E4B8ADE7B9
:1048F000A7BBE789A9E88194E7BD91004B0A0108AD
:1049000012090020CB660108E8AEBEE5A487E4BF2B
:10491000A1E681AF00000000DB8D0108E9A9BBE73B
:10492000BD91E6B58BE8AF9500000000537A010811
:10493000E4BFA1E58FB7E58F82E695B000000000E7
:1049400063A10108E7BD91E7BB9CE5BBB6E697B65E
:1049500000000000EBB40108E7BBBCE59088E6B5B9
:104960008BE8AF950000000073C80108E8939DE74D
:104970008999E79BB4E8BF9E00000000FBDB0108BB
:10498000E4BDBFE794A8E8AFB4E6988E000000004D
:104990002DE9F0438BB005460E462822204901A898
:1049A000FBF72EFC052731462846FBF742FC2AE0A0
:1049B000781EC7B24FF4FA63022201A919A0FFF7CB
:1049C00077FD00F0FF08B8F1010F18D118A11A48BF
:1049D000FBF746FC841D19A12046FBF741FC8146EC
:1049E000A9EB040221462846FBF76DFC2A4616492E
:1049F00016A0FFF737FD01200BB0BDE8F0834FF4A0
:104A0000FA7004F0F7F9002FD2DC324612A12846E2
:104A1000FBF738FC0C4912A0FFF724FD0020EBE760
:104A2000CCAF000841542B4E434349440D0A0000CB
:104A30004E434349443A00001C5B00200D0A0D0A16
:104A40004F4B0D0A00000000BCAF0008257328255D
:104A500073290D0A000000004E4F2053494D0000FD
:104A6000257328457865204661696C656421290DA8
:104A70000A0000002DE9F0438BB005460E462822BF
:104A8000204901A8FBF7BCFB052731462846FBF768
:104A9000D0FB2AE0781EC7B24FF4FA63022201A9C4
:104AA00019A0FFF705FD00F0FF08B8F1010F18D1BC
:104AB00018A11A48FBF7D4FB441D19A12046FBF7A7
:104AC000CFFB8146A9EB040221462846FBF7FBFBFE
:104AD0002A46164916A0FFF7C5FC01200BB0BDE819
:104AE000F0834FF4FA7004F085F9002FD2DC3246DF
:104AF00012A12846FBF7C6FB0C4913A0FFF7B2FC36
:104B00000020EBE73CB0000841542B4347534E3D97
:104B1000310D0A004347534E3A0000001C5B002051
:104B20000D0A0D0A4F4B0D0A000000002CB00008C2
:104B30002573282573290D0A000000004E4F204DD3
:104B40006F64756C65000000257328457865204604
:104B500061696C656421290D0A0000002DE9F043AC
:104B60008BB005460E462822264901A8FBF748FBD4
:104B7000052731462846FBF75CFB35E0781EC7B2B7
:104B80004FF4FA63022201A91FA0FFF791FC00F085
:104B9000FF08B8F1010F23D11E4C0BE0207820282C
:104BA00005D020780D2802D020780A2801D1641C75
:104BB00000E000E0F2E700BF17A12046FBF750FB42
:104BC0008146A9EB040221462846FBF77CFB2A46D6
:104BD000124913A0FFF746FC01200BB0BDE8F0839B
:104BE0004FF4FA7004F006F9002FC7DC32460FA12B
:104BF0002846FBF747FB09490EA0FFF733FC0020CE
:104C0000EBE7000004B0000841542B43494D490D27
:104C10000A0000001C5B00200D0A0000F4AF000831
:104C20002573282573290D0A000000004E4F2053DC
:104C3000494D0000257328457865204661696C65FB
:104C40006421290D0A0000002DE9F0438BB00546D0
:104C50000E462822264901A8FBF7D2FA052731463D
:104C60002846FBF7E6FA35E0781EC7B24FF4FA6340
:104C7000022201A91FA0FFF71BFC00F0FF08B8F1FA
:104C8000010F23D11E4C0BE02078202805D020787E
:104C90000D2802D020780A2801D1641C00E000E031
:104CA000F2E700BF17A12046FBF7DAFA8146A9EB2D
:104CB000040221462846FBF706FB2A46134914A0A6
:104CC000FFF7D0FB01200BB0BDE8F0834FF4FA7082
:104CD00004F090F8002FC7DC324610A12846FBF7FD
:104CE000D1FA0A490FA0FFF7BDFB0020EBE7000057
:104CF00054AF000841542B43474D4D0D0A000000AE
:104D00001C5B00200D0A0D0A4F4B00003CAF000851
:104D10002573282573290D0A000000004552524FC3
:104D200052000000257328457865204661696C654E
:104D30006421290D0A0000002DE9F0438BB00546DF
:104D40000E462822264901A8FBF75AFA05273146C4
:104D50002846FBF76EFA35E0781EC7B24FF4FA63C7
:104D6000022201A91FA0FFF7A3FB00F0FF08B8F182
:104D7000010F23D11E4C0BE02078202805D020788D
:104D80000D2802D020780A2801D1641C00E000E040
:104D9000F2E700BF17A12046FBF762FA8146A9EBB4
:104DA000040221462846FBF78EFA2A46144915A02C
:104DB000FFF758FB01200BB0BDE8F0834FF4FA7009
:104DC00004F018F8002FC7DC324611A12846FBF783
:104DD00059FA0B4910A0FFF745FB0020EBE7000054
:104DE00094AF000841542B434D5645520D0A000024
:104DF0001C5B00200D0A0D0A4F4B0D0A000000003D
:104E00007CAF00082573282573290D0A00000000D7
:104E10004552524F520000002573284578652046C0
:104E200061696C656421290D0A0000002DE9F041DB
:104E30008AB028222E496846FBF7E2F905260025AC
:104E40004EE0701EC6B24FF4FA630222694629A0F2
:104E5000FFF72EFBC7B2012F3ED129A12A48FBF74D
:104E6000FFF90446002C33D0E41D4FF000081CE08D
:104E70002078202801D1641C17E020782D2803D148
:104E80004FF00108641C10E0207830280BDB2078FC
:104E9000392808DC207805EB850100EB4100A0F102
:104EA0003005641C00E001E000BFE1E700BFB8F19D
:104EB000000F02D04FF0FF3000E0012045432A46AA
:104EC000124913A0FFF7CEFA28460AB0BDE8F081D8
:104ED0000E4912A0FFF7C6FA4FF4FA7003F08AFFEA
:104EE000002EAEDC094913A0FFF7BCFA0020ECE766
:104EF000B0B0000841542B4E42414E443F0D0A00D1
:104F00002B4E42414E443A001C5B00209CB00008EE
:104F10002573282564290D0A000000002573284206
:104F2000414E44204E6F7420466F756E6421290DEA
:104F30000A000000257328457865204661696C6584
:104F40006421290D0A000000F0B59FB03C223049D1
:104F500010A8FBF755F90527002640216846FBF706
:104F600068F92CA16846FBF76FF92D496846FBF7F5
:104F70006BF92CA16846FBF767F940E0781EC7B2D1
:104F800042F6E063032210A96846FFF791FAC5B222
:104F9000012D28D14FF47A7003F02CFF1FA1254872
:104FA000FBF75EF9441C14E02078202801D1641C32
:104FB0000FE0207830280BDB2078392808DC2078B7
:104FC00006EB860100EB4100A0F13006641C00E016
:104FD00000E0E9E700BF3246174918A0FFF742FAA0
:104FE00030461FB0F0BD022D05D1134916A0FFF7C2
:104FF00039FA0020F5E74FF4FA7003F0FBFE002FBA
:10500000BCDC0D4914A0FFF72DFA0020E9E70000F1
:1050100034B1000841542B4E50494E473D0000002A
:105020005C0100202C3130302C31303030302C31CC
:105030000D0A00001C5B00201CB100082573282508
:1050400064290D0A000000002573284E50494E4780
:1050500045525221290D0A002573284578652046BE
:1050600061696C656421290D0A0000002DE9F04397
:105070008BB005460E462822204901A8FBF7C0F850
:10508000052731462846FBF7D4F82AE0781EC7B238
:105090004FF4FA63022201A919A0FFF709FA00F000
:1050A000FF08B8F1010F18D118A11948FBF7D8F87B
:1050B000441C16A12046FBF7D3F88146A9EB040255
:1050C00021462846FBF7FFF82A46124912A0FFF7AF
:1050D000C9F901200BB0BDE8F0834FF4FA7003F07A
:1050E00089FE002FD2DC32460EA12846FBF7CAF813
:1050F00008490EA0FFF7B6F90020EBE774B00008EE
:1051000041542B434F50533F0D0A00002200000032
:105110001C5B002064B000082573282573290D0A44
:10512000000000004552524F5200000025732845F0
:105130007865204661696C656421290D0A000000CC
:105140002DE9F04F8DB083460F46904628228F49B7
:1051500003A8FBF755F84FF00509002000900190D7
:10516000029041465846FBF764F841463846FBF743
:1051700060F8F7E0A9F1010000F0FF094FF4FA63CD
:10518000022203A982A0FFF793F900F0FF0ABAF107
:10519000010F78D1814A824982A0FFF763F983A188
:1051A0007E48FBF75DF8441C80A12046FBF758F8C9
:1051B000441C7EA12046FBF753F8441C7BA12046EB
:1051C000FBF74EF80646032279A12046FBF78FF83D
:1051D00028B90A2277A16846FBF754F859E0032260
:1051E00076A12046FBF783F828B90A2274A1684605
:1051F000FBF748F84DE0032272A12046FBF777F851
:1052000028B90A2270A16846FBF73CF841E0032266
:105210006EA12046FBF76BF828B90A226CA16846FC
:10522000FBF730F835E003226AA12046FBF75FF870
:1052300028B90A2268A16846FBF724F829E003226E
:1052400066A12046FBF753F828B90A2264A16846F4
:10525000FBF718F81DE0032263A12046FBF747F88F
:1052600028B90A2261A16846FBF70CF811E0032275
:1052700060A12046FBF73BF830B90A225EA16846E0
:10528000FBF700F805E069E007225BA16846FAF742
:10529000F9FFE41C002505E0207800EB4500A0F1B3
:1052A0003005641CB442F7D36B462A4654A13846F5
:1052B00002F0E0FF3DA12046FAF7D2FF441C52A1C4
:1052C0002046FAF7CDFF0646032239A12046FBF718
:1052D0000EF828B90A223EA16846FAF7D3FF28E063
:1052E000032236A12046FBF702F828B90A223CA186
:1052F0006846FAF7C7FF1CE0032232A12046FAF7FE
:10530000F6FF28B90A2241A16846FAF7BBFF10E070
:10531000032238A12046FAF7EAFF28B90A2236A16B
:105320006846FAF7AFFF04E0072233A16846FAF7B0
:10533000A9FF0025E41C05E0207800EB4500A0F162
:105340003005641CB442F7D36B462A462CA158465C
:1053500002F090FF01200DB0BDE8F08F4FF4FA701D
:1053600003F048FDB9F1000F3FF704AF42462AA110
:105370003846FAF787FF424627A15846FAF782FFD8
:10538000074927A0FFF76EF80020E4E7F4B0000813
:1053900041542B4350534D533F0D0A001C5B0020DA
:1053A000D8B0000825732825732900002C000000C0
:1053B0003030300031306D696E0000003030310027
:1053C0003168000030313000313068003031310058
:1053D000327300003130300033307300313031002F
:1053E000316D696E000000003131300033323068B9
:1053F0000000000031313100496E76616C69640053
:105400002564202A202573000D0A00006465636965
:10541000686F7572730000004552524F52000000D1
:10542000257328457865204661696C656421290DDE
:105430000A00000010B50446034904A0FFF712F863
:10544000044801F059FF10BDDDAD000825732E2E74
:105450002E0D0A00300000201CB503F0B5FB2246DB
:105460001C491DA0FEF7FEFF04F004FE20480121A8
:1054700000234A02CDE900101EA1214805F05CFA84
:1054800004F00AFE24E04EF66021012004F05AFDEB
:105490000446012C1CD104F0EDFD0E4919A0FEF7C5
:1054A000E1FF1348006838B11148006804F08AFE33
:1054B00008491AA0FEF7D6FF0D48012100234A0231
:1054C000CDE900100BA10E4805F036FA04F0E4FD1A
:1054D000D9E70000F0AD00082573284E6F746966A7
:1054E0007956616C75653A202564290D0A00000023
:1054F000240000206C63645F7461736B0000000023
:105500003554000825732852656376204E6F746900
:10551000667956616C7565290D0A0000257328446B
:10552000656C657465204C6364207461736B290D30
:105530000A00000010B50E490EA0FEF793FF0E22E0
:105540000EA1124802F032FE1148124902680F48BB
:1055500002F02CFE102210A10C4802F027FE4FF49E
:1055600000710C48FAF765FE00200949086010BD7B
:10557000ACF1010825732E2E2E0D0A003C526573E6
:10558000706F6E73653E3C41543E00000038014030
:10559000580100201C5B00203C2F41543E3C2F5200
:1055A0006573706F6E73653E0000000070B594B057
:1055B000282225490AA8FAF723FE28222249283161
:1055C0006846FAF71DFE41F2883301220AA91FA09E
:1055D000FEF76EFF0646012E30D11F480468406872
:1055E00020E041F28833022269461CA0FEF760FFEA
:1055F0000646022E00D116E0174802684068121BCA
:1056000060F10000184B00219A1A814106D2174917
:1056100017A0FEF727FF012014B070BD4FF4FA70F9
:1056200003F0E8FBDDE700BF0B48056840682A1B74
:105630000E4915A0FEF716FF281BEDE70B4918A031
:10564000FEF710FF0020E7E750AE000841542B4E54
:1056500052420D0A00000000C800002041542B43B4
:10566000474154543F0D0A0020BF020030AE0008ED
:105670002573284174746163682074696D656F7562
:105680007421290D0A000000257328726574757253
:105690006E3A20256C64206D73290D0A000000000D
:1056A0002573285761697420626F6F7420696E6674
:1056B0006F726D6174696F6E2074696D656F75745A
:1056C00021290D0A00000000F0B58BB028222349E3
:1056D00001A8FAF795FD0527002636E0781EC7B227
:1056E0004FF4FA63022201A91DA0FEF7E1FE054670
:1056F000012D26D11DA11F48FAF7B2FD0446241D35
:1057000015E02078202801D1641C10E02078302892
:105710000BDB2078392808DC207806EB860100EBCB
:1057200041003038C6B2641C00E001E000BFE8E789
:1057300000BF3246104911A0FEF794FE30460BB070
:10574000F0BD4FF4FA7003F055FB002FC6DC0A4998
:105750000DA0FEF787FE0020F1E70000D4AE0008A0
:1057600041542B4353510D0A000000004353513A5A
:10577000000000001C5B0020B4AE00082573282543
:1057800064290D0A000000002573284661696C65D4
:105790006421290D0A0000002DE9F04792B08246ED
:1057A00020210AA8FAF745FD4FF005082822A14953
:1057B0006846FAF725FD00262BE1A8F1010000F06C
:1057C000FF084FF4FA63022269469BA0FEF770FEC1
:1057D0000746012F70D19CA19D48FAF741FD044670
:1057E000002C2FD0E41D00261CE02078202801D1B9
:1057F000641C17E020782D2802D10126641C11E0DA
:10580000207830280CDB2078392809DC20780A99A8
:1058100001EB810100EB410030380A90641C00E08C
:1058200001E000BFE1E700BF0A9816B14FF0FF3179
:1058300000E0012148430A90864987A00A9AFEF7B2
:1058400011FE03E0834989A0FEF70CFE8DA180487C
:10585000FAF706FD044684B3641D00261CE0207898
:10586000202801D1641C17E020782D2802D10126C0
:10587000641C11E0207830280CDB2078392809DC02
:1058800020780B9901EB810100EB410030380B903F
:10589000641C00E001E000BFE1E700BF0B9816B117
:1058A0004FF0FF3100E0012148430B90694977A098
:1058B0000B9AFEF7D7FD05E0A7E0FFE7654977A063
:1058C000FEF7D0FD7BA16248FAF7CAFC04467CB320
:1058D000241D00261CE02078202801D1641C17E03C
:1058E00020782D2802D10126641C11E02078302870
:1058F0000CDB2078392809DC20780C9901EB810138
:1059000000EB410030380C90641C00E001E000BF67
:10591000E1E700BF0C9816B14FF0FF3100E0012124
:1059200048430C904B4965A00C9AFEF79BFD04E0A0
:10593000FFE7484965A0FEF795FD6AA14448FAF7DC
:105940008FFC04467CB3241D00261CE02078202810
:1059500001D1641C17E020782D2802D10126641C97
:1059600011E0207830280CDB2078392809DC2078F9
:105970000D9901EB810100EB410030380D90641C62
:1059800000E001E000BFE1E700BF0D9816B14FF065
:10599000FF3100E0012148430D902E4953A00D9A9C
:1059A000FEF760FD04E0FFE72A4954A0FEF75AFD28
:1059B00058A12748FAF754FC00F1080585B142A127
:1059C0002846FAF74DFC8146A9EB050229460EA8A8
:1059D000FAF716FC0EAA1F4951A0FEF743FD0CE092
:1059E00054A001680E918188ADF83C1080798DF843
:1059F0003E00184951A0FEF735FD20220AA9504665
:105A0000FAF7FEFB12B0BDE8F087124951A0FEF78D
:105A100029FDB8F1000F3FF7D0AE102252A10EA819
:105A2000FAF730FC20220AA95046FAF7E9FB00BF3A
:105A3000E8E7000014AF000841542B4E554553547D
:105A40004154530D0A00000045415246434E3A006E
:105A50001C5B0020FCAE00082573284541524643DC
:105A60004E3A20256C64290D0A0000002573284554
:105A7000415246434E204E6F7420466F756E64212E
:105A8000290D0A00525352513A0000002573285242
:105A90005352513A20256C64290D0A00257328526F
:105AA000535251204E6F7420466F756E6421290D3C
:105AB0000A000000534E523A00000000257328539C
:105AC0004E523A20256C64290D0A00002573285394
:105AD0004E52204E6F7420466F756E6421290D0A58
