:020000040800F2
:10000000E0630020DD0100087F290008AF1400082C
:100010007B290008010D000897330008000000004C
:100020000000000000000000000000004501000882
:10003000410D00080000000089010008DD2C0008C7
:10004000F7010008F7010008F7010008F7010008B0
:10005000F7010008F7010008F7010008F7010008A0
:100060005D0E0008010F0008950F0008F701000859
:10007000F7010008F7010008F7010008F701000880
:10008000F7010008F7010008F7010008F701000870
:10009000F7010008F7010008F7010008F701000860
:1000A000F7010008F7010008F7010008F701000850
:1000B000F70100084D2D0008F7010008F7010008BE
:1000C000F7010008F7010008F7010008F701000830
:1000D000F7010008D92E0008A52F000839300008C4
:1000E000450D0008F7010008F7010008F7010008B6
:1000F000F7010008F7010008F7010008F701000800
:10010000F7010008F7010008F7010008F7010008EF
:10011000F7010008F7010008F7010008F7010008DF
:10012000F7010008F7010008F7010008F7010008CF
:10013000DFF80CD000F06CFC004800477592000816
:10014000E0630020224B19680868B0E8F00F80F3E4
:100150000988BFF36F8F4FF0000080F311884EF0D5
:100160000D0E70470000000006480068006880F32C
:10017000088862B661B6BFF34F8FBFF36F8F00DFA1
:1001800000BF00BF08ED00E0EFF30980BFF36F8F01
:100190000F4B1A6820E9F00F106008B54FF0BF0050
:1001A00080F31188BFF34F8FBFF36F8F0AF0DEFA31
:1001B0004FF0000080F31188BDE808401968086816
:1001C000B0E8F00F80F30988BFF36F8F704700BF6E
:1001D0004C000020EFF30580704700000648804780
:1001E00006480047FEE7FEE7FEE7FEE7FEE7FEE71C
:1001F000FEE7FEE7FEE7FEE7ED2C00083101000810
:1002000040EA01039B0703D009E008C9121F08C098
:10021000042AFAD203E011F8013B00F8013B521E18
:10022000F9D27047D2B201E000F8012B491EFBD28F
:1002300070470022F6E710B513460A4604461946F1
:10024000FFF7F0FF204610BD421E12F8013F002BC1
:10025000FBD111F8013B02F8013B002BF9D17047AB
:1002600030B505462A460B4612F8010B13F8014B30
:1002700008B1A042F8D01CB1002802D06D1CF1E7F3
:10028000284630BD10B5044604E00B7800F8013B69
:1002900003B1491C521EF8D2204610BD421C10F872
:1002A000011B0029FBD1801A704710B5002200E025
:1002B000521C835C8C5CA34201D1002BF8D1D8B2D4
:1002C000E1B2401A10BD10B5044600E0401C0378AE
:1002D000002BFBD100E0401C521E04D311F8013B5F
:1002E0000370002BF7D100210170204610BD30B5FE
:1002F00005460020034600E05B1C934205D2EC5CFF
:10030000C85C201A01D1002CF6D130BD80EA010270
:1003100010B502F00043400022D04A001FD0010E69
:1003200001EB1261C0F35600C2F3560240F4000024
:1003300042F40002A0FB022000047F39140400D024
:10034000401C50EA124001D44000491EC2B20C06C3
:1003500004EBD010401C4008802A02D003E00020AB
:1003600010BD20F00100002900DA0020184310BD64
:1003700030B480EA010202F0004530F0004221F082
:10038000004013D090B1C30DD40DC2F31601C0F3D9
:100390001600E41A41F4000140F400027D34914259
:1003A00001D3641C00E04900002C02DA30BC0020BC
:1003B00070474FF400000023914201D3891A034390
:1003C00040084FEA4101F7D151B1914202D14FF0BB
:1003D000004105E002D24FF0010101E06FF00101A0
:1003E00003EBC450284430BC00F0DEB92DE9FE4FC9
:1003F000804681EA0300C00F0C46009021F00041C6
:1004000023F00045B8EB0200A94105D24046214641
:1004100090461C460B46024623F00040104347D04E
:10042000270DC7F30A00C3F30A510290401A019046
:1004300040286BDAC3F3130040F4801B0098924607
:1004400020B10023D2EB030A63EB0B0B0198594652
:10045000C0F14002504600F076F906460D4650467F
:100460005946019A00F08EF910EB08006141002412
:1004700087EA115284EAE7731A4340D0009A62B3C4
:10048000019A012A4FEA075215DC001B61EB0201B9
:100490004FF0004202EA0752CDE90042001C41F54C
:1004A000801132462B4600F0C5F903B0BDE8F08F4D
:1004B00040462146F9E7001B61EB0201001C41F5B3
:1004C000801300185B412018A2F5001747EB0301C9
:1004D00040EAD570B6196D4111E06D084FEA360655
:1004E00045EAC0754FEA0752001B61EB0201001C90
:1004F00041F5801149084FEA300000195141324658
:100500002B4603B0BDE8F04F00F085B900980122FA
:1005100040000023D0EB020263EBE0730098214619
:100520004FEAE074B8EB000061EB0401E9E783F007
:1005300000435BE781F0004158E72DE9FE4F81EA77
:10054000030404F0004421F0004100944FF0000B3C
:1005500023F0004350EA01045ED052EA03045BD06A
:10056000C3F30A54C1F30A552C44A4F2F3340194A2
:10057000A0FB0254C1F3130141F48011C3F3130330
:1005800043F4801301FB024400FB034E840A970AE4
:1005900044EA815447EA8357A4FB076802958D0A11
:1005A00005FB07854FEA932C04FB0C542705029D9D
:1005B0004FEA065847EA1637B5EB08056EEB070C0D
:1005C000870E920E47EA811742EA8312A7FB0201C7
:1005D000B6EB0B0164EB00042B0D43EA0C335E1801
:1005E00044EB1C50DA465146E7FB0201C5F3130405
:1005F0004FEA0B3343EA14534FEA0432019C43EAB7
:100600000603A4F10C040294009CCDE900B400F0B0
:1006100011F903B0BDE8F08F00200146F9E79623F9
:100620000022114600F0C9B8C1F30A5210B5C1F357
:10063000130140F2FF3341F480119A4201DA0020A5
:1006400010BD40F233439A42A2F2334203DC5242DD
:1006500000F088F810BD904010BD00F0004230F06E
:1006600000400AD0C10D01F56071C0F3160042EAE6
:100670000151C208400711437047002001467047EE
:1006800001F0004330B421F0004150EA010206D0ED
:100690000A0DA2F56072C1F31301002A02DC30BC1E
:1006A00000207047440F44EAC104C100E01830BC88
:1006B00000EBC25000F078B830B50B460146002080
:1006C0002022012409E021FA02F59D4205D303FA14
:1006D00002F5491B04FA02F52844151EA2F1010295
:1006E000F1DC30BD2DE9F05F0546002092469B46C7
:1006F00088460646814640241BE028464146474638
:10070000224600F02FF853465A46C01A914110D3A2
:1007100011461846224600F016F82D1A67EB01081C
:100720004F4622460120002100F00DF817EB00098A
:100730004E41201EA4F10104DFDC484631462A4622
:100740004346BDE8F09F202A04DB203A00FA02F17C
:10075000002070479140C2F1200320FA03F31943AF
:1007600090407047202A04DB203A21FA02F0002151
:10077000704721FA02F3D040C2F1200291400843B1
:1007800019467047202A06DBCB17203A41FA02F0BF
:1007900043EAE07306E041FA02F3D040C2F12002DE
:1007A00091400843194670470029A8BF7047401C74
:1007B000490008BF20F00100704710B4B0FA80FC77
:1007C00000FA0CF050EA010404BF10BC704749B1B4
:1007D000CCF1200421FA04F411FA0CF118BF012124
:1007E00021430843A3EB0C01CB1D4FEA00614FEA04
:1007F000102042BF002010BC704700EBC3501044D3
:100800000029A4BF10BC7047401C490008BF20F05D
:10081000010010BC704710B5141E73F1000408DA13
:10082000401C41F1000192185B411A4301D120F0B4
:10083000010010BD2DE9F04D92469B4611B1B1FA71
:1008400081F202E0B0FA80F220329046FFF77BFF9F
:1008500004460F4640EA0A0041EA0B0153465A4655
:10086000084313D0114653EA010019D0C8F14002E1
:100870005046FFF777FF05460E465046594642461A
:10088000FFF761FF084305D0012004E02046394608
:10089000BDE8F08D0020054346EAE0762C4337435F
:1008A0000A986305E40AA0EB08000022FD0A44EA66
:1008B00047540A3002D500200146E9E70105101926
:1008C0006941DDE9084500196941BDE8F04DA2E73D
:1008D0002DE9F04D81EA030404F0004B21F00045BE
:1008E00014464FF0000A23F0004150EA050220D0E0
:1008F00054EA01021DD0C5F30A570246C5F313039B
:10090000C1F31300C1F30A5640F4801543F4801379
:10091000A7EB0608101BD64608F2FD3873EB05005E
:1009200002D308F1010801E092185B41B8F1000F11
:1009300003DA00200146BDE8F08D00204FF480115D
:10094000064684460EE0171B73EB050705D3121B02
:1009500063EB050306434CEA010C49084FEA3000FB
:1009600092185B4150EA0107EDD152EA030012D020
:1009700082EA040083EA0501084305D0101BAB415D
:1009800006D20122002306E000224FF0004302E0DD
:100990006FF0010253101AEB06004CEB085110EBFC
:1009A0000A0041EB0B01BDE8F04DFFF734BFC1F386
:1009B0000A52C1F3130140F2FF3341F480119A420D
:1009C00002DA00200146704740F233439A42A2F215
:1009D000334202DC5242FFF7C5BEFFF7B4BE00004F
:1009E00030B5041E71F1000404DB4FF000444042B6
:1009F00064EB0101141E73F1000405DB1C464FF08B
:100A00000043524263EB0403994208BF904230BD59
:100A1000064C074D06E0E06840F0010394E807004B
:100A200098471034AC42F6D3FFF786FB88F90108EB
:100A3000A8F9010870B58C1810F8015B15F00703D0
:100A400001D110F8013B2A1106D110F8012B03E067
:100A500010F8016B01F8016B5B1EF9D12B0705D46F
:100A60000023521E0DD401F8013BFAE710F8013BB8
:100A7000CB1A921C03E013F8015B01F8015B521ED4
:100A8000F9D5A142D8D3002070BD21B1826842F0CF
:100A90000102826003E0826822F0010282607047F6
:100AA00010B504461248844208D10121401501F0D6
:100AB000E5FF0021601501F0E1FF17E00D488442D9
:100AC00008D10121001501F0D9FF0021201501F006
:100AD000D5FF0BE00848844208D10121C80301F08A
:100AE000CDFF00214FF4004001F0C8FF10BD000011
:100AF0000024014000280140003C01400146002044
:100B00008A6802F004020AB1012000E00020704768
:100B10000146C86C80B270470246002013680B4043
:100B20000BB1012000E000207047014600208A68D8
:100B300002F008020AB1012000E000207047000026
:100B400030B502460020002350680F4C20400D793C
:100B50000C6844EA05242043506090680B4C204008
:100B6000D1E902542C434D7944EA45042043906076
:100B7000D06A20F470000C7C641EE4B2234340EA87
:100B80000350D06230BD0000FFFEF0FFFDF7F1FF23
:100B9000F0B504460D4600200021092D11DDE06866
:100BA000A5F10A0606EB4607072606FA07F1884371
:100BB000A5F10A0606EB460603FA06F10843E060D3
:100BC0000CE0206905EB4507072606FA07F1884384
:100BD00005EB450603FA06F108432061072A0FDA00
:100BE000606B561E06EB86071F2606FA07F1884340
:100BF000561E06EB860605FA06F10843606322E0FE
:100C00000D2A0FDA206BD61F06EB86071F2606FA81
:100C100007F18843D61F06EB860605FA06F108435E
:100C2000206310E0E06AA2F10D0606EB86071F269E
:100C300006FA07F18843A2F10D0606EB860605FACF
:100C400006F10843E062F0BD816841F0080181606F
:100C5000704721B1826842F4A002826003E082689A
:100C600022F4A00282607047816841F00401816033
:100C70007047000000B587B001214FF4017001F00A
:100C8000EDFE4FF4004001F0BDFE0220ADF804007F
:100C900000208DF8070001A9174800F001FB174854
:100CA000FFF7FEFE002002908DF80C008DF80D007D
:100CB0004FF4602004900020059001208DF818006A
:100CC00002A90E48FFF73CFF01210C48FFF7DDFEAB
:100CD0000A48FFF7B9FF00BF0848FFF726FF0028C2
:100CE000FAD10648FFF7C0FF00BF0448FFF706FF30
:100CF0000028FAD107B000BD0008014000240140DF
:100D000000BFFEE710B50021044A11605160472181
:100D100040F2E73002F034F810BD0000C8000020B7
:100D200029B1064A52680243044B5A6004E0034A60
:100D300052688243014B5A6070470000002004E073
:100D40007047000008B54FF4805000F073F9002898
:100D500026D0294929A003F0DFFC0A2008F0E6F993
:100D60002E480068C0B92E484078022808DA2C487E
:100D70000078022804DA2A480078401C28490870C4
:100D80000320274948711C4926A003F0C5FC694689
:100D90002948006809F02AFC4FF4805000F044F91B
:100DA0004FF4006000F046F9002824D0124923A037
:100DB00003F0B2FC0A2008F0B9F91848001F0068D7
:100DC000A8B91748007918B901201549087102E03F
:100DD000002013490871042011494871064911A0E7
:100DE00003F09AFC69461448006809F0FFFB4FF4D1
:100DF000006000F019F908BD1BF401082573284BA9
:100E000045595F5249474854205072657373656471
:100E100020446F776E290D0A000000003001224245
:100E20003000002025732873656E645461736B4D28
:100E30007367290D0A000000200000202573284B4D
:100E400045595F454E544552205072657373656431
:100E500020446F776E290D0A0000000008B50420B9
:100E600000F0E8F800B908BD154916A003F054FCDD
:100E70000A2008F05BF91A480068D8B91948407888
:100E8000012806DB17484078012807D1154800786B
:100E900020B914484078401C12494870012011497B
:100EA0004871074910A003F037FC694613480068F1
:100EB00009F09CFB042000F0B7F800BFD3E7000066
:100EC000E8F301082573284B45595F444F574E20DE
:100ED0005072657373656420446F776E290D0A0044
:100EE000088122423000002025732873656E645407
:100EF00061736B4D7367290D0A000000200000200C
:100F000008B5082000F096F800B908BD0A2008F0DE
:100F10000DF910480068C0B90F4910A003F0FCFBA0
:100F200015484078002804DD13484078401E1249D7
:100F30004870002010494871074910A003F0ECFBED
:100F400069461348006809F051FB082000F06CF86E
:100F500000BFDAE70C812142F9F301082573284B21
:100F600045595F5550205072657373656420446F16
:100F7000776E290D0A0000003000002025732873C9
:100F8000656E645461736B4D7367290D0A00000030
:100F90002000002008B5102000F04CF800B908BD72
:100FA000114912A003F0B8FB0A2008F0BFF8164858
:100FB0000068A0B915480078002804DD13480078BF
:100FC000401E12490870022010494871064910A0BD
:100FD00003F0A2FB69461348006809F007FB1020E4
:100FE00000F022F800BFDAE70AF401082573284B65
:100FF00045595F4C454654205072657373656420B3
:10100000446F776E290D0A001081214230000020C4
:1010100025732873656E645461736B4D7367290D76
:101020000A0000002000002001490860704700000D
:1010300014040140014600200022074B1B6803EA0C
:101040000102054B14331B680B4013B10AB1012098
:1010500000E0002070470000000401400021234907
:101060008279002A3AD00A46126803689A430B46EE
:101070001A600A1D126803689A430B1D1A600279F0
:1010800011440A6803681A430A60184A0832126851
:1010900003689A43154B08331A601A1D12680368D7
:1010A0009A43124B0C331A604279102A0ED11A1F40
:1010B000126803681A430D4B08331A601A1D126830
:1010C00003681A43094B0C331A600DE00749427953
:1010D00011440A6803681A430A6005E00279114462
:1010E0000A6803689A430A607047000000040140E0
:1010F00030B50346002400200025156022E000E002
:101100005B1C1D7815B11D78202DF9D100E05B1C0A
:101110001D7815B11D78202DF9D01D788DB1641C76
:101120008C420FD1184603E015686D1C15605B1CDE
:101130001D7815B11D78202DF6D1156805B9002050
:1011400002E001E08C42DAD300BF30BD2DE9F04768
:101150000446884691460126207810B90020BDE853
:10116000F0872E48006898BB2D482C4908602AE07B
:101170002A480068006807683846FFF78FF8054678
:10118000605D202801D0605DC0B92A4639462046FE
:10119000FFF7ADF890B921480068006890F90C009D
:1011A00000280ADB204608F0F7FB1C49096809689B
:1011B00091F90C10884200D0002608E0174800681A
:1011C000406816490860154800680028D0D100BF63
:1011D0001248006848B146B94A4612494046FFF7EE
:1011E00051F800200D49086016E00C48006868B10D
:1011F0000A48006800682246494683684046984786
:1012000006464EB900200549086005E04A460649F1
:101210004046FFF737F800263046A0E7E000002000
:10122000D4000020A0F60108F8F6010870B50546C4
:101230000026082008F0A8FF044664B109F0B6F8BB
:101240002560002060600548006844600348046031
:1012500009F0BEF80126304670BD0000DC00002019
:1012600030B500228B071C0F0F2303FA04F20B4B3F
:101270008C1053F824309343084C8D1044F82530DB
:1012800023468C1053F824308C07240F00FA04F402
:101290002343024C8D1044F8253030BD0800014036
:1012A0002DE9F041024600250026002000230024FD
:1012B000002791F803C00CF00F0591F803C00CF063
:1012C000100CBCF1000F03D091F802C04CEA0505E8
:1012D00091F800C0BCF1000F31D0146800202BE061
:1012E0004FF0010C0CFA00F3B1F800C00CEA030651
:1012F0009E4220D183004FF00F0C0CFA03F7BC4341
:1013000005FA03FC4CEA040491F803C0BCF1280F71
:1013100006D14FF0010C0CFA00FCC2F814C00AE030
:1013200091F803C0BCF1480F05D14FF0010C0CFA45
:1013300000FCC2F810C0401C0828D1D31460B1F8DA
:1013400000C0BCF1FF0F34DD546800202EE000F136
:10135000080C4FF0010808FA0CF3B1F800C00CEAD1
:1013600003069E4221D183004FF00F0C0CFA03F7C5
:10137000BC4305FA03FC4CEA040491F803C0BCF139
:10138000280F05D100F1080C08FA0CF8C2F81480F7
:1013900091F803C0BCF1480F07D100F1080C4FF0E1
:1013A000010808FA0CF8C2F81080401C0828CED3B7
:1013B0005460BDE8F0810000F0B50A460023002427
:1013C0000021002500F00046B6F1004F02D11D4E6D
:1013D000F16901E01B4E7168C0F3034583B200F46C
:1013E0004016B6F5401F08D121F07061154E7668A1
:1013F00026F07066134F7E6012E000F48016B6F59A
:10140000801F06D1032606FA05F4A14341F070615E
:1014100006E0460D360103FA06F6B14341F070616D
:1014200022B1460D360103FA06F6314300F00046BC
:10143000B6F1004F02D1034EF16101E0014E71603F
:10144000F0BD0000000001400161704710B5044686
:101450000723012221460948FFF79AFB012107488B
:10146000FFF7F7FB00BF02210448FFF755FB0028F8
:10147000F9D00248FFF74CFB10BD000000240140EA
:101480002DE9F04107460C460025002608E03846C5
:10149000FFF7DCFF0544052007F048FE701CC6B2CC
:1014A000A642F4DBB5FBF4F080B2BDE8F08100BFEA
:1014B000FEE7000038B5012001F082FB00BF61208B
:1014C00001F060FB0028FAD045F2555000F04CF8CE
:1014D000062000F03DF840F20E3000F03FF800F03A
:1014E0002FF800F025F80C4801231A4640F6B831D1
:1014F00000900AA009F08CFD0C49086009F0F8FB87
:101500000446002003462246012100900748006857
:1015100009F0B4FD38BD000041150008576174633F
:1015200068446F6754696D65720000002C000020EC
:101530004CF6CC4001490860704700000030004084
:101540004AF6AA20014908607047000000300040B8
:101550000149486070470000003000400149886040
:1015600070470000003000400149086070470000EB
:101570000030004070B5044600250021084600F008
:1015800077FC01F0F5F900BF1DE00120104908606B
:1015900000201049C1F8BC0120120F49C86000208A
:1015A0000B49091F08600120086044F317000A492D
:1015B000C86000200649091F08600120086004492E
:1015C000091D08606D1CB5F5963FDED370BD0000A7
:1015D000B881214200802142001001402DE9FF4FD7
:1015E00085B081468A460020049003900798A0EBBE
:1015F00009050898A0EB0A06CDF80890CDF804A0DC
:10160000002D01DD012705E00DB9002702E04FF0B4
:10161000FF376D42002E02DD4FF0010806E016B9DB
:101620004FF0000802E04FF0FF387642B54201DD8E
:101630002C4600E034464FF0000B21E0019A91B2B5
:10164000029A90B200F022F804982844049003987B
:10165000304403900498A04205DD0498001B0490D8
:101660000298384402900398A04205DD0398001BBD
:1016700003900198404401900BF101001FFA80FB98
:10168000601C8345DADD09B0BDE8F08F70B5044613
:101690000D462946204600F0EBFB01F069F90120D8
:1016A0001049086000201049C1F8BC010F480088AB
:1016B00000120F49C86000200A49091F0860012074
:1016C0000949C1F8B401094800880949C8600020E7
:1016D0000449091F0860012008600249091D0860CB
:1016E00070BD0000B8812142008021421209002013
:1016F000001001402DE9F04104460D4616461F46F4
:101700002B46324629462046FFF768FF3B462246D5
:1017100029462046FFF762FF3B46324639462046BF
:10172000FFF75CFF3B46324629463046FFF756FF3F
:10173000BDE8F0812DE9F05F04460F4690469946DA
:10174000DDF828A04FF0000BA8EB0400401C1FFAA6
:1017500080FB3D462CE0002626E0A11988B22946F0
:1017600000F086FB01F004F9012013490860002015
:101770001249C1F8BC014FEA2A201149C860002073
:101780000D49091F0860012008604AF317000C4941
:10179000C86000200849091F086001200860064948
:1017A000091D0860701C86B25E45D6DB681C85B2D8
:1017B0004D45D0DDBDE8F09FB88121420080214237
:1017C0000010014008B50121192001F047F94FF23E
:1017D0000100ADF8000010208DF8030003208DF803
:1017E000020069460948FFF75BFD4FF20101074817
:1017F000FFF72AFEFF20ADF8000069460448FFF716
:101800004FFDFF210248FFF71FFE08BD000C0140FD
:101810000010014010B5FFF7D5FF0120FE49086018
:1018200000F010FB112001F08DF8782007F07EFC0D
:10183000362001F087F84FF48040F84908604000F6
:10184000091D08600020F649C8604814F349091DC5
:101850000860091F0860800008603A2001F072F8F3
:101860004FF48040ED4908604000091D08600520E4
:10187000EB49C8604814E949091D0860091F086060
:1018800080000860B22001F05DF84FF48040E34929
:1018900008604000091D08600C20E149C860481438
:1018A000DE49091D0860091F0860800008604010BB
:1018B00008604000091D08600C20D949C860481420
:1018C000D649091D0860091F0860800008604010A3
:1018D00008604000091D08600020D149C860481414
:1018E000CE49091D0860091F08608000086040108B
:1018F00008604000091D08603320C949C8604814C9
:10190000C649091D0860091F086080000860401072
:1019100008604000091D08603320C149C8604814B0
:10192000BE49091D0860091F086080000860B720D3
:1019300001F008F84FF48040B84908604000091DE4
:1019400008603520B649C8604814B449091D0860CC
:10195000091F086080000860BB2000F0F3FF4FF40F
:101960008040AE4908604000091D08600E20AC4967
:10197000C8604814A949091D0860091F0860800053
:101980000860C02000F0DEFF4FF48040A3490860EB
:101990004000091D08602C20A149C86048149F49D7
:1019A000091D0860091F086080000860C22000F05F
:1019B000C9FF4FF48040994908604000091D086044
:1019C00001209749C86040039449091D0860091F18
:1019D000086080000860C32000F0B4FF4FF480402E
:1019E0008E4908604000091D086012208C49C860BB
:1019F00048148A49091D0860091F086080000860B2
:101A0000C42000F09FFF4FF48040844908604000EC
:101A1000091D086020208249C86000027F49091D15
:101A20000860091F086080000860C62000F08AFF77
:101A30004FF48040794908604000091D08600F207C
:101A40007749C86048147549091D0860091F086076
:101A500080000860D02000F075FF4FF480406F498F
:101A600008604000091D0860A4206D49C860481442
:101A70006A49091D0860091F08608000086040105D
:101A800008604000091D0860A1206549C86048142D
:101A90006249091D0860091F086080000860E02095
:101AA00000F050FF4FF480405C4908604000091D81
:101AB0000860D0205A49C86048145849091D086078
:101AC000091F086080000860401008604000091D80
:101AD000086000205249C86048145049091D086038
:101AE000091F086080000860401008604000091D60
:101AF000086005204A49C86048144849091D086023
:101B0000091F086080000860401008604000091D3F
:101B100008600D204249C86048144049091D08600A
:101B2000091F086080000860401008604000091D1F
:101B300008600F203A49C86048143849091D0860F8
:101B4000091F086080000860401008604000091DFF
:101B500008602B203249C86048143049091D0860CC
:101B6000091F086080000860401008604000091DDF
:101B700008603B202A49C86048142849091D0860AC
:101B8000091F086080000860401008604000091DBF
:101B9000086044202249C86048142049091D086093
:101BA000091F086080000860401008604000091D9F
:101BB00008604A201A49C86048141849091D08607D
:101BC000091F086080000860401008604000091D7F
:101BD000086018201249C86048141049091D08609F
:101BE000091F086080000860401008604000091D5F
:101BF00008600F200A49C86048140849091D086098
:101C0000091F086080000860401008604000091D3E
:101C100008600B20024905E0B0812142100C014010
:101C200000100140C860481484490860091F08601A
:101C300080000860401008604000091D08601F20F7
:101C40007F49C86048147D490860091F086080000A
:101C50000860401008604000091D08602220784993
:101C6000C860481475490860091F08608000086052
:101C7000E12000F067FE4FF480407049091F0860C2
:101C80004000091D0860D0206D49C86048146B49A8
:101C90000860091F0860800008604010086040006C
:101CA000091D086000206649C8604814634908603F
:101CB000091F086080000860401008604000091D8E
:101CC000086005205E49C86048145C490860091F27
:101CD000086080000860401008604000091D08602E
:101CE0000D205749C860481454490860091F08600E
:101CF00080000860401008604000091D0860102046
:101D00004F49C86040024D490860091F08608000C3
:101D10000860401008604000091D08602B204849F9
:101D2000C860481445490860091F086080000860C1
:101D3000401008604000091D08603D204049C8600F
:101D400048143E490860091F086080000860401080
:101D500008604000091D086054203949C8604814D3
:101D600036490860091F086080000860401008605C
:101D70004000091D086050203149C86048142F49AF
:101D80000860091F0860800008604010086040007B
:101D9000091D08602F202A49C86048142749086097
:101DA000091F086080000860401008604000091D9D
:101DB00008601F202249C860481420490860091F94
:101DC000086080000860401008604000091D08603D
:101DD0001F201B49C860481418490860091F086083
:101DE00080000860401008604000091D08601F2046
:101DF0001349C860481411490860091F0860800031
:101E00000860401008604000091D086023200C494C
:101E1000C860481409490860091F0860800008600C
:101E2000292000F08FFD2C2000F08CFD142007F0FD
:101E30007DF94FF6FF70FFF79DFB10BD140C0140BC
:101E40000010014010B501200849086007F06EF944
:101E500001200649091D0860142007F067F90120D8
:101E600002490860142007F061F910BD100C014010
:101E700010B503460C462A2000F064FD4FF4804064
:101E8000234908604000091D086018122149C860F4
:101E900048141F49091D0860091F08608000086078
:101EA000401008604000091D086043F317001949FD
:101EB000C86048141649091D0860091F08608000A1
:101EC00008602B2000F03EFD4FF480401049086070
:101ED0004000091D086020120E49C86048140C49D2
:101EE000091D0860091F0860800008604010086034
:101EF0004000091D086044F317000649C8604814F3
:101F00000349091D0860091F08608000086010BDB2
:101F1000100C0140001001402DE9F84F81468A461F
:101F200017461C46CB46694800880090B9F1E80F77
:101F300002DCBAF59C7F01DDBDE8F88FA7F1200037
:101F4000C7B20A9800287DD1002583E00C2C2AD145
:101F500007EB47005E4901EB800010F80580002682
:101F600016E008F0010018B158490098088003E015
:101F7000584800885549088051464846FFF786FB77
:101F80004FEA680809F101001FFA80F9701CC6B217
:101F900004EBD471B6EB610FE3DBD9460AF1010023
:101FA0001FFA80FA54E0102C28D14B4800EB0710A0
:101FB00010F80580002616E008F0010018B143492A
:101FC0000098088003E04348008840490880514653
:101FD0004846FFF75BFB4FEA680809F101001FFA6A
:101FE00080F9701CC6B204EBD471B6EB610FE3DB71
:101FF000D9460AF101001FFA80FA29E0374800EBC0
:10200000C71010F80580002616E008F0010018B18E
:102010002E490098088003E02E4800882B4908804C
:1020200051464846FFF732FB4FEA680809F10100C4
:102030001FFA80F9701CC6B204EBD471B6EB610FC5
:10204000E3DB00E00AE0D9460AF101001FFA80FA5A
:10205000681CC5B2A542FFF679AF32E000252EE03C
:102060000C2C07D107EB4700194901EB800010F851
:1020700005800CE0102C05D1174800EB071010F874
:10208000058004E0154800EBC71010F80580002615
:102090000EE008F0010038B10AEB050291B209EB3D
:1020A000060290B2FFF7F2FA4FEA6808701CC6B257
:1020B00004EBD471B6EB610FEBDB681CC5B2A54233
:1020C000CEDB02490098088000BF35E712090020E6
:1020D000C4B500081409002038BA000828C0000858
:1020E0002DE9FF4F81B006468A460E9DB346CDF8D6
:1020F00000A00398002873D10498102873D01828E2
:1021000070D169E0002460E004EB041000EB800073
:10211000FD49085C2978884255D104EB041000EB96
:102120008000F94908444078697888424BD104EB33
:10213000041000EB8000F44908448078A9788842B4
:1021400041D100273DE004EB041000EB8000EE4994
:102150000844001D10F807904FF000082CE009F02B
:102160008000802807D1E9490F9808805146304601
:10217000FFF78CFA06E0E549109808805146304692
:10218000FFF784FA4FF6FF7000EA4909701C86B227
:10219000A6EB0B0018280BD15E460AF101001FFACE
:1021A00080FA0098AAEB00001B2801D1DDF800A0FE
:1021B00008F1010000F0FF08B8F1080FCFDB781C30
:1021C000C7B2512FBFDB601CC4B20D2C9CDBED1CD1
:1021D00006F1180086B2B3462878002892D16EE046
:1021E0006EE000E06AE065E000245CE004EB84005F
:1021F000C74911F830002978884252D104EB840095
:10220000C34901EBC00040786978884249D104EBAA
:102210008400BF4901EBC0008078A978884240D192
:1022200000273CE004EB8400B94901EBC000001D2D
:1022300010F807904FF000082CE009F0800080288B
:1022400007D1B2490F98088051463046FFF71EFA71
:1022500006E0AE491098088051463046FFF716FA5E
:102260004FF6FF7000EA4909701C86B2A6EB0B001E
:1022700010280BD15E460AF101001FFA80FA00987F
:10228000AAEB0000122801D1DDF800A008F101003E
:1022900000F0FF08B8F1080FCFDB781CC7B2242F7D
:1022A000C0DB601CC4B2312CA0DBED1C06F11000B9
:1022B00086B2B3462878002896D100E000BF72E1CC
:1022C0000398022877D10498102877D0182874D161
:1022D0006DE0002464E004EB440000EB04108D4941
:1022E00011F820002978884258D104EB440000EB13
:1022F0000410884901EB80004078697888424DD10C
:1023000004EB440000EB0410824901EB800080786C
:10231000A978884242D100273EE004EB440000EB5C
:1023200004107C4901EB8000001D10F807904FF06D
:1023300000082CE009F08000802807D173490F982D
:10234000088051463046FFF7A1F906E06F49109822
:10235000088051463046FFF799F94FF6FF7000EAC2
:102360004909701C86B2A6EB0B0018280BD15E46FB
:102370000AF101001FFA80FA0098AAEB0000182861
:1023800001D1DDF800A008F1010000F0FF08B8F16C
:10239000080FCFDB781CC7B2482FBEDB601CC4B26D
:1023A000062C98DBED1C06F1180086B2B34628789F
:1023B00000288ED16EE06EE000E06AE065E0002467
:1023C0005CE004EBC400544911F8200029788842ED
:1023D00052D104EBC400504901EB80004078697889
:1023E000884249D104EBC4004B4901EB800080785E
:1023F000A978884240D100273CE004EBC40046495C
:1024000001EB8000001D10F807904FF000082CE051
:1024100009F08000802807D13C490F980880514678
:102420003046FFF733F906E03849109808805146E6
:102430003046FFF72BF94FF6FF7000EA4909701C90
:1024400086B2A6EB0B0010280BD15E460AF1010004
:102450001FFA80FA0098AAEB0000102801D1DDF8DD
:1024600000A008F1010000F0FF08B8F1080FCFDB71
:10247000781CC7B2202FC0DB601CC4B26E2CA0DB5E
:10248000ED1C06F1100086B2B3462878002896D1DC
:1024900000E000BF87E0039801287DD10498102850
:1024A0007AD17CE0002471E0C4EBC40000EB04109E
:1024B0001A4911F810002978884265D1C4EBC4008C
:1024C00000EB0410154901EB400040786978884220
:1024D0005AD1C4EBC40000EB0410104901EB4000DA
:1024E0008078A97888424FD100274BE0C4EBC40024
:1024F00000EB0410094901EB4000001D10F80790A3
:102500004FF0000839E000006006010812090020C1
:102510006A010020A8EF000870F10008B10A010864
:1025200009F08000802807D120490F980880514683
:102530003046FFF7ABF806E01C491098088051467A
:102540003046FFF7A3F84FF6FF7000EA4909701C08
:1025500086B2A6EB0B0010280BD15E460AF10100F3
:102560001FFA80FA0098AAEB0000152801D1DDF8C7
:1025700000A008F1010000F0FF08B8F1080FCFDB60
:10258000781CC7B22A2FB1DB601CC4B2152C8BDBC0
:10259000ED1C06F1100000E005E086B2B346287895
:1025A00000287FF47FAF05B0BDE8F08F120900204E
:1025B0002DE9FF4F81B004460D461646A34600950F
:1025C0005AE00498182857D100274EE007EBC700BF
:1025D00000EB07102B4911F810003178884242D1E6
:1025E0004FF000083CE007EBC70000EB071025495F
:1025F00001EB4000801C10F808A04FF0000928E013
:102600000AF08000802807D11F490E9808802946CB
:102610002046FFF73BF806E01B490F980880294643
:102620002046FFF733F84FF6FF7000EA4A0A601CB5
:1026300084B2A4EB0B00102807D15C46681C85B25D
:102640000098281A182800D1009D09F1010000F017
:10265000FF09B9F1080FD3DB08F1010000F0FF0812
:10266000B8F1300FBFDB781CC7B21F2FAEDB761C72
:1026700004F1100084B2A34630780028A1D105B03F
:10268000BDE8F08FE8000108120900202DE9FF4F96
:1026900081B005460F461646AB460097DEE004982B
:1026A00018286AD1002460E004EB041000EB8000DD
:1026B0006E49085C3178884255D104EB041000EB78
:1026C00080006A4908444078717888424BD104EB15
:1026D000041000EB8000654908448078B178884296
:1026E00041D14FF000083BE004EB041000EB800008
:1026F0005E490844001D10F808A04FF0000928E0CA
:102700000AF08000802807D159490E980880394680
:102710002846FEF7BBFF06E055490F98088039466A
:102720002846FEF7B3FF4FF6FF7000EA4A0A681C1E
:1027300085B2A5EB0B00182807D15D46781C87B23F
:102740000098381A1B2800D1009F09F1010000F001
:10275000FF09B9F1080FD3DB08F1010000F0FF0811
:10276000B8F1510FC0DB601CC4B20C2C9CDBF61C12
:1027700005F1180085B2AB4670E0049810286DD1C1
:10278000002464E0C4EBC40000EB0410394911F8E4
:1027900010003178884258D1C4EBC40000EB04101B
:1027A000344901EB40004078717888424DD1C4EB48
:1027B000C40000EB04102F4901EB40008078B17891
:1027C000884242D14FF000083CE0C4EBC40000EB6B
:1027D0000410284901EB4000001D10F808A04FF03C
:1027E000000928E00AF08000802807D120490E98CF
:1027F000088039462846FEF749FF06E01C490F9835
:10280000088039462846FEF741FF4FF6FF7000EA80
:102810004A0A681C85B2A5EB0B00102807D15D465B
:10282000781C87B20098381A152800D1009F09F14A
:10283000010000F0FF09B9F1080FD3DB08F1010036
:1028400000F0FF08B8F12A0FBFDB601CC4B2122CE5
:1028500098DBF61C05F1100085B2AB4630780028F5
:102860007FF41DAF05B0BDE8F08F000060060108E1
:1028700012090020B10A01082DE9F05F804689465F
:1028800016469A46DDF828B0002700241FE00025F0
:102890001AE004FB0650012101EB40001BF8007018
:1028A0004FF6FF7000EA072704FB06501BF81000E4
:1028B00007430948078009EB040291B208EB0502BF
:1028C00090B2FEF7E3FE6D1CB542E2DB641C54459A
:1028D000DDDBBDE8F09F000012090020F8B50546D9
:1028E0000E4617461C4627E020780D2801D1641CAF
:1028F00022E020780A2803D1A81D85B2641C1BE0C1
:10290000E82D03DD552506F1100086B2B6F59C7F53
:1029100000DDF8BD0020009022783B463146284675
:10292000FFF7FAFA0C2F02D1A81D85B202E005F1DB
:10293000080085B2641C00BF20780028D4D100BFF5
:10294000E7E700004FF48041074A11604900116039
:1029500040F31701054AD1605114034A1160121F58
:102960001160890011607047140C01400010014093
:1029700000B52C20FFF7E6FF00BD00BFFEE7704763
:1029800070B5002100230F22C47804B3154C2468CD
:1029900004F4E064C4F5E064210AC1F10403CA4010
:1029A000447804FA03F184781440214309010E4C61
:1029B0000678A155047804F01F050124AC40057881
:1029C0006D11AD0005F1E025C5F8004109E004787E
:1029D00004F01F050124AC40044D0678761145F83B
:1029E000264070BD0CED00E000E400E080E100E076
:1029F00002490143024A1160704700000000FA05D5
:102A00000CED00E001460020034A506820F44040ED
:102A100008435060704700000010024029B1064A88
:102A2000D2690243044BDA6104E0034AD26982436B
:102A3000014BDA61704700000010024029B1064ADC
:102A400012690243044B1A6104E0034A126982438B
:102A5000014B1A61704700000010024029B1064A7C
:102A600092690243044B9A6104E0034A92698243EB
:102A7000014B9A61704700000010024029B1064ADC
:102A8000D2680243044BDA6004E0034AD26882430E
:102A9000014BDA6070470000001002400348406AB2
:102AA00040F0807001494862704700000010024009
:102AB00030B500210022002400232D4D6D6805F063
:102AC0000C0121B1042905D0082923D105E0294DA5
:102AD000056022E0274D05601FE0254D6D6805F477
:102AE0007012234D6D6805F48034022505EB924287
:102AF0001CB9214D554305600BE01D4D6D6805F473
:102B000000351DB11C4D5543056002E0194D55437C
:102B1000056002E0174D056000BF00BF144D6D68F1
:102B200005F0F0010909154D6B5C0568DD40456055
:102B30000F4D6D6805F4E061090A104D6B5C456846
:102B4000DD4085600A4D6D6805F46051C90A0B4D82
:102B50006B5C4568DD40C560054D6D6805F440411E
:102B6000890B074D6B5CC568B5FBF3F5056130BD9E
:102B70000010024000127A0000093D000000002011
:102B80001000002010B501460022002300204A1149
:102B9000012A02D1094C236806E0022A02D1074C1F
:102BA000236A01E0054C636A01F01F02012494408E
:102BB0001C400CB1012000E0002010BD00100240BC
:102BC00001490860704700008004424210B500F0DF
:102BD00001F810BD0CB5002001900090334800684A
:102BE00040F480303149086000BF3048006800F48C
:102BF000003000900198401C0190009818B901988D
:102C0000B0F5A06FF1D12948006800F4003010B190
:102C10000120009001E0002000900098012843D19D
:102C20002348006840F01000214908600846006809
:102C300020F0030008600846006840F002000860C9
:102C40001A48406819494860084640684860084684
:102C5000406840F4806048600846406820F47C107A
:102C600048600846406840F4E8104860084600683C
:102C700040F08070086000BF0C48006800F00070F1
:102C80000028F9D00948406820F00300074948604F
:102C90000846406840F00200486000BF03484068B2
:102CA00000F00C000828F9D10CBD00000010024013
:102CB00000200240042808D14FF0E021096941F0CA
:102CC00004014FF0E022116107E04FF0E0210969B3
:102CD00021F004014FF0E0221161704710B507F0B8
:102CE000F7FF012801D007F0B3FD10BD10B5134860
:102CF000006840F00100114908600846406810492A
:102D000008400E494860084600680E4908400B49D3
:102D100008600846006820F4802008600846406883
:102D200020F4FE0048604FF41F008860FFF74EFF5C
:102D30004FF000600449086010BD00000010024020
:102D40000000FFF8FFFFF6FE08ED00E010B50121DE
:102D5000094800F054F8012808D108480268406882
:102D6000521C40F1000005490A60486001210248F8
:102D700000F036F810BD000000040040C80000203C
:102D80007FB505460C4601210220FFF747FEADF84E
:102D90000850ADF804400020ADF80A00ADF8060078
:102DA00001A90E4800F046F8012211460B4800F038
:102DB00037F81D208DF8000001208DF8010000205B
:102DC0008DF8020001208DF803006846FFF7D8FD5A
:102DD0000121024800F007F87FBD00000004004018
:102DE000CA430282704721B1028842F00102028088
:102DF00004E002884FF6FE731A400280704730B537
:102E00000246002000230024158A05EA0103958963
:102E100005EA010413B10CB1012000E0002030BD2F
:102E20001AB183890B43838102E083898B438381B9
:102E300070470000002202881D4B98420ED01D4BA7
:102E400098420BD0B0F1804F08D01B4B984205D070
:102E50001A4B984202D01A4B984204D14FF68F7306
:102E60001A404B881A43174B984207D0164B98428A
:102E700004D04FF6FF431A40CB881A4302808B8858
:102E800083850B8803850A4B98420BD0094B9842E7
:102E900008D00E4B984205D00D4B984202D00D4BF6
:102EA000984201D10B7A0386012383827047000088
:102EB000002C0140003401400004004000080040A4
:102EC000000C004000100040001400400040014091
:102ED000004401400048014038B540F225512748E0
:102EE00000F095F9002847D0244800F04BFAC4B20E
:102EF0002348007870B14021224800F017F921469C
:102F0000204800F044FA00BF40211E4800F072F94A
:102F10000028F9D01C480068B0F5FF7F09D81B488D
:102F200019490968445418480068401C164908604B
:102F30000FE04FF400711548FDF77BF900201249AE
:102F400008601248096844540F480068401C0E4944
:102F500008600FA10D4804F0FFFA68B10F4800782F
:102F60000E49497801EB41010844052804D169461E
:102F70000B48006807F03AFB38BD000000380140FC
:102F8000C200002000440040180900209C5D002081
:102F90003C2F526571756573743E0000300000204F
:102FA0002800002038B540F225511F4800F02FF9C5
:102FB000002836D01C4800F0E5F9C4B20D2C01D031
:102FC0000A2C09D12146184800F0E1F96946174852
:102FD000006807F00BFB38BD082C11D121461248C0
:102FE00000F0D5F91248006848B111480068401E49
:102FF0000F49086000200F490D4A12688854EAE71B
:103000000B4800687F280CD22146074800F0BFF922
:10301000084807490968445405480068401C0449A9
:10302000086000BFD7E70000004400401C000020FB
:10303000140000202409002038B540F225512A4808
:1030400000F0E5F800284DD0274800F09BF9C4B205
:103050002648007870B14021254800F067F82146E5
:10306000234800F094F900BF4021214800F0C2F845
:103070000028F9D004B938BD1E480068B0F5FF7FBC
:1030800009D81D481B49096844541A480068401C67
:103090001849086002E019A001F03EFB20480078C2
:1030A00000B3204800781F49497801EB41010844EA
:1030B000052817D107F022FE0546002003462A46C0
:1030C000062100901848006807F0D8FF07F016FEA8
:1030D0000546002003462A46072100901248006852
:1030E00007F0CCFF00BFC6E700480040C100002049
:1030F00000440040580100201C5B00205541525400
:10310000335F527842756666657228554152545F46
:103110004D35333130292069732066756C6C210080
:103120001C090020300000202009002001F400725A
:10313000B2F5007F00D100BFCA430280704721B1C1
:10314000828942F40052828104E082894DF6FF7345
:103150001A4082817047000010B50446204884421E
:1031600009D101218803FFF789FC00214FF4804039
:10317000FFF784FC32E01B48844209D10121480456
:10318000FFF75CFC00214FF40030FFF757FC25E00F
:103190001548844209D101218804FFF74FFC002122
:1031A0004FF48020FFF74AFC18E01048844209D110
:1031B0000121C804FFF742FC00214FF40020FFF773
:1031C0003DFC0BE00A48844208D101210805FFF7C5
:1031D00035FC00214FF48010FFF730FC10BD0000DB
:1031E000003801400044004000480040004C0040CE
:1031F0000050004002460020B1F5007F00D100BF22
:1032000013880B400BB1012000E00020704770B51F
:103210000246002400230025002040F66A16B14231
:1032200000D100BFC1F3421501F01F03012606FAC9
:1032300003F3012D02D19689334006E0022D02D11D
:10324000168A334001E0968A33400C12012606FAB2
:1032500004F41688344013B10CB1012000E00020C2
:1032600070BDF0B50346002400260025002040F67E
:103270006A17B94200D100BF1846C1F3421401F0E9
:103280001F06012707FA06F5012C01D10C3004E0D6
:10329000022C01D1103000E014301AB107682F431E
:1032A000076002E00768AF430760F0BD2DE9F04713
:1032B00086B005460E460024A24600BFA146002760
:1032C000B08900B100BF2F462C8A4CF6FF70044035
:1032D000F08804432C82AC894EF6F3100440B08889
:1032E00031890843718908430443AC81AC8A4FF6A5
:1032F000FF400440B0890443AC8201A8FFF7D8FB2B
:103300001F48874202D1DDF810A001E0DDF80CA0D3
:10331000A88900F4004040B10AEBCA0000EB0A1093
:1033200031684900B0FBF1F807E00AEBCA0000EB96
:103330000A1031688900B0FBF1F86420B8FBF0F0A6
:1033400004012009642101FB1089A88900F40040D0
:1033500040B1322000EBC900B0FBF1F000F00700F3
:10336000044308E0322000EB09106421B0FBF1F0C7
:1033700000F00F0004432C8106B0BDE8F087000088
:103380000038014001468888C0F308007047C1F347
:1033900008028280704700BFFEE7000030B5C1B070
:1033A0004FF4807101A8FCF744FF584958A001F080
:1033B000B3F959A15B48FCF753FF20B15AA1594812
:1033C000FCF74EFF68B951495AA001F0A5F94FF436
:1033D00000715448FCF72DFF00205B49086041B0A4
:1033E00030BD4DA14F48FCF73BFF00F109044EA151
:1033F0004C48FCF735FF0546281BB0F5807F0CD9FB
:10340000424952A001F088F94FF400714548FCF799
:1034100010FF00204C490860E1E72A1B214601A863
:10342000FCF7EEFE4EA101A8FCF73FFF10B900F03B
:10343000A9FA60E04DA101A8FCF737FF10B900F030
:10344000E5FB58E04CA101A8FCF72FFF10B900F0F4
:1034500095F950E04BA101A8FCF727FF10B900F047
:103460007BFB48E04AA101A8FCF71FFF10B900F060
:10347000D3F940E04BA101A8FCF717FF60B94FF466
:1034800000714B48FCF7D5FE01204A4908701F49DE
:1034900049A001F041F92EE04CA101A8FCF705FF7D
:1034A00038B900204349087018494CA001F034F99C
:1034B00021E04FA101A804F077F8C0B14EA101A806
:1034C00004F04AF898B111494DA001F025F948A13E
:1034D0001448FCF7C5FE041D47A11248FCF7C0FEC6
:1034E00005462A1B21464C4804F0FCFF03E007492F
:1034F0004AA001F011F94FF400710A48FCF799FE57
:1035000000201149086000BF69E7000087F6010844
:1035100025732E2E2E0D0A003C526571756573744D
:103520003E0000009C5D00203C2F52657175657364
:10353000743E00002573286572726F722064617496
:1035400061290D0A00000000180900202573286F6A
:10355000766572206C656E677468290D0A0000003C
:10356000646576696365496E666F000072616469BF
:103570006F496E666F00000061747461636854691E
:103580006D65000070696E6744656C6179000000CC
:10359000636F6D70726568656E7369766554657387
:1035A00074000000626C654174456E61626C650078
:1035B0001C5B00201C090020257328626C65417487
:1035C000456E61626C65290D0A000000626C654100
:1035D0007444697361626C650000000025732862A1
:1035E0006C65417444697361626C65290D0A000061
:1035F0003C41543E000000003C2F41543E0000007E
:103600002573285265637620415420436F6D6D61A8
:103610006E64290D0A0000000048004025732875DB
:103620006E6B6E6F7720636D64290D0A00000000D9
:1036300030B58BB02822104901A8FCF7E1FD052523
:103640000E490FA001F068F80DE04FF4FA63012273
:1036500001A90DA001F000F90446012C01D10BB025
:1036600030BD681EC5B2002DEFDC044908A001F092
:1036700053F80020F3E7000068F4010847F401085C
:1036800025732E2E2E0D0A002B2B2B61000000001F
:1036900025732845786563757465206661696C21BA
:1036A000290D0A0008B50D490DA001F035F80E48A6
:1036B000022300224FF4FA7100900CA007F0A8FC3E
:1036C0000E490860FFF7B4FF00F01AF800F08AFC1A
:1036D00000F02AFC00F0ACFB08BD0000F0F501088A
:1036E00025732E2E2E0D0A0005580008626C6541C8
:1036F0007445786554696D657200000020090020EA
:1037000030B58BB02822104901A8FCF779FD0525BA
:103710000E490FA001F000F80DE04FF4FA6301220A
:1037200001A90DA001F098F80446012C01D10BB0BD
:1037300030BD681EC5B2002DEFDC04490AA000F0C0
:10374000EBFF0020F3E70000A8F4010890F4010863
:1037500025732E2E2E0D0A0041542B4D41585055E5
:10376000543D4F46460D0A0025732845786563751C
:103770007465206661696C21290D0A0010B5A0B03E
:1037800080216846FCF755FD11A16846FCF75CFDF9
:10379000124913A000F0C0FF02F070F80446224660
:1037A00011A1184804F002FF16496846FCF74CFDC9
:1037B00015A16846FCF748FD6846FCF76FFD044616
:1037C00022466946134804F08DFE20B010BD00006B
:1037D0003C526573706F6E73653E000033F60108EE
:1037E00025732E2E2E0D0A003C617474616368549B
:1037F000696D653E25643C2F61747461636854692A
:103800006D653E009C5F00203C2F526573706F6EAB
:1038100073653E000038014010B5D0B04FF48071A0
:1038200010A8FCF706FD202108A8FCF702FD284996
:1038300028A000F071FF29A110A8FCF705FD02F0F7
:103840001DF8044622462CA1324804F0AFFE31494F
:1038500010A8FCF7F9FC42F2107264212EA001F0CE
:10386000E9FC0446224630A12A4804F09FFE29497B
:1038700010A8FCF7E9FC02F08FF80446224631A1BB
:10388000244804F093FE234910A8FCF7DDFC6846A9
:1038900002F0EAF82022694608A8FCF7B1FC2DA145
:1038A0001C480A9A04F082FE1A4910A8FCF7CCFCC6
:1038B0002CA110A8FCF7C8FC10A8FCF7EFFC0446EC
:1038C000224610A92E4804F00DFE50B010BD000095
:1038D00066F6010825732E2E2E0D0A003C526573E4
:1038E000706F6E73653E3C636F6D70726568656E78
:1038F000736976653E0000003C61747461636854CE
:10390000696D653E25643C2F617474616368546918
:103910006D653E009C5F00203131342E3131342EF4
:103920003131342E313134003C70696E6744656C3E
:1039300061793E25643C2F70696E6744656C6179DE
:103940003E0000003C6373713E25643C2F6373713D
:103950003E0000003C736E723E25643C2F736E7215
:103960003E0000003C2F636F6D70726568656E737A
:103970006976653E3C2F526573706F6E73653E00CD
:103980000038014010B5ADF5007D4FF40071684678
:10399000FCF74FFC39493AA000F0BEFE3AA1684658
:1039A000FCF752FC40213E4801F0C4FA3DA16846B4
:1039B000FCF74AFC3A496846FCF746FC3CA16846DD
:1039C000FCF742FC4021364801F02CFB3BA1684645
:1039D000FCF73AFC32496846FCF736FC3BA16846E6
:1039E000FCF732FC40212E4801F048F93BA1684623
:1039F000FCF72AFC2A496846FCF726FC39A16846F0
:103A0000FCF722FC4021264801F01EFA38A1684646
:103A1000FCF71AFC22496846FCF716FC36A16846FA
:103A2000FCF712FC40211E4801F09AF934A16846C7
:103A3000FCF70AFC1A496846FCF706FC32A1684606
:103A4000FCF702FC32A16846FCF7FEFB33A1684696
:103A5000FCF7FAFB35A16846FCF7F6FB36A1684691
:103A6000FCF7F2FB6846FCF719FC0446224669465F
:103A7000384804F037FD0DF5007D10BD00F6010853
:103A800025732E2E2E0D0A003C526573706F6E73D7
:103A9000653E3C646576696365496E666F3E00000D
:103AA0009C5F00203C6D6F64756C653E00000000FB
:103AB0003C2F6D6F64756C653E0000003C6D6F645B
:103AC000756C655F7665723E000000003C2F6D6F7F
:103AD00064756C655F7665723E0000003C696363E7
:103AE00069643E003C2F69636369643E0000000026
:103AF0003C696D73693E00003C2F696D73693E003F
:103B00003C696D65693E00003C2F696D65693E004A
:103B10003C6669726D776172653E00004E425F548B
:103B200065726D696E616C5F563031003C2F66695D
:103B3000726D776172653E003C2F646576696365DE
:103B4000496E666F3E3C2F526573706F6E73653EB3
:103B5000000000000038014010B5A0B08021684688
:103B6000FCF767FB134914A000F0D6FD14A16846CA
:103B7000FCF76AFB42F21072642114A001F05AFBB8
:103B80000446224615A11C4804F010FD1A49684657
:103B9000FCF75AFB19A16846FCF756FB6846FCF790
:103BA0007DFB044622466946174804F09BFC20B082
:103BB00010BD00004DF6010825732E2E2E0D0A00B3
:103BC0003C526573706F6E73653E00003131342E68
:103BD0003131342E3131342E313134003C70696E44
:103BE0006744656C61793E25643C2F70696E67445B
:103BF000656C61793E0000009C5F00203C2F52659F
:103C000073706F6E73653E000038014010B5ADF5FE
:103C1000287D4FF4007128A8FCF70BFB202120A879
:103C2000FCF707FB202118A8FCF703FB202110A8B4
:103C3000FCF7FFFA202108A8FCF7FBFA404941A055
:103C400000F06AFD41A128A8FCF7FEFA01F0A4FEED
:103C50000446224643A1474804F0A8FC454928A849
:103C6000FCF7F2FA684601F0FFFE2022694608A838
:103C7000FCF7C6FA40A13F480A9A04F097FC3D4978
:103C800028A8FCF7E1FA40A13A48099A04F08EFC12
:103C9000384928A8FCF7D8FA3FA13648089A04F01A
:103CA00085FC344928A8FCF7CFFA40A131480B9A8B
:103CB00004F07CFC2F4928A8FCF7C6FA0CAA3FA107
:103CC0002C4804F073FC2B4928A8FCF7BDFA01F03E
:103CD00023FA044622463EA1264804F067FC254903
:103CE00028A8FCF7B1FA202218A920A801F0A0FB0F
:103CF00018AB20AA3AA11F4804F058FC1D4928A877
:103D0000FCF7A2FA202110A801F028FB10AA3DA17F
:103D1000184804F04BFC174928A8FCF795FA3DA178
:103D200028A8FCF791FA28A8FCF7B8FA044622461E
:103D300028A93E4804F0D6FB0DF5287D10BD0000F3
:103D40001AF6010825732E2E2E0D0A003C526573BB
:103D5000706F6E73653E3C726164696F496E666F29
:103D60003E0000003C727373693E25643C2F727301
:103D700073693E009C5F00203C736E723E25643C7C
:103D80002F736E723E0000003C727372713E2564A8
:103D90003C2F727372713E003C65617266636E3EC9
:103DA00025643C2F65617266636E3E003C65636C02
:103DB0003E25643C2F65636C3E0000003C63656CEF
:103DC0006C69643E25733C2F63656C6C69643E00CE
:103DD0003C62616E643E25643C2F62616E643E000D
:103DE0003C74333332343E25733C2F7433333234D6
:103DF0003E3C74333431323E25733C2F74333431BE
:103E0000323E00003C706C6D6E3E25733C2F706C32
:103E10006D6E3E003C2F726164696F496E666F3E45
:103E20003C2F526573706F6E73653E000038014021
:103E300070B58AB0282222496846FCF7E1F90526C8
:103E40000A25204920A000F067FC31E041F28833C8
:103E5000012269461EA000F0FFFC0446012C25D17A
:103E60001BE01DA11E48FCF7FBF940B14FF40071A7
:103E70001B48FCF7DEF900201A4908600FE0681EB5
:103E8000C5B235B90F4918A000F046FC02200AB0AF
:103E900070BD4FF47A7005F049F9002DE1DC00BFE8
:103EA000084918A000F038FC0120F0E7701EC6B2E7
:103EB000002ECBDC034917A000F02EFC0020E6E723
:103EC000B0F501089CF5010825732E2E2E0D0A0071
:103ED00041542B5A0D0A00005553522D424C4500B7
:103EE0009C5D0020180900202573285761697442E1
:103EF0006F6F744D73672074696D656F7574290DEC
:103F00000A000000257328626F6F74206F6B290D03
:103F10000A0000002573284578656375746520667E
:103F200061696C21290D0A0070B5A2B028221F49D1
:103F300018A8FCF765F90525402108A8FCF779F9D0
:103F400020216846FCF775F919491AA000F0E4FB36
:103F50002021684600F004FF18A108A8FCF774F9B6
:103F60006846FCF79BF969460844C61E314608A816
:103F7000FCF76AF915A108A8FCF766F90DE04FF403
:103F8000FA63012218A908A800F066FC0446012C77
:103F900001D122B070BD681EC5B2002DEFDC04490E
:103FA0000BA000F0B9FB0020F3E700002CF501089E
:103FB00018F5010825732E2E2E0D0A0041542B4EA4
:103FC000414D453D4435333130415F000D0A00001D
:103FD00025732845786563757465206661696C2171
:103FE000290D0A0030B58BB02822104901A8FCF732
:103FF00007F905250E490FA000F08EFB0DE04FF4E8
:10400000FA63012201A90DA000F026FC0446012C50
:1040100001D10BB030BD681EC5B2002DEFDC0449E4
:104020000AA000F079FB0020F3E70000F0F401089B
:10403000D0F4010825732E2E2E0D0A0041542B5565
:10404000415254544D3D3130300D0A0025732845FE
:10405000786563757465206661696C21290D0A00B5
:104060000EB54FF6FF70002105A21023CDE9002107
:104070000290022296215020FEF732F800BFFEE7A0
:10408000E58A9FE883BDE5BC80E58F91E4B8AD008B
:10409000FFF708FB0EE042F21071012006F0EEF887
:1040A00004462246044905A000F036FB012C01D14C
:1040B000FFF774F9EFE700003DB100082573286EA3
:1040C0006F7469667956616C75653A202564290DAF
:1040D0000A00000010B5002406E0054901EB0410B9
:1040E000FDF7A4F8601CC4B2072CF6D310BD000085
:1040F000E8000020184919A000F00EFBFFF7EAFFC6
:1041000029E042F21071012006F0B8F80446224678
:10411000114914A000F000FB012C1CD164211748A8
:10412000FCF787F800BF642214491548FDF70EF824
:1041300005461248FCF7B2F8064632460F491148C8
:1041400004F0D0F9002DEED164210D48FCF771F890
:1041500000200D490860D4E702B1000825732E2E17
:104160002E0D0A002573286E6F7469667956616C8E
:1041700075653A202564290D0A0000008809002091
:104180002409002000440040140000202DE9F04FD5
:1041900093B083464FF0000900240025002700203B
:1041A00012901190804610900F900E90002682463B
:1041B0000D900C900B9040F29E5040F23F134F2216
:1041C000282100900020FDF7B5FA40F29E50002112
:1041D000FEA21023CDE90021029002223221052007
:1041E000FDF77EFF40F29E500021FCA21023CDE996
:1041F0000021029002226E210520FDF771FF40F29E
:104200009E500021F9A21023CDE900210290022244
:10421000BE210520FDF764FF40F29E500021F7A269
:104220001023CDE90021029002224FF4877105206E
:10423000FDF756FF44F29830F44908804F23EF22EF
:1042400019460020FDF7CAF99F23EF2219460020E6
:10425000FDF7C4F9EF231A4619460020FDF7BEF911
:1042600040F23F13502228211046FDF7B7F941F6DE
:104270000510E64908804323EC2231217D20FDF71B
:1042800039FA4FF6FF700021E1A21023CDE9002199
:104290000290022256215520FDF722FF4FF6FF70B3
:1042A0000021DFA21023CDE90021029002226D211E
:1042B0005520FDF715FF4FF6FF700021DCA21023FB
:1042C000CDE900210290022284215520FDF708FF4C
:1042D0004FF6FF700021CEA21023CDE900210290FD
:1042E0000222A6215520FDF7FBFE4FF6FF700021AC
:1042F000D3A21023CDE9002102900222BD21552036
:10430000FDF7EEFE4FF6FF700021C5A21023CDE9A8
:10431000002102900222D4215520FDF7E1FE4FF644
:10432000FF700021BAA21023CDE9002102900222E1
:10433000F6215520FDF7D4FE4FF6FF700021B8A2FC
:104340001023CDE900210290022240F20D115520E8
:10435000FDF7C6FE4FF6FF700021BDA21023CDE988
:104360000021029002224FF492715520FDF7B8FE11
:1043700040F29E5042237F22322100907E20FDF7A2
:10438000D9F9BFE109F101095B464A46B4A1B64833
:1043900004F00CF900209D4908804FF6FF70B349E6
:1043A0000880B14B102232215520FEF797FA01F018
:1043B00065FA0446322004F0B9FE012C10D9E91B3D
:1043C000129800FB0141E81B401CB1FBF0F0129079
:1043D000E81B02D01198844200D911946D1C01E0B1
:1043E0006D1C7F1C0020894908804FF6FF709F4993
:1043F00008801298FCF713F99D490690FBF7B8FF67
:104400000790FCF72AF902460B46CDE9080199A16D
:10441000954804F0CBF8944B102256219620FEF7D5
:104420005DFA1198FCF7FBF891490690FBF7A0FFA5
:104430000790FCF712F902460B46CDE908018DA161
:10444000894804F0B3F8884B10226D219620FEF7BE
:1044500045FA2846FCF7E3F80590E81BFCF7DFF87F
:1044600004900599FBF784FF84490690FBF74EFF03
:104470000790FCF7F2F802460B46CDE9080180A14F
:10448000794804F093F8784B102284219620FEF7A7
:1044900025FA01F081FA0446CCB11F2C17D80F98E9
:1044A00000FB084108F10100B1FBF0F00F90B8F1FA
:1044B000000F02D00E98844200D20E94B8F1000F83
:1044C00002D01098844200D9109408F101086FA11D
:1044D00065480F9A04F06AF8634B1022A6219620D3
:1044E000FEF7FCF969A160480E9A04F05FF85E4B94
:1044F0001022BD219620FEF7F1F964A15A48109AC6
:1045000004F054F8584B1022D4219620FEF7E6F917
:1045100042F2107264215FA000F08CFE0446B4B138
:10452000A6EB0A010D9800FB0141A6EB0A00401C16
:10453000B1FBF0F00D9016B10C98844200D90C94A8
:1045400016B10B98844200D20B94761C02E0761CC4
:104550000AF1010A53A144480D9A04F027F8424B8E
:104560001022F6219620FEF7B9F94EA13E480C9A8A
:1045700004F01CF83C4B102240F20D119620FEF77F
:10458000ADF93046FCF74BF805905046FCF747F87C
:1045900004900599FBF7ECFE38490690FBF7B6FE50
:1045A0000790FCF75AF802460B46CDE9080134A102
:1045B0002D4803F0FBFF2C4B10224FF492719620F4
:1045C000FEF78CF95846FCF72AF86FE0E6B58BE861
:1045D000AF95E8BF9BE5BAA600000000E9A9BBE7DC
:1045E000BD91E697B6E997B400000000E4BFA1E5ED
:1045F0008FB7E8B4A8E9878F00000000E7BD91E716
:10460000BB9CE5BBB6E697B600000000120900208F
:10461000E5B9B3E59D87E580BCEFBC9A00000000DA
:10462000E69C80E5A4A7E580BCEFBC9A00000000F2
:10463000E68890E58A9FE78E87EFBC9A000000002D
:10464000E69C80E5B08FE580BCEFBC9A00000000DE
:10465000E4B8A2E58C85E78E87EFBC9A00000000E5
:1046600025642F25640000001C5D00201409002033
:1046700000007A44252D352E316673000000C842B3
:10468000252D352E3166252500000000252D3264AC
:10469000000000003131342E3131342E3131342ECE
:1046A00031313400252D35646D730000019048468A
:1046B000FBF7B5FF00900199FBF75AFE14490290F1
:1046C000FBF724FE0390FBF7C8FFCDE9040104F0DB
:1046D00063FD00220F4BCDE90601FBF787FECDE914
:1046E0000801FBF7A1FF80B20A9040F29E504223DE
:1046F000009032217E200A9AFDF71CF84FF4FA60F0
:1047000004F014FDD945FFF43DAE13B0BDE8F08FC1
:104710000000DC4200805F400FB410B5C2B04FF41F
:10472000807102A8FBF785FD45A80190F92102A838
:10473000019B449A03F04EFF002001900748007847
:1047400040B102A8FBF7AAFD0446224602A904488C
:1047500003F0C8FE42B010BC5DF814FBD00000208E
:10476000004400402DE9F05F04460E461746984687
:104770004FF000094FF0640A4FF400712248FBF734
:1047800058FD0020214908602046FBF787FD83463D
:104790005A4621461E4803F0A5FE1EA1204602F0FF
:1047A000DBFE28B1A01EFBF779FD2044002101802B
:1047B0002246194919A0FFF7AFFF24E0002511E0B8
:1047C00005EB850006EB80010F48FBF749FD38B18A
:1047D0006A1C114915A0FFF79FFF681CBDE8F09FF8
:1047E000681CC5B2BD42EBDB09FB0AF0404505D3AE
:1047F000094913A0FFF790FF0020EFE7504604F0AF
:1048000095FC09F10109D9E71C5B00205801002043
:10481000004800400D0A0000D8B100082573285B4D
:1048200053454E445D232573290D0A0025732872D4
:10483000657475726E3A202564290D0A0000000027
:10484000257328657865637574652074696D656F77
:10485000757421290D0A00002DE9F05F04460E460B
:10486000174698464FF000094FF0640A4FF4007164
:104870002248FBF7DEFC0020214908602046FBF7B8
:104880000DFD83465A4621461E4803F02BFE1EA10D
:10489000204602F061FE28B1A01EFBF7FFFC204479
:1048A000002101802246194919A0FFF735FF24E0B5
:1048B000002511E005EB850006EB80010F48FBF7B2
:1048C000CFFC38B16A1C114915A0FFF725FF681C01
:1048D000BDE8F09F681CC5B2BD42EBDB09FB0AF0E6
:1048E000404505D3094913A0FFF716FF0020EFE765
:1048F000504604F01BFC09F10109D9E79C5D00203A
:1049000018090020003801400D0A000030F40108A9
:104910002573285B53454E445D232573290D0A00FA
:1049200025732872657475726E3A202564290D0A04
:104930000000000025732865786563757465207430
:10494000696D656F757421290D0A0000FEB5054675
:104950000E469D499DA0FFF7DFFE06EB460028446A
:10496000C4B24FF6FF70FCF705FE9A481E231A46A4
:10497000052100900846FDF77FFF4FF6FF7040F2DB
:10498000194195A21823CDE90021029000220621A9
:104990002320FDF7A5FB944814231A460A21009012
:1049A000A520FDF769FF0020904908802723EF220A
:1049B0001946FCF713FE8E4832231A463C2100901C
:1049C0000F20FDF759FF6CB940F29E50002189A2DB
:1049D0001023CDE90021029002226E210820FDF76C
:1049E0007FFB0CE04FF6FF70002182A21023CDE97F
:1049F0000021029002226E210820FDF771FB814800
:104A000032231A463C2100905F20FDF735FF012C30
:104A10000DD140F29E5000217BA21023CDE9002150
:104A2000029002226E215820FDF75AFB0CE04FF64F
:104A3000FF70002174A21023CDE900210290022210
:104A40006E215820FDF74CFB734832231A463C2157
:104A50000090AF20FDF710FF022C0DD140F29E50C8
:104A600000216EA21023CDE90021029002226E21C6
:104A7000A820FDF735FB0CE04FF6FF70002167A280
:104A80001023CDE90021029002226E21A820FDF71B
:104A900027FB664832231A46962100900F20FDF727
:104AA000EBFE032C0DD140F29E50002160A210239A
:104AB000CDE9002102900222C8210820FDF710FB59
:104AC0000CE04FF6FF70002159A21023CDE9002120
:104AD00002900222C8210820FDF702FB5848322329
:104AE0001A46962100905F20FDF7C6FE042C0DD1DA
:104AF00040F29E50002153A21023CDE900210290E4
:104B00000222C8215820FDF7EBFA0CE04FF6FF70A7
:104B100000214CA21023CDE9002102900222C821DD
:104B20005820FDF7DDFA4B4832231A4696210090B3
:104B3000AF20FDF7A1FE052C0DD140F29E500021C3
:104B400045A21023CDE9002102900222C821A8200D
:104B5000FDF7C6FA0CE04FF6FF7000213EA21023CD
:104B6000CDE9002102900222C821A820FDF7B8FA61
:104B70003D4832231A46F02100900F20FDF77CFEBD
:104B8000062C0ED140F29E50002138A21023CDE910
:104B90000021029002224FF491710820FDF7A0FA43
:104BA0000DE04FF6FF70002130A21023CDE9002167
:104BB000029002224FF491710820FDF791FA3C20F7
:104BC00001F076F9FEBD0000D8F3010825732E2E02
:104BD0002E000000CF150108E4B8ADE7A7BBE789B8
:104BE000A9E88194E7BD9100770E01081209002021
:104BF000F76A0108E8AEBEE5A487E4BFA1E681AF8D
:104C00000000000007920108E9A9BBE7BD91E6B5E5
:104C10008BE8AF95000000007F7E0108E4BFA1E5AE
:104C20008FB7E58F82E695B0000000008FA50108E0
:104C3000E7BD91E7BB9CE5BBB6E697B60000000078
:104C400017B90108E7BBBCE59088E6B58BE8AF95DE
:104C5000000000009FCC0108E8939DE78999E79B3D
:104C6000B4E8BF9E0000000027E00108E4BDBFE7F4
:104C700094A8E8AFB4E6988E000000002DE9F04358
:104C80008BB005460E462822204901A8FBF7B8FA4A
:104C9000052731462846FBF7CCFA2AE0781EC7B232
:104CA0004FF4FA63022201A919A0FFF75BFD00F09F
:104CB000FF08B8F1010F18D118A11A48FBF7D0FA74
:104CC000841D19A12046FBF7CBFA8146A9EB04020B
:104CD00021462846FBF7F7FA2A46164916A0FFF7A1
:104CE0001BFD01200BB0BDE8F0834FF4FA7004F017
:104CF0001DFA002FD2DC324612A12846FBF7C2FA79
:104D00000C4912A0FFF708FD0020EBE704B30008F0
:104D100041542B4E434349440D0A00004E4343493E
:104D2000443A00001C5B00200D0A0D0A4F4B0D0A8F
:104D300000000000F4B200082573282573290D0A2D
:104D4000000000004E4F2053494D000025732845B8
:104D50007865204661696C656421290D0A000000B0
:104D60002DE9F0438BB005460E462822204901A8C4
:104D7000FBF746FA052731462846FBF75AFA2AE0A0
:104D8000781EC7B24FF4FA63022201A919A0FFF7F7
:104D9000E9FC00F0FF08B8F1010F18D118A11A487A
:104DA000FBF75EFA441D19A12046FBF759FA81462C
:104DB000A9EB040221462846FBF785FA2A46164944
:104DC00016A0FFF7A9FC01200BB0BDE8F0834FF45B
:104DD000FA7004F0ABF9002FD2DC324612A128465B
:104DE000FBF750FA0C4913A0FFF796FC0020EBE705
:104DF00074B3000841542B4347534E3D310D0A0014
:104E00004347534E3A0000001C5B00200D0A0D0A78
:104E10004F4B0D0A0000000064B3000825732825DD
:104E200073290D0A000000004E4F204D6F64756C11
:104E300065000000257328457865204661696C652A
:104E40006421290D0A0000002DE9F0438BB00546CE
:104E50000E462822264901A8FBF7D2F9052731463C
:104E60002846FBF7E6F935E0781EC7B24FF4FA633F
:104E7000022201A91FA0FFF775FC00F0FF08B8F19E
:104E8000010F23D11E4C0BE02078202805D020787C
:104E90000D2802D020780A2801D1641C00E000E02F
:104EA000F2E700BF17A12046FBF7DAF98146A9EB2C
:104EB000040221462846FBF706FA2A46124913A0A7
:104EC000FFF72AFC01200BB0BDE8F0834FF4FA7025
:104ED00004F02CF9002FC7DC32460FA12846FBF75F
:104EE000D1F909490EA0FFF717FC0020EBE70000FD
:104EF0003CB3000841542B43494D490D0A000000C2
:104F00001C5B00200D0A00002CB300082573282527
:104F100073290D0A000000004E4F2053494D000038
:104F2000257328457865204661696C656421290DE3
:104F30000A0000002DE9F0438BB005460E462822FA
:104F4000264901A8FBF75CF9052731462846FBF7FF
:104F500070F935E0781EC7B24FF4FA63022201A956
:104F60001FA0FFF7FFFB00F0FF08B8F1010F23D1EE
:104F70001E4C0BE02078202805D020780D2802D088
:104F800020780A2801D1641C00E000E0F2E700BFAD
:104F900017A12046FBF764F98146A9EB04022146DC
:104FA0002846FBF790F92A46134914A0FFF7B4FBF3
:104FB00001200BB0BDE8F0834FF4FA7004F0B6F8AE
:104FC000002FC7DC324610A12846FBF75BF90A49DF
:104FD0000FA0FFF7A1FB0020EBE700008CB2000858
:104FE00041542B43474D4D0D0A0000001C5B00202F
:104FF0000D0A0D0A4F4B000074B2000825732825D6
:1050000073290D0A000000004552524F5200000063
:10501000257328457865204661696C656421290DF2
:105020000A0000002DE9F0438BB005460E46282209
:10503000264901A8FBF7E4F8052731462846FBF787
:10504000F8F835E0781EC7B24FF4FA63022201A9DE
:105050001FA0FFF787FB00F0FF08B8F1010F23D175
:105060001E4C0BE02078202805D020780D2802D097
:1050700020780A2801D1641C00E000E0F2E700BFBC
:1050800017A12046FBF7ECF88146A9EB0402214664
:105090002846FBF718F92A46144915A0FFF73CFBF0
:1050A00001200BB0BDE8F0834FF4FA7004F03EF835
:1050B000002FC7DC324611A12846FBF7E3F80B4965
:1050C00010A0FFF729FB0020EBE70000CCB200089E
:1050D00041542B434D5645520D0A00001C5B0020E5
:1050E0000D0A0D0A4F4B0D0A00000000B4B2000873
:1050F0002573282573290D0A000000004552524FE0
:1051000052000000257328457865204661696C656A
:105110006421290D0A0000002DE9F0418AB02822FF
:105120002E496846FBF76CF8052600254EE0701EF8
:10513000C6B24FF4FA630222694629A0FFF712FBB8
:10514000C7B2012F3ED129A12A48FBF789F80446AE
:10515000002C33D0E41D4FF000081CE020782028FC
:1051600001D1641C17E020782D2803D14FF00108ED
:10517000641C10E0207830280BDB2078392808DC0C
:10518000207805EB850100EB4100A0F13005641C9F
:1051900000E001E000BFE1E700BFB8F1000F02D07E
:1051A0004FF0FF3000E0012045432A46124913A08A
:1051B000FFF7B2FA28460AB0BDE8F0810E4912A006
:1051C000FFF7AAFA4FF4FA7003F0B0FF002EAEDC3E
:1051D000094913A0FFF7A0FA0020ECE7E8B30008A4
:1051E00041542B4E42414E443F0D0A002B4E42414A
:1051F0004E443A001C5B0020D4B3000825732825D8
:1052000064290D0A0000000025732842414E442005
:105210004E6F7420466F756E6421290D0A000000E0
:10522000257328457865204661696C656421290DE0
:105230000A0000002DE9F047B0B0074688469146C5
:105240003C22304921A8FAF7DBFF4FF0050A00267F
:10525000802101A8FAF7EDFF43463A462AA101A8AA
:10526000CDF8009003F0A2F943E0AAF1010000F0AC
:10527000FF0A42F6E063032221A901A8FFF772FAB0
:10528000C5B2012D29D14FF47A7003F04FFF24A14C
:105290002448FAF7E5FF441C14E02078202801D1C7
:1052A000641C0FE0207830280BDB2078392808DCDC
:1052B000207806EB860100EB4100A0F13006641C6B
:1052C00000E000E0E9E700BF3246174917A0FFF70A
:1052D00023FA304630B0BDE8F087022D05D11249DF
:1052E00015A0FFF719FA0020F4E74FF4FA7003F065
:1052F0001DFFBAF1000FB8DC0B4913A0FFF70CFA41
:105300000020E7E76CB4000841542B4E50494E474B
:105310003D25732C25642C25642C310D0A000000DA
:105320003D0000001C5B002054B4000825732825B4
:1053300064290D0A000000002573284E50494E478D
:1053400045525221290D0A002573284578652046CB
:1053500061696C656421290D0A0000002DE9F043A4
:105360008BB005460E462822204901A8FAF748FFCF
:10537000052731462846FAF75CFF2AE0781EC7B2B7
:105380004FF4FA63022201A919A0FFF7EBF900F02C
:10539000FF08B8F1010F18D118A11948FAF760FFFA
:1053A000441C16A12046FAF75BFF8146A9EB0402D4
:1053B00021462846FAF787FF2A46124912A0FFF72E
:1053C000ABF901200BB0BDE8F0834FF4FA7003F0A5
:1053D000ADFE002FD2DC32460EA12846FAF752FF6E
:1053E00008490EA0FFF798F90020EBE7ACB30008DE
:1053F00041542B434F50533F0D0A00002200000040
:105400001C5B00209CB300082573282573290D0A16
:10541000000000004552524F5200000025732845FD
:105420007865204661696C656421290D0A000000D9
:105430002DE9F04F8DB083460F46904628228F49C4
:1054400003A8FAF7DDFE4FF0050900200090019057
:10545000029041465846FAF7ECFE41463846FAF7C4
:10546000E8FEF7E0A9F1010000F0FF094FF4FA634C
:10547000022203A982A0FFF775F900F0FF0ABAF132
:10548000010F78D1814A824982A0FFF745F983A1B3
:105490007E48FAF7E5FE441C80A12046FAF7E0FEBC
:1054A000441C7EA12046FAF7DBFE441C7BA120466B
:1054B000FAF7D6FE0646032279A12046FAF717FF2F
:1054C00028B90A2277A16846FAF7DCFE59E00322E0
:1054D00076A12046FAF70BFF28B90A2274A1684684
:1054E000FAF7D0FE4DE0032272A12046FAF7FFFE44
:1054F00028B90A2270A16846FAF7C4FE41E00322E7
:105500006EA12046FAF7F3FE28B90A226CA168467C
:10551000FAF7B8FE35E003226AA12046FAF7E7FE63
:1055200028B90A2268A16846FAF7ACFE29E00322EE
:1055300066A12046FAF7DBFE28B90A2264A1684674
:10554000FAF7A0FE1DE0032263A12046FAF7CFFE82
:1055500028B90A2261A16846FAF794FE11E00322F5
:1055600060A12046FAF7C3FE30B90A225EA1684660
:10557000FAF788FE05E069E007225BA16846FAF7C2
:1055800081FEE41C002505E0207800EB4500A0F139
:105590003005641CB442F7D36B462A4654A1384602
:1055A00003F004F83DA12046FAF75AFE441C52A12C
:1055B0002046FAF755FE0646032239A12046FAF79F
:1055C00096FE28B90A223EA16846FAF75BFE28E05B
:1055D000032236A12046FAF78AFE28B90A223CA106
:1055E0006846FAF74FFE1CE0032232A12046FAF784
:1055F0007EFE28B90A2241A16846FAF743FE10E070
:10560000032238A12046FAF772FE28B90A2236A1F1
:105610006846FAF737FE04E0072233A16846FAF736
:1056200031FE0025E41C05E0207800EB4500A0F1E8
:105630003005641CB442F7D36B462A462CA1584669
:1056400002F0B4FF01200DB0BDE8F08F4FF4FA7006
:1056500003F06CFDB9F1000F3FF704AF42462AA1F9
:105660003846FAF70FFE424627A15846FAF70AFED7
:10567000074927A0FFF750F80020E4E72CB4000802
:1056800041542B4350534D533F0D0A001C5B0020E7
:1056900010B4000825732825732900002C00000091
:1056A0003030300031306D696E0000003030310034
:1056B0003168000030313000313068003031310065
:1056C000327300003130300033307300313031003C
:1056D000316D696E000000003131300033323068C6
:1056E0000000000031313100496E76616C69640060
:1056F0002564202A202573000D0A00006465636973
:10570000686F7572730000004552524F52000000DE
:10571000257328457865204661696C656421290DEB
:105720000A00000010B50446034904A0FEF7F4FF88
:10573000044801F055FF10BD15B1000825732E2E49
:105740002E0D0A00300000201CB503F0D9FB04F038
:105750002DFE1A48012100234A02CDE9001018A1AC
:105760001A4805F085FA04F033FE25E042F2107184
:10577000012004F083FD04462246154915A0FEF7DA
:10578000CBFF012C18D104F011FE0C48006838B191
:105790000A48006804F0B2FE0D4914A0FEF7BCFFF1
:1057A0000648012100234A02CDE9001004A1074860
:1057B00005F05EFA04F00CFED8E70000240000209B
:1057C0006C63645F7461736B000000002557000810
:1057D00028B100082573286E6F7469667956616C6C
:1057E00075653A202564290D0A00000025732844B8
:1057F000656C657465204C6364207461736B290D5E
:105800000A00000010B50E490EA0FEF785FF0E221B
:105810000EA1124802F066FE1148124902680F48B4
:1058200002F060FE102210A10C4802F05BFE4FF463
:1058300000710C48FAF7FDFC00200949086010BD12
:10584000D8F5010825732E2E2E0D0A003C526573E3
:10585000706F6E73653E3C41543E0000003801405D
:10586000580100201C5B00203C2F41543E3C2F522D
:105870006573706F6E73653E0000000070B594B084
:10588000282225490AA8FAF7BBFC282222492831F8
:105890006846FAF7B5FC41F2883301220AA91FA035
:1058A000FEF760FF0646012E30D11F4804684068AD
:1058B00020E041F28833022269461CA0FEF752FF25
:1058C0000646022E00D116E0174802684068121BF7
:1058D00060F10000184B00219A1A814106D2174945
:1058E00017A0FEF719FF012014B070BD4FF4FA7035
:1058F00003F01CFCDDE700BF0B48056840682A1B6D
:105900000E4915A0FEF708FF281BEDE70B4918A06C
:10591000FEF702FF0020E7E788B1000841542B4E54
:1059200052420D0A00000000C800002041542B43E1
:10593000474154543F0D0A00C0D4010068B100082B
:105940002573284174746163682074696D656F758F
:105950007421290D0A000000257328726574757280
:105960006E3A20256C64206D73290D0A000000003A
:105970002573285761697420626F6F7420696E66A1
:105980006F726D6174696F6E2074696D656F757487
:1059900021290D0A00000000F0B58BB02822234910
:1059A00001A8FAF72DFC0527002636E0781EC7B2BD
:1059B0004FF4FA63022201A91DA0FEF7D3FE0546AB
:1059C000012D26D11DA11F48FAF74AFC0446241DCB
:1059D00015E02078202801D1641C10E020783028C0
:1059E0000BDB2078392808DC207806EB860100EBF9
:1059F00041003038C6B2641C00E001E000BFE8E7B7
:105A000000BF3246104911A0FEF786FE30460BB0AB
:105A1000F0BD4FF4FA7003F089FB002FC6DC0A4991
:105A20000DA0FEF779FE0020F1E700000CB200089F
:105A300041542B4353510D0A000000004353513A87
:105A4000000000001C5B0020ECB100082573282535
:105A500064290D0A000000002573284661696C6501
:105A60006421290D0A0000002DE9F04792B082461A
:105A700020210AA8FAF7DDFB4FF005082822A149EA
:105A80006846FAF7BDFB00262BE1A8F1010000F003
:105A9000FF084FF4FA63022269469BA0FEF762FEFC
:105AA0000746012F70D19CA19D48FAF7D9FB044607
:105AB000002C2FD0E41D00261CE02078202801D1E6
:105AC000641C17E020782D2802D10126641C11E007
:105AD000207830280CDB2078392809DC20780A99D6
