:020000040800F2
:10000000F8600020DD010008B3250008A5110008F4
:10001000AF2500081F0A0008272E00080000000076
:100020000000000000000000000000004501000882
:10003000610A000800000000890100089D280008EE
:10004000F7010008F7010008F7010008F7010008B0
:10005000F7010008F7010008F7010008F7010008A0
:10006000950B0008410C0008E10C0008F70100089E
:10007000F7010008F7010008F7010008F701000880
:10008000F7010008F7010008F7010008F701000870
:10009000F7010008F7010008F7010008F701000860
:1000A000F7010008F7010008F7010008F701000850
:1000B000F70100080D290008F7010008F701000802
:1000C000F7010008F7010008F7010008F701000830
:1000D000F7010008992A0008B52A0008492B0008F2
:1000E000650A0008F7010008F7010008F701000899
:1000F000F7010008F7010008F7010008F701000800
:10010000F7010008F7010008F7010008F7010008EF
:10011000F7010008F7010008F7010008F7010008DF
:10012000F7010008F7010008F7010008F7010008CF
:10013000DFF80CD000F036FC0048004725780008B6
:10014000F8600020224B19680868B0E8F00F80F3CF
:100150000988BFF36F8F4FF0000080F311884EF0D5
:100160000D0E70470000000006480068006880F32C
:10017000088862B661B6BFF34F8FBFF36F8F00DFA1
:1001800000BF00BF08ED00E0EFF30980BFF36F8F01
:100190000F4B1A6820E9F00F106008B54FF0BF0050
:1001A00080F31188BFF34F8FBFF36F8F08F064FCAB
:1001B0004FF0000080F31188BDE808401968086816
:1001C000B0E8F00F80F30988BFF36F8F704700BF6E
:1001D00044000020EFF30580704700000648804788
:1001E00006480047FEE7FEE7FEE7FEE7FEE7FEE71C
:1001F000FEE7FEE7FEE7FEE7AD2800083101000854
:1002000040EA01039B0703D009E008C9121F08C098
:10021000042AFAD203E011F8013B00F8013B521E18
:10022000F9D27047D2B201E000F8012B491EFBD28F
:1002300070470022F6E710B513460A4604461946F1
:10024000FFF7F0FF204610BD30B505462A460B46A5
:1002500012F8010B13F8014B08B1A042F8D01CB101
:10026000002802D06D1CF1E7284630BD10B50446C9
:1002700004E00B7800F8013B03B1491C521EF8D290
:10028000204610BD421C10F8011B0029FBD1801A2A
:10029000704710B5044600E0401C0378002BFBD1EA
:1002A00000E0401C521E04D311F8013B0370002BE8
:1002B000F7D100210170204610BD30B50546002061
:1002C000034600E05B1C934205D2EC5CC85C201A3C
:1002D00001D1002CF6D130BD80EA010210B502F048
:1002E0000043400022D04A001FD0010E01EB1261F2
:1002F000C0F35600C2F3560240F4000042F400027C
:10030000A0FB022000047F39140400D0401C50EAF6
:10031000124001D44000491EC2B20C0604EBD010BA
:10032000401C4008802A02D003E0002010BD20F0CD
:100330000100002900DA0020184310BD30B480EA23
:10034000010202F0004530F0004221F0004013D0DD
:1003500090B1C30DD40DC2F31601C0F31600E41A18
:1003600041F4000140F400027D34914201D3641C49
:1003700000E04900002C02DA30BC002070474FF446
:1003800000000023914201D3891A034340084FEA39
:100390004101F7D151B1914202D14FF0004105E046
:1003A00002D24FF0010101E06FF0010103EBC450F4
:1003B000284430BC00F050B92DE9FE4F804681EA58
:1003C0000300C00F0C46009021F0004123F00045CF
:1003D000B8EB0200A94105D24046214690461C4692
:1003E0000B46024623F00040104347D0270DC7F3C9
:1003F0000A00C3F30A510290401A019040286BDAB8
:10040000C3F3130040F4801B0098924620B10023F0
:10041000D2EB030A63EB0B0B01985946C0F1400283
:10042000504600F0E8F806460D4650465946019AF7
:1004300000F000F910EB08006141002487EA115236
:1004400084EAE7731A4340D0009A62B3019A012A02
:100450004FEA075215DC001B61EB02014FF000422E
:1004600002EA0752CDE90042001C41F580113246F4
:100470002B4600F037F903B0BDE8F08F4046214627
:10048000F9E7001B61EB0201001C41F58013001825
:100490005B412018A2F5001747EB030140EAD57035
:1004A000B6196D4111E06D084FEA360645EAC07590
:1004B0004FEA0752001B61EB0201001C41F580115D
:1004C00049084FEA30000019514132462B4603B02B
:1004D000BDE8F04F00F0F7B800980122400000237B
:1004E000D0EB020263EBE073009821464FEAE07420
:1004F000B8EB000061EB0401E9E783F000435BE740
:1005000081F0004158E796230022114600F0ADB873
:10051000C1F30A5210B5C1F3130140F2FF3341F4A5
:1005200080119A4201DA002010BD40F233439A4212
:10053000A2F2334203DC524200F06CF810BD90404E
:1005400010BD00F0004230F000400AD0C10D01F5AE
:100550006071C0F3160042EA0151C208400711431E
:10056000704700200146704730B50B460146002019
:100570002022012409E021FA02F59D4205D303FA65
:1005800002F5491B04FA02F52844151EA2F10102E6
:10059000F1DC30BD2DE9F05F0546002092469B4618
:1005A00088460646814640241BE028464146474689
:1005B000224600F02FF853465A46C01A914110D3F4
:1005C00011461846224600F016F82D1A67EB01086E
:1005D0004F4622460120002100F00DF817EB0009DC
:1005E0004E41201EA4F10104DFDC484631462A4674
:1005F0004346BDE8F09F202A04DB203A00FA02F1CE
:10060000002070479140C2F1200320FA03F3194300
:1006100090407047202A04DB203A21FA02F00021A2
:10062000704721FA02F3D040C2F120029140084302
:1006300019467047202A06DBCB17203A41FA02F010
:1006400043EAE07306E041FA02F3D040C2F120022F
:1006500091400843194670470029A8BF7047401CC5
:10066000490008BF20F00100704710B4B0FA80FCC8
:1006700000FA0CF050EA010404BF10BC704749B105
:10068000CCF1200421FA04F411FA0CF118BF012175
:1006900021430843A3EB0C01CB1D4FEA00614FEA55
:1006A000102042BF002010BC704700EBC350104424
:1006B0000029A4BF10BC7047401C490008BF20F0AF
:1006C000010010BC704710B5141E73F1000408DA65
:1006D000401C41F1000192185B411A4301D120F006
:1006E000010010BD2DE9F04D92469B4611B1B1FAC3
:1006F00081F202E0B0FA80F220329046FFF77BFFF1
:1007000004460F4640EA0A0041EA0B0153465A46A6
:10071000084313D0114653EA010019D0C8F1400232
:100720005046FFF777FF05460E465046594642466B
:10073000FFF761FF084305D0012004E02046394659
:10074000BDE8F08D0020054346EAE0762C433743B0
:100750000A986305E40AA0EB08000022FD0A44EAB7
:1007600047540A3002D500200146E9E70105101977
:100770006941DDE9084500196941BDE8F04DA2E78E
:100780002DE9FE4F81EA030404F0004421F000410A
:1007900000944FF0000B23F0004350EA01045ED0B8
:1007A00052EA03045BD0C3F30A54C1F30A552C4444
:1007B000A4F2F3340194A0FB0254C1F3130141F4F9
:1007C0008011C3F3130343F4801301FB024400FBC5
:1007D000034E840A970A44EA815447EA8357A4FBEC
:1007E000076802958D0A05FB07854FEA932C04FBE9
:1007F0000C542705029D4FEA065847EA1637B5EB19
:1008000008056EEB070C870E920E47EA811742EA45
:100810008312A7FB0201B6EB0B0164EB00042B0D66
:1008200043EA0C335E1844EB1C50DA465146E7FBB2
:100830000201C5F313044FEA0B3343EA14534FEAA2
:100840000432019C43EA0603A4F10C040294009CC8
:10085000CDE900B4FFF746FF03B0BDE8F08F0020FC
:100860000146F9E72DE9F04D81EA030404F0004B5D
:1008700021F0004514464FF0000A23F0004150EAF1
:10088000050220D054EA01021DD0C5F30A570246E2
:10089000C5F31303C1F31300C1F30A5640F48015E6
:1008A00043F48013A7EB0608101BD64608F2FD3868
:1008B00073EB050002D308F1010801E092185B41D7
:1008C000B8F1000F03DA00200146BDE8F08D0020EA
:1008D0004FF48011064684460EE0171B73EB0507A4
:1008E00005D3121B63EB050306434CEA010C4908D0
:1008F0004FEA300092185B4150EA0107EDD152EA0D
:10090000030012D082EA040083EA0501084305D0FF
:10091000101BAB4106D20122002306E000224FF05B
:10092000004302E06FF0010253101AEB06004CEB9B
:10093000085110EB0A0041EB0B01BDE8F04DFFF749
:10094000C2BEC1F30A52C1F3130140F2FF3341F4B6
:1009500080119A4202DA00200146704740F2334388
:100960009A42A2F2334202DC5242FFF753BEFFF733
:1009700042BE000030B5041E71F1000404DB4FF0EC
:100980000044404264EB0101141E73F1000405DBD6
:100990001C464FF00043524263EB0403994208BFE8
:1009A000904230BD064C074D06E0E06840F0010380
:1009B00094E8070098471034AC42F6D3FFF7BCFB2D
:1009C0000CD801082CD8010870B58C1810F8015B00
:1009D00015F0070301D110F8013B2A1106D110F8D8
:1009E000012B03E010F8016B01F8016B5B1EF9D1DC
:1009F0002B0705D40023521E0DD401F8013BFAE762
:100A000010F8013BCB1A921C03E013F8015B01F8CC
:100A1000015B521EF9D5A142D8D3002070BD00BFA2
:100A2000FEE7000010B50021044A11605160472123
:100A300040F2E73001F084FF10BD0000C00000204C
:100A400029B1064A52680243044B5A6004E0034A43
:100A500052688243014B5A6070470000002004E056
:100A60007047000008B54FF4805000F08FF900285F
:100A70002BD02F492FA002F063FC052006F02EFE9C
:100A800034480068E8B934484078022808DA324827
:100A90000078022804DA30480078401C2E4908709B
:100AA00003202D49487100BF2A4800680028FBD167
:100AB0001F492AA002F044FC69462D48006807F04F
:100AC0001BFF4FF4805000F05BF94FF4006000F022
:100AD0005DF900282AD0164926A002F031FC052035
:100AE00006F0FCFD1B48001F0068D8B91A480079C1
:100AF00018B901201849087102E000201649087150
:100B000004201549487100BF1248001F00680028E2
:100B1000FAD1074911A002F013FC69461448006895
:100B200007F0EAFE4FF4006000F02AF908BD00006B
:100B30003FD601082573284B45595F524947485411
:100B4000205072657373656420446F776E290D0AB7
:100B50000000000030012242280000202573287385
:100B6000656E645461736B4D7367290D0A00000054
:100B7000200000202573284B45595F454E544552AF
:100B8000205072657373656420446F776E290D0A77
:100B90000000000008B5042000F0F8F800B908BD16
:100BA000174918A002F0CCFB052006F097FD1C4861
:100BB000006800BB1B484078012806DB19484078D4
:100BC000012807D11748007820B916484078401C02
:100BD0001449487001201349487100BF104800684B
:100BE0000028FBD1064910A002F0AAFB6946134871
:100BF000006807F081FE042000F0C2F800BFCEE7D5
:100C00000CD601082573284B45595F444F574E2099
:100C10005072657373656420446F776E290D0A0006
:100C2000088122422800002025732873656E6454D1
:100C300061736B4D7367290D0A00000020000020CE
:100C400008B5082000F0A2F800B908BD052006F09C
:100C500045FD13480068E8B9124913A002F070FB83
:100C600018484078002804DD16484078401E154991
:100C7000487000201349487100BF094800680028E7
:100C8000FBD0084910A002F05BFB694613480068DE
:100C900007F032FE082000F073F800BFD5E700002F
:100CA0000C8121421DD601082573284B45595F55FB
:100CB00050205072657373656420446F776E290D00
:100CC0000A0000002800002025732873656E645414
:100CD00061736B4D7367290D0A000000200000202E
:100CE00008B5102000F052F800B908BD144915A04D
:100CF00002F026FB052006F0F1FC19480068C8B98F
:100D000018480078002804DD16480078401E154970
:100D1000087002201349487100BF1148006800287C
:100D2000FBD1074910A002F00BFB6946134800688D
:100D300007F0E2FD102000F023F800BFD5E7000027
:100D40002ED601082573284B45595F4C4546542043
:100D50005072657373656420446F776E290D0A00C5
:100D6000108121422800002025732873656E645489
:100D700061736B4D7367290D0A000000200000208D
:100D8000014908607047000014040140014600203A
:100D90000022074B1B6803EA0102054B14331B6852
:100DA0000B4013B10AB1012000E0002070470000A1
:100DB00000040140002123498279002A3AD00A46E2
:100DC000126803689A430B461A600A1D126803688A
:100DD0009A430B1D1A60027911440A6803681A438A
:100DE0000A60184A0832126803689A43154B0833A0
:100DF0001A601A1D126803689A43124B0C331A606A
:100E00004279102A0ED11A1F126803681A430D4B3B
:100E100008331A601A1D126803681A43094B0C3311
:100E20001A600DE00749427911440A6803681A43C1
:100E30000A6005E0027911440A6803689A430A606F
:100E4000704700000004014030B503460024002034
:100E50000025156022E000E05B1C1D7815B11D78AF
:100E6000202DF9D100E05B1C1D7815B11D78202DD7
:100E7000F9D01D788DB1641C8C420FD1184603E067
:100E800015686D1C15605B1C1D7815B11D78202D33
:100E9000F6D1156805B9002002E001E08C42DAD3F2
:100EA00000BF30BD2DE9F047044688469146012633
:100EB000207810B90020BDE8F0872E48006898BB64
:100EC0002D482C4908602AE02A4800680068076815
:100ED0003846FFF7D7F90546605D202801D0605DF0
:100EE000C0B92A4639462046FFF7E7F990B92148AC
:100EF0000068006890F90C0000280ADB204606F024
:100F000031FF1C490968096891F90C10884200D02A
:100F1000002608E017480068406816490860154830
:100F200000680028D0D100BF1248006848B146B917
:100F30004A4612494046FFF799F900200D490860DA
:100F400016E00C48006868B10A480068006822464C
:100F5000494683684046984706464EB900200549F1
:100F6000086005E04A4606494046FFF77FF900263B
:100F70003046A0E7D8000020CC00002054D601085D
:100F8000ACD6010870B505460026082007F082FAA5
:100F9000044664B107F090FB2560002060600548BE
:100FA000006844600348046007F098FB012630465F
:100FB00070BD0000D400002030B500228B071C0F4C
:100FC0000F2303FA04F20B4B8C1053F82430934395
:100FD000084C8D1044F8253023468C1053F82430EB
:100FE0008C07240F00FA04F42343024C8D1044F8BC
:100FF000253030BD080001402DE9F04102460025B2
:101000000026002000230024002791F803C00CF0E4
:101010000F0591F803C00CF0100CBCF1000F03D0C9
:1010200091F802C04CEA050591F800C0BCF1000F30
:1010300031D0146800202BE04FF0010C0CFA00F3C3
:10104000B1F800C00CEA03069E4220D183004FF0A5
:101050000F0C0CFA03F7BC4305FA03FC4CEA04043A
:1010600091F803C0BCF1280F06D14FF0010C0CFA27
:1010700000FCC2F814C00AE091F803C0BCF1480FAC
:1010800005D14FF0010C0CFA00FCC2F810C0401C56
:101090000828D1D31460B1F800C0BCF1FF0F34DDD3
:1010A000546800202EE000F1080C4FF0010808FA07
:1010B0000CF3B1F800C00CEA03069E4221D1830074
:1010C0004FF00F0C0CFA03F7BC4305FA03FC4CEA93
:1010D000040491F803C0BCF1280F05D100F1080CFD
:1010E00008FA0CF8C2F8148091F803C0BCF1480F5C
:1010F00007D100F1080C4FF0010808FA0CF8C2F80B
:101100001080401C0828CED35460BDE8F081000058
:10111000F0B50A46002300240021002500F0004617
:10112000B6F1004F02D11D4EF16901E01B4E71680E
:10113000C0F3034583B200F44016B6F5401F08D152
:1011400021F07061154E766826F07066134F7E6050
:1011500012E000F48016B6F5801F06D1032606FAC9
:1011600005F4A14341F0706106E0460D360103FA33
:1011700006F6B14341F0706122B1460D360103FA23
:1011800006F6314300F00046B6F1004F02D1034E9F
:10119000F16101E0014E7160F0BD0000000001400E
:1011A0000161704700BFFEE770B5044600250021CD
:1011B000084600F077FC01F0F5F900BF1DE00120C2
:1011C0001049086000201049C1F8BC0120120F49E5
:1011D000C86000200B49091F08600120086044F323
:1011E00017000A49C86000200649091F086001204D
:1011F00008600449091D08606D1CB5F5963FDED3F3
:1012000070BD0000B88121420080214200100140E1
:101210002DE9FF4F85B081468A4600200490039057
:101220000798A0EB09050898A0EB0A06CDF80890EE
:10123000CDF804A0002D01DD012705E00DB9002740
:1012400002E04FF0FF376D42002E02DD4FF0010843
:1012500006E016B94FF0000802E04FF0FF38764282
:10126000B54201DD2C4600E034464FF0000B21E092
:10127000019A91B2029A90B200F022F804982844A0
:1012800004900398304403900498A04205DD04982C
:10129000001B04900298384402900398A04205DD98
:1012A0000398001B03900198404401900BF101004A
:1012B0001FFA80FB601C8345DADD09B0BDE8F08FC2
:1012C00070B504460D462946204600F0EBFB01F0C0
:1012D00069F901201049086000201049C1F8BC01DB
:1012E0000F48008800120F49C86000200A49091FF2
:1012F000086001200949C1F8B4010948008809497A
:10130000C86000200449091F0860012008600249E4
:10131000091D086070BD0000B88121420080214293
:10132000BC080020001001402DE9F04104460D46A4
:1013300016461F462B46324629462046FFF768FFD1
:101340003B46224629462046FFF762FF3B4632468F
:1013500039462046FFF75CFF3B4632462946304679
:10136000FFF756FFBDE8F0812DE9F05F04460F4618
:1013700090469946DDF828A04FF0000BA8EB04003A
:10138000401C1FFA80FB3D462CE0002626E0A119F8
:1013900088B2294600F086FB01F004F901201349C8
:1013A000086000201249C1F8BC014FEA2A20114907
:1013B000C86000200D49091F0860012008604AF339
:1013C00017000C49C86000200849091F0860012067
:1013D00008600649091D0860701C86B25E45D6DBB0
:1013E000681C85B24D45D0DDBDE8F09FB881214233
:1013F000008021420010014008B50121192001F0B0
:101400003BF94FF20100ADF8000010208DF8030009
:1014100003208DF8020069460948FFF7EDFD4FF201
:1014200001010748FFF7BCFEFF20ADF80000694648
:101430000448FFF7E1FDFF210248FFF7B1FE08BDB8
:10144000000C01400010014010B5FFF7D5FF01204E
:10145000FE49086000F010FB112001F08DF87820A3
:1014600006F03CF9362001F087F84FF48040F84947
:1014700008604000091D08600020F649C860481453
:10148000F349091D0860091F0860800008603A20C0
:1014900001F072F84FF48040ED4908604000091DEA
:1014A00008600520EB49C8604814E949091D086037
:1014B000091F086080000860B22001F05DF84FF459
:1014C0008040E34908604000091D08600C20E149A4
:1014D000C8604814DE49091D0860091F08608000C3
:1014E0000860401008604000091D08600C20D949C0
:1014F000C8604814D649091D0860091F08608000AB
:101500000860401008604000091D08600020D149B3
:10151000C8604814CE49091D0860091F0860800092
:101520000860401008604000091D08603320C94968
:10153000C8604814C649091D0860091F086080007A
:101540000860401008604000091D08603320C14950
:10155000C8604814BE49091D0860091F0860800062
:101560000860B72001F008F84FF48040B8490860DF
:101570004000091D08603520B649C8604814B449C8
:10158000091D0860091F086080000860BB2000F08A
:10159000F3FF4FF48040AE4908604000091D086029
:1015A0000E20AC49C8604814A949091D0860091FEC
:1015B000086080000860C02000F0DEFF4FF480402B
:1015C000A34908604000091D08602C20A149C8609B
:1015D00048149F49091D0860091F086080000860C1
:1015E000C22000F0C9FF4FF48040994908604000D4
:1015F000091D086001209749C86040039449091DEE
:101600000860091F086080000860C32000F0B4FF74
:101610004FF480408E4908604000091D0860122088
:101620008C49C86048148A49091D0860091F086070
:1016300080000860C42000F09FFF4FF48040844980
:1016400008604000091D086020208249C86000022F
:101650007F49091D0860091F086080000860C620D6
:1016600000F08AFF4FF48040794908604000091D6E
:1016700008600F207749C86048147549091D086043
:10168000091F086080000860D02000F075FF4FF44B
:1016900080406F4908604000091D0860A4206D4922
:1016A000C86048146A49091D0860091F0860800065
:1016B0000860401008604000091D0860A1206549CD
:1016C000C86048146249091D0860091F086080004D
:1016D0000860E02000F050FF4FF480405C49086053
:1016E0004000091D0860D0205A49C8604814584974
:1016F000091D0860091F086080000860401008602C
:101700004000091D086000205249C8604814504933
:10171000091D0860091F086080000860401008600B
:101720004000091D086005204A49C860481448491E
:10173000091D0860091F08608000086040100860EB
:101740004000091D08600D204249C8604814404906
:10175000091D0860091F08608000086040100860CB
:101760004000091D08600F203A49C86048143849F4
:10177000091D0860091F08608000086040100860AB
:101780004000091D08602B203249C86048143049C8
:10179000091D0860091F086080000860401008608B
:1017A0004000091D08603B202A49C86048142849A8
:1017B000091D0860091F086080000860401008606B
:1017C0004000091D086044202249C860481420498F
:1017D000091D0860091F086080000860401008604B
:1017E0004000091D08604A201A49C8604814184979
:1017F000091D0860091F086080000860401008602B
:101800004000091D086018201249C860481410499A
:10181000091D0860091F086080000860401008600A
:101820004000091D08600F200A49C8604814084993
:10183000091D0860091F08608000086040100860EA
:101840004000091D08600B20024905E0B0812142DB
:10185000100C014000100140C86048148449086021
:10186000091F086080000860401008604000091DE2
:1018700008601F207F49C86048147D490860091F1F
:10188000086080000860401008604000091D086082
:1018900022207849C860481475490860091F08600B
:1018A00080000860E12000F067FE4FF4804070493E
:1018B000091F08604000091D0860D0206D49C860FC
:1018C00048146B490860091F0860800008604010D8
:1018D00008604000091D086000206649C86048147F
:1018E00063490860091F08608000086040100860B4
:1018F0004000091D086005205E49C86048145C4925
:101900000860091F086080000860401008604000FF
:10191000091D08600D205749C860481454490860E3
:10192000091F086080000860401008604000091D21
:10193000086010204F49C86040024D490860091FE7
:10194000086080000860401008604000091D0860C1
:101950002B204849C860481445490860091F0860A1
:1019600080000860401008604000091D08603D20AC
:101970004049C86048143E490860091F086080005B
:101980000860401008604000091D08605420394973
:10199000C860481436490860091F08608000086064
:1019A000401008604000091D086050203149C8609F
:1019B00048142F490860091F086080000860401023
:1019C00008604000091D08602F202A49C86048149B
:1019D00027490860091F08608000086040100860FF
:1019E0004000091D08601F202249C8604814204992
:1019F0000860091F0860800008604010086040000F
:101A0000091D08601F201B49C86048141849086058
:101A1000091F086080000860401008604000091D30
:101A200008601F201349C860481411490860091F45
:101A3000086080000860401008604000091D0860D0
:101A400023200C49C860481409490860091F086030
:101A500080000860292000F08FFD2C2000F08CFD14
:101A6000142005F03BFE4FF6FF70FFF79DFB10BD05
:101A7000140C01400010014010B501200849086015
:101A800005F02CFE01200649091D0860142005F010
:101A900025FE012002490860142005F01FFE10BD3C
:101AA000100C014010B503460C462A2000F064FDDE
:101AB0004FF48040234908604000091D0860181257
:101AC0002149C86048141F49091D0860091F0860A2
:101AD00080000860401008604000091D086043F362
:101AE00017001949C86048141649091D0860091FE4
:101AF0000860800008602B2000F03EFD4FF480401D
:101B0000104908604000091D086020120E49C86095
:101B100048140C49091D0860091F0860800008600E
:101B2000401008604000091D086044F31700064992
:101B3000C86048140349091D0860091F0860800037
:101B4000086010BD100C0140001001402DE9F84F55
:101B500081468A4617461C46CB4669480088009055
:101B6000B9F1E80F02DCBAF59C7F01DDBDE8F88F22
:101B7000A7F12000C7B20A9800287DD1002583E094
:101B80000C2C2AD107EB47005E4901EB800010F8CE
:101B90000580002616E008F0010018B158490098A9
:101BA000088003E058480088554908805146484657
:101BB000FFF786FB4FEA680809F101001FFA80F978
:101BC000701CC6B204EBD471B6EB610FE3DBD946EF
:101BD0000AF101001FFA80FA54E0102C28D14B487A
:101BE00000EB071010F80580002616E008F0010051
:101BF00018B143490098088003E0434800884049F1
:101C0000088051464846FFF75BFB4FEA680809F138
:101C100001001FFA80F9701CC6B204EBD471B6EB58
:101C2000610FE3DBD9460AF101001FFA80FA29E0CF
:101C3000374800EBC71010F80580002616E008F0C2
:101C4000010018B12E490098088003E02E48008852
:101C50002B49088051464846FFF732FB4FEA680897
:101C600009F101001FFA80F9701CC6B204EBD471AF
:101C7000B6EB610FE3DB00E00AE0D9460AF10100B0
:101C80001FFA80FA681CC5B2A542FFF679AF32E0B0
:101C900000252EE00C2C07D107EB4700194901EB7A
:101CA000800010F805800CE0102C05D1174800EBDF
:101CB000071010F8058004E0154800EBC71010F875
:101CC000058000260EE008F0010038B10AEB05029D
:101CD00091B209EB060290B2FFF7F2FA4FEA6808F8
:101CE000701CC6B204EBD471B6EB610FEBDB681C61
:101CF000C5B2A542CEDB02490098088000BF35E797
:101D0000BC08002088970008BE080020FC9B000843
:101D1000ECA100082DE9FF4F81B006468A460E9DD2
:101D2000B346CDF800A00398002873D1049810287A
:101D300073D0182870D169E0002460E004EB04102F
:101D400000EB8000FD49085C2978884255D104EBFE
:101D5000041000EB8000F949084440786978884213
:101D60004BD104EB041000EB8000F4490844807868
:101D7000A978884241D100273DE004EB041000EB34
:101D80008000EE490844001D10F807904FF000084D
:101D90002CE009F08000802807D1E9490F980880DD
:101DA00051463046FFF78CFA06E0E5491098088066
:101DB00051463046FFF784FA4FF6FF7000EA4909B2
:101DC000701C86B2A6EB0B0018280BD15E460AF1F8
:101DD00001001FFA80FA0098AAEB00001B2801D12D
:101DE000DDF800A008F1010000F0FF08B8F1080FCD
:101DF000CFDB781CC7B2512FBFDB601CC4B20D2CE7
:101E00009CDBED1C06F1180086B2B346287800284A
:101E100092D16EE06EE000E06AE065E000245CE0F4
:101E200004EB8400C74911F830002978884252D168
:101E300004EB8400C34901EBC00040786978884214
:101E400049D104EB8400BF4901EBC0008078A97838
:101E5000884240D100273CE004EB8400B94901EB03
:101E6000C000001D10F807904FF000082CE009F0AA
:101E70008000802807D1B2490F980880514630462B
:101E8000FFF71EFA06E0AE4910980880514630462A
:101E9000FFF716FA4FF6FF7000EA4909701C86B288
:101EA000A6EB0B0010280BD15E460AF101001FFAC9
:101EB00080FA0098AAEB0000122801D1DDF800A0FA
:101EC00008F1010000F0FF08B8F1080FCFDB781C23
:101ED000C7B2242FC0DB601CC4B2312CA0DBED1CC8
:101EE00006F1100086B2B3462878002896D100E0AB
:101EF00000BF72E10398022877D10498102877D0A8
:101F0000182874D16DE0002464E004EB440000EB79
:101F100004108D4911F820002978884258D104EB2B
:101F2000440000EB0410884901EB80004078697898
:101F300088424DD104EB440000EB0410824901EBD0
:101F400080008078A978884242D100273EE004EBE7
:101F5000440000EB04107C4901EB8000001D10F8E8
:101F600007904FF000082CE009F08000802807D18E
:101F700073490F98088051463046FFF7A1F906E0F3
:101F80006F491098088051463046FFF799F94FF68F
:101F9000FF7000EA4909701C86B2A6EB0B001828F6
:101FA0000BD15E460AF101001FFA80FA0098AAEBF5
:101FB0000000182801D1DDF800A008F1010000F0B0
:101FC000FF08B8F1080FCFDB781CC7B2482FBEDB83
:101FD000601CC4B2062C98DBED1C06F1180086B21A
:101FE000B346287800288ED16EE06EE000E06AE00B
:101FF00065E000245CE004EBC400544911F82000C3
:102000002978884252D104EBC400504901EB80008A
:1020100040786978884249D104EBC4004B4901EB10
:1020200080008078A978884240D100273CE004EB0A
:10203000C400464901EB8000001D10F807904FF0E6
:1020400000082CE009F08000802807D13C490F9857
:10205000088051463046FFF733F906E038491098BA
:10206000088051463046FFF72BF94FF6FF7000EA23
:102070004909701C86B2A6EB0B0010280BD15E46F6
:102080000AF101001FFA80FA0098AAEB000010285C
:1020900001D1DDF800A008F1010000F0FF08B8F15F
:1020A000080FCFDB781CC7B2202FC0DB601CC4B286
:1020B0005E2CA0DBED1C06F1100086B2B34628783A
:1020C000002896D100E000BF87E0039801287DD169
:1020D000049810287AD17CE0002471E0C4EBC4009D
:1020E00000EB04101A4911F810002978884265D1D4
:1020F000C4EBC40000EB0410154901EB400040782C
:10210000697888425AD1C4EBC40000EB041010492E
:1021100001EB40008078A97888424FD100274BE03E
:10212000C4EBC40000EB0410094901EB4000001DA2
:1021300010F807904FF0000839E0000084E800082C
:10214000BC080020140100206CD1000834D3000822
:10215000D5EC000809F08000802807D120490F98AD
:10216000088051463046FFF7ABF806E01C4910984E
:10217000088051463046FFF7A3F84FF6FF7000EA9B
:102180004909701C86B2A6EB0B0010280BD15E46E5
:102190000AF101001FFA80FA0098AAEB0000152846
:1021A00001D1DDF800A008F1010000F0FF08B8F14E
:1021B000080FCFDB781CC7B22A2FB1DB601CC4B27A
:1021C000152C8BDBED1C06F1100000E005E086B25B
:1021D000B346287800287FF47FAF05B0BDE8F08FC4
:1021E000BC0800202DE9FF4F81B004460D4616467D
:1021F000A34600955AE00498182857D100274EE0CE
:1022000007EB870000EB47102B4911F810003178DD
:10221000884242D14FF000083CE007EB870000EB1A
:102220004710254901EB4000801C10F808A04FF032
:10223000000928E00AF08000802807D11F490E9885
:10224000088029462046FFF73BF806E01B490F9817
:10225000088029462046FFF733F84FF6FF7000EA62
:102260004A0A601C84B2A4EB0B00182807D15C4614
:10227000681C85B20098281A182800D1009D09F121
:10228000010000F0FF09B9F1080FD3DB08F10100EC
:1022900000F0FF08B8F1480FBFDB781CC7B21D2F54
:1022A000AEDB761C04F1100084B2A346307800281F
:1022B000A1D105B0BDE8F08F6CE00008BC0800209B
:1022C0002DE9FF4F81B005460F461646AB460097F5
:1022D000DEE0049818286AD1002460E004EB0410C2
:1022E00000EB80006E49085C3178884255D104EBE0
:1022F000041000EB80006A490844407871788842F5
:102300004BD104EB041000EB800065490844807851
:10231000B178884241D14FF000083BE004EB041053
:1023200000EB80005E490844001D10F808A04FF043
:10233000000928E00AF08000802807D159490E984A
:10234000088039462846FEF7BBFF06E055490F983E
:10235000088039462846FEF7B3FF4FF6FF7000EAC3
:102360004A0A681C85B2A5EB0B00182807D15D4608
:10237000781C87B20098381A1B2800D1009F09F1F9
:10238000010000F0FF09B9F1080FD3DB08F10100EB
:1023900000F0FF08B8F1510FC0DB601CC4B20C2C78
:1023A0009CDBF61C05F1180085B2AB4670E0049882
:1023B00010286DD1002464E0C4EBC40000EB0410CD
:1023C000394911F810003178884258D1C4EBC40063
:1023D00000EB0410344901EB4000407871788842EA
:1023E0004DD1C4EBC40000EB04102F4901EB4000B9
:1023F0008078B178884242D14FF000083CE0C4EBCD
:10240000C40000EB0410284901EB4000001D10F847
:1024100008A04FF0000928E00AF08000802807D1CA
:1024200020490E98088039462846FEF749FF06E005
:102430001C490F98088039462846FEF741FF4FF6A1
:10244000FF7000EA4A0A681C85B2A5EB0B00102851
:1024500007D15D46781C87B20098381A152800D13C
:10246000009F09F1010000F0FF09B9F1080FD3DB6B
:1024700008F1010000F0FF08B8F12A0FBFDB601C73
:10248000C4B2122C98DBF61C05F1100085B2AB46E5
:10249000307800287FF41DAF05B0BDE8F08F000054
:1024A00084E80008BC080020D5EC00082DE9F05FA6
:1024B0008046894616469A46DDF828B00027002453
:1024C0001FE000251AE004FB0650012101EB40004B
:1024D0001BF800704FF6FF7000EA072704FB065058
:1024E0001BF8100007430948078009EB040291B26A
:1024F00008EB050290B2FEF7E3FE6D1CB542E2DB8D
:10250000641C5445DDDBBDE8F09F0000BC080020E2
:10251000F8B505460E4617461C4627E020780D28DC
:1025200001D1641C22E020780A2803D1A81D85B2BD
:10253000641C1BE0E82D03DD552506F1100086B272
:10254000B6F59C7F00DDF8BD0020009022783B4668
:1025500031462846FFF7FAFA0C2F02D1A81D85B2A2
:1025600002E005F1080085B2641C00BF2078002855
:10257000D4D100BFE7E700004FF48041074A116063
:102580004900116040F31701054AD1605114034A14
:102590001160121F1160890011607047140C014016
:1025A0000010014000B52C20FFF7E6FF00BD00BF82
:1025B000FEE7704770B5002100230F22C47804B3F2
:1025C000154C246804F4E064C4F5E064210AC1F108
:1025D0000403CA40447804FA03F184781440214388
:1025E00009010E4C0678A155047804F01F0501245A
:1025F000AC4005786D11AD0005F1E025C5F800414E
:1026000009E0047804F01F050124AC40044D06786D
:10261000761145F8264070BD0CED00E000E400E0C6
:1026200080E100E002490143024A11607047000066
:102630000000FA050CED00E029B1064AD269024318
:10264000044BDA6104E0034AD2698243014BDA6148
:10265000704700000010024029B1064A1269024387
:10266000044B1A6104E0034A12698243014B1A6168
:10267000704700000010024029B1064A92690243E7
:10268000044B9A6104E0034A92698243014B9A61C8
:10269000704700000010024029B1064AD268024388
:1026A000044BDA6004E0034AD2688243014BDA60EB
:1026B000704700000010024030B5002100220024C5
:1026C00000232D4D6D6805F00C0121B1042905D0C2
:1026D000082923D105E0294D056022E0274D05603A
:1026E0001FE0254D6D6805F47012234D6D6805F4EB
:1026F0008034022505EB92421CB9214D55430560FB
:102700000BE01D4D6D6805F400351DB11C4D5543A2
:10271000056002E0194D5543056002E0174D056064
:1027200000BF00BF144D6D6805F0F0010909154D9B
:102730006B5C0568DD4045600F4D6D6805F4E06138
:10274000090A104D6B5C4568DD4085600A4D6D6877
:1027500005F46051C90A0B4D6B5C4568DD40C560EE
:10276000054D6D6805F44041890B074D6B5CC568EC
:10277000B5FBF3F5056130BD0010024000127A0090
:1027800000093D00000000201000002010B500F0FE
:1027900001F810BD0CB5002001900090334800688E
:1027A00040F480303149086000BF3048006800F4D0
:1027B000003000900198401C0190009818B90198D1
:1027C000B0F5A06FF1D12948006800F4003010B1D5
:1027D0000120009001E0002000900098012843D1E2
:1027E0002348006840F0100021490860084600684E
:1027F00020F0030008600846006840F0020008600E
:102800001A484068194948600846406848600846C8
:10281000406840F4806048600846406820F47C10BE
:1028200048600846406840F4E81048600846006880
:1028300040F08070086000BF0C48006800F0007035
:102840000028F9D00948406820F003000749486093
:102850000846406840F00200486000BF03484068F6
:1028600000F00C000828F9D10CBD00000010024057
:1028700000200240042808D14FF0E021096941F00E
:1028800004014FF0E022116107E04FF0E0210969F7
:1028900021F004014FF0E0221161704710B506F0FD
:1028A0009DFB012801D006F059F910BD10B5134861
:1028B000006840F00100114908600846406810496E
:1028C00008400E494860084600680E4908400B4918
:1028D00008600846006820F48020086008464068C8
:1028E00020F4FE0048604FF41F008860FFF74EFFA1
:1028F0004FF000600449086010BD00000010024065
:102900000000FFF8FFFFF6FE08ED00E010B5012122
:10291000094800F054F8012808D1084802684068C6
:10292000521C40F1000005490A604860012102483C
:1029300000F036F810BD000000040040C000002088
:102940007FB505460C4601210220FFF775FEADF864
:102950000850ADF804400020ADF80A00ADF80600BC
:1029600001A90E4800F046F8012211460B4800F07C
:1029700037F81D208DF8000001208DF8010000209F
:102980008DF8020001208DF803006846FFF712FE63
:102990000121024800F007F87FBD0000000400405C
:1029A000CA430282704721B1028842F001020280CC
:1029B00004E002884FF6FE731A400280704730B57B
:1029C0000246002000230024158A05EA01039589A8
:1029D00005EA010413B10CB1012000E0002030BD74
:1029E0001AB183890B43838102E083898B438381FE
:1029F00070470000002202881D4B98420ED01D4BEC
:102A000098420BD0B0F1804F08D01B4B984205D0B4
:102A10001A4B984202D01A4B984204D14FF68F734A
:102A20001A404B881A43174B984207D0164B9842CE
:102A300004D04FF6FF431A40CB881A4302808B889C
:102A400083850B8803850A4B98420BD0094B98422B
:102A500008D00E4B984205D00D4B984202D00D4B3A
:102A6000984201D10B7A03860123838270470000CC
:102A7000002C0140003401400004004000080040E8
:102A8000000C0040001000400014004000400140D5
:102A9000004401400048014010B540F2255104486F
:102AA00000F0FDF818B1024800F0B4F9C4B210BD4E
:102AB0000038014038B540F225511F4800F0EFF8CA
:102AC000002836D01C4800F0A5F9C4B20D2C01D066
:102AD0000A2C09D12146184800F0A1F96946174887
:102AE000006805F009FF38BD082C11D121461248B5
:102AF00000F095F91248006848B111480068401E7E
:102B00000F49086000200F490D4A12688854EAE70F
:102B10000B4800687F280CD22146074800F07FF957
:102B2000084807490968445405480068401C04499E
:102B3000086000BFD7E70000004400401C000020F0
:102B400014000020C408002010B540F225510F48A1
:102B500000F0A5F8B8B10D4800F05CF9C4B204B9B2
:102B600010BD0B480068B0F5FF7F09D80948084937
:102B70000968445406480068401C0549086002E0A2
:102B800005A000F0DDFB00BFEAE7000000480040C0
:102B900010010020785A002055415254335F52787A
:102BA00042756666657228554152545F4D35333122
:102BB00030292069732066756C6C210001F4007265
:102BC000B2F5007F00D100BFCA430280704721B137
:102BD000828942F40052828104E082894DF6FF73BB
:102BE0001A4082817047000010B504462048844294
:102BF00009D101218803FFF74FFD00214FF48040E8
:102C0000FFF74AFD32E01B48844209D10121480404
:102C1000FFF722FD00214FF40030FFF71DFD25E0F6
:102C20001548844209D101218804FFF715FD0021D0
:102C30004FF48020FFF710FD18E01048844209D1BE
:102C40000121C804FFF708FD00214FF40020FFF721
:102C500003FD0BE00A48844208D101210805FFF773
:102C6000FBFC00214FF48010FFF7F6FC10BD0000C4
:102C7000003801400044004000480040004C004043
:102C80000050004002460020B1F5007F00D100BF97
:102C900013880B400BB1012000E00020704770B595
:102CA0000246002400230025002040F66A16B142A7
:102CB00000D100BFC1F3421501F01F03012606FA3F
:102CC00003F3012D02D19689334006E0022D02D193
:102CD000168A334001E0968A33400C12012606FA28
:102CE00004F41688344013B10CB1012000E0002038
:102CF00070BDF0B50346002400260025002040F6F4
:102D00006A17B94200D100BF1846C1F3421401F05E
:102D10001F06012707FA06F5012C01D10C3004E04B
:102D2000022C01D1103000E014301AB107682F4393
:102D3000076002E00768AF430760F0BD2DE9F04788
:102D400086B005460E460024A24600BFA1460027D5
:102D5000B08900B100BF2F462C8A4CF6FF700440AA
:102D6000F08804432C82AC894EF6F3100440B088FE
:102D700031890843718908430443AC81AC8A4FF61A
:102D8000FF400440B0890443AC8201A8FFF794FCE3
:102D90001F48874202D1DDF810A001E0DDF80CA049
:102DA000A88900F4004040B10AEBCA0000EB0A1009
:102DB00031684900B0FBF1F807E00AEBCA0000EB0C
:102DC0000A1031688900B0FBF1F86420B8FBF0F01C
:102DD00004012009642101FB1089A88900F4004046
:102DE00040B1322000EBC900B0FBF1F000F0070069
:102DF000044308E0322000EB09106421B0FBF1F03D
:102E000000F00F0004432C8106B0BDE8F0870000FD
:102E10000038014001468888C0F308007047C1F3BC
:102E200008028280704700BFFEE7000010B5002452
:102E300006E0054901EB0410FEF7A4F8601CC4B2DB
:102E4000032CF6D310BD0000E0000020174918A0A5
:102E500000F076FAFFF7EAFF27E04EF66021012046
:102E600005F092FB0446012C1FD113A000F068FA74
:102E700064211948FDF7DDF900BF6422164917489F
:102E8000FEF710F805461448FDF7FCF906463246F1
:102E90001149134803F01CFE002DEED120210F48EC
:102EA000FDF7C7F900200F490860D6E7D293000864
:102EB00025732E2E2E0D0A00434C4920436F6D6D55
:102EC000616E642052656365697665205B43525D7F
:102ED0005B4C465D0D0A0000E4080020C408002099
:102EE00000440040140000202DE9F04F91B08246CC
:102EF0000026002400250027A346A04600201090AD
:102F00000F900E9081460D900C900B9040F29E50C9
:102F100040F23F134F22282100900020FEF724FAB0
:102F200040F29E500021D4A21023CDE9002102904E
:102F3000022232210520FEF7EDFE40F29E500021D4
:102F4000D1A21023CDE90021029002226E2105209A
:102F5000FEF7E0FE40F29E500021CFA21023CDE903
:102F6000002102900222BE210520FEF7D3FE40F28E
:102F70009E500021CCA21023CDE900210290022214
:102F80004FF487710520FEF7C5FE44F29830CA4918
:102F900008804F23EF2219460020FEF739F99F23BE
:102FA000EF2219460020FEF733F9EF231A4619469F
:102FB0000020FEF72DF941F60510BF490880472390
:102FC000EC2231215420FEF7AFF94FF6FF700021BB
:102FD000BAA21023CDE90021029002225A215520E5
:102FE000FEF798FE4FF6FF700021B8A21023CDE93E
:102FF00000210290022282215520FEF78BFE4FF61F
:10300000FF700021ADA21023CDE900210290022221
:10301000AA215520FEF77EFE4FF6FF700021AFA2D9
:103020001023CDE9002102900222D2215520FEF783
:1030300071FE4FF6FF700021A0A21023CDE9002100
:1030400002900222FA215520FEF764FE4FF6FF702F
:103050000021A6A21023CDE90021029002224FF404
:1030600091715520FEF756FE40F29E50462357229E
:10307000322100905520FEF777F9F7E001F0F4F8DF
:103080000446322004F02AFB012C08D9E81B0BFB74
:103090000041E81B401CB1FBF0FB6D1C01E06D1C06
:1030A0007F1C0020844908804FF6FF7093490880F8
:1030B0005846FDF728FA92490690FDF73FF9079028
:1030C000FDF73FFA02460B46CDE908018DA18F4876
:1030D00003F062FD8D4B10225A219620FFF718FA5B
:1030E0002846FDF710FA0590E81BFDF70CFA04904E
:1030F0000599FDF723F986490690FDF7EDF807904D
:10310000FDF71FFA02460B46CDE9080181A17F4871
:1031100003F042FD7D4B102282219620FFF7F8F943
:1031200001F030F90446BCB11F2C15D81098A8EB5B
:1031300000010F9800FB01411098A8EB0000401C13
:10314000B1FBF0F00F90B8F1000F02D00E9884425E
:1031500000D20E9408F1010871A16C480F9A03F097
:103160001BFD6A4B1022AA219620FFF7D1F96CA112
:1031700066480E9A03F010FD644B1022D22196206F
:10318000FFF7C6F900F0A0FD0446ACB10D98A9EB1D
:1031900000010C9800FB01410D98A9EB0000401CB8
:1031A000B1FBF0F00C90B9F1000F02D00B98844203
:1031B00000D90B9409F101095BA154480C9A03F062
:1031C000EBFC524B1022FA219620FFF7A1F956A1F1
:1031D0004E480B9A03F0E0FC4C4B10224FF49171D7
:1031E0009620FFF795F9761C5046FDF78CF9019073
:1031F0003046FDF788F900900199FDF79FF84C499A
:103200000290FDF769F80390FDF79BF9CDE9040101
:1032100004F09AFA0022474BCDE90601FDF7CCF8FD
:10322000CDE90801FDF774F980B20A9040F29E5092
:1032300046230090322155200A9AFEF795F853460E
:1032400032463DA1314803F0A7FC00201A4908800E
:1032500040F29E50294908802C4B102232215A20DE
:10326000FFF756F94FF4FA6004F038FA5645FFF4C8
:1032700005AF11B0BDE8F08FE6B58BE8AF95E8BFBC
:103280009BE5BAA600000000E9A9BBE7BD91E6975F
:10329000B6E997B400000000E4BFA1E58FB7E8B439
:1032A000A8E9878F00000000E7BD91E7BB9CE5BB64
:1032B000B6E697B600000000BC080020E5B9B3E50B
:1032C0009D87E580BCEFBC9A00000000E68890E591
:1032D0008A9FE78E87EFBC9A00000000E69C80E59D
:1032E000B08FE580BCEFBC9A00000000E69C80E552
:1032F000A4A7E580BCEFBC9A00000000BE08002037
:1033000000007A44252D352E31667300785C00204C
:103310000000C842252D352E31662525000000000D
:10332000252D326400000000252D35646D730000EA
:10333000000016430040554025642F25640000001E
:103340000FB410B5C2B04FF4807102A8FCF771FF42
:1033500045A80190F92102A8019B449A03F030FC92
:10336000002001900748007840B102A8FCF78AFFCE
:103370000446224602A9044803F0AAFB42B010BC4E
:103380005DF814FBC8000020004400402DE9F05F08
:1033900005460E46174698464FF000094FF0640A5E
:1033A0004FF400711D48FCF744FF00201C490860E1
:1033B0002846FCF767FF83465A462946194803F01A
:1033C00087FB2A46184919A0FFF7BAFF24E000241A
:1033D00011E004EB840006EB80011048FCF734FF99
:1033E00038B1621C104915A0FFF7AAFF601CBDE8A8
:1033F000F09F601CC4B2BC42EBDB09FB0AF0404505
:1034000005D3094912A0FFF79BFF0020EFE75046C4
:1034100004F064F909F10109D9E70000785A0020A5
:1034200010010020004800409094000825732853A4
:10343000656E642D3E25730D0A0000002573287209
:10344000657475726E3A202564290D0A000000002B
:10345000257328657865637574652074696D656F7B
:10346000757421290D0A0000FEB505460E469D49DA
:103470009DA0FFF765FF06EB46002844C4B24FF657
:10348000FF70FDF791FE9A481E231A460521009011
:103490000846FFF70BF84FF6FF7040F2194195A26E
:1034A0001823CDE900210290002206212320FEF7F7
:1034B00031FC944814231A460A210090A520FEF7F7
:1034C000F5FF0020904908802723EF221946FDF7D9
:1034D0009FFE8E4832231A463C2100900F20FEF7B3
:1034E000E5FF6CB940F29E50002189A21023CDE97E
:1034F0000021029002226E210820FEF70BFC0CE056
:103500004FF6FF70002182A21023CDE90021029026
:1035100002226E210820FEF7FDFB814832231A4665
:103520003C2100905F20FEF7C1FF012C0DD140F23D
:103530009E5000217BA21023CDE90021029002229F
:103540006E215820FEF7E6FB0CE04FF6FF700021DD
:1035500074A21023CDE90021029002226E2158208E
:10356000FEF7D8FB734832231A463C210090AF2067
:10357000FEF79CFF022C0DD140F29E5000216EA25E
:103580001023CDE90021029002226E21A820FEF72F
:10359000C1FB0CE04FF6FF70002167A21023CDE9BC
:1035A0000021029002226E21A820FEF7B3FB66489C
:1035B00032231A46962100900F20FEF777FF032C46
:1035C0000DD140F29E50002160A21023CDE90021D0
:1035D00002900222C8210820FEF79CFB0CE04FF667
:1035E000FF70002159A21023CDE900210290022290
:1035F000C8210820FEF78EFB584832231A46962130
:1036000000905F20FEF752FF042C0DD140F29E5037
:10361000002153A21023CDE9002102900222C821EB
:103620005820FEF777FB0CE04FF6FF7000214CA20C
:103630001023CDE9002102900222C8215820FEF774
:1036400069FB4B4832231A4696210090AF20FEF7C3
:103650002DFF052C0DD140F29E50002145A21023D4
:10366000CDE9002102900222C821A820FEF752FBDA
:103670000CE04FF6FF7000213EA21023CDE900219F
:1036800002900222C821A820FEF744FB3D483223C5
:103690001A46F02100900F20FEF708FF062C0ED1ED
:1036A00040F29E50002138A21023CDE90021029063
:1036B00002224FF491710820FEF72CFB0DE04FF62B
:1036C000FF70002130A21023CDE9002102900222D8
:1036D0004FF491710820FEF71DFB3C2001F0E0F84B
:1036E000FEBD0000FCD5010825732E2E2E00000023
:1036F000F3F70008E4B8ADE7A7BBE789A9E8819430
:10370000E7BD91009BF00008BC0800201B4D01089C
:10371000E8AEBEE5A487E4BFA1E681AF00000000EB
:103720002B740108E9A9BBE7BD91E6B58BE8AF951D
:1037300000000000A3600108E4BFA1E58FB7E58F9A
:1037400082E695B000000000B3870108E7BD91E76D
:10375000BB9CE5BBB6E697B6000000003B9B0108AA
:10376000E7BBBCE59088E6B58BE8AF9500000000AC
:10377000C3AE0108E8939DE78999E79BB4E8BF9E33
:10378000000000004BC20108E4BDBFE794A8E8AF09
:10379000B4E6988E000000002DE9F0438BB081461E
:1037A0000D4628221D4901A8FCF72AFD05262946B9
:1037B0004846FCF73EFD23E0701EC6B24FF4FA63A4
:1037C000022201A916A0FFF7E1FDC7B2012F13D114
:1037D00016A11848FCF738FD841D17A12046FCF7F8
:1037E00033FD8046A8EB040221464846FCF751FD14
:1037F00001200BB0BDE8F0834FF4FA7003F06EFFC8
:10380000002ED9DC2A460EA14846FCF72FFD0E49B2
:103810000EA0FFF795FD0020EBE70000BC95000827
:1038200041542B4E434349440D0A00004E43434943
:10383000443A0000785A00200D0A4F4B0D0A000050
:103840004552524F52000000AC95000825732845A0
:103850007865204661696C656421290D0A000000C5
:103860002DE9F0438BB081460D4628221D4901A861
:10387000FCF7C6FC052629464846FCF7DAFC23E09F
:10388000701EC6B24FF4FA63022201A916A0FFF718
:103890007DFDC7B2012F13D116A11848FCF7D4FC47
:1038A000441D17A12046FCF7CFFC8046A8EB04027C
:1038B00021464846FCF7EDFC01200BB0BDE8F08343
:1038C0004FF4FA7003F00AFF002ED9DC2A460EA14D
:1038D0004846FCF7CBFC0E490EA0FFF731FD002057
:1038E000EBE700002C96000841542B4347534E3D14
:1038F000310D0A004347534E3A000000785A002029
:103900000D0A4F4B0D0A00004552524F5200000065
:103910001C960008257328457865204661696C650A
:103920006421290D0A0000002DE9F0438BB0054603
:103930000E462822284901A8FCF762FC05273146DB
:103940002846FCF776FC3AE0781EC7B24FF47A704E
:1039500003F0C4FE4FF4FA63022201A91FA0FFF78F
:1039600015FD00F0FF08B8F1010F24D11E4C0BE04B
:103970002078202805D020780D2802D020780A2829
:1039800001D1641C00E000E0F2E700BF17A120466F
:10399000FCF75AFC8146A9EB0400421C214628464C
:1039A000FCF777FC2A46124912A0FFF7C9FC012058
:1039B0000BB0BDE8F0834FF4FA7003F08FFE002FD8
:1039C000C2DC32460EA12846FCF750FC08490EA086
:1039D000FFF7B6FC0020EBE7F495000841542B43B9
:1039E000494D490D0A000000785A00200D0A0000D8
:1039F000E49500082573282573290D0A00000000AE
:103A00004552524F520000002573284578652046E4
:103A100061696C656421290D0A0000002DE9F043FD
:103A20008BB081460D462822224901A8FCF7E8FB0D
:103A3000052629464846FCF7FCFB2EE0701EC6B260
:103A40004FF4FA63022201A91BA0FFF79FFCC7B243
:103A5000012F1ED11B4C0BE02078202805D02078A8
:103A60000D2802D020780A2801D1641C00E000E073
:103A7000F2E700BF14A12046FCF7E6FB8046A8EB66
:103A8000040221464846FCF704FC01200BB0BDE8C7
:103A9000F0834FF4FA7003F021FE002ECEDC2A46AC
:103AA0000BA14846FCF7E2FB0B490CA0FFF748FCD2
:103AB0000020EBE74495000841542B43474D4D0D42
:103AC0000A000000785A00200D0A4F4B0000000049
:103AD0004552524F520000002C950008257328458E
:103AE0007865204661696C656421290D0A00000033
:103AF0002DE9F0438BB081460D462822224901A8CA
:103B0000FCF77EFB052629464846FCF792FB2EE093
:103B1000701EC6B24FF4FA63022201A91BA0FFF780
:103B200035FCC7B2012F1ED11B4C0BE0207820289A
:103B300005D020780D2802D020780A2801D1641CF5
:103B400000E000E0F2E700BF14A12046FCF77CFB98
:103B50008046A8EB040221464846FCF79AFB012068
:103B60000BB0BDE8F0834FF4FA7003F0B7FD002E00
:103B7000CEDC2A460BA14846FCF778FB0B490CA08B
:103B8000FFF7DEFB0020EBE78495000841542B4350
:103B90004D5645520D0A0000785A00200D0A4F4B31
:103BA0000D0A00004552524F520000006C9500086B
:103BB000257328457865204661696C656421290D67
:103BC0000A0000002DE9F0418AB028222B496846FE
:103BD000FCF716FB0526002548E0701EC6B24FF420
:103BE000FA630222694626A0FFF7D0FBC7B2012F75
:103BF00038D126A12748FCF727FB044674B3E41DFF
:103C00004FF000081CE02078202801D1641C17E048
:103C100020782D2803D14FF00108641C10E0207893
:103C200030280BDB2078392808DC207805EB85016B
:103C300000EB4100A0F13005641C00E001E000BF92
:103C4000E1E700BFB8F1000F02D04FF0FF3000E015
:103C50000120454328460AB0BDE8F0810E490FA077
:103C6000FFF76EFB4FF4FA7003F038FD002EB4DC62
:103C7000094910A0FFF764FB0020ECE7A0960008BC
:103C800041542B4E42414E443F0D0A002B4E4241BF
:103C90004E443A00785A00208C960008257328423A
:103CA000414E44204E6F7420466F756E6421290D7D
:103CB0000A000000257328457865204661696C6517
:103CC0006421290D0A000000F0B58FB03C2228497C
:103CD0006846FCF795FA0527002640E0781EC7B233
:103CE00042F6E0630322694622A0FFF74FFBC5B20C
:103CF000012D28D14FF47A7003F0F0FC27A1284859
:103D0000FCF7A2FA441C14E02078202801D1641C9E
:103D10000FE0207830280BDB2078392808DC207869
:103D200006EB860100EB4100A0F13006641C00E0C8
:103D300000E0E9E700BF32461A491BA0FFF700FB8D
:103D400030460FB0F0BD022D05D1164919A0FFF77E
:103D5000F7FA0020F5E74FF4FA7003F0BFFC002FEC
:103D6000BCDC104917A0FFF7EBFA0020E9E70000E0
:103D70002497000841542B4E50494E473D34372E6E
:103D800039332E3231372E3233302C3130302C3122
:103D9000303030302C310D0A000000003D000000B2
:103DA000785A00200C9700082573282564290D0AED
:103DB000000000002573284E50494E4745525221BD
:103DC000290D0A00257328457865204661696C65D0
:103DD0006421290D0A0000002DE9F0438BB08146D3
:103DE0000D4628221D4901A8FCF70AFA0526294696
:103DF0004846FCF71EFA23E0701EC6B24FF4FA6381
:103E0000022201A916A0FFF7C1FAC7B2012F13D1F0
:103E100016A11748FCF718FA441C14A12046FCF719
:103E200013FA8046A8EB040221464846FCF731FA13
:103E300001200BB0BDE8F0834FF4FA7003F04EFCA4
:103E4000002ED9DC2A460BA14846FCF70FFA0B4995
:103E50000BA0FFF775FA0020EBE70000649600085E
:103E600041542B434F50533F0D0A000022000000E5
:103E7000785A00204552524F5200000054960008D4
:103E8000257328457865204661696C656421290D94
:103E90000A0000002DE9F04F8DB083460F46904692
:103EA00028228D4903A8FCF7ABF94FF00509002043
:103EB00000900190029041465846FCF7BAF94146FD
:103EC0003846FCF7B6F9F2E0A9F1010000F0FF096D
:103ED0004FF4FA63022203A980A0FFF757FA00F01B
:103EE000FF0ABAF1010F73D17FA18048FCF7ACF94A
:103EF000441C7DA12046FCF7A7F9441C7AA120466A
:103F0000FCF7A2F9441C78A12046FCF79DF906466F
:103F1000032277A12046FCF7D0F928B90A2275A11F
:103F20006846FCF7A3F959E0032274A12046FCF788
:103F3000C4F928B90A2272A16846FCF797F94DE046
:103F4000032270A12046FCF7B8F928B90A226EA115
:103F50006846FCF78BF941E003226CA12046FCF790
:103F6000ACF928B90A226AA16846FCF77FF935E066
:103F7000032268A12046FCF7A0F928B90A2266A10D
:103F80006846FCF773F929E0032264A12046FCF798
:103F900094F928B90A2262A16846FCF767F91DE086
:103FA000032261A12046FCF788F928B90A225FA103
:103FB0006846FCF75BF911E003225EA12046FCF79E
:103FC0007CF930B90A225CA16846FCF74FF905E09C
:103FD00069E0072258A16846FCF748F9E41C00256F
:103FE00005E0207800EB4500A0F13005641CB442E8
:103FF000F7D36B462A4652A1384602F0CDFD3AA1CE
:104000002046FCF721F9441C4FA12046FCF71CF97F
:104010000646032236A12046FCF74FF928B90A22AA
:104020003BA16846FCF722F928E0032233A1204691
:10403000FCF743F928B90A2239A16846FCF716F9BA
:104040001CE003222FA12046FCF737F928B90A22E9
:104050003EA16846FCF70AF910E0032235A120468C
:10406000FCF72BF928B90A2233A16846FCF7FEF8C1
:1040700004E0072230A16846FCF7F8F80025E41CAC
:1040800005E0207800EB4500A0F13005641CB44247
:10409000F7D36B462A462AA1584602F07DFD01203F
:1040A0000DB0BDE8F08F4FF4FA7003F017FBB9F1D3
:1040B000000F3FF709AF424627A13846FCF7D6F874
:1040C000424625A15846FCF7D1F8254925A0FFF71F
:1040D00037F90020E4E70000E496000841542B4340
:1040E00050534D533F0D0A002C000000785A002019
:1040F0003030300031306D696E00000030303100FA
:10410000316800003031300031306800303131002A
:104110003273000031303000333073003130310001
:10412000316D696E0000000031313000333230688B
:104130000000000031313100496E76616C69640025
:104140002564202A202573000D0A00006465636938
:10415000686F7572730000004552524F52000000A4
:10416000C8960008257328457865204661696C6506
:104170006421290D0A00000010B50446034904A07B
:10418000FFF7DEF8044801F049FD10BDE593000893
:1041900025732E2E2E0D0A00280000201CB503F0DA
:1041A0008BF91C491CA0FFF7CBF804F085FA1C48DA
:1041B000012100234A02CDE900101AA11C4804F095
:1041C000DDFE04F08BFA24E04EF66021012004F0BD
:1041D000DBF90446012C1CD10E4916A0FFF7B0F8FC
:1041E0000F48006838B10E48006804F00DFB09491B
:1041F00017A0FFF7A5F804F05FFA09480121002392
:104200004A02CDE9001007A1094804F0B7FE04F006
:1042100065FAD9E7F893000825732E2E2E0D0A00B3
:10422000240000206C63645F7461736B0000000005
:104230007941000825732852656376206B6579649F
:104240006F776E206576656E74290D0A0000000098
:1042500025732844656C657465204C636420746123
:10426000736B290D0A00000070B594B0282225490F
:104270000AA8FBF7C5FF2822224928316846FBF728
:10428000BFFF41F2883301220AA91FA0FFF77EF881
:104290000646012E30D11F480468406820E041F2F4
:1042A0008833022269461CA0FFF770F80646022EEA
:1042B00000D116E0174802684068121B60F1000048
:1042C000184B00219A1A814106D2174917A0FFF70F
:1042D00037F8012014B070BD4FF4FA7003F0FEF906
:1042E000DDE700BF0B48056840682A1B0E4915A092
:1042F000FFF726F8281BEDE70B4918A0FFF720F879
:104300000020E7E74094000841542B4E52420D0A2A
:1043100000000000C000002041542B43474154548A
:104320003F0D0A0020BF0200209400082573284199
:1043300074746163682074696D656F757421290DEB
:104340000A00000025732872657475726E3A202584
:104350006C64206D73290D0A000000002573285736
:1043600061697420626F6F7420696E666F726D612F
:1043700074696F6E2074696D656F757421290D0AFB
:1043800000000000F0B58BB02822234901A8FBF7FC
:1043900037FF0527002636E0781EC7B24FF4FA63D0
:1043A000022201A91DA0FEF7F1FF0546012D26D12D
:1043B0001DA11F48FBF748FF0446241D15E0207887
:1043C000202801D1641C10E0207830280BDB2078F5
:1043D000392808DC207806EB860100EB41003038F4
:1043E000C6B2641C00E001E000BFE8E700BF32464F
:1043F000104911A0FEF7A4FF30460BB0F0BD4FF4FA
:10440000FA7003F06BF9002FC6DC0A490FA0FEF723
:1044100097FF0020F1E70000C494000841542B43AB
:1044200053510D0A000000004353513A00000000B0
:10443000785A0020A4940008257328726574757258
:104440006E3A202564290D0A0000000025732846D5
:1044500061696C656421290D0A0000002DE9F047AF
:1044600092B0824620210AA8FBF7E3FE4FF0050830
:104470002822A1496846FBF7C3FE00262BE1A8F1DC
:10448000010000F0FF084FF4FA63022269469BA086
:10449000FEF77CFF0746012F70D19CA19D48FBF7DA
:1044A000D3FE0446002C2FD0E41D00261CE020780B
:1044B000202801D1641C17E020782D2802D1012684
:1044C000641C11E0207830280CDB2078392809DCC6
:1044D00020780A9901EB810100EB410030380A9005
:1044E000641C00E001E000BFE1E700BF0A9816B1DC
:1044F0004FF0FF3100E0012148430A90864987A030
:104500000A9AFEF71DFF03E0834989A0FEF718FF12
:104510008DA18048FBF798FE044684B3641D0026F5
:104520001CE02078202801D1641C17E020782D2879
:1045300002D10126641C11E0207830280CDB2078A1
:10454000392809DC20780B9901EB810100EB41004F
:1045500030380B90641C00E001E000BFE1E700BFD1
:104560000B9816B14FF0FF3100E0012148430B904A
:10457000694977A00B9AFEF7E3FE05E0A7E0FFE7A5
:10458000654977A0FEF7DCFE7BA16248FBF75CFE85
:1045900004467CB3241D00261CE02078202801D18D
:1045A000641C17E020782D2802D10126641C11E03C
:1045B000207830280CDB2078392809DC20780C9909
:1045C00001EB810100EB410030380C90641C00E0ED
:1045D00001E000BFE1E700BF0C9816B14FF0FF31DA
:1045E00000E0012148430C904B4965A00C9AFEF76E
:1045F000A7FE04E0FFE7484965A0FEF7A1FE6AA117
:104600004448FBF721FE04467CB3241D00261CE031
:104610002078202801D1641C17E020782D2802D1B1
:104620000126641C11E0207830280CDB2078392822
:1046300009DC20780D9901EB810100EB4100303855
:104640000D90641C00E001E000BFE1E700BF0D98A1
:1046500016B14FF0FF3100E0012148430D902E4983
:1046600053A00D9AFEF76CFE04E0FFE72A4954A020
:10467000FEF766FE58A12748FBF7E6FD00F10805A6
:1046800085B142A12846FBF7DFFD8146A9EB050273
:1046900029460EA8FBF7B4FD0EAA1F4951A0FEF74C
:1046A0004FFE0CE054A001680E918188ADF83C10DB
:1046B00080798DF83E00184951A0FEF741FE202276
:1046C0000AA95046FBF79CFD12B0BDE8F0871249DD
:1046D00051A0FEF735FEB8F1000F3FF7D0AE102223
:1046E00052A10EA8FBF7C2FD20220AA95046FBF7F3
:1046F00087FD00BFE8E700000495000841542B4EF9
:10470000554553544154530D0A000000454152464B
:10471000434E3A00785A0020EC940008257328454F
:10472000415246434E3A20256C64290D0A00000090
:1047300025732845415246434E204E6F7420466FE4
:10474000756E6421290D0A00525352513A0000003F
:10475000257328525352513A20256C64290D0A00C2
:1047600025732852535251204E6F7420466F756E38
:104770006421290D0A000000534E523A0000000047
:10478000257328534E523A20256C64290D0A0000E7
:10479000257328534E52204E6F7420466F756E64F9
:1047A00021290D0A0000000045434C3A000000009A
:1047B00025732845434C3A20256C64290D0A0000D6
:1047C00025732845434C204E6F7420466F756E64E8
:1047D00021290D0A0000000043656C6C2049443A11
:1047E0000000000025732843454C4C49443A2025DD
:1047F00073290D0A00000000496E76616C6964003F
:1048000025732843454C4C4944204E6F7420466F15
:10481000756E6421290D0A002573284154205253D6
:1048200050204552524F5221290D0A004552524FF5
:104830005200000038B504462246144914A0FEF781
:104840007FFD4FF6FF7040F23F13EF2228210090CA
:104850000020FCF789FD072C14D2DFE804F00406E1
:10486000080A0C13100000F0BFF800F027FB00F05E
:104870001BFF00F043FD0520FEF736FB00BF00F0F4
:10488000B1F900BF00BF00BF38BD0000E3D501088B
:10489000257328696E6465783A2564290D0A00003D
:1048A00038B50446142C32DD00204E4908801E2302
:1048B000E1220C21D720FCF737FD00200C23DE225B
:1048C0000A210090DA20FCF74FFD2001642190FBC3
:1048D000F1F0C0F11D0085B24FF4FC601D23E02211
:1048E00029460090D820FCF73FFD04EB041064211A
:1048F00090FBF1F0C0F11D0085B24FF6FF702B4622
:10490000E0220D210090D820FCF72EFD68E0002C5D
:1049100032DD0020334908801E23E1220C21D720FC
:10492000FCF702FD00200C23DE220A210090DA2091
:10493000FCF71AFD2001642190FBF1F0C0F11D008D
:1049400085B24FF4FC601D23E02229460090D82058
:10495000FCF70AFD04EB0410642190FBF1F0C0F1B8
:104960001D0085B24FF6FF702B46E0220D2100900E
:10497000D820FCF7F9FC33E04FF47840194908805F
:104980001E23DC220C21D220FCF7CEFC4FF4784011
:104990000C23D9220A210090D520FCF7E5FC200148
:1049A000642190FBF1F0C0F11D0085B24FF4784016
:1049B0001D23DB2229460090D320FCF7D5FC04EB15
:1049C0000410642190FBF1F0C0F11D0085B24FF698
:1049D000FF702B46DB220D210090D320FCF7C4FC96
:1049E00038BD0000BC0800200EB540F29E5040F2D9
:1049F0003F134F22282100900020FCF7B5FC40F225
:104A00009E5000215DA21023CDE9002102900222D8
:104A10003C210520FDF77EF900205C49088040F22A
:104A20009E505B4908805BA310223C214620FDF785
:104A30006FFD40F29E50002157A21023CDE90021C6
:104A40000290022264210520FDF764F900204F49FD
:104A5000088040F29E504E4908804EA310226421E7
:104A60004620FDF755FD40F29E5000214EA2102336
:104A7000CDE90021029002228C210520FDF74AF9A0
:104A800000204249088040F29E504149088041A3DD
:104A900010228C214620FDF73BFD47A31022B421B4
:104AA0000520FDF735FD3BA31022B4214620FDF77C
:104AB0002FFD43A31022DC210520FDF729FD35A39E
:104AC0001022DC214620FDF723FD3FA310224FF4E6
:104AD00082710520FDF71CFD2EA310224FF4827178
:104AE0004620FDF715FD0020284908804FF6FF708D
:104AF0002749088080213648FEF790FF344B10226A
:104B00003C215520FDF704FD80213148FEF7F0FFE0
:104B10002F4B102264215520FDF7FAFC2DA3102203
:104B20008C215520FDF7F4FC80212948FEF798FEE2
:104B3000274B1022B4215520FDF7EAFC80212448A0
:104B4000FEF72AFE224B1022DC215520FDF7E0FC67
:104B500080211F48FEF7E8FE1D4B10224FF48271A2
:104B60005520FDF7D5FC08E0FFF70CFC044600F0EB
:104B7000EBFE4FF47A7002F0B1FDF5E7E6A8A1E78D
:104B8000BB84E59E8BE58FB700000000BC080020C9
:104B9000BE0800203A000000E6A8A1E7BB84E78930
:104BA00088E69CAC00000000E8BDAFE4BBB6E78936
:104BB00088E69CAC00000000494D4549000000001B
:104BC0004943434944000000494D53490000000057
:104BD000785C00204E425F5465726D696E616C5F57
:104BE000563031000EB54FF6FF7040F29E514FA285
:104BF0001023CDE90021029001222D210520FDF78F
:104C000089F84FF6FF7000214CA21023CDE9002156
:104C10000290022246210520FDF77CF84FF6FF7036
:104C2000002151A21023CDE90021029002225A2135
:104C30000520FDF76FF84FF6FF7040F29E5154A229
:104C40001023CDE900210290012273210520FDF7F8
:104C500061F84FF6FF70002151A21023CDE9002129
:104C6000029002228C210520FDF754F84FF6FF70C8
:104C7000002156A21023CDE9002102900222A0219A
:104C80000520FDF747F84FF6FF7040F29E515AA2FB
:104C90001023CDE9002102900122B9210520FDF762
:104CA00039F84FF6FF70002157A21023CDE90021FB
:104CB00002900222D2210520FDF72CF84FF6FF705A
:104CC00000215CA21023CDE9002102900222E621FE
:104CD0000520FDF71FF84FF6FF7040F29E5160A2CD
:104CE0001023CDE9002102900122FF210520FDF7CC
:104CF00011F84FF6FF7000215DA21023CDE90021CD
:104D0000029002224FF48C710520FDF703F84FF654
:104D1000FF70002161A21023CDE900210290022240
:104D20004FF496710520FCF7F5FF0EBDE9A9BBE72E
:104D3000BD91E6B58BE8AF9500000000E9809AE8E8
:104D4000BF87E58F8DE5A48DE9A9BBE7BD91E6B5E9
:104D50008BE8AF95EFBC8CE88EB7E58F96E8AEBEDA
:104D6000E5A487E585A50000E7BD91E68890E58A82
:104D70009FE78E87E38081E585A5E7BD91E697B63D
:104D8000E997B4E7AD89E58F82E695B000000000B1
:104D9000E4BFA1E58FB7E58F82E695B00000000083
:104DA000E69FA5E79C8BE8AFA6E7BB86E7BD91E74A
:104DB000BB9CE58F82E695B0EFBC8CE58C85E68BDD
:104DC000ACE4BFA1E58FB7E794B50000E5B9B3E364
:104DD0008081E4BFA1E599AAE6AF94E38081E9A2CE
:104DE00091E782B9E38081E5AE9AE697B6E599A8A6
:104DF000E58F82E695B00000E7BD91E7BB9CE5BB7F
:104E0000B6E697B600000000E68C81E7BBADE6B5DC
:104E10008BE8AF95E4B88EE69C8DE58AA1E599A86C
:104E2000E79A84E7BD91E7BB9CE5BBB6E8BF9FE688
:104E300083850000E586B5EFBC8CE7BB9FE8AEA19B
:104E4000E4B8A2E58C85E78E87E38081E5B9B3E617
:104E500097B6E5BBB6E697B6E4BFA1E681AF000022
:104E6000E7BBBCE59088E6B58BE8AF950000000095
:104E7000E7BBBCE59088E8BF9BE8A18CE9A9BBE74C
:104E8000BD91E58E8BE58A9BE38081E5BBB6E8BFEB
:104E90009FE6B58BE8AF95EFBC8C0000E88EB7E5D8
:104EA0008F96E695B4E4BD93E7BD91E7BB9CE78A96
:104EB000B6E586B5E4BFA1E681AF00001FB50025C9
:104EC0000026AA46AB46A9464FF6FF7040F29E5117
:104ED000D8A21823CDE900210290002237214120D9
:104EE000FCF718FF4FF6FF704FF607411823D5A2C5
:104EF000CDE9001055213720FDF774F90020D34982
:104F000008808123EF221946FCF782F940F29E5077
:104F100040F23F134F22822100900020FCF724FA38
:104F200040F29E500021CAA21023CDE90021029038
:104F300002228C210520FCF7EDFE0020C3490880E9
:104F400040F29E50C6490880C6A310228C214620FC
:104F5000FDF7DEFA40F29E500021C3A21023CDE9F6
:104F6000002102900222AA210520FCF7D3FE002096
:104F7000B649088040F29E50B9490880B9A3102272
:104F8000AA214620FDF7C4FA40F29E500021BAA2A1
:104F90001023CDE9002102900222C8210520FCF750
:104FA000B9FE0020A949088040F29E50AC49088013
:104FB000ACA31022C8214620FDF7AAFA40F29E5069
:104FC0000021B0A21023CDE9002102900222E621A7
:104FD0000520FCF79FFE00209C49088040F29E506F
:104FE0009F4908809FA31022E6214620FDF790FAF2
:104FF00040F29E500021A7A21023CDE9002102908B
:1050000002224FF482710520FCF784FE00208F49B4
:10501000088040F29E509249088092A310224FF4DB
:1050200082714620FDF774FA40F29E5000219DA245
:105030001023CDE90021029002224FF49171052046
:10504000FCF768FE00208149088040F29E508449A8
:10505000088084A310224FF491714620FDF758FA7E
:10506000E7E0FFF701F90446322002F037FB012C9C
:105070001ED96D1C2046FBF746FA8E490290FBF7BD
:105080005DF90390FBF75DFA07463A460B468AA1A5
:105090008B4801F081FD4FF6FF704FF60741182352
:1050A000874ACDE9001055213720FDF79BF81CE019
:1050B000012C0ED14FF6FF704FF47841182381A2D6
:1050C000CDE9001055213720FDF78CF86D1C761CBA
:1050D0000BE04FF6FF704FF4784118237CA2CDE926
:1050E000001055213720FDF77DF800205749088032
:1050F0004FF6FF705A4908802A4678A1704801F09F
:105100004BFD6F4B10228C215F20FDF701FA3246D8
:1051100072A16B4801F040FD694B1022AA215F206B
:10512000FDF7F6F9F5B12846FBF7EDF90190A81B5C
:10513000FBF7E9F900900199FBF700F96949029042
:10514000FBF7CAF80390FBF7FCF907463A460B4613
:1051500065A15B4801F020FD594B1022C8215F205A
:10516000FDF7D6F9012C1ED9A81B401E0BFB0040F1
:10517000A91BB0FBF1FB5846FBF7C5F980464D492A
:10518000FBF7DCF80746FBF7DCF902460B46CDE9F6
:10519000020158A14A4801F0FFFC494B1022E621C8
:1051A0005F20FDF7B5F9544502D9012C00D9A2467C
:1051B0005046FBF7A8F93F490290FBF7BFF8039070
:1051C000FBF7BFF907463A460B464AA13C4801F0B7
:1051D000E3FC3B4B10224FF482715F20FDF798F9FE
:1051E0004C4502D3B9F1000F02D1012C00D9A146E0
:1051F0004846FBF788F92F490290FBF79FF8039088
:10520000FBF79FF907463A460B463AA12C4801F0B6
:10521000C3FC2B4B10224FF491715F20FDF778F9FE
:10522000FFF7B0F8074600F08FFB4FF47A7002F0FA
:1052300055FA16E7E9A9BBE7BD91E697B6E997B439
:10524000000000002D2D2D2E2D2D2D00BC0800203E
:10525000E6B58BE8AF95E6ACA1E695B0000000009E
:10526000BE0800203A000000E5A4B1E8B4A5E6AC11
:10527000A1E695B000000000E68890E58A9FE78EE1
:1052800087000000E5B9B3E59D87E697B6E995BFCD
:1052900000000000E69C80E5A4A7E697B6E995BF6C
:1052A00000000000E69C80E79FADE697B6E995BF59
:1052B0000000000000007A442530372E336673006A
:1052C000785C002074696D656F75742000000000C3
:1052D000626F6F746572722000000000252D3564C6
:1052E000000000000000C842252D372E326625251B
:1052F00000000000252D372E336673001FB50025F2
:105300000026AA46AB46A9464FF6FF7040F29E51D2
:10531000B6A21823CDE900210290002237214120B6
:10532000FCF7F8FC4FF6FF704FF607411823B3A2C5
:10533000CDE9001055213720FCF754FF0020B24979
:1053400008808123EF221946FBF762FF40F29E504E
:1053500040F23F134F22822100900020FCF704F816
:1053600040F29E500021A9A21023CDE90021029015
:1053700002228C210520FCF7CDFC0020A2490880E8
:1053800040F29E50A5490880A5A310228C214620FA
:10539000FDF7BEF840F29E500021A2A21023CDE9F5
:1053A000002102900222AA210520FCF7B3FC002074
:1053B0009549088040F29E509849088098A3102291
:1053C000AA214620FDF7A4F840F29E50002199A2A0
:1053D0001023CDE9002102900222C8210520FCF70C
:1053E00099FC00208849088040F29E508B49088033
:1053F0008BA31022C8214620FDF78AF840F29E5068
:1054000000218FA21023CDE9002102900222E62183
:105410000520FCF77FFC00207B49088040F29E506D
:105420007E4908807EA31022E6214620FDF770F811
:1054300040F29E50002186A21023CDE90021029067
:1054400002224FF482710520FCF764FC00206E49B3
:10545000088040F29E507149088071A310224FF4D9
:1054600082714620FDF754F840F29E5000217CA244
:105470001023CDE90021029002224FF49171052002
:10548000FCF748FC00206049088040F29E506349C8
:10549000088063A310224FF491714620FDF738F87D
:1054A000A2E0FEF711FC0446322002F017F994B195
:1054B0006D1C22466EA1704801F06EFB4FF6FF7026
:1054C0004FF6074118236C4ACDE9001055213720CB
:1054D000FCF788FE0DE06D1C761C4FF6FF704FF454
:1054E0007841182365A2CDE9001055213720FCF73B
:1054F00079FE0020444908804FF6FF704749088034
:105500002A4661A15C4801F047FB5B4B10228C21CD
:105510005F20FCF7FDFF32465BA1574801F03CFBE2
:10552000554B1022AA215F20FCF7F2FF2846FAF71C
:10553000EAFF01903046FAF7E6FF00900199FAF78A
:10554000FDFE53490290FAF7C7FE0390FAF7F9FF00
:1055500007463A460B464FA1474801F01DFB464B14
:105560001022C8215F20FCF7D3FF8CB1A81B401E7E
:105570000BFB0040A91BB0FBF1FB5A4648A13E487B
:1055800001F00AFB3C4B1022E6215F20FCF7C0FF34
:10559000544501D904B1A246524641A1364801F012
:1055A000FBFA354B10224FF482715F20FCF7B0FFFD
:1055B0004C4502D3B9F1000F01D104B1A1464A46CE
:1055C00037A12D4801F0E8FA2B4B10224FF49171CE
:1055D0005F20FCF79DFFFEF7D5FE074600F0B4F90B
:1055E0004FF4FA6002F07AF85BE70000E7BD91E75C
:1055F000BB9CE5BBB6E697B6000000002D2D2D2D17
:105600002D206D7300000000BC080020E6B58BE87B
:10561000AF95E6ACA1E695B000000000BE08002002
:105620003A000000E5A4B1E8B4A5E6ACA1E695B067
:1056300000000000E4B8A2E58C85E78E870000003A
:10564000E5B9B3E59D87E5BBB6E697B60000000077
:10565000E69C80E5A4A7E5BBB6E697B6000000008F
:10566000E69C80E79FADE5BBB6E697B6000000007C
:1056700025303564206D7300785C002074696D6599
:105680006F75742000000000252D356400000000B7
:105690000000C842252D362E326625250000000068
:1056A000252D35646D730000A0B00024202110A8C2
:1056B000FAF7BFFD202108A8FAF7BBFD40F29E5083
:1056C00040F23F134F22282100900020FBF74CFEB0
:1056D00000207649088040F29E507549088075A3E5
:1056E000102232210520FCF713FF75A310224B2155
:1056F0000520FCF70DFF75A3102264210520FCF79F
:1057000007FF75A310227D210520FCF701FF75A37B
:10571000102296210520FCF7FBFE75A31022AF2175
:105720000520FCF7F5FE75A31022C8210520FCF723
:10573000EFFE75A31022E1210520FCF7E9FE75A319
:105740001022FA210520FCF7E3FE75A3102240F297
:1057500013110520FCF7DCFEA6E000205349088069
:105760004FF6FF7052490880FEF70CFE04462046B3
:1057700000F0EAF822466DA16E4801F00DFA6D4B7B
:10578000102232215F20FCF7C3FE6846FEF766FE5A
:105790002022694618A8FAF733FD67A165481A9ACE
:1057A00001F0FAF9634B10224B215F20FCF7B0FEA9
:1057B00061A16048199A01F0EFF95E4B1022642153
:1057C0005F20FCF7A5FE5CA15A48189A01F0E4F9A5
:1057D000584B10227D215F20FCF79AFE56A15548B8
:1057E0001B9A01F0D9F9534B102296215F20FCF748
:1057F0008FFE4FF6FF7040F22713EF2240F2131195
:1058000000905F20FBF7B0FD1CAB102240F213119B
:105810005F20FCF77DFE80214648FEF7DDFA4FF65B
:10582000FF70C323EF22AF2100905F20FBF79CFDA8
:10583000404B1022AF215F20FCF76AFEFEF7C2F951
:1058400005462A463EA13B4801F0A6F9394B1022F5
:10585000C8215F20FCF75CFE202210A908A8FEF7F3
:1058600019FB4FF6FF70F523EF22E12100905F2036
:10587000FBF77AFD08AB1022E1215F20FCF748FE20
:105880004FF6FF704FF48773EF22FA2100905F20EC
:10589000FBF76AFD10AB1022FA215F20FCF738FEFF
:1058A0004FF47A7001F01AFF57E70000BC0800209F
:1058B000BE080020435351202020203A0000000061
:1058C000534E52202020203A0000000052535251E3
:1058D0002020203A0000000045415246434E203A25
:1058E0000000000045434C202020203A000000002A
:1058F000504C4D4E2020203A0000000042414E44C2
:105900002020203A00000000543333323420203A63
:1059100000000000543334313220203A00000000EF
:1059200043454C4C4944203A00000000252D336487
:1059300000000000785C0020252D3130640000005C
:10594000252D35640000000038B50446142C2FDDE9
:105950001F2C2DDC44F298301E23B7221A21009010
:10596000B420FBF701FD44F298301E23BD2216211E
:105970000090BA20FBF7F8FC44F298301E23C322B3
:1059800012210090C020FBF7EFFC44F298301E2358
:10599000C9220E210090C620FBF7E6FC44F29830A5
:1059A0001E23CF220A210090CC20FBF7DDFCF4E07F
:1059B0000F2C2FDD142C2DDC44F298301E23B7223F
:1059C0001A210090B420FBF7CFFC44F298301E233C
:1059D000BD2216210090BA20FBF7C6FC44F2983095
:1059E0001E23C32212210090C020FBF7BDFC44F20D
:1059F00098301E23C9220E210090C620FBF7B4FC6C
:105A00004FF6FF701E23CF220A210090CC20FBF717
:105A1000ABFCC2E00A2C2FDD0F2C2DDC44F29830B9
:105A20001E23B7221A210090B420FBF79DFC44F2FC
:105A300098301E23BD2216210090BA20FBF794FC5B
:105A400044F298301E23C32212210090C020FBF79D
:105A50008BFC4FF6FF701E23C9220E210090C6203A
:105A6000FBF782FC4FF6FF701E23CF220A21009025
:105A7000CC20FBF779FC90E0052C2FDD0A2C2DDCE7
:105A800044F298301E23B7221A210090B420FBF76D
:105A90006BFC44F298301E23BD2216210090BA20E0
:105AA000FBF762FC4FF6FF701E23C3221221009009
:105AB000C020FBF759FC4FF6FF701E23C9220E21B0
:105AC0000090C620FBF750FC4FF6FF701E23CF223C
:105AD0000A210090CC20FBF747FC5EE0002C2FDD74
