:020000040800F2
:10000000382F0020E1010008D30A0008C70A0008C1
:10001000CF0A00081D080008271300080000000090
:10002000000000000000000000000000490100087E
:100030003D080008000000008D010008BD0D00080B
:10004000FB010008FB010008FB010008FB010008A0
:10005000FB010008FB010008FB010008FB01000890
:10006000FB010008FB010008FB010008FB01000880
:10007000FB010008FB010008FB010008FB01000870
:10008000FB010008FB010008FB010008FB01000860
:10009000FB010008FB010008FB010008FB01000850
:1000A000FB010008FB010008FB010008FB01000840
:1000B000FB0100082D0E0008FB010008FB010008F1
:1000C000FB010008FB010008FB010008FB01000820
:1000D000FB010008B90F0008BD0F0008511000080F
:1000E000FB010008FB010008FB010008FB01000800
:1000F000FB010008FB010008FB010008FB010008F0
:10010000FB010008FB010008FB010008FB010008DF
:10011000FB010008FB010008FB010008FB010008CF
:10012000FB010008FB010008FB010008FB010008BF
:10013000DFF80CD000F0D2FA00480047B1270008E1
:10014000382F002070470000224B19680868B0E87B
:10015000F00F80F30988BFF36F8F4FF0000080F33A
:1001600011884EF00D0E7047000000000648006830
:10017000006880F3088862B661B6BFF34F8FBFF3A3
:100180006F8F00DF00BF00BF08ED00E0EFF30980D4
:10019000BFF36F8F0F4B1A6820E9F00F106008B59E
:1001A0004FF0BF0080F31188BFF34F8FBFF36F8F05
:1001B00003F004FC4FF0000080F31188BDE8084014
:1001C00019680868B0E8F00F80F30988BFF36F8FF3
:1001D000704700BF38000020EFF305807047000033
:1001E0000648804706480047FEE7FEE7FEE7FEE7D1
:1001F000FEE7FEE7FEE7FEE7FEE7FEE7CD0D0008BF
:100200003101000840EA01039B0703D009E008C957
:10021000121F08C0042AFAD203E011F8013B00F8CB
:10022000013B521EF9D27047D2B201E000F8012B17
:10023000491EFBD270470022F6E710B513460A4666
:1002400004461946FFF7F0FF204610BD30B50546BD
:100250002A460B4612F8010B13F8014B08B1A042D5
:10026000F8D01CB1002802D06D1CF1E7284630BD43
:1002700010B5044604E00B7800F8013B03B1491CBB
:10028000521EF8D2204610BD421C10F8011B002956
:10029000FBD1801A704710B5044600E0401C03787B
:1002A000002BFBD100E0401C521E04D311F8013B8F
:1002B0000370002BF7D100210170204610BD30B52E
:1002C00005460020034600E05B1C934205D2EC5C2F
:1002D000C85C201A01D1002CF6D130BD30B50B46D8
:1002E000014600202022012409E021FA02F59D4266
:1002F00005D303FA02F5491B04FA02F52844151E3A
:10030000A2F10102F1DC30BD2DE9F05F05460020CD
:1003100092469B4688460646814640241BE0284676
:1003200041464746224600F0FAF953465A46C01A5B
:10033000914110D311461846224600F0E1F92D1ADA
:1003400067EB01084F4622460120002100F0D8F952
:1003500017EB00094E41201EA4F10104DFDC4846E2
:1003600031462A464346BDE8F09F2DE9FE4F8046C0
:1003700081EA0300C00F0C46009021F0004123F0F9
:100380000045B8EB0200A94105D2404621469046FF
:100390001C460B46024623F00040104347D0270D71
:1003A000C7F30A00C3F30A510290401A0190402893
:1003B0006BDAC3F3130040F4801B0098924620B11F
:1003C0000023D2EB030A63EB0B0B01985946C0F1F3
:1003D0004002504600F094F906460D4650465946F4
:1003E000019A00F0ACF910EB08006141002487EAA3
:1003F000115284EAE7731A4340D0009A62B3019A1B
:10040000012A4FEA075215DC001B61EB02014FF095
:10041000004202EA0752CDE90042001C41F580117A
:1004200032462B4600F0ACF903B0BDE8F08F4046F1
:100430002146F9E7001B61EB0201001C41F5801326
:1004400000185B412018A2F5001747EB030140EAB2
:10045000D570B6196D4111E06D084FEA360645EAD0
:10046000C0754FEA0752001B61EB0201001C41F509
:10047000801149084FEA30000019514132462B469D
:1004800003B0BDE8F04F00F06CB9009801224000C5
:100490000023D0EB020263EBE073009821464FEAA1
:1004A000E074B8EB000061EB0401E9E783F000437E
:1004B0005BE781F0004158E72DE9FE4F81EA030434
:1004C00004F0004421F0004100944FF0000B23F0B1
:1004D000004350EA01045ED052EA03045BD0C3F348
:1004E0000A54C1F30A552C44A4F2F3340194A0FB3E
:1004F0000254C1F3130141F48011C3F3130343F415
:10050000801301FB024400FB034E840A970A44EA6D
:10051000815447EA8357A4FB076802958D0A05FBBF
:1005200007854FEA932C04FB0C542705029D4FEAE4
:10053000065847EA1637B5EB08056EEB070C870E31
:10054000920E47EA811742EA8312A7FB0201B6EB3B
:100550000B0164EB00042B0D43EA0C335E1844EBF3
:100560001C50DA465146E7FB0201C5F313044FEA7B
:100570000B3343EA14534FEA0432019C43EA060367
:10058000A4F10C040294009CCDE900B400F0F8F84A
:1005900003B0BDE8F08F00200146F9E72DE9F04DEA
:1005A00081EA030404F0004B21F0004514464FF0AB
:1005B000000A23F0004150EA050220D054EA01026B
:1005C0001DD0C5F30A570246C5F31303C1F3130048
:1005D000C1F30A5640F4801543F48013A7EB0608D4
:1005E000101BD64608F2FD3873EB050002D308F164
:1005F000010801E092185B41B8F1000F03DA002016
:100600000146BDE8F08D00204FF480110646844677
:100610000EE0171B73EB050705D3121B63EB0503F5
:1006200006434CEA010C49084FEA300092185B413E
:1006300050EA0107EDD152EA030012D082EA040029
:1006400083EA0501084305D0101BAB4106D2012205
:10065000002306E000224FF0004302E06FF00102A9
:1006600053101AEB06004CEB085110EB0A0041EB5B
:100670000B01BDE8F04D00F074B8C1F30A52C1F3AC
:10068000130140F2FF3341F480119A4202DA002054
:100690000146704740F233439A42A2F2334202DCF1
:1006A000524200F03CB800F02BB8000030B5041EF8
:1006B00071F1000404DB4FF00044404264EB01019F
:1006C000141E73F1000405DB1C464FF00043524238
:1006D00063EB0403994208BF904230BD064C074DBE
:1006E00006E0E06840F0010394E807009847103402
:1006F000AC42F6D3FFF720FDD4450008F4450008CE
:10070000202A04DB203A00FA02F1002070479140D1
:10071000C2F1200320FA03F3194390407047202AC6
:1007200004DB203A21FA02F00021704721FA02F39B
:10073000D040C2F120029140084319467047202A58
:1007400006DBCB17203A41FA02F043EAE07306E0F9
:1007500041FA02F3D040C2F1200291400843194609
:10076000704710B5141E73F1000408DA401C41F103
:10077000000192185B411A4301D120F0010010BD25
:100780002DE9F04D92469B4611B1B1FA81F202E09B
:10079000B0FA80F220329046FFF7B2FF04460F46CF
:1007A00040EA0A0041EA0B0153465A46084313D077
:1007B000114653EA010019D0C8F140025046FFF734
:1007C000AEFF05460E46504659464246FFF798FF93
:1007D000084305D0012004E020463946BDE8F08DED
:1007E0000020054346EAE0762C4337430A98630528
:1007F000E40AA0EB08000022FD0A44EA47540A304C
:1008000002D500200146E9E7010510196941DDE93B
:10081000084500196941BDE8F04DA2E700BFFEE7B9
:1008200010B50021044A11605160472140F2E730C1
:1008300000F016FB10BD0000B0000020704730B57E
:100840000346002400200025156022E000E05B1C28
:100850001D7815B11D78202DF9D100E05B1C1D78A5
:1008600015B11D78202DF9D01D788DB1641C8C42F6
:100870000FD1184603E015686D1C15605B1C1D78D0
:1008800015B11D78202DF6D1156805B9002002E0BC
:1008900001E08C42DAD300BF30BD00002DE9F04703
:1008A0000446884691460126207810B90020BDE80C
:1008B000F0872E48006898BB2D482C4908602AE034
:1008C0002A480068006807683846FFF7DDFC0546DF
:1008D000605D202801D0605DC0B92A4639462046B7
:1008E000FFF7EDFC90B921480068006890F90C0012
:1008F00000280ADB204602F0D5F91C49096809687E
:1009000091F90C10884200D0002608E017480068D2
:10091000406816490860154800680028D0D100BF1B
:100920001248006848B146B94A4612494046FFF7A6
:100930009FFC00200D49086016E00C48006868B173
:100940000A4800680068224649468368404698473E
:1009500006464EB900200549086005E04A460649AA
:100960004046FFF785FC00263046A0E7C80000207F
:10097000BC000020204400087844000870B50546FB
:100980000026082002F028FD044664B102F036FE7D
:1009900025600020606005480068446003480460EA
:1009A00002F03EFE0126304670BD0000C40000206B
:1009B0002DE9F041024600250026002000230024F6
:1009C000002791F803C00CF00F0591F803C00CF05C
:1009D000100CBCF1000F03D091F802C04CEA0505E1
:1009E00091F800C0BCF1000F31D0146800202BE05A
:1009F0004FF0010C0CFA00F3B1F800C00CEA03064A
:100A00009E4220D183004FF00F0C0CFA03F7BC4339
:100A100005FA03FC4CEA040491F803C0BCF1280F6A
:100A200006D14FF0010C0CFA00FCC2F814C00AE029
:100A300091F803C0BCF1480F05D14FF0010C0CFA3E
:100A400000FCC2F810C0401C0828D1D31460B1F8D3
:100A500000C0BCF1FF0F34DD546800202EE000F12F
:100A6000080C4FF0010808FA0CF3B1F800C00CEACA
:100A700003069E4221D183004FF00F0C0CFA03F7BE
:100A8000BC4305FA03FC4CEA040491F803C0BCF132
:100A9000280F05D100F1080C08FA0CF8C2F81480F0
:100AA00091F803C0BCF1480F07D100F1080C4FF0DA
:100AB000010808FA0CF8C2F81080401C0828CED3B0
:100AC0005460BDE8F08110B5FFF73CFB10BD00BFDE
:100AD000FEE7704770B5002100230F22C47804B3ED
:100AE000154C246804F4E064C4F5E064210AC1F103
:100AF0000403CA40447804FA03F184781440214383
:100B000009010E4C0678A155047804F01F05012454
:100B1000AC4005786D11AD0005F1E025C5F8004148
:100B200009E0047804F01F050124AC40044D067868
:100B3000761145F8264070BD0CED00E000E400E0C1
:100B400080E100E002490143024A11607047000061
:100B50000000FA050CED00E029B1064AD269024313
:100B6000044BDA6104E0034AD2698243014BDA6143
:100B7000704700000010024029B1064A1269024382
:100B8000044B1A6104E0034A12698243014B1A6163
:100B9000704700000010024029B1064A92690243E2
:100BA000044B9A6104E0034A92698243014B9A61C3
:100BB000704700000010024029B1064AD268024383
:100BC000044BDA6004E0034AD2688243014BDA60E6
:100BD000704700000010024030B5002100220024C0
:100BE00000232D4D6D6805F00C0121B1042905D0BD
:100BF000082923D105E0294D056022E0274D056035
:100C00001FE0254D6D6805F47012234D6D6805F4E5
:100C10008034022505EB92421CB9214D55430560F5
:100C20000BE01D4D6D6805F400351DB11C4D55439D
:100C3000056002E0194D5543056002E0174D05605F
:100C400000BF00BF144D6D6805F0F0010909154D96
:100C50006B5C0568DD4045600F4D6D6805F4E06133
:100C6000090A104D6B5C4568DD4085600A4D6D6872
:100C700005F46051C90A0B4D6B5C4568DD40C560E9
:100C8000054D6D6805F44041890B074D6B5CC568E7
:100C9000B5FBF3F5056130BD0010024000127A008B
:100CA00000093D00000000201000002010B500F0F9
:100CB00001F810BD0CB50020019000903348006889
:100CC00040F480303149086000BF3048006800F4CB
:100CD000003000900198401C0190009818B90198CC
:100CE000B0F5A06FF1D12948006800F4003010B1D0
:100CF0000120009001E0002000900098012843D1DD
:100D00002348006840F01000214908600846006848
:100D100020F0030008600846006840F00200086008
:100D20001A484068194948600846406848600846C3
:100D3000406840F4806048600846406820F47C10B9
:100D400048600846406840F4E8104860084600687B
:100D500040F08070086000BF0C48006800F0007030
:100D60000028F9D00948406820F00300074948608E
:100D70000846406840F00200486000BF03484068F1
:100D800000F00C000828F9D10CBD00000010024052
:100D900000200240042808D14FF0E021096941F009
:100DA00004014FF0E022116107E04FF0E0210969F2
:100DB00021F004014FF0E0221161704710B503F0FB
:100DC000AFF8012801D002F06BFE10BD10B513483A
:100DD000006840F001001149086008464068104969
:100DE00008400E494860084600680E4908400B4913
:100DF00008600846006820F48020086008464068C3
:100E000020F4FE0048604FF41F008860FFF74EFF9B
:100E10004FF000600449086010BD0000001002405F
:100E20000000FFF8FFFFF6FE08ED00E010B501211D
:100E3000094800F054F8012808D1084802684068C1
:100E4000521C40F1000005490A6048600121024837
:100E500000F036F810BD000000040040B000002093
:100E60007FB505460C4601210220FFF775FEADF85F
:100E70000850ADF804400020ADF80A00ADF80600B7
:100E800001A90E4800F046F8012211460B4800F077
:100E900037F81D208DF8000001208DF8010000209A
:100EA0008DF8020001208DF803006846FFF712FE5E
:100EB0000121024800F007F87FBD00000004004057
:100EC000CA430282704721B1028842F001020280C7
:100ED00004E002884FF6FE731A400280704730B576
:100EE0000246002000230024158A05EA01039589A3
:100EF00005EA010413B10CB1012000E0002030BD6F
:100F00001AB183890B43838102E083898B438381F8
:100F100070470000002202881D4B98420ED01D4BE6
:100F200098420BD0B0F1804F08D01B4B984205D0AF
:100F30001A4B984202D01A4B984204D14FF68F7345
:100F40001A404B881A43174B984207D0164B9842C9
:100F500004D04FF6FF431A40CB881A4302808B8897
:100F600083850B8803850A4B98420BD0094B984226
:100F700008D00E4B984205D00D4B984202D00D4B35
:100F8000984201D10B7A03860123838270470000C7
:100F9000002C0140003401400004004000080040E3
:100FA000000C0040001000400014004000400140D0
:100FB00000440140004801407047000038B540F24D
:100FC00025511F4800F0EBF8002836D01C4800F0EF
:100FD000A1F9C4B20D2C01D00A2C09D12146184820
:100FE00000F09DF969461748006802F027FC38BDFB
:100FF000082C11D12146124800F091F912480068DE
:1010000048B111480068401E0F49086000200F4990
:101010000D4A12688854EAE70B4800687F280CD212
:101020002146074800F07BF90848074909684454FD
:1010300005480068401C0449086000BFD7E700006D
:10104000004400401C000020140000200401002087
:1010500010B540F225510D4800F0A1F8A0B10B48A1
:1010600000F058F9C4B20A4800687F2809D209483C
:1010700007490968445406480068401C0449086050
:1010800002E005A000F0A6F910BD000000480040F5
:1010900000010020B82A002055415254335F527895
:1010A00042756666657228554152545F4D3533313D
:1010B00030292069732066756C6C210001F4007280
:1010C000B2F5007F00D100BFCA430280704721B152
:1010D000828942F40052828104E082894DF6FF73D6
:1010E0001A4082817047000010B5044620488442AF
:1010F00009D101218803FFF75FFD00214FF48040F3
:10110000FFF75AFD32E01B48844209D1012148040F
:10111000FFF732FD00214FF40030FFF72DFD25E0F1
:101120001548844209D101218804FFF725FD0021DB
:101130004FF48020FFF720FD18E01048844209D1C9
:101140000121C804FFF718FD00214FF40020FFF72C
:1011500013FD0BE00A48844208D101210805FFF77E
:101160000BFD00214FF48010FFF706FD10BD0000BD
:10117000003801400044004000480040004C00405E
:101180000050004002460020B1F5007F00D100BFB2
:1011900013880B400BB1012000E00020704770B5B0
:1011A0000246002400230025002040F66A16B142C2
:1011B00000D100BFC1F3421501F01F03012606FA5A
:1011C00003F3012D02D19689334006E0022D02D1AE
:1011D000168A334001E0968A33400C12012606FA43
:1011E00004F41688344013B10CB1012000E0002053
:1011F00070BDF0B50346002400260025002040F60F
:101200006A17B94200D100BF1846C1F3421401F079
:101210001F06012707FA06F5012C01D10C3004E066
:10122000022C01D1103000E014301AB107682F43AE
:10123000076002E00768AF430760F0BD2DE9F047A3
:1012400086B005460E460024A24600BFA1460027F0
:10125000B08900B100BF2F462C8A4CF6FF700440C5
:10126000F08804432C82AC894EF6F3100440B08819
:1012700031890843718908430443AC81AC8A4FF635
:10128000FF400440B0890443AC8201A8FFF7A4FCEE
:101290001F48874202D1DDF810A001E0DDF80CA064
:1012A000A88900F4004040B10AEBCA0000EB0A1024
:1012B00031684900B0FBF1F807E00AEBCA0000EB27
:1012C0000A1031688900B0FBF1F86420B8FBF0F037
:1012D00004012009642101FB1089A88900F4004061
:1012E00040B1322000EBC900B0FBF1F000F0070084
:1012F000044308E0322000EB09106421B0FBF1F058
:1013000000F00F0004432C8106B0BDE8F087000018
:101310000038014001468888C0F308007047C1F3D7
:1013200008028280704700BFFEE7000010B500246D
:1013300006E0054901EB0410FFF720FB601CC4B276
:10134000032CF6D310BD0000D0000020FFF7EEFF05
:1013500027E04EF66021012002F0B8F80446012C87
:101360001FD110A000F036F864211648FEF763FF85
:1013700000BF642213491448FFF790FA054611484C
:10138000FEF782FF064632460E49104800F088FB01
:10139000002DEED120210C48FEF74DFF00200C4916
:1013A0000860D6E7434C4920436F6D6D616E642041
:1013B00052656365697665205B43525D5B4C465DB3
:1013C0000D0A000024010020040100200044004018
:1013D000140000200FB410B5C2B04FF4807102A801
:1013E000FEF729FF45A80190F92102A8019B449A24
:1013F00000F0CEFB002001900748007840B102A821
:10140000FEF742FF0446224602A9044800F048FBCA
:1014100042B010BC5DF814FBB8000020004400404E
:101420002DE9F05F05460E46174698464FF0000935
:101430004FF4FA7A80211D48FEF7FDFE00201C497A
:1014400008602846FEF720FF83465A462946194879
:1014500000F026FB2A46184918A0FFF7BBFF24E03E
:1014600009FB0AF0404506D3134918A0FFF7B2FF65
:101470000020BDE8F09F002410E004EB840006EBA0
:1014800080010A48FEF7E2FE30B1621C0A4915A04D
:10149000FFF7A0FF601CECE7601CC4B2BC42ECDBB1
:1014A000504601F02FF909F10109D9E7B82A0020C7
:1014B00000010020004800408443000825732853A1
:1014C000656E642D3E25730D0A00000025732865A6
:1014D0007865637574652074696D656F757421290D
:1014E0000D0A000025732872657475726E3A202506
:1014F00064290D0A000000008CB0202104A8FEF72A
:101500009AFE684600F002F800BFFEE72DE9F041C0
:101510008EB0074600200A900B900C900D904FF073
:101520000508282286496846FEF76CFE0025FAE089
:10153000A8F1010000F0FF084FF4FA6302226946A7
:1015400080A0FFF76DFF0646012E6FD181A1834871
:10155000FEF77CFEC41D002C2ED000251CE0207858
:10156000202801D1641C17E020782D2802D1012504
:10157000641C11E0207830280CDB2078392809DC45
:1015800020780A9901EB810100EB410030380A9084
:10159000641C00E001E000BFE1E700BF0A9815B15C
:1015A0004FF0FF3100E0012148430A906C496DA0E3
:1015B0000A9AFFF70FFF03E069496FA0FFF70AFFE0
:1015C00073A16648FEF742FE441D74B300251CE07B
:1015D0002078202801D1641C17E020782D2802D122
:1015E0000125641C11E0207830280CDB2078392894
:1015F00009DC20780B9901EB810100EB41003038C8
:101600000B90641C00E001E000BFE1E700BF0B9815
:1016100015B14FF0FF3100E0012148430B905049D4
:101620005DA00B9AFFF7D6FE05E000E077E04C499D
:101630005DA0FFF7CFFE62A14848FEF707FE041D3C
:1016400074B300251CE02078202801D1641C17E029
:1016500020782D2802D10125641C11E02078302843
:101660000CDB2078392809DC20780C9901EB81010A
:1016700000EB410030380C90641C00E001E000BF3A
:10168000E1E700BF0C9815B14FF0FF3100E00121F8
:1016900048430C9032494CA00C9AFFF79BFE03E0A4
:1016A0002F494DA0FFF796FE51A12C48FEF7CEFD25
:1016B000041D74B300251CE02078202801D1641C8F
:1016C00017E020782D2802D10125641C11E0207834
:1016D00030280CDB2078392809DC20780D9901EBC3
:1016E000810100EB410030380D90641C00E001E006
:1016F00000BFE1E700BF0D9815B14FF0FF3100E0EA
:10170000012148430D9016493BA00D9AFFF762FE58
:1017100004E0FFE712493CA0FFF75CFE07E0104938
:101720003FA0FFF757FEB8F1000F3FF701AF00BF32
:101730000AA80FC887E80F000EB0BDE8F0810000CE
:10174000F843000841542B4E554553544154530D12
:101750000A00000045415246434E3A00B82A002094
:10176000E043000825732845415246434E3A202560
:101770006C64290D0A000000257328454152464338
:101780004E204E6F7420466F756E6421290D0A003D
:10179000525352513A000000257328525352513A85
:1017A00020256C64290D0A002573285253525120BC
:1017B0004E6F7420466F756E6421290D0A0000007B
:1017C000534E523A00000000257328534E523A20DF
:1017D000256C64290D0A0000257328534E52204EB3
:1017E0006F7420466F756E6421290D0A0000000099
:1017F00045434C3A0000000025732845434C3A20ED
:10180000256C64290D0A000025732845434C204EA1
:101810006F7420466F756E6421290D0A0000000068
:10182000257328415420525350204552524F522183
:10183000290D0A001CB5044601F0E0FE0D48012107
:1018400000230A02CDE900100BA10E4802F038FB7C
:101850000D48012100230A02CDE900100BA10E481A
:1018600002F02EFB0D48006801F070FF01F0D8FE79
:101870001CBD00001C000020636C695F7461736B09
:10188000000000004D130008200000206D353331AA
:10189000305F7461736B0000F914000818000020B9
:1018A00030B587B004460D46774884424AD1FFF7E9
:1018B0001BFC01210420FFF76FF901218803FFF7CA
:1018C0006BF96015ADF8180018208DF81B00032087
:1018D0008DF81A0006A96D48FFF76AF82015ADF8D3
:1018E000180004208DF81B0006A96848FFF760F86F
:1018F00002950020ADF80C00ADF80E00ADF8100018
:10190000ADF814000C20ADF8120002A92046FFF734
:1019100095FC01212046FFF7DAFB25208DF8040015
:1019200003208DF805008DF8060001208DF80700D2
:1019300001A8FFF7CFF8012240F225512046FFF71A
:1019400058FC9FE0524884424AD1FFF7CDFB012169
:101950000420FFF721F901214804FFF7FDF80420D6
:10196000ADF8180018208DF81B0003208DF81A0020
:1019700006A94648FFF71CF80820ADF81800042017
:101980008DF81B0006A94148FFF712F802950020C8
:10199000ADF80C00ADF80E00ADF81000ADF8140075
:1019A0000C20ADF8120002A92046FFF747FC0121E8
:1019B0002046FFF78CFB26208DF8040003208DF8CD
:1019C00005008DF8060001208DF8070001A8FFF73B
:1019D00081F8012240F225512046FFF70AFC51E030
:1019E0002C4884424AD1FFF77FFB01210820FFF7F2
:1019F000D3F801218804FFF7AFF82015ADF81800DF
:101A000018208DF81B0003208DF81A0006A9224823
:101A1000FEF7CEFFE014ADF8180004208DF81B008F
:101A200006A91D48FEF7C4FF02950020ADF80C0082
:101A3000ADF80E00ADF81000ADF814000C20ADF8B4
:101A4000120002A92046FFF7F9FB01212046FFF70B
:101A50003EFB27208DF8040003208DF805008DF84B
:101A6000060001208DF8070001A8FFF733F80122D6
:101A700040F225512046FFF7BCFB03E007488442B3
:101A800000D000BF07B030BD003801400008014061
:101A90000044004000480040000C0140004C004061
:101AA0002DE9F04107460D461646002401F0A6FD3B
:101AB00000BF0FE040213846FFF700FB295D3846A4
:101AC000FFF72DFC00BF40213846FFF75BFB0028E5
:101AD000F9D0641CB442EDD301F0A2FDBDE8F08161
:101AE0002DE9F04102460020034604460025107807
:101AF0002D2802D010782B2804D110782D2801D160
:101B00000125521C1EE0107830281ADB1078392885
:101B100017DC0A214FF0000C1E46A6FB010804FB4F
:101B2000018103FB0C171178664684463846374618
:101B30001CEB01067841B6F1300360F10004521C41
:101B400000E000E0DFE700BF15B14FF0FF3000E03C
:101B50000120C117A0FB036701FB037100FB041107
:101B60003046BDE8F08100000FB4084B10B504A961
:101B700002AA039800F0E0F8044602A9002000F051
:101B800093FD204610BC5DF814FB0000A926000858
:101B90007CB5491E1C461546CDE90001044B6A463A
:101BA0002146284600F0DEF9009A002111707CBD24
:101BB0009326000802E008C8121F08C1002AFAD1C3
:101BC00070477047002001E001C1121F002AFBD1BD
:101BD000704700002DE9FF5FDDE90220010DDDF80F
:101BE00038B0024318D044F61050A1F2FF314143FF
:101BF0000D140F98012820D0A5EB0B00401C5FEAC4
:101C0000000A4FF00004474EDFF81C91A0465046F2
:101C100016D5CAF1000728E00F98012443A2012835
:101C200008D0002100980F9BC0E90021C0E90243C1
:101C3000BDE8FF9F6FEA0B01F4E7CBF10000DEE7A0
:101C4000074612E0F80707D0224633464046494689
:101C5000FEF732FC80468946224633461046194636
:101C6000FEF72AFC04460E467F10002FEAD1DDE97C
:101C70000201BAF1000F42464B4602DAFEF71CFCA5
:101C800001E0FEF78BFC04460E460022284BFEF7CF
:101C90000DFD03D84FF0FF30014607E00022254B31
:101CA00020463146FEF761FBFEF7E7FC102409E011
:101CB000002C0ADB0A220023FEF726FB019B3032B0
:101CC0001A55641E50EA0102F2D1641C019AC4F153
:101CD000110314440F9A012A03D0012208430DD1A5
:101CE0000AE0084304D000204FF0110B0F9080E76A
:101CF000A3EB0B056D1E0DE05B4504DD4FF000020C
:101D000005F1010504E003DA4FF00002A5F1010539
:101D1000002AECD000980F99C0E90231C0E90045D3
:101D200086E70000000024400000F03F3000000083
:101D30000000F0430000E03F2DE9FF4F8BB09A46D2
:101D40000F460446002606E025280BD052460D9982
:101D50009047641C761C20780028F5D10FB03046DF
:101D6000BDE8F08F0025A94601227D4900E005432A
:101D700014F8013F203B02FA03F00842F7D1207823
:101D80002E2817D114F8010F45F004052A280ED08B
:101D90006FF02F022078A0F1300109290AD809EB51
:101DA000890102EB410100EB0109641CF2E757F8DD
:101DB000049B641C20786C280DD004DC4C2812D0C5
:101DC0006A2811D104E074280DD07A280CD10AE0D9
:101DD00045F4001507E0617845F48015814202D191
:101DE000641C05F58015641C207869283ED006DC4B
:101DF0000028B3D063280BD0642804D136E07328C0
:101E000010D075285CD052460D999047761CA5E0FD
:101E100017F8040B8DF8000000208DF80100E8464B
:101E2000012003E057F8048B4FF0FF3069074FF0B3
:101E3000000501D40AE06D1C4D450DDA8542FADB40
:101E400018F805100029F6D106E06D1C8542FCDB70
:101E500018F805100029F8D12E4404E018F8010BF9
:101E600052460D9990476D1EF8D277E000200A90F7
:101E7000C5F302504FF00A0B02280CD001CFC11756
:101E8000021E71F100020CDA0023D0EB030063EBB9
:101E900001012D2208E0FF1D27F00707F7E80201E6
:101EA000EEE72A0504D52B228DF82420012203E039
:101EB000EA070FD02022F7E70DF12008089218E07A
:101EC00000200A90C5F302504FF00A0B022803D0FD
:101ED00001CF00210022EFE7FF1D27F00707F7E8F9
:101EE0000201F7E75A460A9BFEF70EFA303208F86D
:101EF000012D50EA0102F5D1ADEB080000F1200BF5
:101F0000680701D44FF00109D94502DDA9EB0B00A8
:101F100000E000208146002506E009A85246405D09
:101F20000D9990476D1C761C08988542F5DB04E0FE
:101F3000302052460D999047761CB9F10001A9F165
:101F40000109F5DC05E018F8010B52460D999047A0
:101F5000761CBBF10001ABF1010BF4DC641CFAE66A
:101F6000092801002DE9FF4F95B09B46894606469A
:101F700000250FE2252877D100242746F84A0121C1
:101F8000059400E0044316F8013F203B01FA03F0FA
:101F90001042F7D130782A2811D06FF02F03307813
:101FA000A0F13002092A16D8059A44F0020402EB87
:101FB000820203EB42021044761C0590EFE759F8C9
:101FC000042B0592002A03DA504244F40054059091
:101FD00044F00204761C30782E2816D116F8010F32
:101FE00044F004042A280DD06FF02F023078A0F1BD
:101FF0003003092B09D807EB870302EB4303C7180B
:10200000761CF3E759F8047B761C30786C280FD0E7
:1020100006DC4C2817D068280DD06A2814D104E0BB
:10202000742810D07A280FD10DE044F400140AE08F
:1020300044F4801401E044F440147278824202D1E6
:1020400004F58014761C761C307866280BD013DCDF
:10205000582877D009DC002875D04528F6D04628C6
:10206000F4D047281AD19DE118E0632835D06428C0
:1020700079D0652812D195E1702873D008DC6728E3
:10208000F1D069286FD06E280DD06F2806D1B5E049
:1020900073282CD0752875D0782874D05A46179993
:1020A00090476D1C75E1C4F30250022809D0032843
:1020B0000DD0D9F8001004280DD00D6009F10409E5
:1020C00067E1D9F80010EA17C1E90052F6E7D9F83C
:1020D00000100D80F2E70D70F0E719F8041B8DF881
:1020E000001000208DF80100EA46012003E059F8B5
:1020F00004AB4FF0FF3061074FF0000102D40DE058
:1021000008F101018846B9420FDA8045F8DB1AF878
:1021100008100029F4D108E008F101018846814245
:10212000FADB1AF808100029F6D105985B46A0EBF7
:10213000080721463846179A00F094FA284400EB25
:10214000080507E04DE029E10DE01AF8010B5A46B9
:1021500017999047B8F10108F7D25B4621463846F7
:10216000179A13E142E00A220092C4F302524FF0A0
:10217000000A022A08D059F804CB032A4FEAEC716E
:102180000AD00DE029E02AE009F1070121F0070259
:10219000F2E802C1914609E00FFA8CFC4FEAEC71BB
:1021A000042A03D14FFA8CFC4FEAEC71002907DABC
:1021B0000A460021DCF1000C61EB02012D2202E055
:1021C000220504D52B228DF80420012203E0E2072A
:1021D00001D02022F7E7904659E00A2102E01022C0
:1021E0000DE010214FF0000A00910BE010224FF09B
:1021F000000A44F004040827009203E008224FF08C
:10220000000A0092C4F30252022A05D059F804CB06
:102210000021032A08D009E009F1070121F0070293
:10222000F2E802C1914605E01FFA8CFC042A01D1B4
:102230000CF0FF0C4FF00008220728D5702806D0BC
:10224000009B83F0100353EA0A0305D00EE04022FE
:102250008DF80420012208E05CEA010206D0302259
:102260008DF804208DF8050002229046009B83F033
:10227000080353EA0A030AD15CEA010201D16207AA
:1022800005D530228DF804204FF001087F1E582814
:1022900004D034A003900EA802900DE036A0F9E718
:1022A00053466046009AFEF72FF884460398825CF6
:1022B0000298401E029002705CEA0100F0D1029880
:1022C00006A9081A00F1200A600702D524F4803418
:1022D00000E00127574502DDA7EB0A0000E00020DF
:1022E00000EB0A01009005984144401A0590E00374
:1022F00006D45B462146179A059800F0B3F90544C9
:10230000002706E001A85A46C05D179990476D1C4A
:102310007F1C4745F6DBE0030CD55B462146179A48
:10232000059800F09FF9054404E030205A461799BB
:1023300090476D1C0099481E00900029F5DC08E0CC
:10234000029802995A460078491C029117999047C1
:102350006D1CBAF10001AAF1010AF1DC65E100008F
:10236000092801003031323334353637383961626B
:10237000636465660000000030313233343536372F
:1023800038394142434445460000000000F058F906
:102390000544761C307800287FF4ECAD19B028464F
:1023A000BDE8F08F620700D4062709F1070222F08A
:1023B000070CFCE80223E14603F000485FEA080C42
:1023C00002D00FF2702C0DE05FEA045C02D50FF230
:1023D000682C07E05FEAC47C02D00FF2602C01E0B9
:1023E000AFF2700C4FF0FF3823F00043CDF850C02F
:1023F00065280CD006DC452809D046281DD0472882
:102400003DD13DE0662818D067287ED138E0002114
:10241000112F01DB112000E0781CCDE9000106A995
:102420000EA8FFF7D7FBDDE90F010E9A03910021FB
:10243000009207F1010A04914DE04FF0004000972F
:10244000CDE9011006A90EA8FFF7C4FBDDE90F02D4
:1024500003920E9B11990022DDF80CA000930492C8
:1024600011B9791C00EB010AB7EB0A0004D4C0F1E2
:10247000FF3007F1010A0490AAEB0700019044E045
:10248000012F00DA01270021112F01DD112000E0CA
:102490003846CDE9000106A90EA8FFF79BFBDDE950
:1024A0000F010E9A0391002104910092BA46210770
:1024B0000CD40399514500DA8A46BAF1010F05DDC3
:1024C000009AAAF10101515C302908D0B84202DA21
:1024D00010F1040F06DA0121CDE9011015E0AAF18F
:1024E0000101E9E7002805DC049901440491AAEB05
:1024F000000102E0411C514500DD8A460499401A62
:10250000401C01904FF000400290200704D4019835
:10251000504501DBCDF8048000208DF84F00029873
:102520000DF14F07B0F1004F25D02B200E900298EF
:102530004FF0020800280CDA404202902D200E9045
:1025400007E00A210298FDF7C9FE3031029007F832
:10255000011DB8F10001A8F10108F2DC0298002881
:10256000EFD1791E0E980870307800F0200040F00E
:10257000450007F8020D12A8C01B00F107081498C7
:10258000007800B1012000EB0A01019801EBE07135
:1025900005984144401A401E0590E00306D45B466E
:1025A0002146179A059800F05DF8054414980078C4
:1025B00018B15A46179990476D1CE00324D55B4625
:1025C0002146179A059800F04DF805441CE0049840
:1025D000002807DBDDE90301884203DD0098405C49
:1025E000179901E0179930205A469047049805F151
:1025F0000105401C04900198401E019004D12E203A
:102600005A46179990476D1CBAF10001AAF1010AC8
:10261000DDDC05E017F8010B5A46179990476D1C51
:10262000B8F10001A8F10108F4DC5B462146179AD5
:102630000598ABE62D0000002B00000020000000F4
:102640002DE9F041044600251E461746880404D4AF
:1026500005E039462020B0476D1C641EF9D5284698
:10266000BDE8F0812DE9F041044600251E46904664
:10267000C80301D5302700E02027880404D505E0F1
:1026800041463846B0476D1C641EF9D52846BDE862
:10269000F0814A68002A06D00A68531C0B6010704B
:1026A0004868401E486070470A68531C0B601070F1
:1026B0007047000010B50420FEF76CFB0E48006860
:1026C0000E49B0FBF1F00E4908700B4800680B4949
:1026D000B0FBF1F44FF47A7044434FF0E02000690E
:1026E00040F002004FF0E0210861084644610069B3
:1026F00040F00100086110BD2400002040420F009E
:10270000AC00002010B5044601F00AFC012803D0FB
:10271000204601F001F808E04FF47A7104FB01F063
:1027200000F022F801A0FEF755FE10BD456E74655D
:1027300072204E6F6D616C2044656C6179204D6F25
:1027400064652C2042656361757365207461736BE9
:102750005343484544554C45525F4E4F545F535484
:1027600041525445440D0A0070B5034600224FF013
:10277000E02675690D4E367803FB06F44FF0E0262F
:10278000B16910E04FF0E026B06988420BD0884272
:1027900002D20E1A324402E02E1A0E44324401468E
:1027A000A24200D300E0EDE700BF70BDAC00002006
:1027B0001CB5FFF77FFF4FF4A060FEF7C3F94FF49D
:1027C000E1310F48FFF76CF84FF4E1310D48FFF7A6
:1027D00067F84FF4E1310C48FFF762F80B490CA0A1
:1027E000FEF7F8FD0F48012100230A02CDE9001091
:1027F0000DA1104801F064FB01F09EF800201CBD03
:10280000004400400048004000380140FC420008FD
:102810002573285541525420496E6974204F4B212D
:10282000290D0A001800002073746172745F7461CE
:10283000736B0000351800082DE9F04105460E467F
:102840001C4807681C480068001D00F079FE50B95C
:102850001948006890F82C10012088401749096831
:10286000814316480160681C38B936B112480168C6
:10287000091D134800F0B6FE1AE07C190E480068E6
:102880004460BC4207D20C480168091D0D4800682D
:1028900000F08EFE0CE008480168091D0A48006837
:1028A00000F086FE09480068844201D207480460AF
:1028B000BDE8F0814C0000203800002050000020CE
:1028C0007C020020400000203C0000206800002026
:1028D00010B5044600F092FE24480068401C2349CD
:1028E00008602348006840B9214804600846006831
:1028F00001280DD100F0F2FA0AE01E48006838B94C
:102900001B480068C06AE16A884201D81848046020
:1029100019480068401C184908600846006860644F
:1029200094F82C1001208840144909680843134981
:102930000860E16A01EB8101114A02EB8100211D6F
:1029400000F050FE00F06CFE0A48006868B10848CC
:102950000068C06AE16A884207D24FF08050094996
:102960000860BFF34F8FBFF36F8F10BD480000208A
:102970003800002054000020640000205000002097
:10298000C801002004ED00E010B500F037FE10484B
:102990000068D0B90F4800F0FBFD0F4800F0F8FDCB
:1029A0000C480E4908600C480D49086000221021AF
:1029B000052001F08FF8064908600846006820B13C
:1029C00008A10348006800F06BFE00F029FE10BD6E
:1029D0008400002090020020A40200207C0000203F
:1029E00080000020546D72510000000010B516E008
:1029F00000F004FE0C48C068C468201D00F0A0FD73
:102A00000A480068401E0949086009480068401EDD
:102A10000749086000F004FE204600F0A5F80448CD
:102A200000680028E4D110BD6802002048000020A2
:102A30004400002070B504460D46206C70B1216C36
:102A4000E0680844E0606168E068884201D320687B
:102A5000E0602846226CE168FDF7D4FB70BD2DE9EB
:102A6000F04104460F4615464FF00008A66B206C57
:102A700040B9206860BB606801F0F6FA804600202B
:102A8000606025E07DB93946226CA068FDF7BAFB8D
:102A9000216CA0680844A060D4E90110884217D3D3
:102AA0002068A06014E03946226CE068FDF7AAFBBC
:102AB000216CE068401AE0602168E068884203D237
:102AC000216C6068401AE060022D01D106B1761ECB
:102AD000701CA0634046BDE8F0810000F8B50646D2
:102AE0000C4615466A4601212846FDF7A8FE074612
:102AF0000098012804D0224612A13046FDF7B8FB09
:102B00003846FEF7EDFF002358405940084302D1F4
:102B1000124908700FE03846FEF7E2FF01235840E3
:102B2000084303D101200D49087004E0224605A1A5
:102B30003046FDF79DFB062209A13046FDF7ABFBB1
:102B40000020F8BD0D0A4C6576656C206E6F742010
:102B5000737570706F7274210D0A0000B800002048
:102B60000D0A4F4B0D0A000010B50446206B00F013
:102B700067FD204600F064FD10BD00002DE9F04126
:102B800004460F469046202000F026FC054600F043
:102B900067FF064632461FA12846FEF7E5FF284696
:102BA000FDF772FB0646324629462046FDF773FBC9
:102BB0001E48006800F0D8FC064632461CA1284694
:102BC000FEF7D2FF2846FDF75FFB06463246294650
:102BD0002046FDF760FB1E48006800F0C5FC064675
:102BE00032461CA12846FEF7BFFF2846FDF74CFBE6
:102BF0000646324629462046FDF74DFB06221DA11A
:102C00002046FDF748FB284600F01AFD0020BDE8ED
:102C1000F08100000D0A4672656548656170536970
:102C20007A653A2025640D0A000000001C0000208F
:102C3000434C49205461736B4869676857617465F8
:102C4000724D61726B3A20256C640D0A0000000021
:102C5000200000204D35333130205461736B4869BA
:102C6000676857617465724D61726B3A20256C64B8
:102C70000D0A00000D0A4F4B0D0A00000146084ADC
:102C8000126812680AB9012200E000220A600A688C
:102C900022B9034A1268D268106800E00020704729
:102CA0007C0000200146002000220AE00B78202B47
:102CB00005D1012A04D0431C58B2012200E00022B1
:102CC000491C0B78002BF1D1012A01D1431E58B2C7
:102CD000704700002DE9F04105460C46174640209C
:102CE00000F07AFB064609480268436808A13046AE
:102CF000FEF73AFF224631462846FDF7B9FA30463C
:102D000000F09EFC0020BDE8F0810000B000002033
:102D10000D0A2B52756E74696D653A20256C6C64D2
:102D2000206D730D0A0D0A4F4B0D0A0030B54FF49C
:102D30002053174800F007042CB1C01D20F00700F5
:102D4000134C041B1B1B0246124C22600024114D25
:102D50006C60D018083820F007000F4C2060002469
:102D60000D4D2D686C600C4D2D682C601146441A79
:102D70004C60094C24680C60084D4C682C60084D70
:102D80004C682C604FF00044064D2C6030BD0000B4
:102D9000B80200209000002098000020A000002031
:102DA0009C000020A40000202DE9F04106460D46BD
:102DB00017460E48006810B90D480C4908600B48CA
:102DC000006800682A4641683046FDF751FA074816
:102DD00000684068054908600846006808B9002492
:102DE00000E001242046BDE8F0810000CC00002076
:102DF000BC00002000BFFFF7F9FD0648006801286D
:102E0000F9D94FF0805004490860BFF34F8FBFF3EA
:102E10006F8FF0E7C801002004ED00E02DE9F041DC
:102E200006460D4617469846069C0DB9246000E0FC
:102E30002760E66325640121204600F067FE84F8E0
:102E400050800020A064BDE8F0812DE9F05F81464C
:102E50000F4690469A460A9E0C9C4FEA8801A5228E
:102E6000206BFDF7E1F9A8F10100216B01EB800B6C
:102E70002BF0070B002507E0795D04F13400415584
:102E8000785D00B902E06D1C102DF5D300BF002164
:102E900043200155052E00D30426E662E664002097
:102EA0002065201D00F081FB04F1180000F07DFB7F
:102EB0002461C6F10500A061646200206065A06520
:102EC00084F85C0052464946584600F0EDFA20600E
:102ED0000B9808B10B980460BDE8F09F10B5002472
:102EE00007E004EB84010F4A02EB810000F050FB85
:102EF000641C052CF5D30C4800F04AFB0B4800F08D
:102F000047FB0B4800F044FB0A4800F041FB0A482D
:102F100000F03EFB0448094908600448084908607D
:102F200010BD0000C80100202C020020400200203B
:102F300054020020680200207C0200203C00002097
:102F40004000002010B50146164800E00068036804
:102F50008B42FBD30246436813448B4204D143683F
:102F60004C682344436001460A464B681344046896
:102F7000A34211D10C4C03682468A34208D04B68CB
:102F80000468646823444B6003681B680B6005E0B9
:102F9000054B1B680B6001E003680B60884200D0A2
:102FA000016010BD90000020980000202DE9F04144
:102FB00004460D4616461F464FF000086560246122
:102FC000B5420CD8F01BA169884202D34FF001082A
:102FD00011E0211D0948006800F0EAFA0BE0BE424A
:102FE00004D2BD4202D34FF0010804E0211D044881
:102FF000006800F0DDFA4046BDE8F0818000002066
:103000007C00002070B5054600F0F8FAA86B08B9FE
:10301000012400E0002400F003FB204670BD70B5E1
:10302000054600F0EBFAA86BE96B884201D1012458
:1030300000E0002400F0F4FA204670BD2DE9F341D1
:103040000D460098846C0027A06BE16B88421BD270
:1030500094F945602A4669462046FFF700FD074679
:10306000701C60B9606A08B9012000E0002050B906
:1030700004F1240001F03AF828B1012703E0701CA4
:1030800040B284F8450000BF3846BDE8FC8100002E
:10309000F8B505460E4610480068C068C468201D93
:1030A00000F04EFAE069012811D1A06941192B46C0
:1030B00032462046FFF77AFF48B1002003462A46F1
:1030C00001460090204601F0E3F8074600BF204685
:1030D000616A8847F8BD00007C000020F0B587B029
:1030E00056E00398002805DA04AED6E90020B1685E
:1030F000904700BF039800284ADB059C606908B927
:10310000012000E0002010B9201D00F019FA02A8EB
:1031100000F09EF8054603980A2837D2DFE800F051
:103120000905072527320608262800BF00BF00BF73
:1031300000BF0498A269811803462A462046FFF77B
:1031400035FF88B12046616A8847E06901280BD1C4
:10315000002000900498A1694218002319462046D7
:1031600001F096F8074600BF11E000BF0FE000BF76
:103170000498A061A06941192B462A462046FFF712
:1031800015FF04E0204600F05BFA00E000BF00BF3E
:10319000002203A90348006800F0E2FD0028A0D146
:1031A00007B0F0BD84000020F8B505460C4600F0DD
:1031B000FDFB684600F04CF80646009820BB44B979
:1031C000B54206D800F0D2FF31462846FFF760FF2F
:1031D0001CE03CB10E480068006808B9012000E01E
:1031E00000200446A91B22460A48006800F06EFA37
:1031F00000F0BCFF50B94FF0805007490860BFF3A2
:103200004F8FBFF36F8F01E000F0B0FFF8BD0000FB
:10321000800000208400002004ED00E00A490968D5
:10322000096809B9012100E0002121B14FF0FF3107
:10323000064A116006E004490968C968C868034A7B
:1032400041681160704700003C00002068000020C9
:1032500070B5044600F074FE0546074800688542D4
:1032600004D200F00BF80120206001E00020206073
:1032700001480560284670BD8C0000202DE9F84308
:1032800026E01D480068C06805681B480068C068E3
:10329000C468201D00F054F92046616A8847E0693F
:1032A000012815D1A0694619AE4207D9666024618C
:1032B000211D1148006800F07BF909E00020034659
:1032C0002A4601460090204600F0E2FF804600BFFB
:1032D00009480068006808B9012000E000200028C3
:1032E000CFD00548076805480068034908600348CF
:1032F0000760BDE8F88300007C000020800000200B
:103300000246002101E0521C491C1078A528FAD081
:10331000890888B2704700BFBF2080F31188BFF3CF
:103320004F8FBFF36F8F00BF00BFFEE708B500BF30
:103330006846FFF7A3FC044620460099FFF734FFD8
:10334000FFF7CCFEF4E770B5044600F057F994F9A6
:1033500045501AE0A06C38B100212046FFF76EFE00
:1033600088B100F065FA0EE0606A08B9012000E05B
:10337000002038B904F1240000F0B8FE18B100F0C4
:1033800057FA00E003E0681E45B2002DE2DC00BF02
:10339000FF2084F8450000F043F900F02FF994F97C
:1033A000445010E0206908B9012000E0002048B92D
:1033B00004F1100000F09AFE08B100F039FA681E1E
:1033C00045B200E001E0002DECDC00BFFF2084F8F6
:1033D000440000F025F970BD2DE9F04105464FF09D
:1033E000000800F0E3FA2B48006808B9FFF79EFCDC
:1033F000294800682840002847D145B1083505F024
:10340000070020B105F00700C0F108000544002DB9
:103410003BD022480068854237D8214E30460468A8
:1034200001E0264624686068A84202D2206800288D
:10343000F7D118480068844227D0306800F10808A6
:10344000206830606068401B102807D967196068E1
:10345000401B786065603846FFF774FD0F4960686F
:103460000968081A0D490860084600680D4909688E
:10347000884203D2094800680A4908600649606822
:103480000968084360600020206000F06FFE40463D
:10349000BDE8F08198000020A40000209C000020DE
:1034A00090000020A0000020001F4FF080730360F8
:1034B000001F21F001030360001F034B0360143859
:1034C00002602038704700001733000870B50646C8
:1034D0000D4600F093F818480068806D88B9012007
:1034E0001549096881F85C005DB101212846FFF7A4
:1034F000A3F94FF0805011490860BFF34F8FBFF31D
:103500006F8F00F08DF800F079F80B480068846D3B
:103510004CB126B1002008490968886503E0601EA7
:1035200005490968886500200349096881F85C003D
:1035300000F076F8204670BD3800002004ED00E071
:1035400001460A69D1E901309860D1E90103586068
:103550005068884201D18868506000200861106876
:10356000401E1060106870472DE9F041044614B900
:103570000648006800E0204607463D6B2846FFF7F6
:10358000BFFE06463046BDE8F0810000380000204E
:1035900000F1080141604FF0FF31816000F1080146
:1035A000C160016100210160704700210161704725
:1035B00010B502460B685C1C0CB9106907E002F1FB
:1035C000080000E04068446824689C42FAD94468D6
:1035D0004C604C68A160886041600A611468641C9A
:1035E000146010BD42684A6093688B6093685960AC
:1035F0009160086103685B1C0360704700BFBF20D7
:1036000080F31188BFF34F8FBFF36F8F00BF034864
:103610000068401C0149086070470000A8000020B5
:1036200006480068401E054908600846006820B941
:10363000002080F3118800BF00BF7047A800002061
:1036400070B506463546D6B1083D2C460C49606833
:103650000968084098B1206888B909496068096814
:103660008843606000F0A2F9064960680968084470
:10367000044908602046FFF765FC00F077FD70BD47
:10368000A40000209C00002000204FF0E0210861F1
:103690008861024848610720086170473F190100AE
:1036A000024600200BE0084B53F8303033B9064B8C
:1036B00043F8301003EBC0035A6002E0401C0828B6
:1036C000F1D300BF70470000880100202DE9F041D0
:1036D00005460E4617462C46FFF790FF94F9440026
:1036E000401C10B9002084F8440094F94500401CA7
:1036F00010B9002084F84500FFF792FFA06B28B9AD
:103700003A46314604F1240000F002F92046FFF762
:103710001AFEBDE8F081000070B50446002544B1F2
:1037200000F044F900212046FFF786F800F01EFD66
:1037300005463DB94FF0805003490860BFF34F8FF5
:10374000BFF36F8F70BD000004ED00E070B505465B
:10375000FFF754FF15B92748006800E028460446E3
:10376000201DFFF7EDFE78B9E06A00EB80002249EA
:1037700051F8200040B994F82C10012088401F49CE
:10378000096881431D480160A06A18B104F118005E
:10379000FFF7D6FE1A480068401C19490860154812
:1037A0000068844209D1211D1648FFF71BFF164807
:1037B0000068401C1449086009E014480068401E75
:1037C000124908602046FFF7CFF9FFF727FDFFF702
:1037D00027FF0F48006858B106480068844207D1A7
:1037E0004FF080500B490860BFF34F8FBFF36F8FCE
:1037F00070BD000038000020C801002050000020EB
:1038000064000020680200204400002048000020DE
:103810005400002004ED00E00349096801600349F9
:103820000968416070470000600000204C000020E3
:1038300001200149086070475C0000202DE9F0413B
:1038400005460E462C4600BFBF21EFF3118081F3E1
:103850001188BFF34F8FBFF36F8F00BF074694F8F7
:103860005C80022084F85C00A06D401CA065B8F16B
:10387000010F2AD118480068A8B9201DFFF760FE83
:1038800094F82C1001208840144909680843134912
:103890000860E16A01EB8101114A02EB8100211D00
:1038A000FFF7A0FE04E004F118010E48FFF79AFEAE
:1038B0000D49E06A0968C96A884206D916B1012033
:1038C000306002E001200949086000BF87F31188D9
:1038D00000BFBDE8F0810000700000205000002013
:1038E000C801002054020020380000205C000020A5
:1038F00070B505460C460548016818312846FFF7A3
:1039000057FE01212046FEF797FF70BD38000020CA
:1039100070B506460D461446064801681831304613
:10392000FFF760FE0CB14FF0FF3521462846FEF749
:1039300083FF70BD380000201CB5154800210B46E0
:103940008022CDE9001013A1144800F0B9FA044612
:10395000012C02D100F07EFC0446012C16D100BFE0
:10396000BF2080F31188BFF34F8FBFF36F8F00BF6D
:103970004FF0FF300A49086001200A490860002022
:1039800009490860FCF74CFF00F070F81CBD00000E
:103990006C00002049444C4500000000F52D000853
:1039A00068000020540000204C00002002480068FD
:1039B000401C0149086070477000002020480068E2
:1039C00018B101201F49086038E000201D49086037
:1039D0001D49086849681D490860084600681C4977
:1039E000096888420BD91B49096801F15400496DE7
:1039F000164A1268164B1B68D21A1144016013480C
:103A000000681349086014480068B0FA80F0C0F1FB
:103A10001F0101EB8102114B03EB820042685268E7
:103A2000426000F108024368934202D14268526842
:103A300042604268D268074B1A6000BF70470000BE
:103A4000700000205C000020B00000207800002002
:103A5000740000203800002050000020C801002021
:103A600001480068704700009C00002010B50A481B
:103A7000006840F47F00084908600846006840F08C
:103A80007F400860FFF700FE002004490860FCF753
:103A90006DFB002010BD000020ED00E0A80000201C
:103AA00010B500BFBF2080F31188BFF34F8FBFF365
:103AB0006F8F00BF00F04AFA18B14FF080500449F0
:103AC000086000BF002080F3118800BF10BD000017
:103AD00004ED00E02DE9F84307460D4690460DB988
:103AE000002601E007FB05F606F15400FFF774FC21
:103AF000044644B104F1540943464A46294638462F
:103B00000094FFF78BF92046BDE8F88370B50546B1
:103B10000E462C46FFF772FDD4E90F12206801FB18
:103B2000020060600020A0632068A060E06B401E7F
:103B3000226C216800FB0210E060FF2084F8440042
:103B400084F845009EB9206908B9012000E00020F2
:103B5000A8B904F1100000F0C9FA80B14FF080500C
:103B600009490860BFF34F8FBFF36F8F07E004F17F
:103B70001000FFF70DFD04F12400FFF709FDFFF72A
:103B80004FFD012070BD000004ED00E02DE9FF4372
:103B900083B0074688461D464FF000093C4600BFEB
:103BA000FFF72CFDA06BE16B884201D3022D38D1C9
:103BB0002A4641462046FEF752FF0646A06C68B1F1
:103BC00029462046FFF73AFA28B34FF080503C4987
:103BD0000860BFF34F8FBFF36F8F1CE0606A08B9B6
:103BE000012000E0002068B904F1240000F07EFA12
:103BF00088B14FF0805032490860BFF34F8FBFF358
:103C00006F8F08E03EB14FF080502D490860BFF340
:103C10004F8FBFF36F8FFFF703FD012007B0BDE8A3
:103C2000F083059818B9FFF7FBFC0020F6E7B9F11F
:103C3000000F04D101A8FFF7EFFD4FF00109FFF7D6
:103C4000EFFCFFF7B3FEFFF7D9FC94F94400401CEA
:103C500010B9002084F8440094F94500401C10B9C4
:103C6000002084F84500FFF7DBFC05A901A800F05F
:103C7000F9F8F0B92046FFF7D2F9A0B104F110002D
:103C80000599FFF735FE2046FFF75DFB00F06EFA61
:103C9000002885D14FF0805009490860BFF34F8F4D
:103CA000BFF36F8F7CE72046FFF74DFB00F05EFA15
:103CB00076E72046FFF747FB00F058FA0020ADE713
:103CC00004ED00E02DE9F05F06468A4615461F46E2
:103CD000344600BFBF21EFF3118081F31188BFF399
:103CE0004F8FBFF36F8F00BF8146A06BE16B88429F
:103CF00001D3022F2BD194F945B03A4651462046C4
:103D0000FEF7ADFE0BF10100C8B9A06C40B1394619
:103D10002046FFF793F9B8B1B5B10120286013E050
:103D2000606A08B9012000E0002068B904F12400AD
:103D300000F0DCF940B13DB10120286004E00BF156
:103D4000010040B284F845004FF0010801E04FF057
:103D5000000800BF89F3118800BF4046BDE8F09F0E
:103D60002DE9F74183B005460F464FF000082C4679
:103D700000BFFFF743FCA66BF6B139462046FEF7BD
:103D800059FE701EA063206908B9012000E00020E0
:103D900060B904F1100000F0A9F938B14FF080507B
:103DA0002F490860BFF34F8FBFF36F8FFFF738FCC9
:103DB000012006B0BDE8F081059818B9FFF730FC86
:103DC0000020F6E7B8F1000F04D101A8FFF724FDA9
:103DD0004FF00108FFF724FCFFF7E8FDFFF70EFCAA
:103DE00094F94400401C10B9002084F8440094F970
:103DF0004500401C10B9002084F84500FFF710FC76
:103E000005A901A800F02EF8F0B92046FFF7FAF84E
:103E1000A0B104F124000599FFF76AFD2046FFF7E1
:103E200092FA00F0A3F90028A3D14FF080500C497A
:103E30000860BFF34F8FBFF36F8F9AE72046FFF7FD
:103E400082FA00F093F994E72046FFF77CFA00F03D
:103E50008DF92046FFF7D6F800288AD00020A8E781
:103E600004ED00E070B506460C46FFF7C7FB1248AC
:103E700002687068131A2068401C08B9002517E012
:103E80000E4930680968884204D07068904201D8B1
:103E900001250DE02068984207D92068C01A2060EB
:103EA0003046FFF7B9FC002502E000202060012524
:103EB000FFF7B6FB284670BD4C00002060000020D4
:103EC0002DE9FF4F85B0804689461746DDE912ABE4
:103ED000B800FFF781FA064656B16020FFF77CFA7A
:103EE00004460CB1266304E03046FFF7A9FB00E06E
:103EF00000247CB10020CDE900ABCDE902403A4678
:103F000049464046089BFEF7A0FF2046FEF7E0FC2E
:103F1000012501E04FF0FF35284609B0BDE8F08FDC
:103F20000549096809B9012005E00449096809B98A
:103F3000022000E0002070475400002070000020A4
:103F400001490868704700004C0000202DE9F0414D
:103F500000273A480068002863D139480068451CAA
:103F6000374805608DB93748D0F80080364800687A
:103F7000344908603448C0F8008034480068401C68
:103F800032490860FFF74AF900BF314800688542AE
:103F90003BD300BF2B480068006808B9012000E04F
:103FA000002020B14FF0FF30294908602CE025485F
:103FB0000068C068C4686668B54202D224480660DA
:103FC00022E0201DFFF7BCFAA06A18B104F1180026
:103FD000FFF7B6FA94F82C10012088401D490968B3
:103FE00008431C490860E16A01EB81011A4A02EBAF
:103FF0008100211DFFF7F6FA1849E06A0968C96ACD
:104000008842C7D30127C5E700BF14480068C06ACB
:1040100000EB8000104951F82000012800D9012749
:1040200004E00F480068401C0D4908600D48006816
:1040300000B101273846BDE8F08100007000002083
:104040004C0000203C0000204000002060000020C8
:104050006800002050000020C80100203800002027
:10406000580000205C00002070B505462C46002654
:10407000ADB3206D401E2065E16CE06A88422ED011
:10408000206D60BB201DFFF75BFA78B9E06A00EB9A
:104090008000144951F8200040B994F82C100120F8
:1040A00088401149096881430F480160E06CE06273
:1040B000E06AC0F10500A06194F82C10012088404E
:1040C00009490968084308490860E16A01EB810170
:1040D000044A02EB8100211DFFF784FA01263046D5
:1040E00070BD0000C80100205000002070B50646D9
:1040F000F068C46804F11800FFF722FA1548006858
:10410000A8B9201DFFF71CFA94F82C100120884054
:1041100011490968084310490860E16A01EB81010F
:104120000E4A02EB8100211DFFF75CFA04E004F166
:1041300018010B48FFF756FA0A49E06A0968C96A8C
:10414000884204D9012501200749086000E00025C4
:10415000284670BD7000002050000020C8010020DB
:1041600054020020380000205C00002070B50024BC
:104170000026FFF743FA2E480068401E2C490860CD
:104180000846006800284FD12A48006800284BD014
:1041900024E02948C068C46804F11800FFF7D0F98A
:1041A000201DFFF7CDF994F82C10012088402349F9
:1041B0000968084321490860E16A01EB8101204A4E
:1041C00002EB8100211DFFF70DFA1E49E06A096824
:1041D000C96A884202D301201B490860164800685A
:1041E00008B9012000E000200028D2D00CB1FFF770
:1041F00015F81648056865B100BFFFF7A7FE10B1B6
:104200000120114908606D1E002DF6D100200F49D4
:1042100008600D48006838B1012630070C49086075
:10422000BFF34F8FBFF36F8FFFF7FAF9304670BDC2
:1042300070000020480000205402002050000020A0
:10424000C8010020380000205C0000205800002039
:1042500004ED00E01CB50024FEF796FB074800685B
:1042600050B10748042100238A01CDE9001005A1BF
:104270000648FFF725FE044620461CBD84000020AA
:1042800088000020546D7220537663002D3300089F
:104290002DE9FF4705460C4616461F46DDF83080DF
:1042A0004FF000091448006810B30094019602957D
:1042B000062C15DAFFF734FE022808D10023424607
:1042C00069460D480068FFF761FC814610E0002355
:1042D0001A46694608480068FFF758FC814607E01F
:1042E00000233A46694604480068FFF7EBFC814624
:1042F000484604B0BDE8F087840000206D61696E17
:1043000000000000F8440008C8440008A92D000877
:10431000000000005F434D494F545F4D353331304D
:104320005F476574526567697374657254696D653A
:10433000000000004D353331300D0A4F4B0D0A009F
:10434000000000000000000000000000000000006D
:104350000000000000000000000000002B43474167
:1043600054543A300000000000000000000000003B
:104370002B43474154543A31000000000000000034
:10438000000000005F434D494F545F4578656375F9
:1043900074654174436D64005F434D494F545F4DF4
:1043A000353331305F4765745369676E616C737480
:1043B00072656E67746800000D0A4F4B0D0A0000AD
:1043C0000000000000000000000000000D0A45523F
:1043D000524F520D0A0000000000000000000000D3
:1043E0005F434D494F545F4D353331305F476574FE
:1043F00055655374617465000D0A4F4B0D0A00003A
:104400000000000000000000000000000D0A4552FE
:10441000524F520D0A000000000000000000000092
:10442000496E636F727265637420636F6D6D616E48
:104430006420706172616D657465722873292E2025
:1044400020456E746572202268656C702220746F3E
:1044500020766965772061206C697374206F66200F
:10446000617661696C61626C6520636F6D6D616E10
:1044700064732E0D0A0D0A00436F6D6D616E64202A
:104480006E6F74207265636F676E697365642E204A
:1044900020456E746572202768656C702720746FE4
:1044A00020766965772061206C697374206F6620BF
:1044B000617661696C61626C6520636F6D6D616EC0
:1044C00064732E0D0A0D0A000D0A68656C703A0DB2
:1044D0000A204C6973747320616C6C2074686520C9
:1044E0007265676973746572656420636F6D6D6171
:1044F0006E64730D0A0D0A0068656C7000000000A0
:1045000061742B67657473797374696D652C2067AA
:1045100065742073797374656D2072756E2074698B
:104520006D65286D73290D0A0000000064656275D1
:10453000676C6576656C203C6C6576656C3E2C20FE
:104540006C6576656C2063616E2062653A20302070
:104550006F7220310D0A000061742B676574686505
:10456000617075736167652C20676574207379735A
:1045700074656D20746F74616C2066726565206867
:1045800065617020616E64207461736B2073746167
:10459000636B4869676857617465724D61726B0D32
:1045A0000A00000061742B6765746865617075733B
:1045B0006167650061742B67657473797374696DE5
:1045C0006500000061742B64656275676C657665D3
:1045D0006C000000F4450008000000200401000009
:1045E000B41B0008F846000804010020342E000027
:1045F000C41B0008000000000102030401020304C0
:104600000607080902040608000000000000000078
:10461000000000000000000000A24A0400000000AA
:104620000000000001020304060708090000000062
:10463000000000000000000000000000000000007A
:10464000000000000000000000000000000000006A
:10465000000000000000000000000000000000005A
:10466000000000000000000000000000000000004A
:10467000000000000000000000000000000000003A
:10468000000000000000000000000000000000002A
:10469000000000000000000000000000AAAAAAAA72
:1046A0000000000000000000000000000100000009
:1046B0000443000800000000BC00002000000000CF
:1046C00000000000C44500082C450008DD2A000851
:1046D00001000000B445000800450008D52C000882
:1046E00000000000A4450008584500087D2B000884
:0846F0000000000000000000C2
:0400000508000131BD
:00000001FF
