:020000040800F2
:1000000048610020DD0100086329000893140008FE
:100010005F290008E50C0008A3320008000000007A
:100020000000000000000000000000004501000882
:10003000250D00080000000089010008C12C0008FF
:10004000F7010008F7010008F7010008F7010008B0
:10005000F7010008F7010008F7010008F7010008A0
:10006000410E0008E50E0008790F0008F7010008AE
:10007000F7010008F7010008F7010008F701000880
:10008000F7010008F7010008F7010008F701000870
:10009000F7010008F7010008F7010008F701000860
:1000A000F7010008F7010008F7010008F701000850
:1000B000F7010008312D0008F7010008F7010008DA
:1000C000F7010008F7010008F7010008F701000830
:1000D000F7010008BD2E0008052F0008992F000821
:1000E000290D0008F7010008F7010008F7010008D2
:1000F000F7010008F7010008F7010008F701000800
:10010000F7010008F7010008F7010008F7010008EF
:10011000F7010008F7010008F7010008F7010008DF
:10012000F7010008F7010008F7010008F7010008CF
:10013000DFF80CD000F05EFC00480047D1810008D9
:1001400048610020224B19680868B0E8F00F80F37E
:100150000988BFF36F8F4FF0000080F311884EF0D5
:100160000D0E70470000000006480068006880F32C
:10017000088862B661B6BFF34F8FBFF36F8F00DFA1
:1001800000BF00BF08ED00E0EFF30980BFF36F8F01
:100190000F4B1A6820E9F00F106008B54FF0BF0050
:1001A00080F31188BFF34F8FBFF36F8F09F08CFA84
:1001B0004FF0000080F31188BDE808401968086816
:1001C000B0E8F00F80F30988BFF36F8F704700BF6E
:1001D00048000020EFF30580704700000648804784
:1001E00006480047FEE7FEE7FEE7FEE7FEE7FEE71C
:1001F000FEE7FEE7FEE7FEE7D12C0008310100082C
:1002000040EA01039B0703D009E008C9121F08C098
:10021000042AFAD203E011F8013B00F8013B521E18
:10022000F9D27047D2B201E000F8012B491EFBD28F
:1002300070470022F6E710B513460A4604461946F1
:10024000FFF7F0FF204610BD421E12F8013F002BC1
:10025000FBD111F8013B02F8013B002BF9D17047AB
:1002600030B505462A460B4612F8010B13F8014B30
:1002700008B1A042F8D01CB1002802D06D1CF1E7F3
:10028000284630BD10B5044604E00B7800F8013B69
:1002900003B1491C521EF8D2204610BD421C10F872
:1002A000011B0029FBD1801A704710B5044600E0FD
:1002B000401C0378002BFBD100E0401C521E04D3ED
:1002C00011F8013B0370002BF7D10021017020468B
:1002D00010BD30B505460020034600E05B1C93428C
:1002E00005D2EC5CC85C201A01D1002CF6D130BDDF
:1002F00080EA010210B502F00043400022D04A001B
:100300001FD0010E01EB1261C0F35600C2F356027A
:1003100040F4000042F40002A0FB022000047F39F8
:10032000140400D0401C50EA124001D44000491E81
:10033000C2B20C0604EBD010401C4008802A02D048
:1003400003E0002010BD20F00100002900DA0020A9
:10035000184310BD30B480EA010202F0004530F0CD
:10036000004221F0004013D090B1C30DD40DC2F370
:100370001601C0F31600E41A41F4000140F4000233
:100380007D34914201D3641C00E04900002C02DA64
:1003900030BC002070474FF400000023914201D38D
:1003A000891A034340084FEA4101F7D151B1914204
:1003B00002D14FF0004105E002D24FF0010101E00F
:1003C0006FF0010103EBC450284430BC00F0DEB9EB
:1003D0002DE9FE4F804681EA0300C00F0C460090D5
:1003E00021F0004123F00045B8EB0200A94105D2FD
:1003F0004046214690461C460B46024623F00040EC
:10040000104347D0270DC7F30A00C3F30A510290E7
:10041000401A019040286BDAC3F3130040F4801BAC
:100420000098924620B10023D2EB030A63EB0B0B3A
:1004300001985946C0F14002504600F076F9064650
:100440000D4650465946019A00F08EF910EB08000F
:100450006141002487EA115284EAE7731A4340D0CD
:10046000009A62B3019A012A4FEA075215DC001B79
:1004700061EB02014FF0004202EA0752CDE900426F
:10048000001C41F5801132462B4600F0C5F903B03F
:10049000BDE8F08F40462146F9E7001B61EB020101
:1004A000001C41F5801300185B412018A2F50017CD
:1004B00047EB030140EAD570B6196D4111E06D08B4
:1004C0004FEA360645EAC0754FEA0752001B61EB5A
:1004D0000201001C41F5801149084FEA3000001963
:1004E000514132462B4603B0BDE8F04F00F085B9CC
:1004F0000098012240000023D0EB020263EBE0737E
:10050000009821464FEAE074B8EB000061EB04016B
:10051000E9E783F000435BE781F0004158E72DE90C
:10052000FE4F81EA030404F0004421F000410094EE
:100530004FF0000B23F0004350EA01045ED052EA72
:1005400003045BD0C3F30A54C1F30A552C44A4F24C
:10055000F3340194A0FB0254C1F3130141F4801160
:10056000C3F3130343F4801301FB024400FB034E67
:10057000840A970A44EA815447EA8357A4FB076830
:1005800002958D0A05FB07854FEA932C04FB0C545A
:100590002705029D4FEA065847EA1637B5EB0805CE
:1005A0006EEB070C870E920E47EA811742EA831220
:1005B000A7FB0201B6EB0B0164EB00042B0D43EA31
:1005C0000C335E1844EB1C50DA465146E7FB02013F
:1005D000C5F313044FEA0B3343EA14534FEA0432D2
:1005E000019C43EA0603A4F10C040294009CCDE9AB
:1005F00000B400F011F903B0BDE8F08F002001460F
:10060000F9E796230022114600F0C9B8C1F30A5257
:1006100010B5C1F3130140F2FF3341F480119A4247
:1006200001DA002010BD40F233439A42A2F2334275
:1006300003DC524200F088F810BD904010BD00F07D
:10064000004230F000400AD0C10D01F56071C0F3E6
:10065000160042EA0151C2084007114370470020CA
:100660000146704701F0004330B421F0004150EAE8
:10067000010206D00A0DA2F56072C1F31301002A2F
:1006800002DC30BC00207047440F44EAC104C100C2
:10069000E01830BC00EBC25000F078B830B50B4623
:1006A000014600202022012409E021FA02F59D42A2
:1006B00005D303FA02F5491B04FA02F52844151E76
:1006C000A2F10102F1DC30BD2DE9F05F054600200A
:1006D00092469B4688460646814640241BE02846B3
:1006E00041464746224600F02FF853465A46C01A64
:1006F000914110D311461846224600F016F82D1AE3
:1007000067EB01084F4622460120002100F00DF85A
:1007100017EB00094E41201EA4F10104DFDC48461E
:1007200031462A464346BDE8F09F202A04DB203AA2
:1007300000FA02F1002070479140C2F1200320FA34
:1007400003F3194390407047202A04DB203A21FA32
:1007500002F00021704721FA02F3D040C2F12002DA
:100760009140084319467047202A06DBCB17203AF0
:1007700041FA02F043EAE07306E041FA02F3D040A6
:10078000C2F1200291400843194670470029A8BFD2
:100790007047401C490008BF20F00100704710B4AA
:1007A000B0FA80FC00FA0CF050EA010404BF10BC5F
:1007B000704749B1CCF1200421FA04F411FA0CF18C
:1007C00018BF012121430843A3EB0C01CB1D4FEAC5
:1007D00000614FEA102042BF002010BC704700EBC0
:1007E000C35010440029A4BF10BC7047401C4900EE
:1007F00008BF20F0010010BC704710B5141E73F143
:10080000000408DA401C41F1000192185B411A43D0
:1008100001D120F0010010BD2DE9F04D92469B461C
:1008200011B1B1FA81F202E0B0FA80F220329046C2
:10083000FFF77BFF04460F4640EA0A0041EA0B013E
:1008400053465A46084313D0114653EA010019D0C3
:10085000C8F140025046FFF777FF05460E46504666
:1008600059464246FFF761FF084305D0012004E0E6
:1008700020463946BDE8F08D0020054346EAE07683
:100880002C4337430A986305E40AA0EB08000022D2
:10089000FD0A44EA47540A3002D500200146E9E740
:1008A000010510196941DDE9084500196941BDE8F4
:1008B000F04DA2E72DE9F04D81EA030404F0004B6E
:1008C00021F0004514464FF0000A23F0004150EAA1
:1008D000050220D054EA01021DD0C5F30A57024692
:1008E000C5F31303C1F31300C1F30A5640F4801596
:1008F00043F48013A7EB0608101BD64608F2FD3818
:1009000073EB050002D308F1010801E092185B4186
:10091000B8F1000F03DA00200146BDE8F08D002099
:100920004FF48011064684460EE0171B73EB050753
:1009300005D3121B63EB050306434CEA010C49087F
:100940004FEA300092185B4150EA0107EDD152EABC
:10095000030012D082EA040083EA0501084305D0AF
:10096000101BAB4106D20122002306E000224FF00B
:10097000004302E06FF0010253101AEB06004CEB4B
:10098000085110EB0A0041EB0B01BDE8F04DFFF7F9
:1009900034BFC1F30A52C1F3130140F2FF3341F4F3
:1009A00080119A4202DA00200146704740F2334338
:1009B0009A42A2F2334202DC5242FFF7C5BEFFF771
:1009C000B4BE000030B5041E71F1000404DB4FF02A
:1009D0000044404264EB0101141E73F1000405DB86
:1009E0001C464FF00043524263EB0403994208BF98
:1009F000904230BD064C074D06E0E06840F0010330
:100A000094E8070098471034AC42F6D3FFF794FB04
:100A10005CE501087CE5010870B58C1810F8015BF5
:100A200015F0070301D110F8013B2A1106D110F887
:100A3000012B03E010F8016B01F8016B5B1EF9D18B
:100A40002B0705D40023521E0DD401F8013BFAE711
:100A500010F8013BCB1A921C03E013F8015B01F87C
:100A6000015B521EF9D5A142D8D3002070BD21B13F
:100A7000826842F00102826003E0826822F0010293
:100A80008260704710B504461248844208D10121A3
:100A9000401501F0E5FF0021601501F0E1FF17E0CE
:100AA0000D48844208D10121001501F0D9FF002131
:100AB000201501F0D5FF0BE00848844208D1012140
:100AC000C80301F0CDFF00214FF4004001F0C8FF42
:100AD00010BD00000024014000280140003C0140FE
:100AE000014600208A6802F004020AB1012000E0F9
:100AF000002070470146C86C80B270470246002053
:100B000013680B400BB1012000E000207047014644
:100B100000208A6802F008020AB1012000E00020EB
:100B20007047000030B502460020002350680F4C8B
:100B300020400D790C6844EA0524204350609068F9
:100B40000B4C2040D1E902542C434D7944EA450432
:100B500020439060D06A20F470000C7C641EE4B2E4
:100B6000234340EA0350D06230BD0000FFFEF0FF97
:100B7000FDF7F1FFF0B504460D4600200021092DD8
:100B800011DDE068A5F10A0606EB4607072606FA1E
:100B900007F18843A5F10A0606EB460603FA06F1BB
:100BA0000843E0600CE0206905EB4507072606FADC
:100BB00007F1884305EB450603FA06F10843206177
:100BC000072A0FDA606B561E06EB86071F2606FA09
:100BD00007F18843561E06EB860605FA06F1084320
:100BE000606322E00D2A0FDA206BD61F06EB860722
:100BF0001F2606FA07F18843D61F06EB860605FA7C
:100C000006F10843206310E0E06AA2F10D0606EB4E
:100C100086071F2606FA07F18843A2F10D0606EBA8
:100C2000860605FA06F10843E062F0BD816841F0EE
:100C300008018160704721B1826842F4A00282609D
:100C400003E0826822F4A00282607047816841F06C
:100C5000040181607047000000B587B001214FF4A6
:100C6000017001F0EDFE4FF4004001F0BDFE0220E6
:100C7000ADF8040000208DF8070001A9174800F026
:100C800001FB1748FFF7FEFE002002908DF80C00D4
:100C90008DF80D004FF46020049000200590012095
:100CA0008DF8180002A90E48FFF73CFF01210C48FF
:100CB000FFF7DDFE0A48FFF7B9FF00BF0848FFF75E
:100CC00026FF0028FAD10648FFF7C0FF00BF0448FE
:100CD000FFF706FF0028FAD107B000BD0008014069
:100CE0000024014000BFFEE710B50021044A116056
:100CF0005160472140F2E73002F034F810BD0000A7
:100D0000C000002029B1064A52680243044B5A60D1
:100D100004E0034A52688243014B5A607047000066
:100D2000002004E07047000008B54FF4805000F048
:100D300073F9002826D0294929A002F0E3FD0A20F2
:100D400007F0A2F92E480068C0B92E484078022862
:100D500008DA2C480078022804DA2A480078401C77
:100D6000284908700320274948711C4926A002F031
:100D7000C9FD69462948006808F0E6FB4FF4805039
:100D800000F044F94FF4006000F046F9002824D048
:100D9000124923A002F0B6FD0A2007F075F91848A1
:100DA000001F0068A8B91748007918B90120154933
:100DB000087102E0002013490871042011494871AC
:100DC000064911A002F09EFD69461448006808F02B
:100DD000BBFB4FF4006000F019F908BD5FE20108A9
:100DE0002573284B45595F52494748542050726536
:100DF0007373656420446F776E290D0A000000004C
:100E0000300122422C00002025732873656E645443
:100E100061736B4D7367290D0A00000020000020EC
:100E20002573284B45595F454E54455220507265F5
:100E30007373656420446F776E290D0A000000000B
:100E400008B5042000F0E8F800B908BD154916A05F
:100E500002F058FD0A2007F017F91A480068D8B9BF
:100E600019484078012806DB17484078012807D147
:100E70001548007820B914484078401C1249487041
:100E8000012011494871074910A002F03BFD694655
:100E90001348006808F058FB042000F0B7F800BFC2
:100EA000D3E700002CE201082573284B45595F4425
:100EB0004F574E205072657373656420446F776E90
:100EC000290D0A00088122422C0000202573287376
:100ED000656E645461736B4D7367290D0A000000E1
:100EE0002000002008B5082000F096F800B908BDE1
:100EF0000A2007F0C9F810480068C0B90F4910A0CF
:100F000002F000FD15484078002804DD13484078C1
:100F1000401E12494870002010494871074910A02E
:100F200002F0F0FC69461348006808F00DFB082049
:100F300000F06CF800BFDAE70C8121423DE20108C5
:100F40002573284B45595F55502050726573736562
:100F50006420446F776E290D0A0000002C000020E9
:100F600025732873656E645461736B4D7367290D27
:100F70000A0000002000002008B5102000F04CF806
:100F800000B908BD114912A002F0BCFC0A2007F00C
:100F90007BF816480068A0B915480078002804DDE1
:100FA00013480078401E1249087002201049487109
:100FB000064910A002F0A6FC69461348006808F034
:100FC000C3FA102000F022F800BFDAE74EE2010871
:100FD0002573284B45595F4C454654205072657324
:100FE00073656420446F776E290D0A0010812142D9
:100FF0002C00002025732873656E645461736B4D5B
:101000007367290D0A0000002000002001490860D4
:101010007047000014040140014600200022074BE5
:101020001B6803EA0102054B14331B680B4013B124
:101030000AB1012000E000207047000000040140D8
:10104000002123498279002A3AD00A4612680368AF
:101050009A430B461A600A1D126803689A430B1DD7
:101060001A60027911440A6803681A430A60184A30
:101070000832126803689A43154B08331A601A1D28
:10108000126803689A43124B0C331A604279102A93
:101090000ED11A1F126803681A430D4B08331A60E9
:1010A0001A1D126803681A43094B0C331A600DE0CD
:1010B0000749427911440A6803681A430A6005E047
:1010C000027911440A6803689A430A607047000075
:1010D0000004014030B503460024002000251560BF
:1010E00022E000E05B1C1D7815B11D78202DF9D1A0
:1010F00000E05B1C1D7815B11D78202DF9D01D78FE
:101100008DB1641C8C420FD1184603E015686D1C2C
:1011100015605B1C1D7815B11D78202DF6D1156862
:1011200005B9002002E001E08C42DAD300BF30BDF7
:101130002DE9F0470446884691460126207810B9EB
:101140000020BDE8F0872E48006898BB2D482C4948
:1011500008602AE02A480068006807683846FFF7F8
:101160009DF80546605D202801D0605DC0B92A4623
:1011700039462046FFF7ADF890B92148006800686D
:1011800090F90C0000280ADB204607F0B3FB1C494D
:101190000968096891F90C10884200D0002608E01F
:1011A000174800684068164908601548006800281C
:1011B000D0D100BF1248006848B146B94A4612492A
:1011C0004046FFF75FF800200D49086016E00C4824
:1011D000006868B10A48006800682246494683688A
:1011E0004046984706464EB900200549086005E08C
:1011F0004A4606494046FFF745F800263046A0E734
:10120000D8000020CC00002074E20108CCE20108E4
:1012100070B505460026082007F064FF044664B157
:1012200008F072F82560002060600548006844609E
:101230000348046008F07AF80126304670BD0000CB
:10124000D400002030B500228B071C0F0F2303FAB7
:1012500004F20B4B8C1053F824309343084C8D1040
:1012600044F8253023468C1053F824308C07240F83
:1012700000FA04F42343024C8D1044F8253030BDAD
:10128000080001402DE9F04102460025002600201B
:1012900000230024002791F803C00CF00F0591F8FB
:1012A00003C00CF0100CBCF1000F03D091F802C089
:1012B0004CEA050591F800C0BCF1000F31D014686C
:1012C00000202BE04FF0010C0CFA00F3B1F800C045
:1012D0000CEA03069E4220D183004FF00F0C0CFA5B
:1012E00003F7BC4305FA03FC4CEA040491F803C07D
:1012F000BCF1280F06D14FF0010C0CFA00FCC2F82B
:1013000014C00AE091F803C0BCF1480F05D14FF0BA
:10131000010C0CFA00FCC2F810C0401C0828D1D304
:101320001460B1F800C0BCF1FF0F34DD5468002038
:101330002EE000F1080C4FF0010808FA0CF3B1F8A8
:1013400000C00CEA03069E4221D183004FF00F0C2F
:101350000CFA03F7BC4305FA03FC4CEA040491F8C9
:1013600003C0BCF1280F05D100F1080C08FA0CF8F5
:10137000C2F8148091F803C0BCF1480F07D100F106
:10138000080C4FF0010808FA0CF8C2F81080401C55
:101390000828CED35460BDE8F0810000F0B50A46BD
:1013A000002300240021002500F00046B6F1004F84
:1013B00002D11D4EF16901E01B4E7168C0F3034577
:1013C00083B200F44016B6F5401F08D121F07061D9
:1013D000154E766826F07066134F7E6012E000F4BA
:1013E0008016B6F5801F06D1032606FA05F4A14340
:1013F00041F0706106E0460D360103FA06F6B1438E
:1014000041F0706122B1460D360103FA06F6314310
:1014100000F00046B6F1004F02D1034EF16101E049
:10142000014E7160F0BD0000000001400161704795
:1014300010B504460723012221460948FFF79AFB0D
:1014400001210748FFF7F7FB00BF02210448FFF71F
:1014500055FB0028F9D00248FFF74CFB10BD0000F7
:10146000002401402DE9F04107460C4600250026E6
:1014700008E03846FFF7DCFF0544052006F004FECF
:10148000701CC6B2A642F4DBB5FBF4F080B2BDE836
:10149000F08100BFFEE7000038B5012001F082FBBB
:1014A00000BF612001F060FB0028FAD045F25550E2
:1014B00000F04CF8062000F03DF840F20E3000F04D
:1014C0003FF800F02FF800F025F80C4801231A46E9
:1014D00040F6B83100900AA008F042FD0C490860BF
:1014E00008F0B4FB04460020034622460121009088
:1014F0000748006808F06AFD38BD0000251500089F
:101500005761746368446F6754696D6572000000C9
:10151000280000204CF6CC400149086070470000CC
:10152000003000404AF6AA200149086070470000D8
:101530000030004001494860704700000030004022
:101540000149886070470000003000400149086090
:10155000704700000030004070B5044600250021AF
:10156000084600F077FC01F0F5F900BF1DE001200E
:101570001049086000201049C1F8BC0120120F4931
:10158000C86000200B49091F08600120086044F36F
:1015900017000A49C86000200649091F0860012099
:1015A00008600449091D08606D1CB5F5963FDED33F
:1015B00070BD0000B881214200802142001001402E
:1015C0002DE9FF4F85B081468A46002004900390A4
:1015D0000798A0EB09050898A0EB0A06CDF808903B
:1015E000CDF804A0002D01DD012705E00DB900278D
:1015F00002E04FF0FF376D42002E02DD4FF0010890
:1016000006E016B94FF0000802E04FF0FF387642CE
:10161000B54201DD2C4600E034464FF0000B21E0DE
:10162000019A91B2029A90B200F022F804982844EC
:1016300004900398304403900498A04205DD049878
:10164000001B04900298384402900398A04205DDE4
:101650000398001B03900198404401900BF1010096
:101660001FFA80FB601C8345DADD09B0BDE8F08F0E
:1016700070B504460D462946204600F0EBFB01F00C
:1016800069F901201049086000201049C1F8BC0127
:101690000F48008800120F49C86000200A49091F3E
:1016A000086001200949C1F8B401094800880949C6
:1016B000C86000200449091F086001200860024931
:1016C000091D086070BD0000B881214200802142E0
:1016D0000A090020001001402DE9F04104460D46A2
:1016E00016461F462B46324629462046FFF768FF1E
:1016F0003B46224629462046FFF762FF3B463246DC
:1017000039462046FFF75CFF3B46324629463046C5
:10171000FFF756FFBDE8F0812DE9F05F04460F4664
:1017200090469946DDF828A04FF0000BA8EB040086
:10173000401C1FFA80FB3D462CE0002626E0A11944
:1017400088B2294600F086FB01F004F90120134914
:10175000086000201249C1F8BC014FEA2A20114953
:10176000C86000200D49091F0860012008604AF385
:1017700017000C49C86000200849091F08600120B3
:1017800008600649091D0860701C86B25E45D6DBFC
:10179000681C85B24D45D0DDBDE8F09FB88121427F
:1017A000008021420010014008B50121192001F0FC
:1017B00047F94FF20100ADF8000010208DF803004A
:1017C00003208DF8020069460948FFF75BFD4FF2E0
:1017D00001010748FFF72AFEFF20ADF80000694627
:1017E0000448FFF74FFDFF210248FFF71FFE08BD29
:1017F000000C01400010014010B5FFF7D5FF01209B
:10180000FE49086000F010FB112001F08DF87820EF
:1018100006F03AFC362001F087F84FF48040F84992
:1018200008604000091D08600020F649C86048149F
:10183000F349091D0860091F0860800008603A200C
:1018400001F072F84FF48040ED4908604000091D36
:1018500008600520EB49C8604814E949091D086083
:10186000091F086080000860B22001F05DF84FF4A5
:101870008040E34908604000091D08600C20E149F0
:10188000C8604814DE49091D0860091F086080000F
:101890000860401008604000091D08600C20D9490C
:1018A000C8604814D649091D0860091F08608000F7
:1018B0000860401008604000091D08600020D14900
:1018C000C8604814CE49091D0860091F08608000DF
:1018D0000860401008604000091D08603320C949B5
:1018E000C8604814C649091D0860091F08608000C7
:1018F0000860401008604000091D08603320C1499D
:10190000C8604814BE49091D0860091F08608000AE
:101910000860B72001F008F84FF48040B84908602B
:101920004000091D08603520B649C8604814B44914
:10193000091D0860091F086080000860BB2000F0D6
:10194000F3FF4FF48040AE4908604000091D086075
:101950000E20AC49C8604814A949091D0860091F38
:10196000086080000860C02000F0DEFF4FF4804077
:10197000A34908604000091D08602C20A149C860E7
:1019800048149F49091D0860091F0860800008600D
:10199000C22000F0C9FF4FF4804099490860400020
:1019A000091D086001209749C86040039449091D3A
:1019B0000860091F086080000860C32000F0B4FFC1
:1019C0004FF480408E4908604000091D08601220D5
:1019D0008C49C86048148A49091D0860091F0860BD
:1019E00080000860C42000F09FFF4FF480408449CD
:1019F00008604000091D086020208249C86000027C
:101A00007F49091D0860091F086080000860C62022
:101A100000F08AFF4FF48040794908604000091DBA
:101A200008600F207749C86048147549091D08608F
:101A3000091F086080000860D02000F075FF4FF497
:101A400080406F4908604000091D0860A4206D496E
:101A5000C86048146A49091D0860091F08608000B1
:101A60000860401008604000091D0860A120654919
:101A7000C86048146249091D0860091F0860800099
:101A80000860E02000F050FF4FF480405C4908609F
:101A90004000091D0860D0205A49C86048145849C0
:101AA000091D0860091F0860800008604010086078
:101AB0004000091D086000205249C8604814504980
:101AC000091D0860091F0860800008604010086058
:101AD0004000091D086005204A49C860481448496B
:101AE000091D0860091F0860800008604010086038
:101AF0004000091D08600D204249C8604814404953
:101B0000091D0860091F0860800008604010086017
:101B10004000091D08600F203A49C8604814384940
:101B2000091D0860091F08608000086040100860F7
:101B30004000091D08602B203249C8604814304914
:101B4000091D0860091F08608000086040100860D7
:101B50004000091D08603B202A49C86048142849F4
:101B6000091D0860091F08608000086040100860B7
:101B70004000091D086044202249C86048142049DB
:101B8000091D0860091F0860800008604010086097
:101B90004000091D08604A201A49C86048141849C5
:101BA000091D0860091F0860800008604010086077
:101BB0004000091D086018201249C86048141049E7
:101BC000091D0860091F0860800008604010086057
:101BD0004000091D08600F200A49C86048140849E0
:101BE000091D0860091F0860800008604010086037
:101BF0004000091D08600B20024905E0B081214228
:101C0000100C014000100140C8604814844908606D
:101C1000091F086080000860401008604000091D2E
:101C200008601F207F49C86048147D490860091F6B
:101C3000086080000860401008604000091D0860CE
:101C400022207849C860481475490860091F086057
:101C500080000860E12000F067FE4FF4804070498A
:101C6000091F08604000091D0860D0206D49C86048
:101C700048146B490860091F086080000860401024
:101C800008604000091D086000206649C8604814CB
:101C900063490860091F0860800008604010086000
:101CA0004000091D086005205E49C86048145C4971
:101CB0000860091F0860800008604010086040004C
:101CC000091D08600D205749C86048145449086030
:101CD000091F086080000860401008604000091D6E
:101CE000086010204F49C86040024D490860091F34
:101CF000086080000860401008604000091D08600E
:101D00002B204849C860481445490860091F0860ED
:101D100080000860401008604000091D08603D20F8
:101D20004049C86048143E490860091F08608000A7
:101D30000860401008604000091D086054203949BF
:101D4000C860481436490860091F086080000860B0
:101D5000401008604000091D086050203149C860EB
:101D600048142F490860091F08608000086040106F
:101D700008604000091D08602F202A49C8604814E7
:101D800027490860091F086080000860401008604B
:101D90004000091D08601F202249C86048142049DE
:101DA0000860091F0860800008604010086040005B
:101DB000091D08601F201B49C860481418490860A5
:101DC000091F086080000860401008604000091D7D
:101DD00008601F201349C860481411490860091F92
:101DE000086080000860401008604000091D08601D
:101DF00023200C49C860481409490860091F08607D
:101E000080000860292000F08FFD2C2000F08CFD60
:101E1000142006F039F94FF6FF70FFF79DFB10BD57
:101E2000140C01400010014010B501200849086061
:101E300006F02AF901200649091D0860142006F061
:101E400023F9012002490860142006F01DF910BD95
:101E5000100C014010B503460C462A2000F064FD2A
:101E60004FF48040234908604000091D08601812A3
:101E70002149C86048141F49091D0860091F0860EE
:101E800080000860401008604000091D086043F3AE
:101E900017001949C86048141649091D0860091F30
:101EA0000860800008602B2000F03EFD4FF4804069
:101EB000104908604000091D086020120E49C860E2
:101EC00048140C49091D0860091F0860800008605B
:101ED000401008604000091D086044F317000649DF
:101EE000C86048140349091D0860091F0860800084
:101EF000086010BD100C0140001001402DE9F84FA2
:101F000081468A4617461C46CB46694800880090A1
:101F1000B9F1E80F02DCBAF59C7F01DDBDE8F88F6E
:101F2000A7F12000C7B20A9800287DD1002583E0E0
:101F30000C2C2AD107EB47005E4901EB800010F81A
:101F40000580002616E008F0010018B158490098F5
:101F5000088003E0584800885549088051464846A3
:101F6000FFF786FB4FEA680809F101001FFA80F9C4
:101F7000701CC6B204EBD471B6EB610FE3DBD9463B
:101F80000AF101001FFA80FA54E0102C28D14B48C6
:101F900000EB071010F80580002616E008F001009D
:101FA00018B143490098088003E04348008840493D
:101FB000088051464846FFF75BFB4FEA680809F185
:101FC00001001FFA80F9701CC6B204EBD471B6EBA5
:101FD000610FE3DBD9460AF101001FFA80FA29E01C
:101FE000374800EBC71010F80580002616E008F00F
:101FF000010018B12E490098088003E02E4800889F
:102000002B49088051464846FFF732FB4FEA6808E3
:1020100009F101001FFA80F9701CC6B204EBD471FB
:10202000B6EB610FE3DB00E00AE0D9460AF10100FC
:102030001FFA80FA681CC5B2A542FFF679AF32E0FC
:1020400000252EE00C2C07D107EB4700194901EBC6
:10205000800010F805800CE0102C05D1174800EB2B
:10206000071010F8058004E0154800EBC71010F8C1
:10207000058000260EE008F0010038B10AEB0502E9
:1020800091B209EB060290B2FFF7F2FA4FEA680844
:10209000701CC6B204EBD471B6EB610FEBDB681CAD
:1020A000C5B2A542CEDB02490098088000BF35E7E3
:1020B0000A09002008A400080C0900207CA80008D8
:1020C0006CAE00082DE9FF4F81B006468A460E9D92
:1020D000B346CDF800A00398002873D104981028C7
:1020E00073D0182870D169E0002460E004EB04107C
:1020F00000EB8000FD49085C2978884255D104EB4B
:10210000041000EB8000F94908444078697888425F
:102110004BD104EB041000EB8000F44908448078B4
:10212000A978884241D100273DE004EB041000EB80
:102130008000EE490844001D10F807904FF0000899
:102140002CE009F08000802807D1E9490F98088029
:1021500051463046FFF78CFA06E0E54910980880B2
:1021600051463046FFF784FA4FF6FF7000EA4909FE
:10217000701C86B2A6EB0B0018280BD15E460AF144
:1021800001001FFA80FA0098AAEB00001B2801D179
:10219000DDF800A008F1010000F0FF08B8F1080F19
:1021A000CFDB781CC7B2512FBFDB601CC4B20D2C33
:1021B0009CDBED1C06F1180086B2B3462878002897
:1021C00092D16EE06EE000E06AE065E000245CE041
:1021D00004EB8400C74911F830002978884252D1B5
:1021E00004EB8400C34901EBC00040786978884261
:1021F00049D104EB8400BF4901EBC0008078A97885
:10220000884240D100273CE004EB8400B94901EB4F
:10221000C000001D10F807904FF000082CE009F0F6
:102220008000802807D1B2490F9808805146304677
:10223000FFF71EFA06E0AE49109808805146304676
:10224000FFF716FA4FF6FF7000EA4909701C86B2D4
:10225000A6EB0B0010280BD15E460AF101001FFA15
:1022600080FA0098AAEB0000122801D1DDF800A046
:1022700008F1010000F0FF08B8F1080FCFDB781C6F
:10228000C7B2242FC0DB601CC4B2312CA0DBED1C14
:1022900006F1100086B2B3462878002896D100E0F7
:1022A00000BF72E10398022877D10498102877D0F4
:1022B000182874D16DE0002464E004EB440000EBC6
:1022C00004108D4911F820002978884258D104EB78
:1022D000440000EB0410884901EB800040786978E5
:1022E00088424DD104EB440000EB0410824901EB1D
:1022F00080008078A978884242D100273EE004EB34
:10230000440000EB04107C4901EB8000001D10F834
:1023100007904FF000082CE009F08000802807D1DA
:1023200073490F98088051463046FFF7A1F906E03F
:102330006F491098088051463046FFF799F94FF6DB
:10234000FF7000EA4909701C86B2A6EB0B00182842
:102350000BD15E460AF101001FFA80FA0098AAEB41
:102360000000182801D1DDF800A008F1010000F0FC
:10237000FF08B8F1080FCFDB781CC7B2482FBEDBCF
:10238000601CC4B2062C98DBED1C06F1180086B266
:10239000B346287800288ED16EE06EE000E06AE057
:1023A00065E000245CE004EBC400544911F820000F
:1023B0002978884252D104EBC400504901EB8000D7
:1023C00040786978884249D104EBC4004B4901EB5D
:1023D00080008078A978884240D100273CE004EB57
:1023E000C400464901EB8000001D10F807904FF033
:1023F00000082CE009F08000802807D13C490F98A4
:10240000088051463046FFF733F906E03849109806
:10241000088051463046FFF72BF94FF6FF7000EA6F
:102420004909701C86B2A6EB0B0010280BD15E4642
:102430000AF101001FFA80FA0098AAEB00001028A8
:1024400001D1DDF800A008F1010000F0FF08B8F1AB
:10245000080FCFDB781CC7B2202FC0DB601CC4B2D2
:102460006E2CA0DBED1C06F1100086B2B346287876
:10247000002896D100E000BF87E0039801287DD1B5
:10248000049810287AD17CE0002471E0C4EBC400E9
:1024900000EB04101A4911F810002978884265D120
:1024A000C4EBC40000EB0410154901EB4000407878
:1024B000697888425AD1C4EBC40000EB041010497B
:1024C00001EB40008078A97888424FD100274BE08B
:1024D000C4EBC40000EB0410094901EB4000001DEF
:1024E00010F807904FF0000839E00000A4F400084D
:1024F0000A09002062010020ECDD0008B4DF0008BA
:10250000F5F8000809F08000802807D120490F98CD
:10251000088051463046FFF7ABF806E01C4910989A
:10252000088051463046FFF7A3F84FF6FF7000EAE7
:102530004909701C86B2A6EB0B0010280BD15E4631
:102540000AF101001FFA80FA0098AAEB0000152892
:1025500001D1DDF800A008F1010000F0FF08B8F19A
:10256000080FCFDB781CC7B22A2FB1DB601CC4B2C6
:10257000152C8BDBED1C06F1100000E005E086B2A7
:10258000B346287800287FF47FAF05B0BDE8F08F10
:102590000A0900202DE9FF4F81B004460D4616467A
:1025A000A34600955AE00498182857D100274EE01A
:1025B00007EBC70000EB07102B4911F8100031782A
:1025C000884242D14FF000083CE007EBC70000EB27
:1025D0000710254901EB4000801C10F808A04FF0BF
:1025E000000928E00AF08000802807D11F490E98D2
:1025F000088029462046FFF73BF806E01B490F9864
:10260000088029462046FFF733F84FF6FF7000EAAE
:102610004A0A601C84B2A4EB0B00102807D15C4668
:10262000681C85B20098281A182800D1009D09F16D
:10263000010000F0FF09B9F1080FD3DB08F1010038
:1026400000F0FF08B8F1300FBFDB781CC7B21F2FB6
:10265000AEDB761C04F1100084B2A346307800286B
:10266000A1D105B0BDE8F08F2CEF00080A090020C9
:102670002DE9FF4F81B005460F461646AB46009741
:10268000DEE0049818286AD1002460E004EB04100E
:1026900000EB80006E49085C3178884255D104EB2C
:1026A000041000EB80006A49084440787178884241
:1026B0004BD104EB041000EB80006549084480789E
:1026C000B178884241D14FF000083BE004EB0410A0
:1026D00000EB80005E490844001D10F808A04FF090
:1026E000000928E00AF08000802807D159490E9897
:1026F000088039462846FEF7BBFF06E055490F988B
:10270000088039462846FEF7B3FF4FF6FF7000EA0F
:102710004A0A681C85B2A5EB0B00182807D15D4654
:10272000781C87B20098381A1B2800D1009F09F145
:10273000010000F0FF09B9F1080FD3DB08F1010037
:1027400000F0FF08B8F1510FC0DB601CC4B20C2CC4
:102750009CDBF61C05F1180085B2AB4670E00498CE
:1027600010286DD1002464E0C4EBC40000EB041019
:10277000394911F810003178884258D1C4EBC400AF
:1027800000EB0410344901EB400040787178884236
:102790004DD1C4EBC40000EB04102F4901EB400005
:1027A0008078B178884242D14FF000083CE0C4EB19
:1027B000C40000EB0410284901EB4000001D10F894
:1027C00008A04FF0000928E00AF08000802807D117
:1027D00020490E98088039462846FEF749FF06E052
:1027E0001C490F98088039462846FEF741FF4FF6EE
:1027F000FF7000EA4A0A681C85B2A5EB0B0010289E
:1028000007D15D46781C87B20098381A152800D188
:10281000009F09F1010000F0FF09B9F1080FD3DBB7
:1028200008F1010000F0FF08B8F12A0FBFDB601CBF
:10283000C4B2122C98DBF61C05F1100085B2AB4631
:10284000307800287FF41DAF05B0BDE8F08F0000A0
:10285000A4F400080A090020F5F800082DE9F05F4B
:102860008046894616469A46DDF828B0002700249F
:102870001FE000251AE004FB0650012101EB400097
:102880001BF800704FF6FF7000EA072704FB0650A4
:102890001BF8100007430948078009EB040291B2B6
:1028A00008EB050290B2FEF7E3FE6D1CB542E2DBD9
:1028B000641C5445DDDBBDE8F09F00000A090020E0
:1028C000F8B505460E4617461C4627E020780D2829
:1028D00001D1641C22E020780A2803D1A81D85B20A
:1028E000641C1BE0E82D03DD552506F1100086B2BF
:1028F000B6F59C7F00DDF8BD0020009022783B46B5
:1029000031462846FFF7FAFA0C2F02D1A81D85B2EE
:1029100002E005F1080085B2641C00BF20780028A1
:10292000D4D100BFE7E700004FF48041074A1160AF
:102930004900116040F31701054AD1605114034A60
:102940001160121F1160890011607047140C014062
:102950000010014000B52C20FFF7E6FF00BD00BFCE
:10296000FEE7704770B5002100230F22C47804B33E
:10297000154C246804F4E064C4F5E064210AC1F154
:102980000403CA40447804FA03F1847814402143D4
:1029900009010E4C0678A155047804F01F050124A6
:1029A000AC4005786D11AD0005F1E025C5F800419A
:1029B00009E0047804F01F050124AC40044D0678BA
:1029C000761145F8264070BD0CED00E000E400E013
:1029D00080E100E002490143024A116070470000B3
:1029E0000000FA050CED00E001460020034A5068A3
:1029F00020F440400843506070470000001002403F
:102A000029B1064AD2690243044BDA6104E0034A61
:102A1000D2698243014BDA61704700000010024026
:102A200029B1064A12690243044B1A6104E0034AC1
:102A300012698243014B1A61704700000010024086
:102A400029B1064A92690243044B9A6104E0034AA1
:102A500092698243014B9A61704700000010024066
:102A600029B1064AD2680243044BDA6004E0034A03
:102A7000D2688243014BDA607047000000100240C8
:102A80000348406A40F08070014948627047000086
:102A90000010024030B500210022002400232D4DFB
:102AA0006D6805F00C0121B1042905D0082923D156
:102AB00005E0294D056022E0274D05601FE0254D0A
:102AC0006D6805F47012234D6D6805F4803402259D
:102AD00005EB92421CB9214D554305600BE01D4D9D
:102AE0006D6805F400351DB11C4D5543056002E0CD
:102AF000194D5543056002E0174D056000BF00BF4A
:102B0000144D6D6805F0F0010909154D6B5C056801
:102B1000DD4045600F4D6D6805F4E061090A104D18
:102B20006B5C4568DD4085600A4D6D6805F4605159
:102B3000C90A0B4D6B5C4568DD40C560054D6D688D
:102B400005F44041890B074D6B5CC568B5FBF3F597
:102B5000056130BD0010024000127A0000093D00FE
:102B6000000000201000002010B5014600220023C4
:102B700000204A11012A02D1094C236806E0022AEA
:102B800002D1074C236A01E0054C636A01F01F0281
:102B9000012494401C400CB1012000E0002010BD35
:102BA0000010024001490860704700008004424262
:102BB00010B500F001F810BD0CB500200190009098
:102BC0003348006840F480303149086000BF304825
:102BD000006800F4003000900198401C01900098BB
:102BE00018B90198B0F5A06FF1D12948006800F438
:102BF000003010B10120009001E00020009000980A
:102C0000012843D12348006840F0100021490860A2
:102C10000846006820F0030008600846006840F09D
:102C2000020008601A484068194948600846406830
:102C300048600846406840F4806048600846406844
:102C400020F47C1048600846406840F4E810486072
:102C50000846006840F08070086000BF0C480068BB
:102C600000F000700028F9D00948406820F0030007
:102C7000074948600846406840F00200486000BFCD
:102C80000348406800F00C000828F9D10CBD000092
:102C90000010024000200240042808D14FF0E0213B
:102CA000096941F004014FF0E022116107E04FF0A3
:102CB000E021096921F004014FF0E0221161704721
:102CC00010B506F0B3FF012801D006F06FFD10BD6E
:102CD00010B51348006840F001001149086008462B
:102CE0004068104908400E494860084600680E498F
:102CF00008400B4908600846006820F480200860FE
:102D00000846406820F4FE0048604FF41F008860C9
:102D1000FFF74EFF4FF000600449086010BD00004F
:102D2000001002400000FFF8FFFFF6FE08ED00E093
:102D300010B50121094800F054F8012808D10848CD
:102D400002684068521C40F1000005490A60486072
:102D50000121024800F036F810BD000000040040D8
:102D6000C00000207FB505460C4601210220FFF778
:102D700047FEADF80850ADF804400020ADF80A0059
:102D8000ADF8060001A90E4800F046F801221146F0
:102D90000B4800F037F81D208DF8000001208DF859
:102DA000010000208DF8020001208DF80300684624
:102DB000FFF7D8FD0121024800F007F87FBD0000B1
:102DC00000040040CA430282704721B1028842F0E9
:102DD0000102028004E002884FF6FE731A4002806E
:102DE000704730B50246002000230024158A05EA0A
:102DF0000103958905EA010413B10CB1012000E03B
:102E0000002030BD1AB183890B43838102E083899E
:102E10008B43838170470000002202881D4B98423B
:102E20000ED01D4B98420BD0B0F1804F08D01B4BF9
:102E3000984205D01A4B984202D01A4B984204D1BE
:102E40004FF68F731A404B881A43174B984207D09E
:102E5000164B984204D04FF6FF431A40CB881A43D2
:102E600002808B8883850B8803850A4B98420BD0A0
:102E7000094B984208D00E4B984205D00D4B984212
:102E800002D00D4B984201D10B7A03860123838235
:102E900070470000002C0140003401400004004055
:102EA00000080040000C00400010004000140040EA
:102EB00000400140004401400048014010B540F28C
:102EC00025510D4800F029F9A8B10B4800F0E0F9B0
:102ED000C4B20A48007870B14021094800F0ACF84B
:102EE0002146074800F0D9F900BF4021044800F00E
:102EF00007F90028F9D010BD00380140BE000020BD
:102F00000044004038B540F225511F4800F005F953
:102F1000002836D01C4800F0BBF9C4B20D2C01D0FB
:102F20000A2C09D12146184800F0B7F9694617481C
:102F3000006806F009FB38BD082C11D12146124863
:102F400000F0ABF91248006848B111480068401E13
:102F50000F49086000200F490D4A12688854EAE7BB
:102F60000B4800687F280CD22146074800F095F9ED
:102F7000084807490968445405480068401C04494A
:102F8000086000BFD7E70000004400401C0000209C
:102F9000140000201009002010B540F225511848F7
:102FA00000F0BBF8002829D0154800F071F9C4B230
:102FB0001448007870B14021134800F03DF82146D4
:102FC000114800F06AF900BF40210F4800F098F85E
:102FD0000028F9D004B910BD0C480068B0F5FF7F97
:102FE00009D80B4809490968445408480068401C3E
:102FF0000649086002E007A000F084FC00BFEAE791
:1030000000480040BD000020004400405001002066
:10301000C45A002055415254335F52784275666657
:10302000657228554152545F4D353331302920693E
:10303000732066756C6C210001F40072B2F5007F9C
:1030400000D100BFCA430280704721B1828942F497
:103050000052828104E082894DF6FF731A4082811A
:103060007047000010B504462048844209D1012170
:103070008803FFF7F5FC00214FF48040FFF7F0FCD8
:1030800032E01B48844209D101214804FFF7C8FC03
:1030900000214FF40030FFF7C3FC25E015488442BF
:1030A00009D101218804FFF7BBFC00214FF48020E7
:1030B000FFF7B6FC18E01048844209D10121C8048A
:1030C000FFF7AEFC00214FF40020FFF7A9FC0BE056
:1030D0000A48844208D101210805FFF7A1FC00211C
:1030E0004FF48010FFF79CFC10BD00000038014039
:1030F0000044004000480040004C004000500040A8
:1031000002460020B1F5007F00D100BF13880B40BC
:103110000BB1012000E00020704770B5024600248A
:1031200000230025002040F66A16B14200D100BFFE
:10313000C1F3421501F01F03012606FA03F3012D26
:1031400002D19689334006E0022D02D1168A33401F
:1031500001E0968A33400C12012606FA04F4168820
:10316000344013B10CB1012000E0002070BDF0B577
:103170000346002400260025002040F66A17B942C5
:1031800000D100BF1846C1F3421401F01F06012709
:1031900007FA06F5012C01D10C3004E0022C01D114
:1031A000103000E014301AB107682F43076002E0C6
:1031B0000768AF430760F0BD2DE9F04786B00546CC
:1031C0000E460024A24600BFA1460027B08900B1E8
:1031D00000BF2F462C8A4CF6FF700440F088044351
:1031E0002C82AC894EF6F3100440B0883189084334
:1031F000718908430443AC81AC8A4FF6FF40044018
:10320000B0890443AC8201A8FFF744FC1F48874201
:1032100002D1DDF810A001E0DDF80CA0A88900F4CF
:10322000004040B10AEBCA0000EB0A1031684900C7
:10323000B0FBF1F807E00AEBCA0000EB0A103168B6
:103240008900B0FBF1F86420B8FBF0F0040120091C
:10325000642101FB1089A88900F4004040B13220AC
:1032600000EBC900B0FBF1F000F00700044308E0F8
:10327000322000EB09106421B0FBF1F000F00F00E8
:1032800004432C8106B0BDE8F087000000380140FF
:1032900001468888C0F308007047C1F308028280A5
:1032A000704700BFFEE700000EB54FF6FF7000212B
:1032B00005A21023CDE90021029002229621502080
:1032C000FEF700FF0EBD0000E58A9FE883BDE5BC68
:1032D00080E58F91E4B8AD0010B5002406E0054903
:1032E00001EB0410FDF794FF601CC4B2072CF6D369
:1032F00010BD0000E0000020184919A000F002FBFA
:10330000FFF7EAFF29E04EF66021012005F064FF97
:103310000446012C21D12246104913A000F0F2FAF4
:1033200064211748FCF785FF00BF64221449154843
:10333000FDF7FEFE05461248FCF7B0FF0646324692
:103340000F49114804F07CF8002DEED120210D48E2
:10335000FCF76FFF00200D490860D4E752A0000879
:1033600025732E2E2E0D0A002573284E6F74696664
:103370007956616C75653A202564290D0A000000B4
:1033800030090020100900200044004014000020F3
:103390002DE9F04F93B083464FF00009002400253B
:1033A0000027002012901190804610900F900E90F0
:1033B000002682460D900C900B9040F29E5040F2F9
:1033C0003F134F22282100900020FEF7A5F940F27C
:1033D0009E500021FEA21023CDE90021029002227E
:1033E00032210520FEF76EFE40F29E500021FCA225
:1033F0001023CDE90021029002226E210520FEF764
:1034000061FE40F29E500021F9A21023CDE9002177
:1034100002900222BE210520FEF754FE40F29E508B
:103420000021F7A21023CDE90021029002224FF4DF
:1034300087710520FEF746FE44F29830F449088073
:103440004F23EF2219460020FEF7BAF89F23EF2200
:1034500019460020FEF7B4F8EF231A46194600205B
:10346000FEF7AEF840F23F13502228211046FEF737
:10347000A7F841F60510E64908804323EC223121E4
:103480007D20FEF729F94FF6FF700021E1A21023FD
:10349000CDE900210290022256215520FEF712FEAE
:1034A0004FF6FF700021DFA21023CDE9002102902A
:1034B00002226D215520FEF705FE4FF6FF70002118
:1034C000DCA21023CDE900210290022284215520A4
:1034D000FEF7F8FD4FF6FF700021CEA21023CDE9D4
:1034E000002102900222A6215520FEF7EBFD4FF6A7
:1034F000FF700021D3A21023CDE900210290022207
:10350000BD215520FEF7DEFD4FF6FF700021C5A25C
:103510001023CDE9002102900222D4215520FEF78C
:10352000D1FD4FF6FF700021BAA21023CDE9002192
:1035300002900222F6215520FEF7C4FD4FF6FF70DF
:103540000021B8A21023CDE900210290022240F20E
:103550000D115520FEF7B6FD4FF6FF700021BDA2FC
:103560001023CDE90021029002224FF492715520E0
:10357000FEF7A8FD40F29E5042237F2232210090A8
:103580007E20FEF7C9F8B3E109F101095B464A461E
:10359000B4A1B64803F0B8FF00209D4908804FF65B
:1035A000FF70B3490880B14B102232215520FFF73C
:1035B00087F901F09DF90446322004F065FD012CE5
:1035C00010D9E91B129800FB0141E81B401CB1FB1C
:1035D000F0F01290E81B02D01198844200D91194A7
:1035E0006D1C01E06D1C7F1C0020894908804FF68E
:1035F000FF709F4908801298FDF703F89D490690D7
:10360000FCF7A8FE0790FDF71AF802460B46CDE935
:10361000080199A1954803F077FF944B1022562199
:103620009620FFF74DF91198FCF7EBFF91490690B2
:10363000FCF790FE0790FDF702F802460B46CDE935
:1036400008018DA1894803F05FFF884B10226D218E
:103650009620FFF735F92846FCF7D3FF0590E81BC5
:10366000FCF7CFFF04900599FCF774FE844906909F
:10367000FCF73EFE0790FCF7E2FF02460B46CDE961
:10368000080180A1794803F03FFF784B1022842184
:103690009620FFF715F901F0B9F90446CCB11F2CBB
:1036A00017D80F9800FB084108F10100B1FBF0F0BA
:1036B0000F90B8F1000F02D00E98844200D20E9401
:1036C000B8F1000F02D01098844200D9109408F18C
:1036D00001086FA165480F9A03F016FF634B102293
:1036E000A6219620FFF7ECF869A160480E9A03F036
:1036F0000BFF5E4B1022BD219620FFF7E1F864A17D
:103700005A48109A03F000FF584B1022D4219620FB
:10371000FFF7D6F800F0F6FD0446B4B1A6EB0A01B7
:103720000D9800FB0141A6EB0A00401CB1FBF0F034
:103730000D9016B10C98844200D90C9416B10B98D8
:10374000844200D20B94761C02E0761C0AF1010A36
:1037500051A146480D9A03F0D7FE444B1022F621A2
:103760009620FFF7ADF84CA140480C9A03F0CCFE30
:103770003E4B102240F20D119620FFF7A1F8304683
:10378000FCF73FFF05905046FCF73BFF049005997E
:10379000FCF7E0FD3A490690FCF7AAFD0790FCF71C
:1037A0004EFF02460B46CDE9080136A12F4803F033
:1037B000ABFE2E4B10224FF492719620FFF780F84B
:1037C0005846FCF71EFF01904846FCF71AFF67E0D9
:1037D000E6B58BE8AF95E8BF9BE5BAA60000000010
:1037E000E9A9BBE7BD91E697B6E997B400000000F0
:1037F000E4BFA1E58FB7E8B4A8E9878F0000000017
:10380000E7BD91E7BB9CE5BBB6E697B600000000BC
:103810000A090020E5B9B3E59D87E580BCEFBC9AB5
:1038200000000000E69C80E5A4A7E580BCEFBC9A00
:1038300000000000E68890E58A9FE78E87EFBC9A3B
:1038400000000000E69C80E5B08FE580BCEFBC9AEC
:1038500000000000E4B8A2E58C85E78E87EFBC9AF3
:103860000000000025642F2564000000C45C0020D7
:103870000C09002000007A44252D352E3166730096
:103880000000C842252D352E316625250000000098
:10389000252D326400000000252D35646D73000075
:1038A00000900199FCF756FD14490290FCF720FDA9
:1038B0000390FCF7C4FECDE9040104F01BFC0022D8
:1038C0000F4BCDE90601FCF783FDCDE90801FCF7BC
:1038D0009DFE80B20A9040F29E5042230090322119
:1038E0007E200A9AFDF718FF4FF4FA6004F0CCFB33
:1038F000D945FFF449AE13B0BDE8F08F0000DC42BB
:1039000000805F400FB410B5C2B04FF4807102A8C0
:10391000FCF78FFC45A80190F92102A8019B449A6D
:1039200003F006FE002001900748007840B102A88D
:10393000FCF7B4FC0446224602A9044803F080FDCB
:1039400042B010BC5DF814FBC800002000440040E9
:103950002DE9F05F05460E46174698464FF00009E0
:103960004FF0640A4FF400711D48FCF762FC002020
:103970001C4908602846FCF791FC83465A462946B4
:10398000194803F05DFD2A46184919A0FFF7BAFF50
:1039900024E0002411E004EB840006EB80011048D1
:1039A000FCF75EFC38B1621C104914A0FFF7AAFFB7
:1039B000601CBDE8F09F601CC4B2BC42EBDB09FB9D
:1039C0000AF0404505D3094911A0FFF79BFF0020ED
:1039D000EFE7504604F058FB09F10109D9E7000070
:1039E000C45A0020500100200048004010A10008E7
:1039F00025732853656E642D3E2573002573287248
:103A0000657475726E3A202564290D0A0000000065
:103A1000257328657865637574652074696D656FB5
:103A2000757421290D0A0000FEB505460E469D4914
:103A30009DA0FFF767FF06EB46002844C4B24FF68F
:103A4000FF70FDF789FD9A481E231A460521009054
:103A50000846FEF703FF4FF6FF7040F2194195A2AA
:103A60001823CDE900210290002206212320FEF731
:103A700029FB944814231A460A210090A520FEF73A
:103A8000EDFE0020904908802723EF221946FDF71C
:103A900097FD8E4832231A463C2100900F20FEF7F6
:103AA000DDFE6CB940F29E50002189A21023CDE9C1
:103AB0000021029002226E210820FEF703FB0CE099
:103AC0004FF6FF70002182A21023CDE90021029061
:103AD00002226E210820FEF7F5FA814832231A46A9
:103AE0003C2100905F20FEF7B9FE012C0DD140F281
:103AF0009E5000217BA21023CDE9002102900222DA
:103B00006E215820FEF7DEFA0CE04FF6FF70002120
:103B100074A21023CDE90021029002226E215820C8
:103B2000FEF7D0FA734832231A463C210090AF20AA
:103B3000FEF794FE022C0DD140F29E5000216EA2A1
:103B40001023CDE90021029002226E21A820FEF769
:103B5000B9FA0CE04FF6FF70002167A21023CDE9FF
:103B60000021029002226E21A820FEF7ABFA6648DF
:103B700032231A46962100900F20FEF76FFE032C89
:103B80000DD140F29E50002160A21023CDE900210A
:103B900002900222C8210820FEF794FA0CE04FF6AA
:103BA000FF70002159A21023CDE9002102900222CA
:103BB000C8210820FEF786FA584832231A46962173
:103BC00000905F20FEF74AFE042C0DD140F29E507B
:103BD000002153A21023CDE9002102900222C82126
:103BE0005820FEF76FFA0CE04FF6FF7000214CA250
:103BF0001023CDE9002102900222C8215820FEF7AF
:103C000061FA4B4832231A4696210090AF20FEF706
:103C100025FE052C0DD140F29E50002145A2102317
:103C2000CDE9002102900222C821A820FEF74AFA1D
:103C30000CE04FF6FF7000213EA21023CDE90021D9
:103C400002900222C821A820FEF73CFA3D48322308
:103C50001A46F02100900F20FEF700FE062C0ED130
:103C600040F29E50002138A21023CDE9002102909D
:103C700002224FF491710820FEF724FA0DE04FF66E
:103C8000FF70002130A21023CDE900210290022212
:103C90004FF491710820FEF715FA3C2001F044F929
:103CA000FEBD00001CE2010825732E2E2E00000030
:103CB00013040108E4B8ADE7A7BBE789A9E881943C
:103CC000E7BD9100BBFC00080A0900203B59010830
:103CD000E8AEBEE5A487E4BFA1E681AF0000000026
:103CE0004B800108E9A9BBE7BD91E6B58BE8AF952C
:103CF00000000000C36C0108E4BFA1E58FB7E58FA9
:103D000082E695B000000000D3930108E7BD91E77B
:103D1000BB9CE5BBB6E697B6000000005BA70108B8
:103D2000E7BBBCE59088E6B58BE8AF9500000000E6
:103D3000E3BA0108E8939DE78999E79BB4E8BF9E41
:103D4000000000006BCE0108E4BDBFE794A8E8AF17
:103D5000B4E6988E000000002DE9F0438BB00546D4
:103D60000E462822204901A8FCF74AFA05273146C9
:103D70002846FCF75EFA2AE0781EC7B24FF4FA63D1
:103D8000022201A919A0FFF7E3FD00F0FF08B8F136
:103D9000010F18D118A11A48FCF762FA841D19A165
:103DA0002046FCF75DFA8146A9EB0402214628462D
:103DB000FCF77BFA2A46154915A0FFF7A3FD012061
:103DC0000BB0BDE8F0834FF4FA7004F05DF9002FFA
:103DD000D2DC324611A12846FCF754FA0B4911A057
:103DE000FFF790FD0020EBE73CA2000841542B4E6A
:103DF000434349440D0A00004E434349443A0000FE
:103E0000C45A00200D0A4F4B0D0A00002CA20008D6
:103E10002573282573290D0A000000004E4F2053FA
:103E2000494D0000257328457865204661696C6519
:103E30006421290D0A0000002DE9F0438BB00546EE
:103E40000E462822204901A8FCF7DAF90527314659
:103E50002846FCF7EEF92AE0781EC7B24FF4FA6361
:103E6000022201A919A0FFF773FD00F0FF08B8F1C5
:103E7000010F18D118A11A48FCF7F2F9441D19A135
:103E80002046FCF7EDF98146A9EB040221462846BD
:103E9000FCF70BFA2A46154915A0FFF733FD012060
:103EA0000BB0BDE8F0834FF4FA7004F0EDF8002F8A
:103EB000D2DC324611A12846FCF7E4F90B4912A0E6
:103EC000FFF720FD0020EBE7ACA2000841542B4394
:103ED00047534E3D310D0A004347534E3A00000010
:103EE000C45A00200D0A4F4B0D0A00009CA2000886
:103EF0002573282573290D0A000000004E4F204D20
:103F00006F64756C65000000257328457865204650
:103F100061696C656421290D0A0000002DE9F043F8
:103F20008BB005460E462822264901A8FCF768F901
:103F3000052731462846FCF77CF936E0781EC7B2E3
:103F40004FF4FA63022201A91FA0FFF701FD00F060
:103F5000FF08B8F1010F24D11E4C0BE02078202877
:103F600005D020780D2802D020780A2801D1641CC1
:103F700000E000E0F2E700BF17A12046FCF770F96F
:103F80008146A9EB0400421C21462846FCF78DF926
:103F90002A46124912A0FFF7B5FC01200BB0BDE87C
:103FA000F0834FF4FA7004F06FF8002FC6DC32464D
:103FB0000EA12846FCF766F908490EA0FFF7A2FCFF
:103FC0000020EBE774A2000841542B43494D490DF2
:103FD0000A000000C45A00200D0A000064A2000874
:103FE0002573282573290D0A000000004E4F205329
:103FF000494D0000257328457865204661696C6548
:104000006421290D0A0000002DE9F0438BB005461C
:104010000E462822264901A8FCF7F2F8052731466A
:104020002846FCF706F935E0781EC7B24FF4FA636C
:10403000022201A91FA0FFF78BFC00F0FF08B8F1D6
:10404000010F23D11E4C0BE02078202805D02078CA
:104050000D2802D020780A2801D1641C00E000E07D
:10406000F2E700BF17A12046FCF7FAF88146A9EB5A
:10407000040221462846FCF718F92A46134914A0E1
:10408000FFF740FC01200BB0BDE8F0834FF4FA705D
:1040900003F0FAFF002FC7DC324610A12846FCF7D8
:1040A000F1F80A490FA0FFF72DFC0020EBE7000014
:1040B000C4A1000841542B43474D4D0D0A00000098
:1040C000C45A00200D0A4F4B00000000ACA10008AC
:1040D0002573282573290D0A000000004552524F10
:1040E00052000000257328457865204661696C659B
:1040F0006421290D0A0000002DE9F0438BB005462C
:104100000E462822264901A8FCF77AF805273146F1
:104110002846FCF78EF835E0781EC7B24FF4FA63F4
:10412000022201A91FA0FFF713FC00F0FF08B8F15D
:10413000010F23D11E4C0BE02078202805D02078D9
:104140000D2802D020780A2801D1641C00E000E08C
:10415000F2E700BF17A12046FCF782F88146A9EBE1
:10416000040221462846FCF7A0F82A46134914A069
:10417000FFF7C8FB01200BB0BDE8F0834FF4FA70E5
:1041800003F082FF002FC7DC324610A12846FCF75F
:1041900079F80A490FA0FFF7B5FB0020EBE7000014
:1041A00004A2000841542B434D5645520D0A00000D
:1041B000C45A00200D0A4F4B0D0A0000ECA1000864
:1041C0002573282573290D0A000000004552524F1F
:1041D00052000000257328457865204661696C65AA
:1041E0006421290D0A0000002DE9F0418AB028223F
:1041F0002E496846FCF704F8052600254EE0701E9F
:10420000C6B24FF4FA630222694629A0FFF7A0FB69
:10421000C7B2012F3ED129A12A48FCF721F8044654
:10422000002C33D0E41D4FF000081CE0207820283B
:1042300001D1641C17E020782D2803D14FF001082C
:10424000641C10E0207830280BDB2078392808DC4B
:10425000207805EB850100EB4100A0F13005641CDE
:1042600000E001E000BFE1E700BFB8F1000F02D0BD
:104270004FF0FF3000E0012045432A46124913A0C9
:10428000FFF740FB28460AB0BDE8F0810E4912A0B6
:10429000FFF738FB4FF4FA7003F0F6FE002EAEDCA9
:1042A000094913A0FFF72EFB0020ECE720A300082C
:1042B00041542B4E42414E443F0D0A002B4E424189
:1042C0004E443A00C45A00200CA300082573282548
:1042D00064290D0A0000000025732842414E442045
:1042E0004E6F7420466F756E6421290D0A00000020
:1042F000257328457865204661696C656421290D20
:104300000A000000F0B59FB03C22304910A8FBF72E
:1043100077FF0527002640216846FBF78AFF2CA17E
:104320006846FBF791FF2D496846FBF78DFF2CA1EE
:104330006846FBF789FF40E0781EC7B242F6E063AB
:10434000032210A96846FFF703FBC5B2012D28D14F
:104350004FF47A7003F098FE1FA12548FBF780FF09
:10436000441C14E02078202801D1641C0FE0207840
:1043700030280BDB2078392808DC207806EB860112
:1043800000EB4100A0F13006641C00E000E0E9E72A
:1043900000BF3246174918A0FFF7B4FA30461FB0E5
:1043A000F0BD022D05D1134916A0FFF7ABFA00208E
:1043B000F5E74FF4FA7003F067FE002FBCDC0D49FF
:1043C00014A0FFF79FFA0020E9E70000A4A300086B
:1043D00041542B4E50494E473D00000054010020EF
:1043E0002C3130302C31303030302C310D0A00007F
:1043F000C45A00208CA300082573282564290D0ABF
:10440000000000002573284E50494E474552522166
:10441000290D0A00257328457865204661696C6579
:104420006421290D0A0000002DE9F0438BB00546F8
:104430000E462822204901A8FBF7E2FE0527314657
:104440002846FBF7F6FE2AE0781EC7B24FF4FA635F
:10445000022201A919A0FFF77BFA00F0FF08B8F1CA
:10446000010F18D118A11948FBF7FAFE441C16A138
:104470002046FBF7F5FE8146A9EB040221462846BB
:10448000FBF713FF2A46124912A0FFF73BFA01205F
:104490000BB0BDE8F0834FF4FA7003F0F5FD002F88
:1044A000D2DC32460EA12846FBF7ECFE08490EA0EE
:1044B000FFF728FA0020EBE7E4A2000841542B4361
:1044C0004F50533F0D0A000022000000C45A002044
:1044D000D4A200082573282573290D0A00000000C6
:1044E0004552524F520000002573284578652046FA
:1044F00061696C656421290D0A0000002DE9F04F07
:104500008DB083460F46904628228F4903A8FBF7BB
:1045100077FE4FF00509002000900190029041467F
:104520005846FBF786FE41463846FBF782FEF7E029
:10453000A9F1010000F0FF094FF4FA63022203A978
:1045400082A0FFF705FA00F0FF0ABAF1010F78D157
:10455000814A824982A0FFF7D5F983A17E48FBF703
:104560007FFE441C80A12046FBF77AFE441C7EA1FE
:104570002046FBF775FE441C7BA12046FBF770FE2E
:104580000646032279A12046FBF7A3FE28B90A229A
:1045900077A16846FBF776FE59E0032276A1204614
:1045A000FBF797FE28B90A2274A16846FBF76AFE5A
:1045B0004DE0032272A12046FBF78BFE28B90A22A8
:1045C00070A16846FBF75EFE41E003226EA1204623
:1045D000FBF77FFE28B90A226CA16846FBF752FE62
:1045E00035E003226AA12046FBF773FE28B90A22B0
:1045F00068A16846FBF746FE29E0032266A1204633
:10460000FBF767FE28B90A2264A16846FBF73AFE69
:104610001DE0032263A12046FBF75BFE28B90A22B6
:1046200061A16846FBF72EFE11E0032260A120463F
:10463000FBF74FFE30B90A225EA16846FBF722FE67
:1046400005E069E007225BA16846FBF71BFEE41C5E
:10465000002505E0207800EB4500A0F13005641C42
:10466000B442F7D36B462A4654A1384602F04CFFB9
:104670003DA12046FBF7F4FD441C52A12046FBF768
:10468000EFFD0646032239A12046FBF722FE28B99A
:104690000A223EA16846FBF7F5FD28E0032236A179
:1046A0002046FBF716FE28B90A223CA16846FBF714
:1046B000E9FD1CE0032232A12046FBF70AFE28B9DF
:1046C0000A2241A16846FBF7DDFD10E0032238A174
:1046D0002046FBF7FEFD28B90A2236A16846FBF703
:1046E000D1FD04E0072233A16846FBF7CBFD00258E
:1046F000E41C05E0207800EB4500A0F13005641CC7
:10470000B442F7D36B462A462CA1584602F0FCFE71
:1047100001200DB0BDE8F08F4FF4FA7003F0B4FC47
:10472000B9F1000F3FF704AF42462AA13846FBF724
:10473000A9FD424627A15846FBF7A4FD074927A03B
:10474000FFF7E0F80020E4E764A3000841542B439E
:1047500050534D533F0D0A00C45A002048A300088F
:1047600025732825732900002C000000303030000C
:1047700031306D696E00000030303100316800006A
:104780003031300031306800303131003273000098
:10479000313030003330730031303100316D696EAB
:1047A000000000003131300033323068000000007A
:1047B00031313100496E76616C6964002564202ACC
:1047C000202573000D0A000064656369686F7572C7
:1047D000730000004552524F5200000025732845D7
:1047E0007865204661696C656421290D0A00000026
:1047F00010B50446034904A0FFF784F8044801F00B
:10480000C5FE10BD65A0000825732E2E2E0D0A00D2
:104810002C0000201CB503F021FB22461C491DA0E2
:10482000FFF770F804F070FD2048012100234A02D0
:10483000CDE900101EA1214805F0C8F904F076FD6D
:1048400024E04EF66021012004F0C6FC0446012C51
:104850001CD104F059FD0E4919A0FFF753F8134875
:10486000006838B11148006804F0F6FD08491AA044
:10487000FFF748F80D48012100234A02CDE9001056
:104880000BA10E4805F0A2F904F050FDD9E7000095
:1048900078A000082573284E6F7469667956616C9C
:1048A00075653A202564290D0A00000024000020C7
:1048B0006C63645F7461736B00000000F147000873
:1048C00025732852656376204E6F74696679566148
:1048D0006C7565290D0A000025732844656C6574A4
:1048E00065204C6364207461736B290D0A0000001D
:1048F00070B594B0282225490AA8FBF781FC28222C
:10490000224928316846FBF77BFC41F288330122BB
:104910000AA91FA0FFF71CF80646012E30D11F4838
:104920000468406820E041F28833022269461CA0F6
:10493000FFF70EF80646022E00D116E0174802686F
:104940004068121B60F10000184B00219A1A814147
:1049500006D2174917A0FEF7D5FF012014B070BD8D
:104960004FF4FA7003F090FBDDE700BF0B480568D9
:1049700040682A1B0E4915A0FEF7C4FF281BEDE76F
:104980000B4918A0FEF7BEFF0020E7E7C0A0000813
:1049900041542B4E52420D0A00000000C00000207E
:1049A00041542B43474154543F0D0A0020BF02009D
:1049B000A0A000082573284174746163682074699D
:1049C0006D656F757421290D0A000000257328722A
:1049D000657475726E3A20256C64206D73290D0A1A
:1049E000000000002573285761697420626F6F749E
:1049F00020696E666F726D6174696F6E2074696D87
:104A0000656F757421290D0A00000000F0B58BB0A8
:104A10002822234901A8FBF7F3FB0527002636E0EF
:104A2000781EC7B24FF4FA63022201A91DA0FEF757
:104A30008FFF0546012D26D11DA11F48FBF710FC55
:104A40000446241D15E02078202801D1641C10E0C4
:104A5000207830280BDB2078392808DC207806EB1A
:104A6000860100EB41003038C6B2641C00E001E072
:104A700000BFE8E700BF3246104911A0FEF742FF31
:104A800030460BB0F0BD4FF4FA7003F0FDFA002F82
:104A9000C6DC0A490DA0FEF735FF0020F1E7000053
:104AA00044A1000841542B4353510D0A000000005B
:104AB0004353513A00000000C45A002024A10008CA
:104AC0002573282564290D0A000000002573284657
:104AD00061696C656421290D0A0000002DE9F04729
:104AE00092B0824620210AA8FBF7A3FB4FF00508ED
:104AF0002822A1496846FBF783FB00262BE1A8F199
:104B0000010000F0FF084FF4FA63022269469BA0FF
:104B1000FEF71EFF0746012F70D19CA19D48FBF7B1
:104B20009FFB0446002C2FD0E41D00261CE02078BB
:104B3000202801D1641C17E020782D2802D10126FD
:104B4000641C11E0207830280CDB2078392809DC3F
:104B500020780A9901EB810100EB410030380A907E
:104B6000641C00E001E000BFE1E700BF0A9816B155
:104B70004FF0FF3100E0012148430A90864987A0A9
:104B80000A9AFEF7BFFE03E0834989A0FEF7BAFE4A
:104B90008DA18048FBF764FB044684B3641D0026A6
:104BA0001CE02078202801D1641C17E020782D28F3
:104BB00002D10126641C11E0207830280CDB20781B
:104BC000392809DC20780B9901EB810100EB4100C9
:104BD00030380B90641C00E001E000BFE1E700BF4B
:104BE0000B9816B14FF0FF3100E0012148430B90C4
:104BF000694977A00B9AFEF785FE05E0A7E0FFE77D
:104C0000654977A0FEF77EFE7BA16248FBF728FB93
:104C100004467CB3241D00261CE02078202801D106
:104C2000641C17E020782D2802D10126641C11E0B5
:104C3000207830280CDB2078392809DC20780C9982
:104C400001EB810100EB410030380C90641C00E066
:104C500001E000BFE1E700BF0C9816B14FF0FF3153
:104C600000E0012148430C904B4965A00C9AFEF7E7
:104C700049FE04E0FFE7484965A0FEF743FE6AA14C
:104C80004448FBF7EDFA04467CB3241D00261CE0E3
:104C90002078202801D1641C17E020782D2802D12B
:104CA0000126641C11E0207830280CDB207839289C
:104CB00009DC20780D9901EB810100EB41003038CF
:104CC0000D90641C00E001E000BFE1E700BF0D981B
:104CD00016B14FF0FF3100E0012148430D902E49FD
:104CE00053A00D9AFEF70EFE04E0FFE72A4954A0F8
:104CF000FEF708FE58A12748FBF7B2FA00F10805B5
:104D000085B142A12846FBF7ABFA8146A9EB050223
:104D100029460EA8FBF774FA0EAA1F4951A0FEF708
:104D2000F1FD0CE054A001680E918188ADF83C10B3
:104D300080798DF83E00184951A0FEF7E3FD20224E
:104D40000AA95046FBF75CFA12B0BDE8F087124999
:104D500051A0FEF7D7FDB8F1000F3FF7D0AE1022FB
:104D600052A10EA8FBF78EFA20220AA95046FBF7A3
:104D700047FA00BFE8E7000084A1000841542B4E29
:104D8000554553544154530D0A00000045415246C5
:104D9000434E3A00C45A00206CA1000825732845F0
:104DA000415246434E3A20256C64290D0A0000000A
:104DB00025732845415246434E204E6F7420466F5E
:104DC000756E6421290D0A00525352513A000000B9
:104DD000257328525352513A20256C64290D0A003C
:104DE00025732852535251204E6F7420466F756EB2
:104DF0006421290D0A000000534E523A00000000C1
:104E0000257328534E523A20256C64290D0A000060
:104E1000257328534E52204E6F7420466F756E6472
:104E200021290D0A0000000045434C3A0000000013
:104E300025732845434C3A20256C64290D0A00004F
:104E400025732845434C204E6F7420466F756E6461
:104E500021290D0A0000000043656C6C2049443A8A
:104E60000000000025732843454C4C49443A202556
:104E700073290D0A00000000496E76616C696400B8
:104E800025732843454C4C4944204E6F7420466F8F
:104E9000756E6421290D0A00257328415420525350
:104EA00050204552524F5221290D0A004552524F6F
:104EB0005200000038B504462246164916A0FEF7F7
:104EC00021FD4FF6FF7040F23F13EF2228210090A2
:104ED0000020FCF721FC072C18D2DFE804F00407BF
:104EE000090B0D11140000F0C3F810E000F07CFB7A
:104EF00000F0C8FF00F0DAFD0520FEF749FA06E0F1
:104F0000FEF7D2F903E000F003FA00E000BF00BFB3
:104F100038BD000003E20108257328696E646578D6
:104F20003A2564290D0A000038B50446142C32DDF8
:104F300000204E4908801E23E1220C21D720FCF7D7
:104F4000CBFB00200C23DE220A210090DA20FCF7A4
:104F5000E3FB2001642190FBF1F0C0F11D0085B25C
:104F60004FF4FC601D23E02229460090D820FCF776
:104F7000D3FB04EB0410642190FBF1F0C0F11D00A1
:104F800085B24FF6FF702B46E0220D210090D8200D
:104F9000FCF7C2FB68E0002C32DD002033490880BA
:104FA0001E23E1220C21D720FCF796FB00200C23C6
:104FB000DE220A210090DA20FCF7AEFB20016421FA
:104FC00090FBF1F0C0F11D0085B24FF4FC601D2391
:104FD000E02229460090D820FCF79EFB04EB041049
:104FE000642190FBF1F0C0F11D0085B24FF6FF7017
:104FF0002B46E0220D210090D820FCF78DFB33E0FA
:105000004FF47840194908801E23DC220C21D2205D
:10501000FCF762FB4FF478400C23D9220A21009060
:10502000D520FCF779FB2001642190FBF1F0C0F161
:105030001D0085B24FF478401D23DB2229460090E5
:10504000D320FCF769FB04EB0410642190FBF1F022
:10505000C0F11D0085B24FF6FF702B46DB220D21FB
:105060000090D320FCF758FB38BD00000A0900204F
:10507000FEB540F29E5040F23F134D222821009091
:105080000020FCF749FB40F29E5000217BA2102338
:10509000CDE900210290022232210320FDF712F80F
:1050A00000207A49088040F29E507949088079A30F
:1050B000102232214420FDF703FC77A31022502157
:1050C0000320FDF7FDFB73A3102250214420FDF7C0
:1050D000F7FB73A310226E210320FDF7F1FB6DA3F4
:1050E00010226E214420FDF7EBFB6FA310228C21D0
:1050F0000320FDF7E5FB67A310228C214420FDF778
:10510000DFFB40F29E50002169A21023CDE900216F
:1051100002900222AA210320FCF7D4FF00205B4961
:10512000088040F29E505A4908805AA31022AA21B2
:105130004420FDF7C5FB40F29E50002160A21023E1
:10514000CDE9002102900222C8210320FCF7BAFF1A
:1051500000204E49088040F29E504D4908804DA3E2
:105160001022C8214420FDF7ABFB40F29E500021E5
:1051700057A21023CDE9002102900222E62103204C
:10518000FCF7A0FF00204149088040F29E504049B2
:10519000088040A31022E6214420FDF791FB40F255
:1051A0009E5000214EA21023CDE900210290022240
:1051B0004FF487710320FCF785FF002033490880F6
:1051C00040F29E503249088032A310224FF487717A
:1051D0004420FDF775FB00202C4908804FF6FF7036
:1051E0002B49088080214248FEF70EFF404B1022D9
:1051F00032215020FDF764FB80213D48FEF71CFE64
:105200003B4B102250210846FDF75AFB80213848BD
:10521000FEF7A2FD364B10226E215020FDF750FB09
:1052200080213348FEF77AFE314B10228C2150202A
:10523000FDF746FB02F0F8FD0646FBF700FA0446D0
:1052400022460B462BA12A4802F05EF9284B102279
:10525000AA215020FDF734FB80212548FEF74CFFA2
:10526000234B1022E6215020FDF72AFB24A3102215
:105270004FF487715020FDF723FBFEBDE6A8A1E7A0
:10528000BB84E59E8BE58FB7000000000A09002073
:105290000C0900203A000000494D4549000000007B
:1052A0004943434944000000494D53490000000070
:1052B000E794B5E6B1A0E794B5E58E8B0000000059
:1052C000E8939DE78999E78AB6E6808100000000AF
:1052D000E6A8A1E7BB84E78988E69CAC0000000053
:1052E000E8BDAFE4BBB6E78988E69CAC00000000EF
:1052F000C45C0020252D332E3166205600000000AE
:105300004E425F5465726D696E616C5F563031005C
:105310000EB54FF6FF7040F29E514FA21023CDE91B
:105320000021029001222D210520FCF7CBFE4FF633
:10533000FF7000214CA21023CDE90021029002222F
:1053400046210520FCF7BEFE4FF6FF70002151A25A
:105350001023CDE90021029002225A210520FCF7FA
:10536000B1FE4FF6FF7040F29E5154A21023CDE9DA
:1053700000210290012273210520FCF7A3FE4FF6C5
:10538000FF70002151A21023CDE9002102900222DA
:105390008C210520FCF796FE4FF6FF70002156A2E7
:1053A0001023CDE9002102900222A0210520FCF764
:1053B00089FE4FF6FF7040F29E515AA21023CDE9AC
:1053C000002102900122B9210520FCF77BFE4FF657
:1053D000FF70002157A21023CDE900210290022284
:1053E000D2210520FCF76EFE4FF6FF7000215CA273
:1053F0001023CDE9002102900222E6210520FCF7CE
:1054000061FE4FF6FF7040F29E5160A21023CDE97D
:10541000002102900122FF210520FCF753FE4FF6E8
:10542000FF7000215DA21023CDE90021029002222D
:105430004FF48C710520FCF745FE4FF6FF700021FC
:1054400061A21023CDE90021029002224FF496714F
:105450000520FCF737FE0EBDE9A9BBE7BD91E6B517
:105460008BE8AF9500000000E9809AE8BF87E58FE0
:105470008DE5A48DE9A9BBE7BD91E6B58BE8AF95B5
:10548000EFBC8CE88EB7E58F96E8AEBEE5A487E565
:1054900085A50000E7BD91E68890E58A9FE78E87A5
:1054A000E38081E585A5E7BD91E697B6E997B4E786
:1054B000AD89E58F82E695B000000000E4BFA1E56C
:1054C0008FB7E58F82E695B000000000E69FA5E764
:1054D0009C8BE8AFA6E7BB86E7BD91E7BB9CE58F59
:1054E00082E695B0EFBC8CE58C85E68BACE4BFA181
:1054F000E58FB7E794B50000E5B9B3E38081E4BF79
:10550000A1E599AAE6AF94E38081E9A291E782B987
:10551000E38081E5AE9AE697B6E599A8E58F82E645
:1055200095B00000E7BD91E7BB9CE5BBB6E697B63A
:1055300000000000E68C81E7BBADE6B58BE8AF95D7
:10554000E4B88EE69C8DE58AA1E599A8E79A84E700
:10555000BD91E7BB9CE5BBB6E8BF9FE68385000035
:10556000E586B5EFBC8CE7BB9FE8AEA1E4B8A2E549
:105570008C85E78E87E38081E5B9B3E697B6E5BB16
:10558000B6E697B6E4BFA1E681AF0000E7BBBCE595
:105590009088E6B58BE8AF9500000000E7BBBCE55E
:1055A0009088E8BF9BE8A18CE9A9BBE7BD91E58E97
:1055B0008BE58A9BE38081E5BBB6E8BF9FE6B58BB0
:1055C000E8AF95EFBC8C0000E88EB7E58F96E695C6
:1055D000B4E4BD93E7BD91E7BB9CE78AB6E586B529
:1055E000E4BFA1E681AF00001FB500250026AA4652
:1055F000AB46A9464FF6FF7040F29E51EDA218232C
:10560000CDE900210290002232214B20FCF75AFD07
:105610004FF6FF704FF607411823EAA2CDE90010BC
:1056200050214120FCF7B6FF0020E8490880812383
:10563000EF221946FBF7C4FF40F29E5040F23F13A1
:105640004F22822100900020FCF766F840F29E5025
:105650000021DFA21023CDE90021029002228C213B
:105660000520FCF72FFD0020D849088040F29E500D
:10567000DB490880DBA310228C214620FDF720F9AE
:1056800040F29E500021D8A21023CDE900210290C3
:105690000222AA210520FCF715FD0020CB49088035
:1056A00040F29E50CE490880CEA31022AA21462067
:1056B000FDF706F940F29E500021CFA21023CDE95C
:1056C000002102900222C8210520FCF7FBFC0020EB
:1056D000BE49088040F29E50C1490880C1A31022F3
:1056E000C8214620FDF7ECF840F29E500021C5A2EB
:1056F0001023CDE9002102900222E6210520FCF7CB
:10570000E1FC0020B149088040F29E50B449088075
:10571000B4A31022E6214620FDF7D2F840F29E50B5
:105720000021BCA21023CDE90021029002224FF4F7
:1057300082710520FCF7C6FC0020A449088040F2D5
:105740009E50A7490880A7A310224FF482714620DB
:10575000FDF7B6F840F29E500021B2A21023CDE929
:105760000021029002224FF491710520FCF7AAFC5F
:1057700000209649088040F29E509949088099A3DC
:1057800010224FF491714620FDF79AF810E14FF680
:10579000FF700021A7A21023CDE900210290022270
:1057A0006D215A20FCF78EFCFFF7A2F80446322048
:1057B00002F06AFC012C2CD94FF6FF7043F2C8317D
:1057C000A0A21023CDE90021029002226D215A20CF
:1057D000FCF778FC6D1C2046FAF713FF9D490290F8
:1057E000FAF7B8FD0390FAF72AFF07463A460B4648
:1057F00099A19B4801F088FE4FF6FF704FF60741D4
:105800001823974ACDE9001050214120FCF7C2FE31
:105810002AE0012C1CD14FF6FF704FF4784191A281
:105820001023CDE90021029002226D215A20FCF7BD
:1058300049FC4FF6FF704FF4784118238DA2CDE953
:10584000001050214120FCF7A5FE6D1C761C0BE0DA
:105850004FF6FF704FF47841182389A2CDE900106C
:1058600050214120FCF796FE0020584908804FF651
:10587000FF705B4908802A4684A1794801F044FE04
:10588000774B10228C215F20FDF71AF832467FA15A
:10589000734801F039FE724B1022AA215F20FDF7F8
:1058A0000FF8F5B12846FAF7ACFE0190A81BFAF7FD
:1058B000A8FE00900199FAF74DFD76490290FAF79B
:1058C00017FD0390FAF7BBFE07463A460B4672A156
:1058D000634801F019FE624B1022C8215F20FCF7DB
:1058E000EFFF012C06D9A81B401E0BFB0040A91B93
:1058F000B0FBF1FB5846FAF784FE80465549FAF7AB
:1059000029FD0746FAF79BFE02460B46CDE9020148
:1059100064A1534801F0F8FD514B1022E6215F20AD
:10592000FCF7CEFF544502D9012C00D9A2465046BF
:10593000FAF767FE47490290FAF70CFD0390FAF771
:105940007EFE07463A460B4656A1454801F0DCFD6F
:10595000434B10224FF482715F20FCF7B1FF4C459E
:1059600002D3B9F1000F02D1012C00D9A14648465B
:10597000FAF747FE37490290FAF7ECFC0390FAF782
:105980005EFE07463A460B4646A1354801F0BCFD8F
:10599000334B10224FF491715F20FCF791FFFFF71A
:1059A00035F8074600F086FC41F2883002F06CFBC7
:1059B000EDE60000E9A9BBE7BD91E697B6E997B42B
:1059C000000000002D2D2D2E2D2D2D000A09002068
:1059D000E6B58BE8AF95E6ACA1E695B00000000017
:1059E0000C0900203A000000E5A4B1E8B4A5E6AC3B
:1059F000A1E695B000000000E68890E58A9FE78E5A
:105A000087000000E5B9B3E59D87E697B6E995BF45
:105A100000000000E69C80E5A4A7E697B6E995BFE4
:105A200000000000E69C80E79FADE697B6E995BFD1
:105A300000000000E6ADA3E59CA8E9A9BBE7BD9185
:105A400000000000E9A9BBE7BD91E68890E58A9FC8
:105A50000000000000007A442530372E33667300C2
:105A6000C45C0020E9A9BBE7BD91E5A4B1E8B4A5F9
:105A70000000000074696D656F75742000000000FF
:105A8000626F6F746572722000000000252D35640E
:105A9000000000000000C842252D372E3266252563
:105AA00000000000252D372E336673001FB500253A
:105AB0000026AA46AB46A9464FF6FF7040F29E511B
:105AC000BFA21823CDE900210290002232214B20F1
:105AD000FCF7F8FA4FF6FF704FF607411823BCA207
